{
  "_format": "hh-sol-artifact-1",
  "contractName": "Forwarder",
  "sourceName": "@opengsn/contracts/src/forwarder/Forwarder.sol",
  "abi": [
    {
      "inputs": [],
      "stateMutability": "nonpayable",
      "type": "constructor"
    },
    {
      "anonymous": false,
      "inputs": [
        {
          "indexed": true,
          "internalType": "bytes32",
          "name": "domainSeparator",
          "type": "bytes32"
        },
        {
          "indexed": false,
          "internalType": "bytes",
          "name": "domainValue",
          "type": "bytes"
        }
      ],
      "name": "DomainRegistered",
      "type": "event"
    },
    {
      "anonymous": false,
      "inputs": [
        {
          "indexed": true,
          "internalType": "bytes32",
          "name": "typeHash",
          "type": "bytes32"
        },
        {
          "indexed": false,
          "internalType": "string",
          "name": "typeStr",
          "type": "string"
        }
      ],
      "name": "RequestTypeRegistered",
      "type": "event"
    },
    {
      "inputs": [],
      "name": "EIP712_DOMAIN_TYPE",
      "outputs": [
        {
          "internalType": "string",
          "name": "",
          "type": "string"
        }
      ],
      "stateMutability": "view",
      "type": "function"
    },
    {
      "inputs": [],
      "name": "GENERIC_PARAMS",
      "outputs": [
        {
          "internalType": "string",
          "name": "",
          "type": "string"
        }
      ],
      "stateMutability": "view",
      "type": "function"
    },
    {
      "inputs": [
        {
          "components": [
            {
              "internalType": "address",
              "name": "from",
              "type": "address"
            },
            {
              "internalType": "address",
              "name": "to",
              "type": "address"
            },
            {
              "internalType": "uint256",
              "name": "value",
              "type": "uint256"
            },
            {
              "internalType": "uint256",
              "name": "gas",
              "type": "uint256"
            },
            {
              "internalType": "uint256",
              "name": "nonce",
              "type": "uint256"
            },
            {
              "internalType": "bytes",
              "name": "data",
              "type": "bytes"
            },
            {
              "internalType": "uint256",
              "name": "validUntil",
              "type": "uint256"
            }
          ],
          "internalType": "struct IForwarder.ForwardRequest",
          "name": "req",
          "type": "tuple"
        },
        {
          "internalType": "bytes32",
          "name": "requestTypeHash",
          "type": "bytes32"
        },
        {
          "internalType": "bytes",
          "name": "suffixData",
          "type": "bytes"
        }
      ],
      "name": "_getEncoded",
      "outputs": [
        {
          "internalType": "bytes",
          "name": "",
          "type": "bytes"
        }
      ],
      "stateMutability": "pure",
      "type": "function"
    },
    {
      "inputs": [
        {
          "internalType": "bytes32",
          "name": "",
          "type": "bytes32"
        }
      ],
      "name": "domains",
      "outputs": [
        {
          "internalType": "bool",
          "name": "",
          "type": "bool"
        }
      ],
      "stateMutability": "view",
      "type": "function"
    },
    {
      "inputs": [
        {
          "components": [
            {
              "internalType": "address",
              "name": "from",
              "type": "address"
            },
            {
              "internalType": "address",
              "name": "to",
              "type": "address"
            },
            {
              "internalType": "uint256",
              "name": "value",
              "type": "uint256"
            },
            {
              "internalType": "uint256",
              "name": "gas",
              "type": "uint256"
            },
            {
              "internalType": "uint256",
              "name": "nonce",
              "type": "uint256"
            },
            {
              "internalType": "bytes",
              "name": "data",
              "type": "bytes"
            },
            {
              "internalType": "uint256",
              "name": "validUntil",
              "type": "uint256"
            }
          ],
          "internalType": "struct IForwarder.ForwardRequest",
          "name": "req",
          "type": "tuple"
        },
        {
          "internalType": "bytes32",
          "name": "domainSeparator",
          "type": "bytes32"
        },
        {
          "internalType": "bytes32",
          "name": "requestTypeHash",
          "type": "bytes32"
        },
        {
          "internalType": "bytes",
          "name": "suffixData",
          "type": "bytes"
        },
        {
          "internalType": "bytes",
          "name": "sig",
          "type": "bytes"
        }
      ],
      "name": "execute",
      "outputs": [
        {
          "internalType": "bool",
          "name": "success",
          "type": "bool"
        },
        {
          "internalType": "bytes",
          "name": "ret",
          "type": "bytes"
        }
      ],
      "stateMutability": "payable",
      "type": "function"
    },
    {
      "inputs": [
        {
          "internalType": "address",
          "name": "from",
          "type": "address"
        }
      ],
      "name": "getNonce",
      "outputs": [
        {
          "internalType": "uint256",
          "name": "",
          "type": "uint256"
        }
      ],
      "stateMutability": "view",
      "type": "function"
    },
    {
      "inputs": [
        {
          "internalType": "string",
          "name": "name",
          "type": "string"
        },
        {
          "internalType": "string",
          "name": "version",
          "type": "string"
        }
      ],
      "name": "registerDomainSeparator",
      "outputs": [],
      "stateMutability": "nonpayable",
      "type": "function"
    },
    {
      "inputs": [
        {
          "internalType": "string",
          "name": "typeName",
          "type": "string"
        },
        {
          "internalType": "string",
          "name": "typeSuffix",
          "type": "string"
        }
      ],
      "name": "registerRequestType",
      "outputs": [],
      "stateMutability": "nonpayable",
      "type": "function"
    },
    {
      "inputs": [
        {
          "internalType": "bytes32",
          "name": "",
          "type": "bytes32"
        }
      ],
      "name": "typeHashes",
      "outputs": [
        {
          "internalType": "bool",
          "name": "",
          "type": "bool"
        }
      ],
      "stateMutability": "view",
      "type": "function"
    },
    {
      "inputs": [
        {
          "components": [
            {
              "internalType": "address",
              "name": "from",
              "type": "address"
            },
            {
              "internalType": "address",
              "name": "to",
              "type": "address"
            },
            {
              "internalType": "uint256",
              "name": "value",
              "type": "uint256"
            },
            {
              "internalType": "uint256",
              "name": "gas",
              "type": "uint256"
            },
            {
              "internalType": "uint256",
              "name": "nonce",
              "type": "uint256"
            },
            {
              "internalType": "bytes",
              "name": "data",
              "type": "bytes"
            },
            {
              "internalType": "uint256",
              "name": "validUntil",
              "type": "uint256"
            }
          ],
          "internalType": "struct IForwarder.ForwardRequest",
          "name": "req",
          "type": "tuple"
        },
        {
          "internalType": "bytes32",
          "name": "domainSeparator",
          "type": "bytes32"
        },
        {
          "internalType": "bytes32",
          "name": "requestTypeHash",
          "type": "bytes32"
        },
        {
          "internalType": "bytes",
          "name": "suffixData",
          "type": "bytes"
        },
        {
          "internalType": "bytes",
          "name": "sig",
          "type": "bytes"
        }
      ],
      "name": "verify",
      "outputs": [],
      "stateMutability": "view",
      "type": "function"
    },
    {
      "stateMutability": "payable",
      "type": "receive"
    }
  ],
  "bytecode": "0x60806040523480156200001157600080fd5b5060006040518060800160405280605d815260200162002562605d9139604051602001620000409190620001da565b604051602081830303815290604052905062000062816200006960201b60201c565b506200029f565b600081805190602001209050600160008083815260200190815260200160002060006101000a81548160ff021916908315150217905550807f64d6bce64323458c44643c51fe45113efc882082f7b7fd5f09f0d69d2eedb20283604051620000d291906200020d565b60405180910390a25050565b6000620000eb8262000231565b620000f781856200023c565b93506200010981856020860162000258565b62000114816200028e565b840191505092915050565b60006200012c8262000231565b6200013881856200024d565b93506200014a81856020860162000258565b80840191505092915050565b600062000165600f836200024d565b91507f466f7277617264526571756573742800000000000000000000000000000000006000830152600f82019050919050565b6000620001a76001836200024d565b91507f29000000000000000000000000000000000000000000000000000000000000006000830152600182019050919050565b6000620001e78262000156565b9150620001f582846200011f565b9150620002028262000198565b915081905092915050565b60006020820190508181036000830152620002298184620000de565b905092915050565b600081519050919050565b600082825260208201905092915050565b600081905092915050565b60005b83811015620002785780820151818401526020810190506200025b565b8381111562000288576000848401525b50505050565b6000601f19601f8301169050919050565b6122b380620002af6000396000f3fe6080604052600436106100955760003560e01c8063c3f28abd11610059578063c3f28abd14610198578063c722f177146101c3578063d9210be514610200578063e024dc7f14610229578063e2b62f2d1461025a5761009c565b8063066a310c146100a157806321fe98df146100cc5780632d0335ab146101095780639c7b459214610146578063ad9f99c71461016f5761009c565b3661009c57005b600080fd5b3480156100ad57600080fd5b506100b6610297565b6040516100c39190611cdf565b60405180910390f35b3480156100d857600080fd5b506100f360048036038101906100ee91906112f9565b6102b3565b6040516101009190611bda565b60405180910390f35b34801561011557600080fd5b50610130600480360381019061012b91906112d0565b6102d3565b60405161013d9190611e61565b60405180910390f35b34801561015257600080fd5b5061016d60048036038101906101689190611322565b61031c565b005b34801561017b57600080fd5b5061019660048036038101906101919190611397565b610412565b005b3480156101a457600080fd5b506101ad610433565b6040516101ba9190611cdf565b60405180910390f35b3480156101cf57600080fd5b506101ea60048036038101906101e591906112f9565b61044f565b6040516101f79190611bda565b60405180910390f35b34801561020c57600080fd5b5061022760048036038101906102229190611322565b61046f565b005b610243600480360381019061023e9190611397565b610600565b604051610251929190611bf5565b60405180910390f35b34801561026657600080fd5b50610281600480360381019061027c919061145f565b610845565b60405161028e9190611cbd565b60405180910390f35b6040518060800160405280605d81526020016121cf605d913981565b60006020528060005260406000206000915054906101000a900460ff1681565b6000600260008373ffffffffffffffffffffffffffffffffffffffff1673ffffffffffffffffffffffffffffffffffffffff168152602001908152602001600020549050919050565b6000469050600060405180608001604052806052815260200161222c60529139805190602001208686604051610353929190611afe565b6040518091039020858560405161036b929190611afe565b60405180910390208430604051602001610389959493929190611c25565b6040516020818303038152906040529050600081805190602001209050600180600083815260200190815260200160002060006101000a81548160ff021916908315150217905550807f4bc68689cbe89a4a6333a3ab0a70093874da3e5bfb71e93102027f3f073687d8836040516104019190611cbd565b60405180910390a250505050505050565b61041b87610908565b61042a878787878787876109a2565b50505050505050565b60405180608001604052806052815260200161222c6052913981565b60016020528060005260406000206000915054906101000a900460ff1681565b60005b848490508110156105ab5760008585838181106104b8577f4e487b7100000000000000000000000000000000000000000000000000000000600052603260045260246000fd5b9050013560f81c60f81b90507f2800000000000000000000000000000000000000000000000000000000000000817effffffffffffffffffffffffffffffffffffffffffffffffffffffffffffff19161415801561055857507f2900000000000000000000000000000000000000000000000000000000000000817effffffffffffffffffffffffffffffffffffffffffffffffffffffffffffff191614155b610597576040517f08c379a000000000000000000000000000000000000000000000000000000000815260040161058e90611e21565b60405180910390fd5b5080806105a3906120a3565b915050610472565b50600084846040518060800160405280605d81526020016121cf605d913985856040516020016105df959493929190611b58565b60405160208183030381529060405290506105f981610b80565b5050505050565b60006060610613898989898989896109a2565b61061c89610bf3565b60008960c0013514806106325750438960c00135115b610671576040517f08c379a000000000000000000000000000000000000000000000000000000000815260040161066890611de1565b60405180910390fd5b6000808a604001351461068457619c4090505b60008a8060a001906106969190611e7c565b8c60000160208101906106a991906112d0565b6040516020016106bb93929190611b17565b6040516020818303038152906040529050818b606001356106dc9190611f21565b6040603f5a6106eb9190611fa8565b6106f59190611f77565b1015610736576040517f08c379a000000000000000000000000000000000000000000000000000000000815260040161072d90611dc1565b60405180910390fd5b8a602001602081019061074991906112d0565b73ffffffffffffffffffffffffffffffffffffffff168b606001358c60400135836040516107779190611b41565b600060405180830381858888f193505050503d80600081146107b5576040519150601f19603f3d011682016040523d82523d6000602084013e6107ba565b606091505b50809450819550505060008b60400135141580156107d85750600047115b15610837578a60000160208101906107f091906112d0565b73ffffffffffffffffffffffffffffffffffffffff166108fc479081150290604051600060405180830381858888f19350505050158015610835573d6000803e3d6000fd5b505b505097509795505050505050565b60608385600001602081019061085b91906112d0565b73ffffffffffffffffffffffffffffffffffffffff1686602001602081019061088491906112d0565b73ffffffffffffffffffffffffffffffffffffffff168760400135886060013589608001358a8060a001906108b99190611e7c565b6040516108c7929190611afe565b60405180910390208b60c001358a8a6040516020016108ef9a99989796959493929190611a5d565b6040516020818303038152906040529050949350505050565b80608001356002600083600001602081019061092491906112d0565b73ffffffffffffffffffffffffffffffffffffffff1673ffffffffffffffffffffffffffffffffffffffff168152602001908152602001600020541461099f576040517f08c379a000000000000000000000000000000000000000000000000000000000815260040161099690611da1565b60405180910390fd5b50565b6001600087815260200190815260200160002060009054906101000a900460ff16610a02576040517f08c379a00000000000000000000000000000000000000000000000000000000081526004016109f990611e01565b60405180910390fd5b60008086815260200190815260200160002060009054906101000a900460ff16610a61576040517f08c379a0000000000000000000000000000000000000000000000000000000008152600401610a5890611e41565b60405180910390fd5b600086610a7089888888610845565b80519060200120604051602001610a88929190611ba3565b604051602081830303815290604052805190602001209050876000016020810190610ab391906112d0565b73ffffffffffffffffffffffffffffffffffffffff16610b2084848080601f016020809104026020016040519081016040528093929190818152602001838380828437600081840152601f19601f8201169050808301925050505050505083610ca190919063ffffffff16565b73ffffffffffffffffffffffffffffffffffffffff1614610b76576040517f08c379a0000000000000000000000000000000000000000000000000000000008152600401610b6d90611d81565b60405180910390fd5b5050505050505050565b600081805190602001209050600160008083815260200190815260200160002060006101000a81548160ff021916908315150217905550807f64d6bce64323458c44643c51fe45113efc882082f7b7fd5f09f0d69d2eedb20283604051610be79190611cdf565b60405180910390a25050565b806080013560026000836000016020810190610c0f91906112d0565b73ffffffffffffffffffffffffffffffffffffffff1673ffffffffffffffffffffffffffffffffffffffff1681526020019081526020016000206000815480929190610c5a906120a3565b9190505514610c9e576040517f08c379a0000000000000000000000000000000000000000000000000000000008152600401610c9590611da1565b60405180910390fd5b50565b6000806000610cb08585610cc8565b91509150610cbd81610d4b565b819250505092915050565b600080604183511415610d0a5760008060006020860151925060408601519150606086015160001a9050610cfe8782858561109c565b94509450505050610d44565b604083511415610d3b576000806020850151915060408501519050610d308683836111a9565b935093505050610d44565b60006002915091505b9250929050565b60006004811115610d85577f4e487b7100000000000000000000000000000000000000000000000000000000600052602160045260246000fd5b816004811115610dbe577f4e487b7100000000000000000000000000000000000000000000000000000000600052602160045260246000fd5b1415610dc957611099565b60016004811115610e03577f4e487b7100000000000000000000000000000000000000000000000000000000600052602160045260246000fd5b816004811115610e3c577f4e487b7100000000000000000000000000000000000000000000000000000000600052602160045260246000fd5b1415610e7d576040517f08c379a0000000000000000000000000000000000000000000000000000000008152600401610e7490611d01565b60405180910390fd5b60026004811115610eb7577f4e487b7100000000000000000000000000000000000000000000000000000000600052602160045260246000fd5b816004811115610ef0577f4e487b7100000000000000000000000000000000000000000000000000000000600052602160045260246000fd5b1415610f31576040517f08c379a0000000000000000000000000000000000000000000000000000000008152600401610f2890611d21565b60405180910390fd5b60036004811115610f6b577f4e487b7100000000000000000000000000000000000000000000000000000000600052602160045260246000fd5b816004811115610fa4577f4e487b7100000000000000000000000000000000000000000000000000000000600052602160045260246000fd5b1415610fe5576040517f08c379a0000000000000000000000000000000000000000000000000000000008152600401610fdc90611d41565b60405180910390fd5b60048081111561101e577f4e487b7100000000000000000000000000000000000000000000000000000000600052602160045260246000fd5b816004811115611057577f4e487b7100000000000000000000000000000000000000000000000000000000600052602160045260246000fd5b1415611098576040517f08c379a000000000000000000000000000000000000000000000000000000000815260040161108f90611d61565b60405180910390fd5b5b50565b6000807f7fffffffffffffffffffffffffffffff5d576e7357a4501ddfe92f46681b20a08360001c11156110d75760006003915091506111a0565b601b8560ff16141580156110ef5750601c8560ff1614155b156111015760006004915091506111a0565b6000600187878787604051600081526020016040526040516111269493929190611c78565b6020604051602081039080840390855afa158015611148573d6000803e3d6000fd5b505050602060405103519050600073ffffffffffffffffffffffffffffffffffffffff168173ffffffffffffffffffffffffffffffffffffffff161415611197576000600192509250506111a0565b80600092509250505b94509492505050565b6000806000807f7fffffffffffffffffffffffffffffffffffffffffffffffffffffffffffffff85169150601b8560ff1c0190506111e98782888561109c565b935093505050935093915050565b600081359050611206816121a0565b92915050565b60008135905061121b816121b7565b92915050565b60008083601f84011261123357600080fd5b8235905067ffffffffffffffff81111561124c57600080fd5b60208301915083600182028301111561126457600080fd5b9250929050565b60008083601f84011261127d57600080fd5b8235905067ffffffffffffffff81111561129657600080fd5b6020830191508360018202830111156112ae57600080fd5b9250929050565b600060e082840312156112c757600080fd5b81905092915050565b6000602082840312156112e257600080fd5b60006112f0848285016111f7565b91505092915050565b60006020828403121561130b57600080fd5b60006113198482850161120c565b91505092915050565b6000806000806040858703121561133857600080fd5b600085013567ffffffffffffffff81111561135257600080fd5b61135e8782880161126b565b9450945050602085013567ffffffffffffffff81111561137d57600080fd5b6113898782880161126b565b925092505092959194509250565b600080600080600080600060a0888a0312156113b257600080fd5b600088013567ffffffffffffffff8111156113cc57600080fd5b6113d88a828b016112b5565b97505060206113e98a828b0161120c565b96505060406113fa8a828b0161120c565b955050606088013567ffffffffffffffff81111561141757600080fd5b6114238a828b01611221565b9450945050608088013567ffffffffffffffff81111561144257600080fd5b61144e8a828b01611221565b925092505092959891949750929550565b6000806000806060858703121561147557600080fd5b600085013567ffffffffffffffff81111561148f57600080fd5b61149b878288016112b5565b94505060206114ac8782880161120c565b935050604085013567ffffffffffffffff8111156114c957600080fd5b6114d587828801611221565b925092505092959194509250565b6114ec81612002565b82525050565b6115036114fe82612002565b6120ec565b82525050565b61151281612014565b82525050565b61152181612020565b82525050565b61153861153382612020565b6120fe565b82525050565b600061154a8385611efa565b9350611557838584612061565b82840190509392505050565b600061156e82611ed3565b6115788185611ee9565b9350611588818560208601612070565b61159181612182565b840191505092915050565b60006115a782611ed3565b6115b18185611efa565b93506115c1818560208601612070565b80840191505092915050565b60006115d98385611f16565b93506115e6838584612061565b82840190509392505050565b60006115fd82611ede565b6116078185611f05565b9350611617818560208601612070565b61162081612182565b840191505092915050565b600061163682611ede565b6116408185611f16565b9350611650818560208601612070565b80840191505092915050565b6000611669601883611f05565b91507f45434453413a20696e76616c6964207369676e617475726500000000000000006000830152602082019050919050565b60006116a9601f83611f05565b91507f45434453413a20696e76616c6964207369676e6174757265206c656e677468006000830152602082019050919050565b60006116e9600283611f16565b91507f19010000000000000000000000000000000000000000000000000000000000006000830152600282019050919050565b6000611729600183611f16565b91507f2c000000000000000000000000000000000000000000000000000000000000006000830152600182019050919050565b6000611769600183611f16565b91507f28000000000000000000000000000000000000000000000000000000000000006000830152600182019050919050565b60006117a9602283611f05565b91507f45434453413a20696e76616c6964207369676e6174757265202773272076616c60008301527f75650000000000000000000000000000000000000000000000000000000000006020830152604082019050919050565b600061180f602283611f05565b91507f45434453413a20696e76616c6964207369676e6174757265202776272076616c60008301527f75650000000000000000000000000000000000000000000000000000000000006020830152604082019050919050565b6000611875601783611f05565b91507f4657443a207369676e6174757265206d69736d617463680000000000000000006000830152602082019050919050565b60006118b5601383611f05565b91507f4657443a206e6f6e6365206d69736d61746368000000000000000000000000006000830152602082019050919050565b60006118f5601583611f05565b91507f4657443a20696e73756666696369656e742067617300000000000000000000006000830152602082019050919050565b6000611935601483611f05565b91507f4657443a207265717565737420657870697265640000000000000000000000006000830152602082019050919050565b6000611975601d83611f05565b91507f4657443a20756e7265676973746572656420646f6d61696e207365702e0000006000830152602082019050919050565b60006119b5601583611f05565b91507f4657443a20696e76616c696420747970656e616d6500000000000000000000006000830152602082019050919050565b60006119f5601a83611f05565b91507f4657443a20756e726567697374657265642074797065686173680000000000006000830152602082019050919050565b611a318161204a565b82525050565b611a48611a438261204a565b61211a565b82525050565b611a5781612054565b82525050565b6000611a69828d611527565b602082019150611a79828c611a37565b602082019150611a89828b611a37565b602082019150611a99828a611a37565b602082019150611aa98289611a37565b602082019150611ab98288611a37565b602082019150611ac98287611527565b602082019150611ad98286611a37565b602082019150611aea82848661153e565b91508190509b9a5050505050505050505050565b6000611b0b82848661153e565b91508190509392505050565b6000611b2482858761153e565b9150611b3082846114f2565b601482019150819050949350505050565b6000611b4d828461159c565b915081905092915050565b6000611b658287896115cd565b9150611b708261175c565b9150611b7c828661162b565b9150611b878261171c565b9150611b948284866115cd565b91508190509695505050505050565b6000611bae826116dc565b9150611bba8285611527565b602082019150611bca8284611527565b6020820191508190509392505050565b6000602082019050611bef6000830184611509565b92915050565b6000604082019050611c0a6000830185611509565b8181036020830152611c1c8184611563565b90509392505050565b600060a082019050611c3a6000830188611518565b611c476020830187611518565b611c546040830186611518565b611c616060830185611a28565b611c6e60808301846114e3565b9695505050505050565b6000608082019050611c8d6000830187611518565b611c9a6020830186611a4e565b611ca76040830185611518565b611cb46060830184611518565b95945050505050565b60006020820190508181036000830152611cd78184611563565b905092915050565b60006020820190508181036000830152611cf981846115f2565b905092915050565b60006020820190508181036000830152611d1a8161165c565b9050919050565b60006020820190508181036000830152611d3a8161169c565b9050919050565b60006020820190508181036000830152611d5a8161179c565b9050919050565b60006020820190508181036000830152611d7a81611802565b9050919050565b60006020820190508181036000830152611d9a81611868565b9050919050565b60006020820190508181036000830152611dba816118a8565b9050919050565b60006020820190508181036000830152611dda816118e8565b9050919050565b60006020820190508181036000830152611dfa81611928565b9050919050565b60006020820190508181036000830152611e1a81611968565b9050919050565b60006020820190508181036000830152611e3a816119a8565b9050919050565b60006020820190508181036000830152611e5a816119e8565b9050919050565b6000602082019050611e766000830184611a28565b92915050565b60008083356001602003843603038112611e9557600080fd5b80840192508235915067ffffffffffffffff821115611eb357600080fd5b602083019250600182023603831315611ecb57600080fd5b509250929050565b600081519050919050565b600081519050919050565b600082825260208201905092915050565b600081905092915050565b600082825260208201905092915050565b600081905092915050565b6000611f2c8261204a565b9150611f378361204a565b9250827fffffffffffffffffffffffffffffffffffffffffffffffffffffffffffffffff03821115611f6c57611f6b612124565b5b828201905092915050565b6000611f828261204a565b9150611f8d8361204a565b925082611f9d57611f9c612153565b5b828204905092915050565b6000611fb38261204a565b9150611fbe8361204a565b9250817fffffffffffffffffffffffffffffffffffffffffffffffffffffffffffffffff0483118215151615611ff757611ff6612124565b5b828202905092915050565b600061200d8261202a565b9050919050565b60008115159050919050565b6000819050919050565b600073ffffffffffffffffffffffffffffffffffffffff82169050919050565b6000819050919050565b600060ff82169050919050565b82818337600083830152505050565b60005b8381101561208e578082015181840152602081019050612073565b8381111561209d576000848401525b50505050565b60006120ae8261204a565b91507fffffffffffffffffffffffffffffffffffffffffffffffffffffffffffffffff8214156120e1576120e0612124565b5b600182019050919050565b60006120f782612108565b9050919050565b6000819050919050565b600061211382612193565b9050919050565b6000819050919050565b7f4e487b7100000000000000000000000000000000000000000000000000000000600052601160045260246000fd5b7f4e487b7100000000000000000000000000000000000000000000000000000000600052601260045260246000fd5b6000601f19601f8301169050919050565b60008160601b9050919050565b6121a981612002565b81146121b457600080fd5b50565b6121c081612020565b81146121cb57600080fd5b5056fe616464726573732066726f6d2c6164647265737320746f2c75696e743235362076616c75652c75696e74323536206761732c75696e74323536206e6f6e63652c627974657320646174612c75696e743235362076616c6964556e74696c454950373132446f6d61696e28737472696e67206e616d652c737472696e672076657273696f6e2c75696e7432353620636861696e49642c6164647265737320766572696679696e67436f6e747261637429a2646970667358221220ba1b637a87cdd986a1ece58af07f3cbd70a61b43f14e5d8fbbffd5bebeba086c64736f6c63430008000033616464726573732066726f6d2c6164647265737320746f2c75696e743235362076616c75652c75696e74323536206761732c75696e74323536206e6f6e63652c627974657320646174612c75696e743235362076616c6964556e74696c",
  "linkReferences": {},
  "deployedLinkReferences": {}
}