{
  "_format": "hh-sol-artifact-1",
  "contractName": "RelayHub",
  "sourceName": "@opengsn/contracts/src/RelayHub.sol",
  "abi": [
    {
      "inputs": [
        {
          "internalType": "contract IStakeManager",
          "name": "_stakeManager",
          "type": "address"
        },
        {
          "internalType": "address",
          "name": "_penalizer",
          "type": "address"
        },
        {
          "internalType": "uint256",
          "name": "_maxWorkerCount",
          "type": "uint256"
        },
        {
          "internalType": "uint256",
          "name": "_gasReserve",
          "type": "uint256"
        },
        {
          "internalType": "uint256",
          "name": "_postOverhead",
          "type": "uint256"
        },
        {
          "internalType": "uint256",
          "name": "_gasOverhead",
          "type": "uint256"
        },
        {
          "internalType": "uint256",
          "name": "_maximumRecipientDeposit",
          "type": "uint256"
        },
        {
          "internalType": "uint256",
          "name": "_minimumUnstakeDelay",
          "type": "uint256"
        },
        {
          "internalType": "uint256",
          "name": "_minimumStake",
          "type": "uint256"
        },
        {
          "internalType": "uint256",
          "name": "_dataGasCostPerByte",
          "type": "uint256"
        },
        {
          "internalType": "uint256",
          "name": "_externalCallDataCostOverhead",
          "type": "uint256"
        }
      ],
      "stateMutability": "nonpayable",
      "type": "constructor"
    },
    {
      "anonymous": false,
      "inputs": [
        {
          "indexed": true,
          "internalType": "address",
          "name": "paymaster",
          "type": "address"
        },
        {
          "indexed": true,
          "internalType": "address",
          "name": "from",
          "type": "address"
        },
        {
          "indexed": false,
          "internalType": "uint256",
          "name": "amount",
          "type": "uint256"
        }
      ],
      "name": "Deposited",
      "type": "event"
    },
    {
      "anonymous": false,
      "inputs": [
        {
          "indexed": false,
          "internalType": "uint256",
          "name": "fromBlock",
          "type": "uint256"
        }
      ],
      "name": "HubDeprecated",
      "type": "event"
    },
    {
      "anonymous": false,
      "inputs": [
        {
          "indexed": true,
          "internalType": "address",
          "name": "previousOwner",
          "type": "address"
        },
        {
          "indexed": true,
          "internalType": "address",
          "name": "newOwner",
          "type": "address"
        }
      ],
      "name": "OwnershipTransferred",
      "type": "event"
    },
    {
      "anonymous": false,
      "inputs": [
        {
          "components": [
            {
              "internalType": "uint256",
              "name": "maxWorkerCount",
              "type": "uint256"
            },
            {
              "internalType": "uint256",
              "name": "gasReserve",
              "type": "uint256"
            },
            {
              "internalType": "uint256",
              "name": "postOverhead",
              "type": "uint256"
            },
            {
              "internalType": "uint256",
              "name": "gasOverhead",
              "type": "uint256"
            },
            {
              "internalType": "uint256",
              "name": "maximumRecipientDeposit",
              "type": "uint256"
            },
            {
              "internalType": "uint256",
              "name": "minimumUnstakeDelay",
              "type": "uint256"
            },
            {
              "internalType": "uint256",
              "name": "minimumStake",
              "type": "uint256"
            },
            {
              "internalType": "uint256",
              "name": "dataGasCostPerByte",
              "type": "uint256"
            },
            {
              "internalType": "uint256",
              "name": "externalCallDataCostOverhead",
              "type": "uint256"
            }
          ],
          "indexed": false,
          "internalType": "struct IRelayHub.RelayHubConfig",
          "name": "config",
          "type": "tuple"
        }
      ],
      "name": "RelayHubConfigured",
      "type": "event"
    },
    {
      "anonymous": false,
      "inputs": [
        {
          "indexed": true,
          "internalType": "address",
          "name": "relayManager",
          "type": "address"
        },
        {
          "indexed": false,
          "internalType": "uint256",
          "name": "baseRelayFee",
          "type": "uint256"
        },
        {
          "indexed": false,
          "internalType": "uint256",
          "name": "pctRelayFee",
          "type": "uint256"
        },
        {
          "indexed": false,
          "internalType": "string",
          "name": "relayUrl",
          "type": "string"
        }
      ],
      "name": "RelayServerRegistered",
      "type": "event"
    },
    {
      "anonymous": false,
      "inputs": [
        {
          "indexed": true,
          "internalType": "address",
          "name": "relayManager",
          "type": "address"
        },
        {
          "indexed": false,
          "internalType": "address[]",
          "name": "newRelayWorkers",
          "type": "address[]"
        },
        {
          "indexed": false,
          "internalType": "uint256",
          "name": "workersCount",
          "type": "uint256"
        }
      ],
      "name": "RelayWorkersAdded",
      "type": "event"
    },
    {
      "anonymous": false,
      "inputs": [
        {
          "indexed": true,
          "internalType": "address",
          "name": "relayManager",
          "type": "address"
        },
        {
          "indexed": true,
          "internalType": "address",
          "name": "paymaster",
          "type": "address"
        },
        {
          "indexed": true,
          "internalType": "address",
          "name": "from",
          "type": "address"
        },
        {
          "indexed": false,
          "internalType": "address",
          "name": "to",
          "type": "address"
        },
        {
          "indexed": false,
          "internalType": "address",
          "name": "relayWorker",
          "type": "address"
        },
        {
          "indexed": false,
          "internalType": "bytes4",
          "name": "selector",
          "type": "bytes4"
        },
        {
          "indexed": false,
          "internalType": "uint256",
          "name": "innerGasUsed",
          "type": "uint256"
        },
        {
          "indexed": false,
          "internalType": "bytes",
          "name": "reason",
          "type": "bytes"
        }
      ],
      "name": "TransactionRejectedByPaymaster",
      "type": "event"
    },
    {
      "anonymous": false,
      "inputs": [
        {
          "indexed": true,
          "internalType": "address",
          "name": "relayManager",
          "type": "address"
        },
        {
          "indexed": true,
          "internalType": "address",
          "name": "relayWorker",
          "type": "address"
        },
        {
          "indexed": true,
          "internalType": "address",
          "name": "from",
          "type": "address"
        },
        {
          "indexed": false,
          "internalType": "address",
          "name": "to",
          "type": "address"
        },
        {
          "indexed": false,
          "internalType": "address",
          "name": "paymaster",
          "type": "address"
        },
        {
          "indexed": false,
          "internalType": "bytes4",
          "name": "selector",
          "type": "bytes4"
        },
        {
          "indexed": false,
          "internalType": "enum IRelayHub.RelayCallStatus",
          "name": "status",
          "type": "uint8"
        },
        {
          "indexed": false,
          "internalType": "uint256",
          "name": "charge",
          "type": "uint256"
        }
      ],
      "name": "TransactionRelayed",
      "type": "event"
    },
    {
      "anonymous": false,
      "inputs": [
        {
          "indexed": false,
          "internalType": "enum IRelayHub.RelayCallStatus",
          "name": "status",
          "type": "uint8"
        },
        {
          "indexed": false,
          "internalType": "bytes",
          "name": "returnValue",
          "type": "bytes"
        }
      ],
      "name": "TransactionResult",
      "type": "event"
    },
    {
      "anonymous": false,
      "inputs": [
        {
          "indexed": true,
          "internalType": "address",
          "name": "account",
          "type": "address"
        },
        {
          "indexed": true,
          "internalType": "address",
          "name": "dest",
          "type": "address"
        },
        {
          "indexed": false,
          "internalType": "uint256",
          "name": "amount",
          "type": "uint256"
        }
      ],
      "name": "Withdrawn",
      "type": "event"
    },
    {
      "inputs": [],
      "name": "G_NONZERO",
      "outputs": [
        {
          "internalType": "uint256",
          "name": "",
          "type": "uint256"
        }
      ],
      "stateMutability": "view",
      "type": "function"
    },
    {
      "inputs": [
        {
          "internalType": "address[]",
          "name": "newRelayWorkers",
          "type": "address[]"
        }
      ],
      "name": "addRelayWorkers",
      "outputs": [],
      "stateMutability": "nonpayable",
      "type": "function"
    },
    {
      "inputs": [
        {
          "internalType": "address",
          "name": "target",
          "type": "address"
        }
      ],
      "name": "balanceOf",
      "outputs": [
        {
          "internalType": "uint256",
          "name": "",
          "type": "uint256"
        }
      ],
      "stateMutability": "view",
      "type": "function"
    },
    {
      "inputs": [
        {
          "internalType": "uint256",
          "name": "gasUsed",
          "type": "uint256"
        },
        {
          "components": [
            {
              "internalType": "uint256",
              "name": "gasPrice",
              "type": "uint256"
            },
            {
              "internalType": "uint256",
              "name": "pctRelayFee",
              "type": "uint256"
            },
            {
              "internalType": "uint256",
              "name": "baseRelayFee",
              "type": "uint256"
            },
            {
              "internalType": "address",
              "name": "relayWorker",
              "type": "address"
            },
            {
              "internalType": "address",
              "name": "paymaster",
              "type": "address"
            },
            {
              "internalType": "address",
              "name": "forwarder",
              "type": "address"
            },
            {
              "internalType": "bytes",
              "name": "paymasterData",
              "type": "bytes"
            },
            {
              "internalType": "uint256",
              "name": "clientId",
              "type": "uint256"
            }
          ],
          "internalType": "struct GsnTypes.RelayData",
          "name": "relayData",
          "type": "tuple"
        }
      ],
      "name": "calculateCharge",
      "outputs": [
        {
          "internalType": "uint256",
          "name": "",
          "type": "uint256"
        }
      ],
      "stateMutability": "view",
      "type": "function"
    },
    {
      "inputs": [
        {
          "internalType": "uint256",
          "name": "length",
          "type": "uint256"
        }
      ],
      "name": "calldataGasCost",
      "outputs": [
        {
          "internalType": "uint256",
          "name": "",
          "type": "uint256"
        }
      ],
      "stateMutability": "view",
      "type": "function"
    },
    {
      "inputs": [
        {
          "internalType": "address",
          "name": "target",
          "type": "address"
        }
      ],
      "name": "depositFor",
      "outputs": [],
      "stateMutability": "payable",
      "type": "function"
    },
    {
      "inputs": [
        {
          "internalType": "uint256",
          "name": "fromBlock",
          "type": "uint256"
        }
      ],
      "name": "deprecateHub",
      "outputs": [],
      "stateMutability": "nonpayable",
      "type": "function"
    },
    {
      "inputs": [],
      "name": "deprecationBlock",
      "outputs": [
        {
          "internalType": "uint256",
          "name": "",
          "type": "uint256"
        }
      ],
      "stateMutability": "view",
      "type": "function"
    },
    {
      "inputs": [],
      "name": "getConfiguration",
      "outputs": [
        {
          "components": [
            {
              "internalType": "uint256",
              "name": "maxWorkerCount",
              "type": "uint256"
            },
            {
              "internalType": "uint256",
              "name": "gasReserve",
              "type": "uint256"
            },
            {
              "internalType": "uint256",
              "name": "postOverhead",
              "type": "uint256"
            },
            {
              "internalType": "uint256",
              "name": "gasOverhead",
              "type": "uint256"
            },
            {
              "internalType": "uint256",
              "name": "maximumRecipientDeposit",
              "type": "uint256"
            },
            {
              "internalType": "uint256",
              "name": "minimumUnstakeDelay",
              "type": "uint256"
            },
            {
              "internalType": "uint256",
              "name": "minimumStake",
              "type": "uint256"
            },
            {
              "internalType": "uint256",
              "name": "dataGasCostPerByte",
              "type": "uint256"
            },
            {
              "internalType": "uint256",
              "name": "externalCallDataCostOverhead",
              "type": "uint256"
            }
          ],
          "internalType": "struct IRelayHub.RelayHubConfig",
          "name": "",
          "type": "tuple"
        }
      ],
      "stateMutability": "view",
      "type": "function"
    },
    {
      "inputs": [
        {
          "components": [
            {
              "components": [
                {
                  "internalType": "address",
                  "name": "from",
                  "type": "address"
                },
                {
                  "internalType": "address",
                  "name": "to",
                  "type": "address"
                },
                {
                  "internalType": "uint256",
                  "name": "value",
                  "type": "uint256"
                },
                {
                  "internalType": "uint256",
                  "name": "gas",
                  "type": "uint256"
                },
                {
                  "internalType": "uint256",
                  "name": "nonce",
                  "type": "uint256"
                },
                {
                  "internalType": "bytes",
                  "name": "data",
                  "type": "bytes"
                },
                {
                  "internalType": "uint256",
                  "name": "validUntil",
                  "type": "uint256"
                }
              ],
              "internalType": "struct IForwarder.ForwardRequest",
              "name": "request",
              "type": "tuple"
            },
            {
              "components": [
                {
                  "internalType": "uint256",
                  "name": "gasPrice",
                  "type": "uint256"
                },
                {
                  "internalType": "uint256",
                  "name": "pctRelayFee",
                  "type": "uint256"
                },
                {
                  "internalType": "uint256",
                  "name": "baseRelayFee",
                  "type": "uint256"
                },
                {
                  "internalType": "address",
                  "name": "relayWorker",
                  "type": "address"
                },
                {
                  "internalType": "address",
                  "name": "paymaster",
                  "type": "address"
                },
                {
                  "internalType": "address",
                  "name": "forwarder",
                  "type": "address"
                },
                {
                  "internalType": "bytes",
                  "name": "paymasterData",
                  "type": "bytes"
                },
                {
                  "internalType": "uint256",
                  "name": "clientId",
                  "type": "uint256"
                }
              ],
              "internalType": "struct GsnTypes.RelayData",
              "name": "relayData",
              "type": "tuple"
            }
          ],
          "internalType": "struct GsnTypes.RelayRequest",
          "name": "relayRequest",
          "type": "tuple"
        },
        {
          "internalType": "bytes",
          "name": "signature",
          "type": "bytes"
        },
        {
          "internalType": "bytes",
          "name": "approvalData",
          "type": "bytes"
        },
        {
          "components": [
            {
              "internalType": "uint256",
              "name": "acceptanceBudget",
              "type": "uint256"
            },
            {
              "internalType": "uint256",
              "name": "preRelayedCallGasLimit",
              "type": "uint256"
            },
            {
              "internalType": "uint256",
              "name": "postRelayedCallGasLimit",
              "type": "uint256"
            },
            {
              "internalType": "uint256",
              "name": "calldataSizeLimit",
              "type": "uint256"
            }
          ],
          "internalType": "struct IPaymaster.GasAndDataLimits",
          "name": "gasAndDataLimits",
          "type": "tuple"
        },
        {
          "internalType": "uint256",
          "name": "totalInitialGas",
          "type": "uint256"
        },
        {
          "internalType": "uint256",
          "name": "maxPossibleGas",
          "type": "uint256"
        }
      ],
      "name": "innerRelayCall",
      "outputs": [
        {
          "internalType": "enum IRelayHub.RelayCallStatus",
          "name": "",
          "type": "uint8"
        },
        {
          "internalType": "bytes",
          "name": "",
          "type": "bytes"
        }
      ],
      "stateMutability": "nonpayable",
      "type": "function"
    },
    {
      "inputs": [],
      "name": "isDeprecated",
      "outputs": [
        {
          "internalType": "bool",
          "name": "",
          "type": "bool"
        }
      ],
      "stateMutability": "view",
      "type": "function"
    },
    {
      "inputs": [
        {
          "internalType": "address",
          "name": "relayManager",
          "type": "address"
        }
      ],
      "name": "isRelayManagerStaked",
      "outputs": [
        {
          "internalType": "bool",
          "name": "",
          "type": "bool"
        }
      ],
      "stateMutability": "view",
      "type": "function"
    },
    {
      "inputs": [],
      "name": "owner",
      "outputs": [
        {
          "internalType": "address",
          "name": "",
          "type": "address"
        }
      ],
      "stateMutability": "view",
      "type": "function"
    },
    {
      "inputs": [
        {
          "internalType": "address",
          "name": "relayWorker",
          "type": "address"
        },
        {
          "internalType": "address payable",
          "name": "beneficiary",
          "type": "address"
        }
      ],
      "name": "penalize",
      "outputs": [],
      "stateMutability": "nonpayable",
      "type": "function"
    },
    {
      "inputs": [],
      "name": "penalizer",
      "outputs": [
        {
          "internalType": "address",
          "name": "",
          "type": "address"
        }
      ],
      "stateMutability": "view",
      "type": "function"
    },
    {
      "inputs": [
        {
          "internalType": "uint256",
          "name": "baseRelayFee",
          "type": "uint256"
        },
        {
          "internalType": "uint256",
          "name": "pctRelayFee",
          "type": "uint256"
        },
        {
          "internalType": "string",
          "name": "url",
          "type": "string"
        }
      ],
      "name": "registerRelayServer",
      "outputs": [],
      "stateMutability": "nonpayable",
      "type": "function"
    },
    {
      "inputs": [
        {
          "internalType": "uint256",
          "name": "maxAcceptanceBudget",
          "type": "uint256"
        },
        {
          "components": [
            {
              "components": [
                {
                  "internalType": "address",
                  "name": "from",
                  "type": "address"
                },
                {
                  "internalType": "address",
                  "name": "to",
                  "type": "address"
                },
                {
                  "internalType": "uint256",
                  "name": "value",
                  "type": "uint256"
                },
                {
                  "internalType": "uint256",
                  "name": "gas",
                  "type": "uint256"
                },
                {
                  "internalType": "uint256",
                  "name": "nonce",
                  "type": "uint256"
                },
                {
                  "internalType": "bytes",
                  "name": "data",
                  "type": "bytes"
                },
                {
                  "internalType": "uint256",
                  "name": "validUntil",
                  "type": "uint256"
                }
              ],
              "internalType": "struct IForwarder.ForwardRequest",
              "name": "request",
              "type": "tuple"
            },
            {
              "components": [
                {
                  "internalType": "uint256",
                  "name": "gasPrice",
                  "type": "uint256"
                },
                {
                  "internalType": "uint256",
                  "name": "pctRelayFee",
                  "type": "uint256"
                },
                {
                  "internalType": "uint256",
                  "name": "baseRelayFee",
                  "type": "uint256"
                },
                {
                  "internalType": "address",
                  "name": "relayWorker",
                  "type": "address"
                },
                {
                  "internalType": "address",
                  "name": "paymaster",
                  "type": "address"
                },
                {
                  "internalType": "address",
                  "name": "forwarder",
                  "type": "address"
                },
                {
                  "internalType": "bytes",
                  "name": "paymasterData",
                  "type": "bytes"
                },
                {
                  "internalType": "uint256",
                  "name": "clientId",
                  "type": "uint256"
                }
              ],
              "internalType": "struct GsnTypes.RelayData",
              "name": "relayData",
              "type": "tuple"
            }
          ],
          "internalType": "struct GsnTypes.RelayRequest",
          "name": "relayRequest",
          "type": "tuple"
        },
        {
          "internalType": "bytes",
          "name": "signature",
          "type": "bytes"
        },
        {
          "internalType": "bytes",
          "name": "approvalData",
          "type": "bytes"
        },
        {
          "internalType": "uint256",
          "name": "externalGasLimit",
          "type": "uint256"
        }
      ],
      "name": "relayCall",
      "outputs": [
        {
          "internalType": "bool",
          "name": "paymasterAccepted",
          "type": "bool"
        },
        {
          "internalType": "bytes",
          "name": "returnValue",
          "type": "bytes"
        }
      ],
      "stateMutability": "nonpayable",
      "type": "function"
    },
    {
      "inputs": [],
      "name": "renounceOwnership",
      "outputs": [],
      "stateMutability": "nonpayable",
      "type": "function"
    },
    {
      "inputs": [
        {
          "components": [
            {
              "internalType": "uint256",
              "name": "maxWorkerCount",
              "type": "uint256"
            },
            {
              "internalType": "uint256",
              "name": "gasReserve",
              "type": "uint256"
            },
            {
              "internalType": "uint256",
              "name": "postOverhead",
              "type": "uint256"
            },
            {
              "internalType": "uint256",
              "name": "gasOverhead",
              "type": "uint256"
            },
            {
              "internalType": "uint256",
              "name": "maximumRecipientDeposit",
              "type": "uint256"
            },
            {
              "internalType": "uint256",
              "name": "minimumUnstakeDelay",
              "type": "uint256"
            },
            {
              "internalType": "uint256",
              "name": "minimumStake",
              "type": "uint256"
            },
            {
              "internalType": "uint256",
              "name": "dataGasCostPerByte",
              "type": "uint256"
            },
            {
              "internalType": "uint256",
              "name": "externalCallDataCostOverhead",
              "type": "uint256"
            }
          ],
          "internalType": "struct IRelayHub.RelayHubConfig",
          "name": "_config",
          "type": "tuple"
        }
      ],
      "name": "setConfiguration",
      "outputs": [],
      "stateMutability": "nonpayable",
      "type": "function"
    },
    {
      "inputs": [],
      "name": "stakeManager",
      "outputs": [
        {
          "internalType": "contract IStakeManager",
          "name": "",
          "type": "address"
        }
      ],
      "stateMutability": "view",
      "type": "function"
    },
    {
      "inputs": [
        {
          "internalType": "address",
          "name": "newOwner",
          "type": "address"
        }
      ],
      "name": "transferOwnership",
      "outputs": [],
      "stateMutability": "nonpayable",
      "type": "function"
    },
    {
      "inputs": [],
      "name": "versionHub",
      "outputs": [
        {
          "internalType": "string",
          "name": "",
          "type": "string"
        }
      ],
      "stateMutability": "view",
      "type": "function"
    },
    {
      "inputs": [
        {
          "internalType": "uint256",
          "name": "amount",
          "type": "uint256"
        },
        {
          "internalType": "address payable",
          "name": "dest",
          "type": "address"
        }
      ],
      "name": "withdraw",
      "outputs": [],
      "stateMutability": "nonpayable",
      "type": "function"
    },
    {
      "inputs": [
        {
          "internalType": "address",
          "name": "",
          "type": "address"
        }
      ],
      "name": "workerCount",
      "outputs": [
        {
          "internalType": "uint256",
          "name": "",
          "type": "uint256"
        }
      ],
      "stateMutability": "view",
      "type": "function"
    },
    {
      "inputs": [
        {
          "internalType": "address",
          "name": "",
          "type": "address"
        }
      ],
      "name": "workerToManager",
      "outputs": [
        {
          "internalType": "address",
          "name": "",
          "type": "address"
        }
      ],
      "stateMutability": "view",
      "type": "function"
    }
  ],
  "bytecode": "0x60c06040526040518060400160405280601b81526020017f322e322e332b6f70656e67736e2e6875622e6972656c617968756200000000008152506001908051906020019062000051929190620003ba565b507fffffffffffffffffffffffffffffffffffffffffffffffffffffffffffffffff600e553480156200008357600080fd5b506040516200696e3803806200696e8339818101604052810190620000a99190620004af565b620000c9620000bd6200019860201b60201c565b620001a060201b60201c565b8a73ffffffffffffffffffffffffffffffffffffffff1660808173ffffffffffffffffffffffffffffffffffffffff1660601b815250508973ffffffffffffffffffffffffffffffffffffffff1660a08173ffffffffffffffffffffffffffffffffffffffff1660601b81525050620001876040518061012001604052808b81526020018a8152602001898152602001888152602001878152602001868152602001858152602001848152602001838152506200026460201b60201c565b5050505050505050505050620008d3565b600033905090565b60008060009054906101000a900473ffffffffffffffffffffffffffffffffffffffff169050816000806101000a81548173ffffffffffffffffffffffffffffffffffffffff021916908373ffffffffffffffffffffffffffffffffffffffff1602179055508173ffffffffffffffffffffffffffffffffffffffff168173ffffffffffffffffffffffffffffffffffffffff167f8be0079c531659141344cd1fd0a4f28419497f9722a3daafe3b4186f6b6457e060405160405180910390a35050565b620002746200019860201b60201c565b73ffffffffffffffffffffffffffffffffffffffff166200029a6200039160201b60201c565b73ffffffffffffffffffffffffffffffffffffffff1614620002f3576040517f08c379a0000000000000000000000000000000000000000000000000000000008152600401620002ea9062000748565b60405180910390fd5b806002600082015181600001556020820151816001015560408201518160020155606082015181600301556080820151816004015560a0820151816005015560c0820151816006015560e0820151816007015561010082015181600801559050507f918ee002eb112844e457f37ea6b320c5572bc73957ebb0423ffcfb03d7b939d760026040516200038691906200076a565b60405180910390a150565b60008060009054906101000a900473ffffffffffffffffffffffffffffffffffffffff16905090565b828054620003c890620007f5565b90600052602060002090601f016020900481019282620003ec576000855562000438565b82601f106200040757805160ff191683800117855562000438565b8280016001018555821562000438579182015b82811115620004375782518255916020019190600101906200041a565b5b5090506200044791906200044b565b5090565b5b80821115620004665760008160009055506001016200044c565b5090565b6000815190506200047b8162000885565b92915050565b60008151905062000492816200089f565b92915050565b600081519050620004a981620008b9565b92915050565b60008060008060008060008060008060006101608c8e031215620004d257600080fd5b6000620004e28e828f0162000481565b9b50506020620004f58e828f016200046a565b9a50506040620005088e828f0162000498565b99505060606200051b8e828f0162000498565b98505060806200052e8e828f0162000498565b97505060a0620005418e828f0162000498565b96505060c0620005548e828f0162000498565b95505060e0620005678e828f0162000498565b9450506101006200057b8e828f0162000498565b9350506101206200058f8e828f0162000498565b925050610140620005a38e828f0162000498565b9150509295989b509295989b9093969950565b6000620005c560208362000788565b91507f4f776e61626c653a2063616c6c6572206973206e6f7420746865206f776e65726000830152602082019050919050565b6101208201600080830154905062000610816200082b565b6200061f600086018262000737565b506001830154905062000632816200082b565b62000641602086018262000737565b506002830154905062000654816200082b565b62000663604086018262000737565b506003830154905062000676816200082b565b62000685606086018262000737565b506004830154905062000698816200082b565b620006a7608086018262000737565b5060058301549050620006ba816200082b565b620006c960a086018262000737565b5060068301549050620006dc816200082b565b620006eb60c086018262000737565b5060078301549050620006fe816200082b565b6200070d60e086018262000737565b506008830154905062000720816200082b565b6200073061010086018262000737565b5050505050565b6200074281620007eb565b82525050565b600060208201905081810360008301526200076381620005b6565b9050919050565b600061012082019050620007826000830184620005f8565b92915050565b600082825260208201905092915050565b6000819050919050565b6000620007b082620007cb565b9050919050565b6000620007c482620007a3565b9050919050565b600073ffffffffffffffffffffffffffffffffffffffff82169050919050565b6000819050919050565b600060028204905060018216806200080e57607f821691505b6020821081141562000825576200082462000849565b5b50919050565b6000620008426200083c8362000878565b62000799565b9050919050565b7f4e487b7100000000000000000000000000000000000000000000000000000000600052602260045260246000fd5b60008160001c9050919050565b6200089081620007a3565b81146200089c57600080fd5b50565b620008aa81620007b7565b8114620008b657600080fd5b50565b620008c481620007eb565b8114620008d057600080fd5b50565b60805160601c60a05160601c6160536200091b60003960008181612318015261252801526000818161149a01528181611b570152818161268c015261277e01526160536000f3fe6080604052600436106101655760003560e01c80638da5cb5b116100d1578063c651bce81161008a578063d6a71c0d11610064578063d6a71c0d14610556578063d904c73214610581578063ebcd31ac146105ac578063f2fde38b146105d557610165565b8063c651bce8146104c5578063c7178230146104ee578063ca998f561461051957610165565b80638da5cb5b146103c45780638e53548b146103ef578063aa67c9191461042c578063af595dfc14610448578063c2da078614610471578063c4775a681461049a57610165565b80636bd50cef116101235780636bd50cef146102b357806370a08231146102de578063715018a61461031b578063746d300c146103325780637542ff951461037057806383b718711461039b57610165565b8062f714ce1461016a5780630dd3eded1461019357806310c45431146101be578063194ac307146101fc57806326595b9d146102395780632ad311b514610276575b600080fd5b34801561017657600080fd5b50610191600480360381019061018c9190613d85565b6105fe565b005b34801561019f57600080fd5b506101a86107cb565b6040516101b59190615816565b60405180910390f35b3480156101ca57600080fd5b506101e560048036038101906101e09190613e15565b6107d0565b6040516101f392919061516f565b60405180910390f35b34801561020857600080fd5b50610223600480360381019061021e9190613a34565b61145d565b6040516102309190615816565b60405180910390f35b34801561024557600080fd5b50610260600480360381019061025b9190613d5c565b611475565b60405161026d9190615816565b60405180910390f35b34801561028257600080fd5b5061029d60048036038101906102989190613a34565b611496565b6040516102aa9190615154565b60405180910390f35b3480156102bf57600080fd5b506102c8611558565b6040516102d59190615704565b60405180910390f35b3480156102ea57600080fd5b5061030560048036038101906103009190613a34565b6115cd565b6040516103129190615816565b60405180910390f35b34801561032757600080fd5b50610330611616565b005b34801561033e57600080fd5b5061035960048036038101906103549190613c56565b61169e565b604051610367929190615308565b60405180910390f35b34801561037c57600080fd5b50610385611b55565b60405161039291906152ed565b60405180910390f35b3480156103a757600080fd5b506103c260048036038101906103bd9190613edd565b611b79565b005b3480156103d057600080fd5b506103d9611ca3565b6040516103e69190614fde565b60405180910390f35b3480156103fb57600080fd5b5061041660048036038101906104119190613dc1565b611ccc565b6040516104239190615816565b60405180910390f35b61044660048036038101906104419190613a34565b611d3f565b005b34801561045457600080fd5b5061046f600480360381019061046a9190613d5c565b611e8a565b005b34801561047d57600080fd5b5061049860048036038101906104939190613a99565b611f8b565b005b3480156104a657600080fd5b506104af612316565b6040516104bc9190614fde565b60405180910390f35b3480156104d157600080fd5b506104ec60048036038101906104e79190613c2c565b61233a565b005b3480156104fa57600080fd5b50610503612452565b6040516105109190615154565b60405180910390f35b34801561052557600080fd5b50610540600480360381019061053b9190613a34565b61245f565b60405161054d9190614fde565b60405180910390f35b34801561056257600080fd5b5061056b612492565b6040516105789190615816565b60405180910390f35b34801561058d57600080fd5b50610596612498565b6040516105a39190615338565b60405180910390f35b3480156105b857600080fd5b506105d360048036038101906105ce9190613a5d565b612526565b005b3480156105e157600080fd5b506105fc60048036038101906105f79190613a34565b612815565b005b600033905082600d60008373ffffffffffffffffffffffffffffffffffffffff1673ffffffffffffffffffffffffffffffffffffffff168152602001908152602001600020541015610685576040517f08c379a000000000000000000000000000000000000000000000000000000000815260040161067c906155ba565b60405180910390fd5b6106d783600d60008473ffffffffffffffffffffffffffffffffffffffff1673ffffffffffffffffffffffffffffffffffffffff1681526020019081526020016000205461290d90919063ffffffff16565b600d60008373ffffffffffffffffffffffffffffffffffffffff1673ffffffffffffffffffffffffffffffffffffffff168152602001908152602001600020819055508173ffffffffffffffffffffffffffffffffffffffff166108fc849081150290604051600060405180830381858888f19350505050158015610760573d6000803e3d6000fd5b508173ffffffffffffffffffffffffffffffffffffffff168173ffffffffffffffffffffffffffffffffffffffff167fd1c19fbcd4551a5edfb66d43d2e337c04837afda3482b42bdf569a8fccdae5fb856040516107be9190615816565b60405180910390a3505050565b601081565b600060606107dc6134b0565b5a8160400181815250506107ee612452565b1561082e576040517f08c379a00000000000000000000000000000000000000000000000000000000081526004016108259061537a565b60405180910390fd5b600489806000019061084091906158c8565b8060a0019061084f9190615871565b9050101561086157600060e01b6108ce565b6108cd89806000019061087491906158c8565b8060a001906108839190615871565b8080601f016020809104026020016040519081016040528093929190818152602001838380828437600081840152601f19601f820116905080830192505050505050506000612923565b5b81602001907bffffffffffffffffffffffffffffffffffffffffffffffffffffffff191690817bffffffffffffffffffffffffffffffffffffffffffffffffffffffff1916815250503273ffffffffffffffffffffffffffffffffffffffff163373ffffffffffffffffffffffffffffffffffffffff1614610985576040517f08c379a000000000000000000000000000000000000000000000000000000000815260040161097c906154ba565b60405180910390fd5b600b60003373ffffffffffffffffffffffffffffffffffffffff1673ffffffffffffffffffffffffffffffffffffffff16815260200190815260200160002060009054906101000a900473ffffffffffffffffffffffffffffffffffffffff1681610160019073ffffffffffffffffffffffffffffffffffffffff16908173ffffffffffffffffffffffffffffffffffffffff1681525050600073ffffffffffffffffffffffffffffffffffffffff1681610160015173ffffffffffffffffffffffffffffffffffffffff161415610a92576040517f08c379a0000000000000000000000000000000000000000000000000000000008152600401610a899061567a565b60405180910390fd5b3373ffffffffffffffffffffffffffffffffffffffff16898060200190610ab991906158ec565b6060016020810190610acb9190613a34565b73ffffffffffffffffffffffffffffffffffffffff1614610b21576040517f08c379a0000000000000000000000000000000000000000000000000000000008152600401610b18906155fa565b60405180910390fd5b610b2f816101600151611496565b610b6e576040517f08c379a0000000000000000000000000000000000000000000000000000000008152600401610b659061549a565b60405180910390fd5b3a898060200190610b7f91906158ec565b600001351115610bc4576040517f08c379a0000000000000000000000000000000000000000000000000000000008152600401610bbb9061545a565b60405180910390fd5b45841115610c07576040517f08c379a0000000000000000000000000000000000000000000000000000000008152600401610bfe9061535a565b60405180910390fd5b610c178a8a8360400151876129a9565b8260a0018361010001828152508290525050610c368989898989612d4a565b60006002600101546040603f5a610c4d9190615b4e565b610c579190615b1d565b610c619190615ba8565b90505a82610120018181525050600060028001546002600301548784610c879190615ac7565b610c919190615ac7565b610c9b9190615ac7565b90506000803073ffffffffffffffffffffffffffffffffffffffff168463746d300c60e01b8f8f8f8f8f8c60a001515a8c610cd69190615ba8565b8e6101000151604051602401610cf398979695949392919061573c565b604051602081830303815290604052907bffffffffffffffffffffffffffffffffffffffffffffffffffffffff19166020820180517bffffffffffffffffffffffffffffffffffffffffffffffffffffffff8381831617835250505050604051610d5d9190614f5e565b60006040518083038160008787f1925050503d8060008114610d9b576040519150601f19603f3d011682016040523d82523d6000602084013e610da0565b606091505b5091509150818560000190151590811515815250505a856101200151610dc69190615ba8565b8560e001818152505080806020019051810190610de39190613baf565b8660c00187608001829052826006811115610e27577f4e487b7100000000000000000000000000000000000000000000000000000000600052602160045260246000fd5b6006811115610e5f577f4e487b7100000000000000000000000000000000000000000000000000000000600052602160045260246000fd5b815250505060008560800151511115610eb4577fa1478a4242848419db824250a0dddc645dca0d6a9b12ab1fd79b00145a0ba98e8560c001518660800151604051610eab929190615308565b60405180910390a15b50505050610ec56000369050611475565b8161018001818152505080600001516111905760026006811115610f12577f4e487b7100000000000000000000000000000000000000000000000000000000600052602160045260246000fd5b8160c001516006811115610f4f577f4e487b7100000000000000000000000000000000000000000000000000000000600052602160045260246000fd5b148061107d5750610f768161018001518260a0015160000151612e7090919063ffffffff16565b8160e001511115801561107c575060036006811115610fbe577f4e487b7100000000000000000000000000000000000000000000000000000000600052602160045260246000fd5b8160c001516006811115610ffb577f4e487b7100000000000000000000000000000000000000000000000000000000600052602160045260246000fd5b148061107b57506004600681111561103c577f4e487b7100000000000000000000000000000000000000000000000000000000600052602160045260246000fd5b8160c001516006811115611079577f4e487b7100000000000000000000000000000000000000000000000000000000600052602160045260246000fd5b145b5b5b1561118f576000925088806000019061109691906158c8565b60000160208101906110a89190613a34565b73ffffffffffffffffffffffffffffffffffffffff168980602001906110ce91906158ec565b60800160208101906110e09190613a34565b73ffffffffffffffffffffffffffffffffffffffff1682610160015173ffffffffffffffffffffffffffffffffffffffff167fddb88484d11f800b80fe63aa67488ec56ee001d85896d528912c5d850cbcd06a8c806000019061114391906158c8565b60200160208101906111559190613a34565b3386602001518760e001518860800151604051611176959493929190615083565b60405180910390a4600081608001519250925050611451565b5b60006002600301545a866111a49190615ba8565b6111ae9190615ac7565b905060006111cb828c80602001906111c691906158ec565b611ccc565b905061124081600d60008e80602001906111e591906158ec565b60800160208101906111f79190613a34565b73ffffffffffffffffffffffffffffffffffffffff1673ffffffffffffffffffffffffffffffffffffffff1681526020019081526020016000205461290d90919063ffffffff16565b600d60008d806020019061125491906158ec565b60800160208101906112669190613a34565b73ffffffffffffffffffffffffffffffffffffffff1673ffffffffffffffffffffffffffffffffffffffff168152602001908152602001600020819055506112fb81600d600086610160015173ffffffffffffffffffffffffffffffffffffffff1673ffffffffffffffffffffffffffffffffffffffff16815260200190815260200160002054612e7090919063ffffffff16565b600d600085610160015173ffffffffffffffffffffffffffffffffffffffff1673ffffffffffffffffffffffffffffffffffffffff168152602001908152602001600020819055508a806000019061135391906158c8565b60000160208101906113659190613a34565b73ffffffffffffffffffffffffffffffffffffffff163373ffffffffffffffffffffffffffffffffffffffff1684610160015173ffffffffffffffffffffffffffffffffffffffff167fc9aa709786a3d5fe2cc947abc1ba8cbb0f6decb57aa74b84eb7f558125fee4548e80600001906113df91906158c8565b60200160208101906113f19190613a34565b8f806020019061140191906158ec565b60800160208101906114139190613a34565b88602001518960c001518860405161142f959493929190615030565b60405180910390a4600160405180602001604052806000815250945094505050505b97509795505050505050565b600c6020528060005260406000206000915090505481565b600061148f82600260070154612e8690919063ffffffff16565b9050919050565b60007f000000000000000000000000000000000000000000000000000000000000000073ffffffffffffffffffffffffffffffffffffffff16636de8dd4183306002600601546002600501546040518563ffffffff1660e01b815260040161150194939291906150dd565b60206040518083038186803b15801561151957600080fd5b505afa15801561152d573d6000803e3d6000fd5b505050506040513d601f19601f820116820180604052508101906115519190613ade565b9050919050565b61156061358d565b6002604051806101200160405290816000820154815260200160018201548152602001600282015481526020016003820154815260200160048201548152602001600582015481526020016006820154815260200160078201548152602001600882015481525050905090565b6000600d60008373ffffffffffffffffffffffffffffffffffffffff1673ffffffffffffffffffffffffffffffffffffffff168152602001908152602001600020549050919050565b61161e612e9c565b73ffffffffffffffffffffffffffffffffffffffff1661163c611ca3565b73ffffffffffffffffffffffffffffffffffffffff1614611692576040517f08c379a00000000000000000000000000000000000000000000000000000000081526004016116899061553a565b60405180910390fd5b61169c6000612ea4565b565b600060606116aa6135d9565b3073ffffffffffffffffffffffffffffffffffffffff163373ffffffffffffffffffffffffffffffffffffffff1614611718576040517f08c379a000000000000000000000000000000000000000000000000000000000815260040161170f9061543a565b60405180910390fd5b600d60008c806020019061172c91906158ec565b608001602081019061173e9190613a34565b73ffffffffffffffffffffffffffffffffffffffff1673ffffffffffffffffffffffffffffffffffffffff1681526020019081526020016000205481600001818152505062be5dd460e01b8b8b8b8b8b896040516024016117a4969594939291906157b8565b604051602081830303815290604052907bffffffffffffffffffffffffffffffffffffffffffffffffffffffff19166020820180517bffffffffffffffffffffffffffffffffffffffffffffffffffffffff83818316178352505050508160a00181905250600060608c806020019061181d91906158ec565b608001602081019061182f9190613a34565b73ffffffffffffffffffffffffffffffffffffffff1688602001358460a0015160405161185c9190614f5e565b60006040518083038160008787f1925050503d806000811461189a576040519150601f19603f3d011682016040523d82523d6000602084013e61189f565b606091505b508092508193505050816118c2576118b681612f68565b6118c1600282612f77565b5b808060200190518101906118d69190613b5b565b846080018560c00182151515158152508290525050505060006118fa8c8c8c612fb0565b84604001856060018290528215151515815250829350505050806119285761192760038360600151612f77565b5b8160c00151801561193b57508160400151155b156119505761194f60048360600151612f77565b5b506376fa01c360e01b816080015182604001515a8861196f9190615ba8565b8e806020019061197f91906158ec565b604051602401611992949392919061529a565b604051602081830303815290604052907bffffffffffffffffffffffffffffffffffffffffffffffffffffffff19166020820180517bffffffffffffffffffffffffffffffffffffffffffffffffffffffff83818316178352505050508160a001819052506000808c8060200190611a0a91906158ec565b6080016020810190611a1c9190613a34565b73ffffffffffffffffffffffffffffffffffffffff1688604001358460a00151604051611a499190614f5e565b60006040518083038160008787f1925050503d8060008114611a87576040519150601f19603f3d011682016040523d82523d6000602084013e611a8c565b606091505b509150915081611aa257611aa1600582612f77565b5b50508060000151600d60008d8060200190611abd91906158ec565b6080016020810190611acf9190613a34565b73ffffffffffffffffffffffffffffffffffffffff1673ffffffffffffffffffffffffffffffffffffffff168152602001908152602001600020541015611b2b57611b2a600660405180602001604052806000815250612f77565b5b8060400151611b3b576001611b3e565b60005b816060015192509250509850989650505050505050565b7f000000000000000000000000000000000000000000000000000000000000000081565b6000339050611b8781611496565b611bc6576040517f08c379a0000000000000000000000000000000000000000000000000000000008152600401611bbd9061549a565b60405180910390fd5b6000600c60008373ffffffffffffffffffffffffffffffffffffffff1673ffffffffffffffffffffffffffffffffffffffff1681526020019081526020016000205411611c48576040517f08c379a0000000000000000000000000000000000000000000000000000000008152600401611c3f906154da565b60405180910390fd5b8073ffffffffffffffffffffffffffffffffffffffff167f77f2d8afec4b9d82ffa0dea525320620292bd1067f575964994d5c4501479aed86868686604051611c949493929190615831565b60405180910390a25050505050565b60008060009054906101000a900473ffffffffffffffffffffffffffffffffffffffff16905090565b6000611d37611d246064611d16611cf160648760200135612e7090919063ffffffff16565b611d08876000013589612e8690919063ffffffff16565b612e8690919063ffffffff16565b6131f490919063ffffffff16565b8360400135612e7090919063ffffffff16565b905092915050565b6000349050600260040154811115611d8c576040517f08c379a0000000000000000000000000000000000000000000000000000000008152600401611d839061547a565b60405180910390fd5b611dde81600d60008573ffffffffffffffffffffffffffffffffffffffff1673ffffffffffffffffffffffffffffffffffffffff16815260200190815260200160002054612e7090919063ffffffff16565b600d60008473ffffffffffffffffffffffffffffffffffffffff1673ffffffffffffffffffffffffffffffffffffffff168152602001908152602001600020819055503373ffffffffffffffffffffffffffffffffffffffff168273ffffffffffffffffffffffffffffffffffffffff167f8752a472e571a816aea92eec8dae9baf628e840f4929fbcc2d155e6233ff68a783604051611e7e9190615816565b60405180910390a35050565b611e92612e9c565b73ffffffffffffffffffffffffffffffffffffffff16611eb0611ca3565b73ffffffffffffffffffffffffffffffffffffffff1614611f06576040517f08c379a0000000000000000000000000000000000000000000000000000000008152600401611efd9061553a565b60405180910390fd5b43600e5411611f4a576040517f08c379a0000000000000000000000000000000000000000000000000000000008152600401611f41906153ba565b60405180910390fd5b80600e819055507f1c0aa0c666483fbf0cf795d9d646ea3552d1e3008162ba9ab1d6d6dfd8c6ec6b81604051611f809190615816565b60405180910390a150565b6000339050600083839050600c60008473ffffffffffffffffffffffffffffffffffffffff1673ffffffffffffffffffffffffffffffffffffffff16815260200190815260200160002054611fe09190615ac7565b905080600c60008473ffffffffffffffffffffffffffffffffffffffff1673ffffffffffffffffffffffffffffffffffffffff1681526020019081526020016000208190555060026000015481111561206e576040517f08c379a00000000000000000000000000000000000000000000000000000000081526004016120659061557a565b60405180910390fd5b61207782611496565b6120b6576040517f08c379a00000000000000000000000000000000000000000000000000000000081526004016120ad9061549a565b60405180910390fd5b60005b848490508110156122bd57600073ffffffffffffffffffffffffffffffffffffffff16600b6000878785818110612119577f4e487b7100000000000000000000000000000000000000000000000000000000600052603260045260246000fd5b905060200201602081019061212e9190613a34565b73ffffffffffffffffffffffffffffffffffffffff1673ffffffffffffffffffffffffffffffffffffffff16815260200190815260200160002060009054906101000a900473ffffffffffffffffffffffffffffffffffffffff1673ffffffffffffffffffffffffffffffffffffffff16146121df576040517f08c379a00000000000000000000000000000000000000000000000000000000081526004016121d6906153da565b60405180910390fd5b82600b600087878581811061221d577f4e487b7100000000000000000000000000000000000000000000000000000000600052603260045260246000fd5b90506020020160208101906122329190613a34565b73ffffffffffffffffffffffffffffffffffffffff1673ffffffffffffffffffffffffffffffffffffffff16815260200190815260200160002060006101000a81548173ffffffffffffffffffffffffffffffffffffffff021916908373ffffffffffffffffffffffffffffffffffffffff16021790555080806122b590615d4d565b9150506120b9565b508173ffffffffffffffffffffffffffffffffffffffff167febf4a9bffb39f7c5dbf3f65540183b9381ae226ac3d0a45b4cad484713bd4a2885858460405161230893929190615122565b60405180910390a250505050565b7f000000000000000000000000000000000000000000000000000000000000000081565b612342612e9c565b73ffffffffffffffffffffffffffffffffffffffff16612360611ca3565b73ffffffffffffffffffffffffffffffffffffffff16146123b6576040517f08c379a00000000000000000000000000000000000000000000000000000000081526004016123ad9061553a565b60405180910390fd5b806002600082015181600001556020820151816001015560408201518160020155606082015181600301556080820151816004015560a0820151816005015560c0820151816006015560e0820151816007015561010082015181600801559050507f918ee002eb112844e457f37ea6b320c5572bc73957ebb0423ffcfb03d7b939d760026040516124479190615720565b60405180910390a150565b6000600e54431015905090565b600b6020528060005260406000206000915054906101000a900473ffffffffffffffffffffffffffffffffffffffff1681565b600e5481565b600180546124a590615d01565b80601f01602080910402602001604051908101604052809291908181526020018280546124d190615d01565b801561251e5780601f106124f35761010080835404028352916020019161251e565b820191906000526020600020905b81548152906001019060200180831161250157829003601f168201915b505050505081565b7f000000000000000000000000000000000000000000000000000000000000000073ffffffffffffffffffffffffffffffffffffffff163373ffffffffffffffffffffffffffffffffffffffff16146125b4576040517f08c379a00000000000000000000000000000000000000000000000000000000081526004016125ab9061551a565b60405180910390fd5b6000600b60008473ffffffffffffffffffffffffffffffffffffffff1673ffffffffffffffffffffffffffffffffffffffff16815260200190815260200160002060009054906101000a900473ffffffffffffffffffffffffffffffffffffffff169050600073ffffffffffffffffffffffffffffffffffffffff168173ffffffffffffffffffffffffffffffffffffffff161415612688576040517f08c379a000000000000000000000000000000000000000000000000000000000815260040161267f9061567a565b60405180910390fd5b60007f000000000000000000000000000000000000000000000000000000000000000073ffffffffffffffffffffffffffffffffffffffff1663c3453153836040518263ffffffff1660e01b81526004016126e39190614fde565b60806040518083038186803b1580156126fb57600080fd5b505afa15801561270f573d6000803e3d6000fd5b505050506040513d601f19601f820116820180604052508101906127339190613d33565b9050600081600001511161277c576040517f08c379a00000000000000000000000000000000000000000000000000000000081526004016127739061549a565b60405180910390fd5b7f000000000000000000000000000000000000000000000000000000000000000073ffffffffffffffffffffffffffffffffffffffff166309a08af4838584600001516040518463ffffffff1660e01b81526004016127dd93929190614ff9565b600060405180830381600087803b1580156127f757600080fd5b505af115801561280b573d6000803e3d6000fd5b5050505050505050565b61281d612e9c565b73ffffffffffffffffffffffffffffffffffffffff1661283b611ca3565b73ffffffffffffffffffffffffffffffffffffffff1614612891576040517f08c379a00000000000000000000000000000000000000000000000000000000081526004016128889061553a565b60405180910390fd5b600073ffffffffffffffffffffffffffffffffffffffff168173ffffffffffffffffffffffffffffffffffffffff161415612901576040517f08c379a00000000000000000000000000000000000000000000000000000000081526004016128f8906153fa565b60405180910390fd5b61290a81612ea4565b50565b6000818361291b9190615ba8565b905092915050565b60006004826129329190615ac7565b83511015612975576040517f08c379a000000000000000000000000000000000000000000000000000000000815260040161296c9061565a565b60405180910390fd5b6020820183015190507fffffffff000000000000000000000000000000000000000000000000000000008116905092915050565b6129b161361d565b60008480602001906129c391906158ec565b60800160208101906129d59190613a34565b73ffffffffffffffffffffffffffffffffffffffff1663b039a88f61c3506040518263ffffffff1660e01b815260040160806040518083038187803b158015612a1d57600080fd5b5086fa158015612a31573d6000803e3d6000fd5b50505050506040513d601f19601f82011682018060405250810190612a569190613c03565b9150816060015160003690501115612aa3576040517f08c379a0000000000000000000000000000000000000000000000000000000008152600401612a9a906154fa565b60405180910390fd5b6000612ab26000369050611475565b905060006002600801548686612ac89190615ba8565b612ad29190615ba8565b905060008036905082612ae59190615b1d565b90506010811115612b2b576040517f08c379a0000000000000000000000000000000000000000000000000000000008152600401612b229061539a565b60405180910390fd5b8460000151891015612b72576040517f08c379a0000000000000000000000000000000000000000000000000000000008152600401612b699061559a565b60405180910390fd5b846020015185600001511015612bbd576040517f08c379a0000000000000000000000000000000000000000000000000000000008152600401612bb49061541a565b60405180910390fd5b612c3882612c2a85612c1c8c8060000190612bd891906158c8565b60600135612c0e8b60400151612c008d60200151600260030154612e7090919063ffffffff16565b612e7090919063ffffffff16565b612e7090919063ffffffff16565b612e7090919063ffffffff16565b612e7090919063ffffffff16565b935083861015612c7d576040517f08c379a0000000000000000000000000000000000000000000000000000000008152600401612c749061555a565b60405180910390fd5b6000612c98858a8060200190612c9391906158ec565b611ccc565b9050600d60008a8060200190612cae91906158ec565b6080016020810190612cc09190613a34565b73ffffffffffffffffffffffffffffffffffffffff1673ffffffffffffffffffffffffffffffffffffffff16815260200190815260200160002054811115612d3d576040517f08c379a0000000000000000000000000000000000000000000000000000000008152600401612d349061561a565b60405180910390fd5b5050505094509492505050565b6000612d73868060200190612d5f91906158ec565b8060c00190612d6e9190615871565b61320a565b612d9a878060000190612d8691906158c8565b8060a00190612d959190615871565b61320a565b612da4858561320a565b612dae888861320a565b6102c4612dbb9190615ac7565b612dc59190615ac7565b612dcf9190615ac7565b612dd99190615ac7565b90506041858590501115612e22576040517f08c379a0000000000000000000000000000000000000000000000000000000008152600401612e199061563a565b60405180910390fd5b60003690508114612e68576040517f08c379a0000000000000000000000000000000000000000000000000000000008152600401612e5f906155da565b60405180910390fd5b505050505050565b60008183612e7e9190615ac7565b905092915050565b60008183612e949190615b4e565b905092915050565b600033905090565b60008060009054906101000a900473ffffffffffffffffffffffffffffffffffffffff169050816000806101000a81548173ffffffffffffffffffffffffffffffffffffffff021916908373ffffffffffffffffffffffffffffffffffffffff1602179055508173ffffffffffffffffffffffffffffffffffffffff168173ffffffffffffffffffffffffffffffffffffffff167f8be0079c531659141344cd1fd0a4f28419497f9722a3daafe3b4186f6b6457e060405160405180910390a35050565b612f748161040061325e565b50565b60008282604051602001612f8c929190615308565b6040516020818303038152906040529050612fa681612f68565b8051602082018181fd5b60008060606000612fc08761326f565b90506000612fee888060200190612fd791906158ec565b60a0016020810190612fe99190613a34565b6132af565b905087806020019061300091906158ec565b60a00160208101906130129190613a34565b73ffffffffffffffffffffffffffffffffffffffff1663e024dc7f60e01b89806000019061304091906158c8565b836040518060400160405280600c81526020017f52656c61795265717565737400000000000000000000000000000000000000008152506040518060800160405280605d8152602001615f20605d91396040518060e0016040528060a18152602001615f7d60a191396040516020016130b99190614fbc565b6040516020818303038152906040526040516020016130da93929190614f75565b60405160208183030381529060405280519060200120868c8c6040516024016131089695949392919061569a565b604051602081830303815290604052907bffffffffffffffffffffffffffffffffffffffffffffffffffffffff19166020820180517bffffffffffffffffffffffffffffffffffffffffffffffffffffffff83818316178352505050506040516131729190614f5e565b6000604051808303816000865af19150503d80600081146131af576040519150601f19603f3d011682016040523d82523d6000602084013e6131b4565b606091505b50809450819650505084156131e057828060200190518101906131d79190613b07565b80945081955050505b6131e983612f68565b505093509350939050565b600081836132029190615b1d565b905092915050565b6000601f7fffffffffffffffffffffffffffffffffffffffffffffffffffffffffffffffff6132399190615ba8565b601f848490506132499190615ac7565b1660206132569190615ac7565b905092915050565b808251111561326b578082525b5050565b606061328982806020019061328491906158ec565b613368565b604051602001613299919061519f565b6040516020818303038152906040529050919050565b600061336160405180608001604052806040518060400160405280601781526020017f47534e2052656c61796564205472616e73616374696f6e00000000000000000081525081526020016040518060400160405280600181526020017f3200000000000000000000000000000000000000000000000000000000000000815250815260200161333d613432565b81526020018473ffffffffffffffffffffffffffffffffffffffff1681525061343a565b9050919050565b60006040518060e0016040528060a18152602001615f7d60a19139805190602001208260000135836020013584604001358560600160208101906133ac9190613a34565b8660800160208101906133bf9190613a34565b8760a00160208101906133d29190613a34565b888060c001906133e29190615871565b6040516133f0929190614f45565b60405180910390208960e001356040516020016134159998979695949392919061520d565b604051602081830303815290604052805190602001209050919050565b600046905090565b60007f8b73c3c69bb8fe3d512ecc4cf759cc79239f7b179b0ffacaa9a75d522b39400f826000015180519060200120836020015180519060200120846040015185606001516040516020016134939594939291906151ba565b604051602081830303815290604052805190602001209050919050565b604051806101a0016040528060001515815260200160007bffffffffffffffffffffffffffffffffffffffffffffffffffffffff1916815260200160008152602001606081526020016060815260200161350861361d565b815260200160006006811115613547577f4e487b7100000000000000000000000000000000000000000000000000000000600052602160045260246000fd5b815260200160008152602001600081526020016000815260200160608152602001600073ffffffffffffffffffffffffffffffffffffffff168152602001600081525090565b6040518061012001604052806000815260200160008152602001600081526020016000815260200160008152602001600081526020016000815260200160008152602001600081525090565b6040518060e0016040528060008152602001600080191681526020016000151581526020016060815260200160608152602001606081526020016000151581525090565b6040518060800160405280600081526020016000815260200160008152602001600081525090565b600061365861365384615942565b615911565b90508281526020810184848401111561367057600080fd5b61367b848285615cce565b509392505050565b60008135905061369281615eb3565b92915050565b6000813590506136a781615eca565b92915050565b6000815190506136bc81615eca565b92915050565b60008083601f8401126136d457600080fd5b8235905067ffffffffffffffff8111156136ed57600080fd5b60208301915083602082028301111561370557600080fd5b9250929050565b60008151905061371b81615ee1565b92915050565b60008083601f84011261373357600080fd5b8235905067ffffffffffffffff81111561374c57600080fd5b60208301915083600182028301111561376457600080fd5b9250929050565b600082601f83011261377c57600080fd5b815161378c848260208601613645565b91505092915050565b6000815190506137a481615ef8565b92915050565b60008083601f8401126137bc57600080fd5b8235905067ffffffffffffffff8111156137d557600080fd5b6020830191508360018202830111156137ed57600080fd5b9250929050565b60006080828403121561380657600080fd5b81905092915050565b60006080828403121561382157600080fd5b61382b6080615911565b9050600061383b84828501613a1f565b600083015250602061384f84828501613a1f565b602083015250604061386384828501613a1f565b604083015250606061387784828501613a1f565b60608301525092915050565b6000610100828403121561389657600080fd5b81905092915050565b600061012082840312156138b257600080fd5b6138bd610120615911565b905060006138cd84828501613a0a565b60008301525060206138e184828501613a0a565b60208301525060406138f584828501613a0a565b604083015250606061390984828501613a0a565b606083015250608061391d84828501613a0a565b60808301525060a061393184828501613a0a565b60a08301525060c061394584828501613a0a565b60c08301525060e061395984828501613a0a565b60e08301525061010061396e84828501613a0a565b6101008301525092915050565b60006040828403121561398d57600080fd5b81905092915050565b6000608082840312156139a857600080fd5b6139b26080615911565b905060006139c284828501613a1f565b60008301525060206139d684828501613a1f565b60208301525060406139ea84828501613a1f565b60408301525060606139fe848285016136ad565b60608301525092915050565b600081359050613a1981615f08565b92915050565b600081519050613a2e81615f08565b92915050565b600060208284031215613a4657600080fd5b6000613a5484828501613683565b91505092915050565b60008060408385031215613a7057600080fd5b6000613a7e85828601613683565b9250506020613a8f85828601613698565b9150509250929050565b60008060208385031215613aac57600080fd5b600083013567ffffffffffffffff811115613ac657600080fd5b613ad2858286016136c2565b92509250509250929050565b600060208284031215613af057600080fd5b6000613afe8482850161370c565b91505092915050565b60008060408385031215613b1a57600080fd5b6000613b288582860161370c565b925050602083015167ffffffffffffffff811115613b4557600080fd5b613b518582860161376b565b9150509250929050565b60008060408385031215613b6e57600080fd5b600083015167ffffffffffffffff811115613b8857600080fd5b613b948582860161376b565b9250506020613ba58582860161370c565b9150509250929050565b60008060408385031215613bc257600080fd5b6000613bd085828601613795565b925050602083015167ffffffffffffffff811115613bed57600080fd5b613bf98582860161376b565b9150509250929050565b600060808284031215613c1557600080fd5b6000613c238482850161380f565b91505092915050565b60006101208284031215613c3f57600080fd5b6000613c4d8482850161389f565b91505092915050565b600080600080600080600080610120898b031215613c7357600080fd5b600089013567ffffffffffffffff811115613c8d57600080fd5b613c998b828c0161397b565b985050602089013567ffffffffffffffff811115613cb657600080fd5b613cc28b828c01613721565b9750975050604089013567ffffffffffffffff811115613ce157600080fd5b613ced8b828c01613721565b95509550506060613d008b828c016137f4565b93505060e0613d118b828c01613a0a565b925050610100613d238b828c01613a0a565b9150509295985092959890939650565b600060808284031215613d4557600080fd5b6000613d5384828501613996565b91505092915050565b600060208284031215613d6e57600080fd5b6000613d7c84828501613a0a565b91505092915050565b60008060408385031215613d9857600080fd5b6000613da685828601613a0a565b9250506020613db785828601613698565b9150509250929050565b60008060408385031215613dd457600080fd5b6000613de285828601613a0a565b925050602083013567ffffffffffffffff811115613dff57600080fd5b613e0b85828601613883565b9150509250929050565b600080600080600080600060a0888a031215613e3057600080fd5b6000613e3e8a828b01613a0a565b975050602088013567ffffffffffffffff811115613e5b57600080fd5b613e678a828b0161397b565b965050604088013567ffffffffffffffff811115613e8457600080fd5b613e908a828b01613721565b9550955050606088013567ffffffffffffffff811115613eaf57600080fd5b613ebb8a828b01613721565b93509350506080613ece8a828b01613a0a565b91505092959891949750929550565b60008060008060608587031215613ef357600080fd5b6000613f0187828801613a0a565b9450506020613f1287828801613a0a565b935050604085013567ffffffffffffffff811115613f2f57600080fd5b613f3b878288016137aa565b925092505092959194509250565b6000613f558383613f70565b60208301905092915050565b613f6a81615bf8565b82525050565b613f7981615be6565b82525050565b613f8881615be6565b82525050565b6000613f9a838561599f565b9350613fa582615972565b8060005b85811015613fde57613fbb82846159f9565b613fc58882613f49565b9750613fd083615992565b925050600181019050613fa9565b5085925050509392505050565b613ff481615c0a565b82525050565b61400381615c16565b82525050565b61401281615c20565b82525050565b600061402483856159b0565b9350614031838584615cbf565b61403a83615e81565b840190509392505050565b600061405183856159c1565b935061405e838584615cbf565b61406783615e81565b840190509392505050565b600061407e83856159d2565b935061408b838584615cbf565b82840190509392505050565b60006140a28261597c565b6140ac81856159c1565b93506140bc818560208601615cce565b6140c581615e81565b840191505092915050565b60006140db8261597c565b6140e581856159d2565b93506140f5818560208601615cce565b80840191505092915050565b61410a81615c89565b82525050565b61411981615cad565b82525050565b600061412b83856159dd565b9350614138838584615cbf565b61414183615e81565b840190509392505050565b600061415782615987565b61416181856159dd565b9350614171818560208601615cce565b61417a81615e81565b840191505092915050565b600061419082615987565b61419a81856159ee565b93506141aa818560208601615cce565b80840191505092915050565b60006141c36014836159dd565b91507f496d706f737369626c6520676173206c696d69740000000000000000000000006000830152602082019050919050565b6000614203600e836159dd565b91507f68756220646570726563617465640000000000000000000000000000000000006000830152602082019050919050565b60006142436018836159dd565b91507f696e76616c69642065787465726e616c4761734c696d697400000000000000006000830152602082019050919050565b60006142836012836159dd565b91507f416c7265616479206465707265636174656400000000000000000000000000006000830152602082019050919050565b60006142c36019836159dd565b91507f7468697320776f726b6572206861732061206d616e61676572000000000000006000830152602082019050919050565b60006143036026836159dd565b91507f4f776e61626c653a206e6577206f776e657220697320746865207a65726f206160008301527f64647265737300000000000000000000000000000000000000000000000000006020830152604082019050919050565b60006143696019836159dd565b91507f616363657074616e63652062756467657420746f6f206c6f77000000000000006000830152602082019050919050565b60006143a9601a836159dd565b91507f4d7573742062652063616c6c65642062792052656c61794875620000000000006000830152602082019050919050565b60006143e96001836159ee565b91507f2c000000000000000000000000000000000000000000000000000000000000006000830152600182019050919050565b60006144296014836159ee565b91507f52656c6179446174612072656c617944617461290000000000000000000000006000830152601482019050919050565b60006144696011836159dd565b91507f496e76616c6964206761732070726963650000000000000000000000000000006000830152602082019050919050565b60006144a96001836159ee565b91507f28000000000000000000000000000000000000000000000000000000000000006000830152600182019050919050565b60006144e9600f836159dd565b91507f6465706f73697420746f6f2062696700000000000000000000000000000000006000830152602082019050919050565b60006145296018836159dd565b91507f72656c6179206d616e61676572206e6f74207374616b656400000000000000006000830152602082019050919050565b60006145696018836159dd565b91507f72656c617920776f726b6572206d75737420626520454f4100000000000000006000830152602082019050919050565b60006145a96010836159dd565b91507f6e6f2072656c617920776f726b657273000000000000000000000000000000006000830152602082019050919050565b60006145e96017836159dd565b91507f6d73672e64617461206578636565646564206c696d69740000000000000000006000830152602082019050919050565b6000614629600d836159dd565b91507f4e6f742070656e616c697a6572000000000000000000000000000000000000006000830152602082019050919050565b60006146696020836159dd565b91507f4f776e61626c653a2063616c6c6572206973206e6f7420746865206f776e65726000830152602082019050919050565b60006146a96019836159dd565b91507f6e6f2067617320666f7220696e6e657252656c617943616c6c000000000000006000830152602082019050919050565b60006146e96010836159dd565b91507f746f6f206d616e7920776f726b657273000000000000000000000000000000006000830152602082019050919050565b6000614729601a836159dd565b91507f616363657074616e63652062756467657420746f6f20686967680000000000006000830152602082019050919050565b60006147696012836159dd565b91507f696e73756666696369656e742066756e647300000000000000000000000000006000830152602082019050919050565b60006147a96014836159dd565b91507f6578747261206d73672e646174612062797465730000000000000000000000006000830152602082019050919050565b60006147e96012836159dd565b91507f4e6f74206120726967687420776f726b657200000000000000000000000000006000830152602082019050919050565b60006148296019836159dd565b91507f5061796d61737465722062616c616e636520746f6f206c6f77000000000000006000830152602082019050919050565b60006148696018836159dd565b91507f696e76616c6964207369676e6174757265206c656e67746800000000000000006000830152602082019050919050565b60006148a9601a836159dd565b91507f726561644279746573343a206461746120746f6f2073686f72740000000000006000830152602082019050919050565b60006148e96014836159dd565b91507f556e6b6e6f776e2072656c617920776f726b65720000000000000000000000006000830152602082019050919050565b600060e0830161492f60008401846159f9565b61493c6000860182613f70565b5061494a60208401846159f9565b6149576020860182613f70565b506149656040840184615ab0565b6149726040860182614f27565b506149806060840184615ab0565b61498d6060860182614f27565b5061499b6080840184615ab0565b6149a86080860182614f27565b506149b660a0840184615a10565b85830360a08701526149c9838284614018565b925050506149da60c0840184615ab0565b6149e760c0860182614f27565b508091505092915050565b600060e08301614a0560008401846159f9565b614a126000860182613f70565b50614a2060208401846159f9565b614a2d6020860182613f70565b50614a3b6040840184615ab0565b614a486040860182614f27565b50614a566060840184615ab0565b614a636060860182614f27565b50614a716080840184615ab0565b614a7e6080860182614f27565b50614a8c60a0840184615a10565b85830360a0870152614a9f838284614018565b92505050614ab060c0840184615ab0565b614abd60c0860182614f27565b508091505092915050565b608082016000820151614ade6000850182614f27565b506020820151614af16020850182614f27565b506040820151614b046040850182614f27565b506060820151614b176060850182614f27565b50505050565b60006101008301614b316000840184615ab0565b614b3e6000860182614f27565b50614b4c6020840184615ab0565b614b596020860182614f27565b50614b676040840184615ab0565b614b746040860182614f27565b50614b8260608401846159f9565b614b8f6060860182613f70565b50614b9d60808401846159f9565b614baa6080860182613f70565b50614bb860a08401846159f9565b614bc560a0860182613f70565b50614bd360c0840184615a10565b85830360c0870152614be6838284614018565b92505050614bf760e0840184615ab0565b614c0460e0860182614f27565b508091505092915050565b60006101008301614c236000840184615ab0565b614c306000860182614f27565b50614c3e6020840184615ab0565b614c4b6020860182614f27565b50614c596040840184615ab0565b614c666040860182614f27565b50614c7460608401846159f9565b614c816060860182613f70565b50614c8f60808401846159f9565b614c9c6080860182613f70565b50614caa60a08401846159f9565b614cb760a0860182613f70565b50614cc560c0840184615a10565b85830360c0870152614cd8838284614018565b92505050614ce960e0840184615ab0565b614cf660e0860182614f27565b508091505092915050565b61012082016000820151614d186000850182614f27565b506020820151614d2b6020850182614f27565b506040820151614d3e6040850182614f27565b506060820151614d516060850182614f27565b506080820151614d646080850182614f27565b5060a0820151614d7760a0850182614f27565b5060c0820151614d8a60c0850182614f27565b5060e0820151614d9d60e0850182614f27565b50610100820151614db2610100850182614f27565b50505050565b61012082016000808301549050614dce81615d33565b614ddb6000860182614f27565b5060018301549050614dec81615d33565b614df96020860182614f27565b5060028301549050614e0a81615d33565b614e176040860182614f27565b5060038301549050614e2881615d33565b614e356060860182614f27565b5060048301549050614e4681615d33565b614e536080860182614f27565b5060058301549050614e6481615d33565b614e7160a0860182614f27565b5060068301549050614e8281615d33565b614e8f60c0860182614f27565b5060078301549050614ea081615d33565b614ead60e0860182614f27565b5060088301549050614ebe81615d33565b614ecc610100860182614f27565b5050505050565b600060408301614ee66000840184615a67565b8482036000860152614ef8828261491c565b915050614f086020840184615a8b565b8482036020860152614f1a8282614b1d565b9150508091505092915050565b614f3081615c7f565b82525050565b614f3f81615c7f565b82525050565b6000614f52828486614072565b91508190509392505050565b6000614f6a82846140d0565b915081905092915050565b6000614f818286614185565b9150614f8c8261449c565b9150614f988285614185565b9150614fa3826143dc565b9150614faf8284614185565b9150819050949350505050565b6000614fc78261441c565b9150614fd382846140d0565b915081905092915050565b6000602082019050614ff36000830184613f7f565b92915050565b600060608201905061500e6000830186613f7f565b61501b6020830185613f61565b6150286040830184614f36565b949350505050565b600060a0820190506150456000830188613f7f565b6150526020830187613f7f565b61505f6040830186614009565b61506c6060830185614110565b6150796080830184614f36565b9695505050505050565b600060a0820190506150986000830188613f7f565b6150a56020830187613f7f565b6150b26040830186614009565b6150bf6060830185614f36565b81810360808301526150d18184614097565b90509695505050505050565b60006080820190506150f26000830187613f7f565b6150ff6020830186613f7f565b61510c6040830185614f36565b6151196060830184614f36565b95945050505050565b6000604082019050818103600083015261513d818587613f8e565b905061514c6020830184614f36565b949350505050565b60006020820190506151696000830184613feb565b92915050565b60006040820190506151846000830185613feb565b81810360208301526151968184614097565b90509392505050565b60006020820190506151b46000830184613ffa565b92915050565b600060a0820190506151cf6000830188613ffa565b6151dc6020830187613ffa565b6151e96040830186613ffa565b6151f66060830185614f36565b6152036080830184613f7f565b9695505050505050565b600061012082019050615223600083018c613ffa565b615230602083018b614f36565b61523d604083018a614f36565b61524a6060830189614f36565b6152576080830188613f7f565b61526460a0830187613f7f565b61527160c0830186613f7f565b61527e60e0830185613ffa565b61528c610100830184614f36565b9a9950505050505050505050565b600060808201905081810360008301526152b48187614097565b90506152c36020830186613feb565b6152d06040830185614f36565b81810360608301526152e28184614c0f565b905095945050505050565b60006020820190506153026000830184614101565b92915050565b600060408201905061531d6000830185614110565b818103602083015261532f8184614097565b90509392505050565b60006020820190508181036000830152615352818461414c565b905092915050565b60006020820190508181036000830152615373816141b6565b9050919050565b60006020820190508181036000830152615393816141f6565b9050919050565b600060208201905081810360008301526153b381614236565b9050919050565b600060208201905081810360008301526153d381614276565b9050919050565b600060208201905081810360008301526153f3816142b6565b9050919050565b60006020820190508181036000830152615413816142f6565b9050919050565b600060208201905081810360008301526154338161435c565b9050919050565b600060208201905081810360008301526154538161439c565b9050919050565b600060208201905081810360008301526154738161445c565b9050919050565b60006020820190508181036000830152615493816144dc565b9050919050565b600060208201905081810360008301526154b38161451c565b9050919050565b600060208201905081810360008301526154d38161455c565b9050919050565b600060208201905081810360008301526154f38161459c565b9050919050565b60006020820190508181036000830152615513816145dc565b9050919050565b600060208201905081810360008301526155338161461c565b9050919050565b600060208201905081810360008301526155538161465c565b9050919050565b600060208201905081810360008301526155738161469c565b9050919050565b60006020820190508181036000830152615593816146dc565b9050919050565b600060208201905081810360008301526155b38161471c565b9050919050565b600060208201905081810360008301526155d38161475c565b9050919050565b600060208201905081810360008301526155f38161479c565b9050919050565b60006020820190508181036000830152615613816147dc565b9050919050565b600060208201905081810360008301526156338161481c565b9050919050565b600060208201905081810360008301526156538161485c565b9050919050565b600060208201905081810360008301526156738161489c565b9050919050565b60006020820190508181036000830152615693816148dc565b9050919050565b600060a08201905081810360008301526156b481896149f2565b90506156c36020830188613ffa565b6156d06040830187613ffa565b81810360608301526156e28186614097565b905081810360808301526156f7818486614045565b9050979650505050505050565b60006101208201905061571a6000830184614d01565b92915050565b6000610120820190506157366000830184614db8565b92915050565b6000610120820190508181036000830152615757818b614ed3565b9050818103602083015261576c81898b614045565b90508181036040830152615781818789614045565b90506157906060830186614ac8565b61579d60e0830185614f36565b6157ab610100830184614f36565b9998505050505050505050565b600060808201905081810360008301526157d28189614ed3565b905081810360208301526157e7818789614045565b905081810360408301526157fc818587614045565b905061580b6060830184614f36565b979650505050505050565b600060208201905061582b6000830184614f36565b92915050565b60006060820190506158466000830187614f36565b6158536020830186614f36565b818103604083015261586681848661411f565b905095945050505050565b6000808335600160200384360303811261588a57600080fd5b80840192508235915067ffffffffffffffff8211156158a857600080fd5b6020830192506001820236038313156158c057600080fd5b509250929050565b60008235600160e0038336030381126158e057600080fd5b80830191505092915050565b6000823560016101000383360303811261590557600080fd5b80830191505092915050565b6000604051905081810181811067ffffffffffffffff8211171561593857615937615e52565b5b8060405250919050565b600067ffffffffffffffff82111561595d5761595c615e52565b5b601f19601f8301169050602081019050919050565b6000819050919050565b600081519050919050565b600081519050919050565b6000602082019050919050565b600082825260208201905092915050565b600082825260208201905092915050565b600082825260208201905092915050565b600081905092915050565b600082825260208201905092915050565b600081905092915050565b6000615a086020840184613683565b905092915050565b60008083356001602003843603038112615a2957600080fd5b83810192508235915060208301925067ffffffffffffffff821115615a4d57600080fd5b600182023603841315615a5f57600080fd5b509250929050565b60008235600160e003833603038112615a7f57600080fd5b82810191505092915050565b60008235600161010003833603038112615aa457600080fd5b82810191505092915050565b6000615abf6020840184613a0a565b905092915050565b6000615ad282615c7f565b9150615add83615c7f565b9250827fffffffffffffffffffffffffffffffffffffffffffffffffffffffffffffffff03821115615b1257615b11615d96565b5b828201905092915050565b6000615b2882615c7f565b9150615b3383615c7f565b925082615b4357615b42615dc5565b5b828204905092915050565b6000615b5982615c7f565b9150615b6483615c7f565b9250817fffffffffffffffffffffffffffffffffffffffffffffffffffffffffffffffff0483118215151615615b9d57615b9c615d96565b5b828202905092915050565b6000615bb382615c7f565b9150615bbe83615c7f565b925082821015615bd157615bd0615d96565b5b828203905092915050565b6000819050919050565b6000615bf182615c5f565b9050919050565b6000615c0382615c5f565b9050919050565b60008115159050919050565b6000819050919050565b60007fffffffff0000000000000000000000000000000000000000000000000000000082169050919050565b6000819050615c5a82615e9f565b919050565b600073ffffffffffffffffffffffffffffffffffffffff82169050919050565b6000819050919050565b6000615c9482615c9b565b9050919050565b6000615ca682615c5f565b9050919050565b6000615cb882615c4c565b9050919050565b82818337600083830152505050565b60005b83811015615cec578082015181840152602081019050615cd1565b83811115615cfb576000848401525b50505050565b60006002820490506001821680615d1957607f821691505b60208210811415615d2d57615d2c615e23565b5b50919050565b6000615d46615d4183615e92565b615bdc565b9050919050565b6000615d5882615c7f565b91507fffffffffffffffffffffffffffffffffffffffffffffffffffffffffffffffff821415615d8b57615d8a615d96565b5b600182019050919050565b7f4e487b7100000000000000000000000000000000000000000000000000000000600052601160045260246000fd5b7f4e487b7100000000000000000000000000000000000000000000000000000000600052601260045260246000fd5b7f4e487b7100000000000000000000000000000000000000000000000000000000600052602160045260246000fd5b7f4e487b7100000000000000000000000000000000000000000000000000000000600052602260045260246000fd5b7f4e487b7100000000000000000000000000000000000000000000000000000000600052604160045260246000fd5b6000601f19601f8301169050919050565b60008160001c9050919050565b60078110615eb057615eaf615df4565b5b50565b615ebc81615be6565b8114615ec757600080fd5b50565b615ed381615bf8565b8114615ede57600080fd5b50565b615eea81615c0a565b8114615ef557600080fd5b50565b60078110615f0557600080fd5b50565b615f1181615c7f565b8114615f1c57600080fd5b5056fe616464726573732066726f6d2c6164647265737320746f2c75696e743235362076616c75652c75696e74323536206761732c75696e74323536206e6f6e63652c627974657320646174612c75696e743235362076616c6964556e74696c52656c6179446174612875696e743235362067617350726963652c75696e743235362070637452656c61794665652c75696e74323536206261736552656c61794665652c616464726573732072656c6179576f726b65722c61646472657373207061796d61737465722c6164647265737320666f727761726465722c6279746573207061796d6173746572446174612c75696e7432353620636c69656e74496429a264697066735822122031eec1354d34a4ef6eb4119f20fb92bd5cc77bf459ddd8de9da9ff6aa8728d0f64736f6c63430008000033",
  "linkReferences": {},
  "deployedLinkReferences": {}
}