{
  "_format": "hh-sol-artifact-1",
  "contractName": "MonalizaFactory",
  "sourceName": "contracts/MonalizaFactory.sol",
  "abi": [
    {
      "anonymous": false,
      "inputs": [
        {
          "indexed": false,
          "internalType": "string",
          "name": "name",
          "type": "string"
        },
        {
          "indexed": false,
          "internalType": "string",
          "name": "symbol",
          "type": "string"
        },
        {
          "indexed": false,
          "internalType": "address",
          "name": "newContract",
          "type": "address"
        }
      ],
      "name": "DeployContract",
      "type": "event"
    },
    {
      "anonymous": false,
      "inputs": [
        {
          "indexed": false,
          "internalType": "contract Monaliza",
          "name": "tokenAddress",
          "type": "address"
        },
        {
          "indexed": false,
          "internalType": "uint256",
          "name": "newItemId",
          "type": "uint256"
        }
      ],
      "name": "Mint",
      "type": "event"
    },
    {
      "inputs": [
        {
          "internalType": "uint256",
          "name": "",
          "type": "uint256"
        }
      ],
      "name": "contracts",
      "outputs": [
        {
          "internalType": "address",
          "name": "",
          "type": "address"
        }
      ],
      "stateMutability": "view",
      "type": "function"
    },
    {
      "inputs": [
        {
          "internalType": "string",
          "name": "name",
          "type": "string"
        },
        {
          "internalType": "string",
          "name": "symbol",
          "type": "string"
        },
        {
          "internalType": "address",
          "name": "registryAddress",
          "type": "address"
        }
      ],
      "name": "deployNFTContract",
      "outputs": [
        {
          "internalType": "address",
          "name": "newContract",
          "type": "address"
        }
      ],
      "stateMutability": "nonpayable",
      "type": "function"
    },
    {
      "inputs": [
        {
          "internalType": "contract Monaliza",
          "name": "contractAddress",
          "type": "address"
        }
      ],
      "name": "getBaseTokenURI",
      "outputs": [
        {
          "internalType": "string",
          "name": "baseURI",
          "type": "string"
        }
      ],
      "stateMutability": "view",
      "type": "function"
    },
    {
      "inputs": [],
      "name": "getContractCount",
      "outputs": [
        {
          "internalType": "uint256",
          "name": "contractCount",
          "type": "uint256"
        }
      ],
      "stateMutability": "view",
      "type": "function"
    },
    {
      "inputs": [],
      "name": "getLastContractAddress",
      "outputs": [
        {
          "internalType": "address",
          "name": "cAddr",
          "type": "address"
        }
      ],
      "stateMutability": "view",
      "type": "function"
    },
    {
      "inputs": [
        {
          "internalType": "contract Monaliza",
          "name": "contractAddress",
          "type": "address"
        }
      ],
      "name": "getLastTokenID",
      "outputs": [
        {
          "internalType": "uint256",
          "name": "newItemId",
          "type": "uint256"
        }
      ],
      "stateMutability": "view",
      "type": "function"
    },
    {
      "inputs": [],
      "name": "lastContractAddress",
      "outputs": [
        {
          "internalType": "address",
          "name": "",
          "type": "address"
        }
      ],
      "stateMutability": "view",
      "type": "function"
    },
    {
      "inputs": [
        {
          "internalType": "address",
          "name": "",
          "type": "address"
        }
      ],
      "name": "lastTokenIDs",
      "outputs": [
        {
          "internalType": "uint256",
          "name": "",
          "type": "uint256"
        }
      ],
      "stateMutability": "view",
      "type": "function"
    },
    {
      "inputs": [
        {
          "internalType": "contract Monaliza",
          "name": "tokenAddress",
          "type": "address"
        },
        {
          "internalType": "address",
          "name": "to",
          "type": "address"
        },
        {
          "internalType": "string",
          "name": "tokenURI",
          "type": "string"
        }
      ],
      "name": "mintNFT",
      "outputs": [
        {
          "internalType": "uint256",
          "name": "newItemId",
          "type": "uint256"
        }
      ],
      "stateMutability": "nonpayable",
      "type": "function"
    }
  ],
  "bytecode": "0x608060405234801561001057600080fd5b506150eb806100206000396000f3fe60806040523480156200001157600080fd5b5060043610620000a05760003560e01c8063474da79a116200006f578063474da79a14620001695780637c818f54146200019f5780639399869d14620001d5578063abed2f7714620001f7578063ff55c3a2146200021957620000a0565b806319e1f54114620000a55780632ac0f25414620000db5780633270973814620001115780633fcf54591462000133575b600080fd5b620000c36004803603810190620000bd9190620007ea565b6200024f565b604051620000d2919062000b03565b60405180910390f35b620000f96004803603810190620000f39190620008f6565b62000267565b60405162000108919062000a4a565b60405180910390f35b6200011b6200039b565b6040516200012a919062000a4a565b60405180910390f35b6200015160048036038101906200014b919062000816565b620003c1565b60405162000160919062000a94565b60405180910390f35b6200018760048036038101906200018191906200097e565b62000451565b60405162000196919062000a4a565b60405180910390f35b620001bd6004803603810190620001b7919062000842565b62000491565b604051620001cc919062000b03565b60405180910390f35b620001df6200061d565b604051620001ee919062000b03565b60405180910390f35b6200020162000629565b60405162000210919062000a4a565b60405180910390f35b62000237600480360381019062000231919062000816565b62000653565b60405162000246919062000b03565b60405180910390f35b60026020528060005260406000206000915090505481565b6000808484846040516200027b906200069c565b620002899392919062000ab8565b604051809103906000f080158015620002a6573d6000803e3d6000fd5b50905060008190506000819080600181540180825580915050600190039060005260206000200160009091909190916101000a81548173ffffffffffffffffffffffffffffffffffffffff021916908373ffffffffffffffffffffffffffffffffffffffff16021790555080600160006101000a81548173ffffffffffffffffffffffffffffffffffffffff021916908373ffffffffffffffffffffffffffffffffffffffff1602179055507f909d3a27d497eeb2405be5653f130fc82124fdfb09dc58dd30b8d13406601a23868683604051620003879392919062000ab8565b60405180910390a180925050509392505050565b600160009054906101000a900473ffffffffffffffffffffffffffffffffffffffff1681565b60608173ffffffffffffffffffffffffffffffffffffffff1663d547cfb76040518163ffffffff1660e01b815260040160006040518083038186803b1580156200040a57600080fd5b505afa1580156200041f573d6000803e3d6000fd5b505050506040513d6000823e3d601f19601f820116820180604052508101906200044a9190620008b1565b9050919050565b600081815481106200046257600080fd5b906000526020600020016000915054906101000a900473ffffffffffffffffffffffffffffffffffffffff1681565b60008373ffffffffffffffffffffffffffffffffffffffff1663755edd17846040518263ffffffff1660e01b8152600401620004ce919062000a4a565b602060405180830381600087803b158015620004e957600080fd5b505af1158015620004fe573d6000803e3d6000fd5b505050506040513d601f19601f82011682018060405250810190620005249190620009aa565b90508373ffffffffffffffffffffffffffffffffffffffff16630153886882846040518363ffffffff1660e01b81526004016200056392919062000b20565b600060405180830381600087803b1580156200057e57600080fd5b505af115801562000593573d6000803e3d6000fd5b5050505080600260008673ffffffffffffffffffffffffffffffffffffffff1673ffffffffffffffffffffffffffffffffffffffff168152602001908152602001600020819055507f0f6798a560793a54c3bcfe86a93cde1e73087d944c0ea20544137d412139688584826040516200060e92919062000a67565b60405180910390a19392505050565b60008080549050905090565b6000600160009054906101000a900473ffffffffffffffffffffffffffffffffffffffff16905090565b6000600260008373ffffffffffffffffffffffffffffffffffffffff1673ffffffffffffffffffffffffffffffffffffffff168152602001908152602001600020549050919050565b6143918062000d2583390190565b6000620006c1620006bb8462000b88565b62000b54565b905082815260208101848484011115620006da57600080fd5b620006e784828562000c51565b509392505050565b600062000706620007008462000b88565b62000b54565b9050828152602081018484840111156200071f57600080fd5b6200072c84828562000c60565b509392505050565b600081359050620007458162000cd6565b92915050565b6000813590506200075c8162000cf0565b92915050565b600082601f8301126200077457600080fd5b813562000786848260208601620006aa565b91505092915050565b600082601f830112620007a157600080fd5b8151620007b3848260208601620006ef565b91505092915050565b600081359050620007cd8162000d0a565b92915050565b600081519050620007e48162000d0a565b92915050565b600060208284031215620007fd57600080fd5b60006200080d8482850162000734565b91505092915050565b6000602082840312156200082957600080fd5b600062000839848285016200074b565b91505092915050565b6000806000606084860312156200085857600080fd5b600062000868868287016200074b565b93505060206200087b8682870162000734565b925050604084013567ffffffffffffffff8111156200089957600080fd5b620008a78682870162000762565b9150509250925092565b600060208284031215620008c457600080fd5b600082015167ffffffffffffffff811115620008df57600080fd5b620008ed848285016200078f565b91505092915050565b6000806000606084860312156200090c57600080fd5b600084013567ffffffffffffffff8111156200092757600080fd5b620009358682870162000762565b935050602084013567ffffffffffffffff8111156200095357600080fd5b620009618682870162000762565b9250506040620009748682870162000734565b9150509250925092565b6000602082840312156200099157600080fd5b6000620009a184828501620007bc565b91505092915050565b600060208284031215620009bd57600080fd5b6000620009cd84828501620007d3565b91505092915050565b620009e18162000bd7565b82525050565b620009f28162000c29565b82525050565b600062000a058262000bbb565b62000a11818562000bc6565b935062000a2381856020860162000c60565b62000a2e8162000cc5565b840191505092915050565b62000a448162000c1f565b82525050565b600060208201905062000a616000830184620009d6565b92915050565b600060408201905062000a7e6000830185620009e7565b62000a8d602083018462000a39565b9392505050565b6000602082019050818103600083015262000ab08184620009f8565b905092915050565b6000606082019050818103600083015262000ad48186620009f8565b9050818103602083015262000aea8185620009f8565b905062000afb6040830184620009d6565b949350505050565b600060208201905062000b1a600083018462000a39565b92915050565b600060408201905062000b37600083018562000a39565b818103602083015262000b4b8184620009f8565b90509392505050565b6000604051905081810181811067ffffffffffffffff8211171562000b7e5762000b7d62000c96565b5b8060405250919050565b600067ffffffffffffffff82111562000ba65762000ba562000c96565b5b601f19601f8301169050602081019050919050565b600081519050919050565b600082825260208201905092915050565b600062000be48262000bff565b9050919050565b600062000bf88262000bd7565b9050919050565b600073ffffffffffffffffffffffffffffffffffffffff82169050919050565b6000819050919050565b600062000c368262000c3d565b9050919050565b600062000c4a8262000bff565b9050919050565b82818337600083830152505050565b60005b8381101562000c8057808201518184015260208101905062000c63565b8381111562000c90576000848401525b50505050565b7f4e487b7100000000000000000000000000000000000000000000000000000000600052604160045260246000fd5b6000601f19601f8301169050919050565b62000ce18162000bd7565b811462000ced57600080fd5b50565b62000cfb8162000beb565b811462000d0757600080fd5b50565b62000d158162000c1f565b811462000d2157600080fd5b5056fe60806040526000600660006101000a81548160ff0219169083151502179055503480156200002c57600080fd5b506040516200439138038062004391833981810160405281019062000052919062000542565b828282828281600090805190602001906200006f92919062000409565b5080600190805190602001906200008892919062000409565b505050620000ab6200009f6200012060201b60201c565b6200013c60201b60201c565b80600b60006101000a81548173ffffffffffffffffffffffffffffffffffffffff021916908373ffffffffffffffffffffffffffffffffffffffff16021790555062000103600a6200020260201b620015431760201c565b62000114836200021860201b60201c565b50505050505062000847565b6000620001376200029a60201b620015591760201c565b905090565b6000600960009054906101000a900473ffffffffffffffffffffffffffffffffffffffff16905081600960006101000a81548173ffffffffffffffffffffffffffffffffffffffff021916908373ffffffffffffffffffffffffffffffffffffffff1602179055508173ffffffffffffffffffffffffffffffffffffffff168173ffffffffffffffffffffffffffffffffffffffff167f8be0079c531659141344cd1fd0a4f28419497f9722a3daafe3b4186f6b6457e060405160405180910390a35050565b6001816000016000828254019250508190555050565b600660009054906101000a900460ff16156200026b576040517f08c379a000000000000000000000000000000000000000000000000000000000815260040162000262906200068b565b60405180910390fd5b6200027c816200034d60201b60201c565b6001600660006101000a81548160ff02191690831515021790555050565b60003073ffffffffffffffffffffffffffffffffffffffff163373ffffffffffffffffffffffffffffffffffffffff1614156200034657600080368080601f016020809104026020016040519081016040528093929190818152602001838380828437600081840152601f19601f820116905080830192505050505050509050600080369050905073ffffffffffffffffffffffffffffffffffffffff8183015116925050506200034a565b3390505b90565b6040518060800160405280604f815260200162004342604f91398051906020012081805190602001206040518060400160405280600181526020017f31000000000000000000000000000000000000000000000000000000000000008152508051906020012030620003c4620003fc60201b60201c565b60001b604051602001620003dd9594939291906200062e565b6040516020818303038152906040528051906020012060078190555050565b6000804690508091505090565b828054620004179062000799565b90600052602060002090601f0160209004810192826200043b576000855562000487565b82601f106200045657805160ff191683800117855562000487565b8280016001018555821562000487579182015b828111156200048657825182559160200191906001019062000469565b5b5090506200049691906200049a565b5090565b5b80821115620004b55760008160009055506001016200049b565b5090565b6000620004d0620004ca84620006e1565b620006ad565b905082815260208101848484011115620004e957600080fd5b620004f684828562000763565b509392505050565b6000815190506200050f816200082d565b92915050565b600082601f8301126200052757600080fd5b815162000539848260208601620004b9565b91505092915050565b6000806000606084860312156200055857600080fd5b600084015167ffffffffffffffff8111156200057357600080fd5b620005818682870162000515565b935050602084015167ffffffffffffffff8111156200059f57600080fd5b620005ad8682870162000515565b9250506040620005c086828701620004fe565b9150509250925092565b620005d58162000725565b82525050565b620005e68162000739565b82525050565b6000620005fb600e8362000714565b91507f616c726561647920696e697465640000000000000000000000000000000000006000830152602082019050919050565b600060a082019050620006456000830188620005db565b620006546020830187620005db565b620006636040830186620005db565b620006726060830185620005ca565b620006816080830184620005db565b9695505050505050565b60006020820190508181036000830152620006a681620005ec565b9050919050565b6000604051905081810181811067ffffffffffffffff82111715620006d757620006d6620007fe565b5b8060405250919050565b600067ffffffffffffffff821115620006ff57620006fe620007fe565b5b601f19601f8301169050602081019050919050565b600082825260208201905092915050565b6000620007328262000743565b9050919050565b6000819050919050565b600073ffffffffffffffffffffffffffffffffffffffff82169050919050565b60005b838110156200078357808201518184015260208101905062000766565b8381111562000793576000848401525b50505050565b60006002820490506001821680620007b257607f821691505b60208210811415620007c957620007c8620007cf565b5b50919050565b7f4e487b7100000000000000000000000000000000000000000000000000000000600052602260045260246000fd5b7f4e487b7100000000000000000000000000000000000000000000000000000000600052604160045260246000fd5b620008388162000725565b81146200084457600080fd5b50565b613aeb80620008576000396000f3fe60806040526004361061019c5760003560e01c806342842e0e116100ec578063a22cb4651161008a578063d547cfb711610064578063d547cfb7146105f3578063e8a3d4851461061e578063e985e9c514610649578063f2fde38b146106865761019c565b8063a22cb46514610564578063b88d4fde1461058d578063c87b56dd146105b65761019c565b8063715018a6116100c6578063715018a6146104ba578063755edd17146104d15780638da5cb5b1461050e57806395d89b41146105395761019c565b806342842e0e146104175780636352211e1461044057806370a082311461047d5761019c565b80630f7e59701161015957806323b872dd1161013357806323b872dd146103495780632d0335ab146103725780633408e470146103af5780633bb3a24d146103da5761019c565b80630f7e5970146102c857806318160ddd146102f357806320379ee51461031e5761019c565b806301538868146101a157806301ffc9a7146101ca57806306fdde0314610207578063081812fc14610232578063095ea7b31461026f5780630c53c51c14610298575b600080fd5b3480156101ad57600080fd5b506101c860048036038101906101c391906128be565b6106af565b005b3480156101d657600080fd5b506101f160048036038101906101ec919061281a565b61073a565b6040516101fe91906132b4565b60405180910390f35b34801561021357600080fd5b5061021c61081c565b6040516102299190613396565b60405180910390f35b34801561023e57600080fd5b5061025960048036038101906102549190612895565b6108ae565b604051610266919061320f565b60405180910390f35b34801561027b57600080fd5b50610296600480360381019061029191906127de565b610933565b005b6102b260048036038101906102ad919061274f565b610a4b565b6040516102bf9190613374565b60405180910390f35b3480156102d457600080fd5b506102dd610cbd565b6040516102ea9190613396565b60405180910390f35b3480156102ff57600080fd5b50610308610cf6565b6040516103159190613618565b60405180910390f35b34801561032a57600080fd5b50610333610d13565b60405161034091906132cf565b60405180910390f35b34801561035557600080fd5b50610370600480360381019061036b9190612649565b610d1d565b005b34801561037e57600080fd5b50610399600480360381019061039491906125e4565b610d7d565b6040516103a69190613618565b60405180910390f35b3480156103bb57600080fd5b506103c4610dc6565b6040516103d19190613618565b60405180910390f35b3480156103e657600080fd5b5061040160048036038101906103fc9190612895565b610dd3565b60405161040e9190613396565b60405180910390f35b34801561042357600080fd5b5061043e60048036038101906104399190612649565b610e78565b005b34801561044c57600080fd5b5061046760048036038101906104629190612895565b610e98565b604051610474919061320f565b60405180910390f35b34801561048957600080fd5b506104a4600480360381019061049f91906125e4565b610f4a565b6040516104b19190613618565b60405180910390f35b3480156104c657600080fd5b506104cf611002565b005b3480156104dd57600080fd5b506104f860048036038101906104f391906125e4565b61108a565b6040516105059190613618565b60405180910390f35b34801561051a57600080fd5b50610523611133565b604051610530919061320f565b60405180910390f35b34801561054557600080fd5b5061054e61115d565b60405161055b9190613396565b60405180910390f35b34801561057057600080fd5b5061058b60048036038101906105869190612713565b6111ef565b005b34801561059957600080fd5b506105b460048036038101906105af9190612698565b611205565b005b3480156105c257600080fd5b506105dd60048036038101906105d89190612895565b611267565b6040516105ea9190613396565b60405180910390f35b3480156105ff57600080fd5b50610608611297565b6040516106159190613396565b60405180910390f35b34801561062a57600080fd5b50610633611329565b6040516106409190613396565b60405180910390f35b34801561065557600080fd5b50610670600480360381019061066b919061260d565b611349565b60405161067d91906132b4565b60405180910390f35b34801561069257600080fd5b506106ad60048036038101906106a891906125e4565b61144b565b005b6106b88261160a565b6106f7576040517f08c379a00000000000000000000000000000000000000000000000000000000081526004016106ee90613558565b60405180910390fd5b80600d6000848152602001908152602001600020908051906020019061071e9291906123c9565b5080600c90805190602001906107359291906123c9565b505050565b60007f80ac58cd000000000000000000000000000000000000000000000000000000007bffffffffffffffffffffffffffffffffffffffffffffffffffffffff1916827bffffffffffffffffffffffffffffffffffffffffffffffffffffffff1916148061080557507f5b5e139f000000000000000000000000000000000000000000000000000000007bffffffffffffffffffffffffffffffffffffffffffffffffffffffff1916827bffffffffffffffffffffffffffffffffffffffffffffffffffffffff1916145b80610815575061081482611676565b5b9050919050565b60606000805461082b9061388d565b80601f01602080910402602001604051908101604052809291908181526020018280546108579061388d565b80156108a45780601f10610879576101008083540402835291602001916108a4565b820191906000526020600020905b81548152906001019060200180831161088757829003601f168201915b5050505050905090565b60006108b98261160a565b6108f8576040517f08c379a00000000000000000000000000000000000000000000000000000000081526004016108ef90613538565b60405180910390fd5b6004600083815260200190815260200160002060009054906101000a900473ffffffffffffffffffffffffffffffffffffffff169050919050565b600061093e82610e98565b90508073ffffffffffffffffffffffffffffffffffffffff168373ffffffffffffffffffffffffffffffffffffffff1614156109af576040517f08c379a00000000000000000000000000000000000000000000000000000000081526004016109a6906135d8565b60405180910390fd5b8073ffffffffffffffffffffffffffffffffffffffff166109ce6116e0565b73ffffffffffffffffffffffffffffffffffffffff1614806109fd57506109fc816109f76116e0565b611349565b5b610a3c576040517f08c379a0000000000000000000000000000000000000000000000000000000008152600401610a33906134b8565b60405180910390fd5b610a4683836116ef565b505050565b606060006040518060600160405280600860008a73ffffffffffffffffffffffffffffffffffffffff1673ffffffffffffffffffffffffffffffffffffffff1681526020019081526020016000205481526020018873ffffffffffffffffffffffffffffffffffffffff168152602001878152509050610ace87828787876117a8565b610b0d576040517f08c379a0000000000000000000000000000000000000000000000000000000008152600401610b04906135b8565b60405180910390fd5b610b606001600860008a73ffffffffffffffffffffffffffffffffffffffff1673ffffffffffffffffffffffffffffffffffffffff168152602001908152602001600020546118b190919063ffffffff16565b600860008973ffffffffffffffffffffffffffffffffffffffff1673ffffffffffffffffffffffffffffffffffffffff168152602001908152602001600020819055507f5845892132946850460bff5a0083f71031bc5bf9aadcd40f1de79423eac9b10b873388604051610bd69392919061322a565b60405180910390a16000803073ffffffffffffffffffffffffffffffffffffffff16888a604051602001610c0b929190613199565b604051602081830303815290604052604051610c279190613182565b6000604051808303816000865af19150503d8060008114610c64576040519150601f19603f3d011682016040523d82523d6000602084013e610c69565b606091505b509150915081610cae576040517f08c379a0000000000000000000000000000000000000000000000000000000008152600401610ca5906133f8565b60405180910390fd5b80935050505095945050505050565b6040518060400160405280600181526020017f310000000000000000000000000000000000000000000000000000000000000081525081565b60006001610d04600a6118c7565b610d0e9190613768565b905090565b6000600754905090565b610d2e610d286116e0565b826118d5565b610d6d576040517f08c379a0000000000000000000000000000000000000000000000000000000008152600401610d64906135f8565b60405180910390fd5b610d788383836119b3565b505050565b6000600860008373ffffffffffffffffffffffffffffffffffffffff1673ffffffffffffffffffffffffffffffffffffffff168152602001908152602001600020549050919050565b6000804690508091505090565b6060600d60008381526020019081526020016000208054610df39061388d565b80601f0160208091040260200160405190810160405280929190818152602001828054610e1f9061388d565b8015610e6c5780601f10610e4157610100808354040283529160200191610e6c565b820191906000526020600020905b815481529060010190602001808311610e4f57829003601f168201915b50505050509050919050565b610e9383838360405180602001604052806000815250611205565b505050565b6000806002600084815260200190815260200160002060009054906101000a900473ffffffffffffffffffffffffffffffffffffffff169050600073ffffffffffffffffffffffffffffffffffffffff168173ffffffffffffffffffffffffffffffffffffffff161415610f41576040517f08c379a0000000000000000000000000000000000000000000000000000000008152600401610f38906134f8565b60405180910390fd5b80915050919050565b60008073ffffffffffffffffffffffffffffffffffffffff168273ffffffffffffffffffffffffffffffffffffffff161415610fbb576040517f08c379a0000000000000000000000000000000000000000000000000000000008152600401610fb2906134d8565b60405180910390fd5b600360008373ffffffffffffffffffffffffffffffffffffffff1673ffffffffffffffffffffffffffffffffffffffff168152602001908152602001600020549050919050565b61100a6116e0565b73ffffffffffffffffffffffffffffffffffffffff16611028611133565b73ffffffffffffffffffffffffffffffffffffffff161461107e576040517f08c379a000000000000000000000000000000000000000000000000000000000815260040161107590613578565b60405180910390fd5b6110886000611c0f565b565b60006110946116e0565b73ffffffffffffffffffffffffffffffffffffffff166110b2611133565b73ffffffffffffffffffffffffffffffffffffffff1614611108576040517f08c379a00000000000000000000000000000000000000000000000000000000081526004016110ff90613578565b60405180910390fd5b6000611114600a6118c7565b9050611120600a611543565b61112a8382611cd5565b80915050919050565b6000600960009054906101000a900473ffffffffffffffffffffffffffffffffffffffff16905090565b60606001805461116c9061388d565b80601f01602080910402602001604051908101604052809291908181526020018280546111989061388d565b80156111e55780601f106111ba576101008083540402835291602001916111e5565b820191906000526020600020905b8154815290600101906020018083116111c857829003601f168201915b5050505050905090565b6112016111fa6116e0565b8383611cf3565b5050565b6112166112106116e0565b836118d5565b611255576040517f08c379a000000000000000000000000000000000000000000000000000000000815260040161124c906135f8565b60405180910390fd5b61126184848484611e60565b50505050565b6060611271611297565b60405160200161128191906131c1565b6040516020818303038152906040529050919050565b6060600c80546112a69061388d565b80601f01602080910402602001604051908101604052809291908181526020018280546112d29061388d565b801561131f5780601f106112f45761010080835404028352916020019161131f565b820191906000526020600020905b81548152906001019060200180831161130257829003601f168201915b5050505050905090565b6060604051806060016040528060398152602001613a7d60399139905090565b600080600b60009054906101000a900473ffffffffffffffffffffffffffffffffffffffff1690508273ffffffffffffffffffffffffffffffffffffffff168173ffffffffffffffffffffffffffffffffffffffff1663c4552791866040518263ffffffff1660e01b81526004016113c1919061320f565b60206040518083038186803b1580156113d957600080fd5b505afa1580156113ed573d6000803e3d6000fd5b505050506040513d601f19601f82011682018060405250810190611411919061286c565b73ffffffffffffffffffffffffffffffffffffffff161415611437576001915050611445565b6114418484611ebc565b9150505b92915050565b6114536116e0565b73ffffffffffffffffffffffffffffffffffffffff16611471611133565b73ffffffffffffffffffffffffffffffffffffffff16146114c7576040517f08c379a00000000000000000000000000000000000000000000000000000000081526004016114be90613578565b60405180910390fd5b600073ffffffffffffffffffffffffffffffffffffffff168173ffffffffffffffffffffffffffffffffffffffff161415611537576040517f08c379a000000000000000000000000000000000000000000000000000000000815260040161152e906133d8565b60405180910390fd5b61154081611c0f565b50565b6001816000016000828254019250508190555050565b60003073ffffffffffffffffffffffffffffffffffffffff163373ffffffffffffffffffffffffffffffffffffffff16141561160357600080368080601f016020809104026020016040519081016040528093929190818152602001838380828437600081840152601f19601f820116905080830192505050505050509050600080369050905073ffffffffffffffffffffffffffffffffffffffff818301511692505050611607565b3390505b90565b60008073ffffffffffffffffffffffffffffffffffffffff166002600084815260200190815260200160002060009054906101000a900473ffffffffffffffffffffffffffffffffffffffff1673ffffffffffffffffffffffffffffffffffffffff1614159050919050565b60007f01ffc9a7000000000000000000000000000000000000000000000000000000007bffffffffffffffffffffffffffffffffffffffffffffffffffffffff1916827bffffffffffffffffffffffffffffffffffffffffffffffffffffffff1916149050919050565b60006116ea611559565b905090565b816004600083815260200190815260200160002060006101000a81548173ffffffffffffffffffffffffffffffffffffffff021916908373ffffffffffffffffffffffffffffffffffffffff160217905550808273ffffffffffffffffffffffffffffffffffffffff1661176283610e98565b73ffffffffffffffffffffffffffffffffffffffff167f8c5be1e5ebec7d5bd14f71427d1e84f3dd0314c0f7b2291e5b200ac8c7c3b92560405160405180910390a45050565b60008073ffffffffffffffffffffffffffffffffffffffff168673ffffffffffffffffffffffffffffffffffffffff161415611819576040517f08c379a000000000000000000000000000000000000000000000000000000000815260040161181090613498565b60405180910390fd5b600161182c61182787611f50565b611fb8565b8386866040516000815260200160405260405161184c949392919061332f565b6020604051602081039080840390855afa15801561186e573d6000803e3d6000fd5b5050506020604051035173ffffffffffffffffffffffffffffffffffffffff168673ffffffffffffffffffffffffffffffffffffffff1614905095945050505050565b600081836118bf9190613712565b905092915050565b600081600001549050919050565b60006118e08261160a565b61191f576040517f08c379a000000000000000000000000000000000000000000000000000000000815260040161191690613478565b60405180910390fd5b600061192a83610e98565b90508073ffffffffffffffffffffffffffffffffffffffff168473ffffffffffffffffffffffffffffffffffffffff16148061199957508373ffffffffffffffffffffffffffffffffffffffff16611981846108ae565b73ffffffffffffffffffffffffffffffffffffffff16145b806119aa57506119a98185611349565b5b91505092915050565b8273ffffffffffffffffffffffffffffffffffffffff166119d382610e98565b73ffffffffffffffffffffffffffffffffffffffff1614611a29576040517f08c379a0000000000000000000000000000000000000000000000000000000008152600401611a2090613598565b60405180910390fd5b600073ffffffffffffffffffffffffffffffffffffffff168273ffffffffffffffffffffffffffffffffffffffff161415611a99576040517f08c379a0000000000000000000000000000000000000000000000000000000008152600401611a9090613438565b60405180910390fd5b611aa4838383611ff1565b611aaf6000826116ef565b6001600360008573ffffffffffffffffffffffffffffffffffffffff1673ffffffffffffffffffffffffffffffffffffffff1681526020019081526020016000206000828254611aff9190613768565b925050819055506001600360008473ffffffffffffffffffffffffffffffffffffffff1673ffffffffffffffffffffffffffffffffffffffff1681526020019081526020016000206000828254611b569190613712565b92505081905550816002600083815260200190815260200160002060006101000a81548173ffffffffffffffffffffffffffffffffffffffff021916908373ffffffffffffffffffffffffffffffffffffffff160217905550808273ffffffffffffffffffffffffffffffffffffffff168473ffffffffffffffffffffffffffffffffffffffff167fddf252ad1be2c89b69c2b068fc378daa952ba7f163c4a11628f55a4df523b3ef60405160405180910390a4505050565b6000600960009054906101000a900473ffffffffffffffffffffffffffffffffffffffff16905081600960006101000a81548173ffffffffffffffffffffffffffffffffffffffff021916908373ffffffffffffffffffffffffffffffffffffffff1602179055508173ffffffffffffffffffffffffffffffffffffffff168173ffffffffffffffffffffffffffffffffffffffff167f8be0079c531659141344cd1fd0a4f28419497f9722a3daafe3b4186f6b6457e060405160405180910390a35050565b611cef828260405180602001604052806000815250611ff6565b5050565b8173ffffffffffffffffffffffffffffffffffffffff168373ffffffffffffffffffffffffffffffffffffffff161415611d62576040517f08c379a0000000000000000000000000000000000000000000000000000000008152600401611d5990613458565b60405180910390fd5b80600560008573ffffffffffffffffffffffffffffffffffffffff1673ffffffffffffffffffffffffffffffffffffffff16815260200190815260200160002060008473ffffffffffffffffffffffffffffffffffffffff1673ffffffffffffffffffffffffffffffffffffffff16815260200190815260200160002060006101000a81548160ff0219169083151502179055508173ffffffffffffffffffffffffffffffffffffffff168373ffffffffffffffffffffffffffffffffffffffff167f17307eab39ab6107e8899845ad3d59bd9653f200f220920489ca2b5937696c3183604051611e5391906132b4565b60405180910390a3505050565b611e6b8484846119b3565b611e7784848484612051565b611eb6576040517f08c379a0000000000000000000000000000000000000000000000000000000008152600401611ead906133b8565b60405180910390fd5b50505050565b6000600560008473ffffffffffffffffffffffffffffffffffffffff1673ffffffffffffffffffffffffffffffffffffffff16815260200190815260200160002060008373ffffffffffffffffffffffffffffffffffffffff1673ffffffffffffffffffffffffffffffffffffffff16815260200190815260200160002060009054906101000a900460ff16905092915050565b6000604051806080016040528060438152602001613a3a604391398051906020012082600001518360200151846040015180519060200120604051602001611f9b94939291906132ea565b604051602081830303815290604052805190602001209050919050565b6000611fc2610d13565b82604051602001611fd49291906131d8565b604051602081830303815290604052805190602001209050919050565b505050565b61200083836121e8565b61200d6000848484612051565b61204c576040517f08c379a0000000000000000000000000000000000000000000000000000000008152600401612043906133b8565b60405180910390fd5b505050565b60006120728473ffffffffffffffffffffffffffffffffffffffff166123b6565b156121db578373ffffffffffffffffffffffffffffffffffffffff1663150b7a0261209b6116e0565b8786866040518563ffffffff1660e01b81526004016120bd9493929190613268565b602060405180830381600087803b1580156120d757600080fd5b505af192505050801561210857506040513d601f19601f820116820180604052508101906121059190612843565b60015b61218b573d8060008114612138576040519150601f19603f3d011682016040523d82523d6000602084013e61213d565b606091505b50600081511415612183576040517f08c379a000000000000000000000000000000000000000000000000000000000815260040161217a906133b8565b60405180910390fd5b805181602001fd5b63150b7a0260e01b7bffffffffffffffffffffffffffffffffffffffffffffffffffffffff1916817bffffffffffffffffffffffffffffffffffffffffffffffffffffffff1916149150506121e0565b600190505b949350505050565b600073ffffffffffffffffffffffffffffffffffffffff168273ffffffffffffffffffffffffffffffffffffffff161415612258576040517f08c379a000000000000000000000000000000000000000000000000000000000815260040161224f90613518565b60405180910390fd5b6122618161160a565b156122a1576040517f08c379a000000000000000000000000000000000000000000000000000000000815260040161229890613418565b60405180910390fd5b6122ad60008383611ff1565b6001600360008473ffffffffffffffffffffffffffffffffffffffff1673ffffffffffffffffffffffffffffffffffffffff16815260200190815260200160002060008282546122fd9190613712565b92505081905550816002600083815260200190815260200160002060006101000a81548173ffffffffffffffffffffffffffffffffffffffff021916908373ffffffffffffffffffffffffffffffffffffffff160217905550808273ffffffffffffffffffffffffffffffffffffffff16600073ffffffffffffffffffffffffffffffffffffffff167fddf252ad1be2c89b69c2b068fc378daa952ba7f163c4a11628f55a4df523b3ef60405160405180910390a45050565b600080823b905060008111915050919050565b8280546123d59061388d565b90600052602060002090601f0160209004810192826123f7576000855561243e565b82601f1061241057805160ff191683800117855561243e565b8280016001018555821561243e579182015b8281111561243d578251825591602001919060010190612422565b5b50905061244b919061244f565b5090565b5b80821115612468576000816000905550600101612450565b5090565b600061247f61247a84613664565b613633565b90508281526020810184848401111561249757600080fd5b6124a284828561384b565b509392505050565b60006124bd6124b884613694565b613633565b9050828152602081018484840111156124d557600080fd5b6124e084828561384b565b509392505050565b6000813590506124f781613998565b92915050565b60008135905061250c816139af565b92915050565b600081359050612521816139c6565b92915050565b600081359050612536816139dd565b92915050565b60008151905061254b816139dd565b92915050565b600082601f83011261256257600080fd5b813561257284826020860161246c565b91505092915050565b60008151905061258a816139f4565b92915050565b600082601f8301126125a157600080fd5b81356125b18482602086016124aa565b91505092915050565b6000813590506125c981613a0b565b92915050565b6000813590506125de81613a22565b92915050565b6000602082840312156125f657600080fd5b6000612604848285016124e8565b91505092915050565b6000806040838503121561262057600080fd5b600061262e858286016124e8565b925050602061263f858286016124e8565b9150509250929050565b60008060006060848603121561265e57600080fd5b600061266c868287016124e8565b935050602061267d868287016124e8565b925050604061268e868287016125ba565b9150509250925092565b600080600080608085870312156126ae57600080fd5b60006126bc878288016124e8565b94505060206126cd878288016124e8565b93505060406126de878288016125ba565b925050606085013567ffffffffffffffff8111156126fb57600080fd5b61270787828801612551565b91505092959194509250565b6000806040838503121561272657600080fd5b6000612734858286016124e8565b9250506020612745858286016124fd565b9150509250929050565b600080600080600060a0868803121561276757600080fd5b6000612775888289016124e8565b955050602086013567ffffffffffffffff81111561279257600080fd5b61279e88828901612551565b94505060406127af88828901612512565b93505060606127c088828901612512565b92505060806127d1888289016125cf565b9150509295509295909350565b600080604083850312156127f157600080fd5b60006127ff858286016124e8565b9250506020612810858286016125ba565b9150509250929050565b60006020828403121561282c57600080fd5b600061283a84828501612527565b91505092915050565b60006020828403121561285557600080fd5b60006128638482850161253c565b91505092915050565b60006020828403121561287e57600080fd5b600061288c8482850161257b565b91505092915050565b6000602082840312156128a757600080fd5b60006128b5848285016125ba565b91505092915050565b600080604083850312156128d157600080fd5b60006128df858286016125ba565b925050602083013567ffffffffffffffff8111156128fc57600080fd5b61290885828601612590565b9150509250929050565b61291b816137ae565b82525050565b61292a8161379c565b82525050565b61294161293c8261379c565b6138bf565b82525050565b612950816137c0565b82525050565b61295f816137cc565b82525050565b612976612971826137cc565b6138d1565b82525050565b6000612987826136c4565b61299181856136da565b93506129a181856020860161385a565b6129aa8161397a565b840191505092915050565b60006129c0826136c4565b6129ca81856136eb565b93506129da81856020860161385a565b80840191505092915050565b60006129f1826136cf565b6129fb81856136f6565b9350612a0b81856020860161385a565b612a148161397a565b840191505092915050565b6000612a2a826136cf565b612a348185613707565b9350612a4481856020860161385a565b80840191505092915050565b6000612a5d6032836136f6565b91507f4552433732313a207472616e7366657220746f206e6f6e20455243373231526560008301527f63656976657220696d706c656d656e74657200000000000000000000000000006020830152604082019050919050565b6000612ac36026836136f6565b91507f4f776e61626c653a206e6577206f776e657220697320746865207a65726f206160008301527f64647265737300000000000000000000000000000000000000000000000000006020830152604082019050919050565b6000612b29601c836136f6565b91507f46756e6374696f6e2063616c6c206e6f74207375636365737366756c000000006000830152602082019050919050565b6000612b69601c836136f6565b91507f4552433732313a20746f6b656e20616c7265616479206d696e746564000000006000830152602082019050919050565b6000612ba9600283613707565b91507f19010000000000000000000000000000000000000000000000000000000000006000830152600282019050919050565b6000612be96024836136f6565b91507f4552433732313a207472616e7366657220746f20746865207a65726f2061646460008301527f72657373000000000000000000000000000000000000000000000000000000006020830152604082019050919050565b6000612c4f6019836136f6565b91507f4552433732313a20617070726f766520746f2063616c6c6572000000000000006000830152602082019050919050565b6000612c8f602c836136f6565b91507f4552433732313a206f70657261746f7220717565727920666f72206e6f6e657860008301527f697374656e7420746f6b656e00000000000000000000000000000000000000006020830152604082019050919050565b6000612cf56025836136f6565b91507f4e61746976654d6574615472616e73616374696f6e3a20494e56414c49445f5360008301527f49474e45520000000000000000000000000000000000000000000000000000006020830152604082019050919050565b6000612d5b6038836136f6565b91507f4552433732313a20617070726f76652063616c6c6572206973206e6f74206f7760008301527f6e6572206e6f7220617070726f76656420666f7220616c6c00000000000000006020830152604082019050919050565b6000612dc1602a836136f6565b91507f4552433732313a2062616c616e636520717565727920666f7220746865207a6560008301527f726f2061646472657373000000000000000000000000000000000000000000006020830152604082019050919050565b6000612e276029836136f6565b91507f4552433732313a206f776e657220717565727920666f72206e6f6e657869737460008301527f656e7420746f6b656e00000000000000000000000000000000000000000000006020830152604082019050919050565b6000612e8d6020836136f6565b91507f4552433732313a206d696e7420746f20746865207a65726f20616464726573736000830152602082019050919050565b6000612ecd602c836136f6565b91507f4552433732313a20617070726f76656420717565727920666f72206e6f6e657860008301527f697374656e7420746f6b656e00000000000000000000000000000000000000006020830152604082019050919050565b6000612f33602c836136f6565b91507f4552433732314d657461646174613a2055524920736574206f66206e6f6e657860008301527f697374656e7420746f6b656e00000000000000000000000000000000000000006020830152604082019050919050565b6000612f996020836136f6565b91507f4f776e61626c653a2063616c6c6572206973206e6f7420746865206f776e65726000830152602082019050919050565b6000612fd96029836136f6565b91507f4552433732313a207472616e73666572206f6620746f6b656e2074686174206960008301527f73206e6f74206f776e00000000000000000000000000000000000000000000006020830152604082019050919050565b600061303f6021836136f6565b91507f5369676e657220616e64207369676e617475726520646f206e6f74206d61746360008301527f68000000000000000000000000000000000000000000000000000000000000006020830152604082019050919050565b60006130a56021836136f6565b91507f4552433732313a20617070726f76616c20746f2063757272656e74206f776e6560008301527f72000000000000000000000000000000000000000000000000000000000000006020830152604082019050919050565b600061310b6031836136f6565b91507f4552433732313a207472616e736665722063616c6c6572206973206e6f74206f60008301527f776e6572206e6f7220617070726f7665640000000000000000000000000000006020830152604082019050919050565b61316d81613834565b82525050565b61317c8161383e565b82525050565b600061318e82846129b5565b915081905092915050565b60006131a582856129b5565b91506131b18284612930565b6014820191508190509392505050565b60006131cd8284612a1f565b915081905092915050565b60006131e382612b9c565b91506131ef8285612965565b6020820191506131ff8284612965565b6020820191508190509392505050565b60006020820190506132246000830184612921565b92915050565b600060608201905061323f6000830186612921565b61324c6020830185612912565b818103604083015261325e818461297c565b9050949350505050565b600060808201905061327d6000830187612921565b61328a6020830186612921565b6132976040830185613164565b81810360608301526132a9818461297c565b905095945050505050565b60006020820190506132c96000830184612947565b92915050565b60006020820190506132e46000830184612956565b92915050565b60006080820190506132ff6000830187612956565b61330c6020830186613164565b6133196040830185612921565b6133266060830184612956565b95945050505050565b60006080820190506133446000830187612956565b6133516020830186613173565b61335e6040830185612956565b61336b6060830184612956565b95945050505050565b6000602082019050818103600083015261338e818461297c565b905092915050565b600060208201905081810360008301526133b081846129e6565b905092915050565b600060208201905081810360008301526133d181612a50565b9050919050565b600060208201905081810360008301526133f181612ab6565b9050919050565b6000602082019050818103600083015261341181612b1c565b9050919050565b6000602082019050818103600083015261343181612b5c565b9050919050565b6000602082019050818103600083015261345181612bdc565b9050919050565b6000602082019050818103600083015261347181612c42565b9050919050565b6000602082019050818103600083015261349181612c82565b9050919050565b600060208201905081810360008301526134b181612ce8565b9050919050565b600060208201905081810360008301526134d181612d4e565b9050919050565b600060208201905081810360008301526134f181612db4565b9050919050565b6000602082019050818103600083015261351181612e1a565b9050919050565b6000602082019050818103600083015261353181612e80565b9050919050565b6000602082019050818103600083015261355181612ec0565b9050919050565b6000602082019050818103600083015261357181612f26565b9050919050565b6000602082019050818103600083015261359181612f8c565b9050919050565b600060208201905081810360008301526135b181612fcc565b9050919050565b600060208201905081810360008301526135d181613032565b9050919050565b600060208201905081810360008301526135f181613098565b9050919050565b60006020820190508181036000830152613611816130fe565b9050919050565b600060208201905061362d6000830184613164565b92915050565b6000604051905081810181811067ffffffffffffffff8211171561365a5761365961394b565b5b8060405250919050565b600067ffffffffffffffff82111561367f5761367e61394b565b5b601f19601f8301169050602081019050919050565b600067ffffffffffffffff8211156136af576136ae61394b565b5b601f19601f8301169050602081019050919050565b600081519050919050565b600081519050919050565b600082825260208201905092915050565b600081905092915050565b600082825260208201905092915050565b600081905092915050565b600061371d82613834565b915061372883613834565b9250827fffffffffffffffffffffffffffffffffffffffffffffffffffffffffffffffff0382111561375d5761375c6138ed565b5b828201905092915050565b600061377382613834565b915061377e83613834565b925082821015613791576137906138ed565b5b828203905092915050565b60006137a782613814565b9050919050565b60006137b982613814565b9050919050565b60008115159050919050565b6000819050919050565b60007fffffffff0000000000000000000000000000000000000000000000000000000082169050919050565b600061380d8261379c565b9050919050565b600073ffffffffffffffffffffffffffffffffffffffff82169050919050565b6000819050919050565b600060ff82169050919050565b82818337600083830152505050565b60005b8381101561387857808201518184015260208101905061385d565b83811115613887576000848401525b50505050565b600060028204905060018216806138a557607f821691505b602082108114156138b9576138b861391c565b5b50919050565b60006138ca826138db565b9050919050565b6000819050919050565b60006138e68261398b565b9050919050565b7f4e487b7100000000000000000000000000000000000000000000000000000000600052601160045260246000fd5b7f4e487b7100000000000000000000000000000000000000000000000000000000600052602260045260246000fd5b7f4e487b7100000000000000000000000000000000000000000000000000000000600052604160045260246000fd5b6000601f19601f8301169050919050565b60008160601b9050919050565b6139a18161379c565b81146139ac57600080fd5b50565b6139b8816137c0565b81146139c357600080fd5b50565b6139cf816137cc565b81146139da57600080fd5b50565b6139e6816137d6565b81146139f157600080fd5b50565b6139fd81613802565b8114613a0857600080fd5b50565b613a1481613834565b8114613a1f57600080fd5b50565b613a2b8161383e565b8114613a3657600080fd5b5056fe4d6574615472616e73616374696f6e2875696e74323536206e6f6e63652c616464726573732066726f6d2c62797465732066756e6374696f6e5369676e61747572652968747470733a2f2f6d6f6e616c697a612d6170692e6f70656e7365612e696f2f636f6e74726163742f6f70656e7365612d6d6f6e616c697a61a2646970667358221220826d137f3d8987045b056dc9d825da1b6e6dcd31da0e73ca941dfe03a75fd29664736f6c63430008000033454950373132446f6d61696e28737472696e67206e616d652c737472696e672076657273696f6e2c6164647265737320766572696679696e67436f6e74726163742c627974657333322073616c7429a2646970667358221220635f8304a238b7d5b95cc61c0af3d3751e33a94eb8ddbd39b6e45c33da7e29bb64736f6c63430008000033",
  "linkReferences": {},
  "deployedLinkReferences": {}
}