{
  "_format": "hh-sol-artifact-1",
  "contractName": "MonalizaFactory",
  "sourceName": "contracts/MonalizaFactory.sol",
  "abi": [
    {
      "inputs": [],
      "stateMutability": "nonpayable",
      "type": "constructor"
    },
    {
      "anonymous": false,
      "inputs": [
        {
          "indexed": false,
          "internalType": "string",
          "name": "name",
          "type": "string"
        },
        {
          "indexed": false,
          "internalType": "string",
          "name": "symbol",
          "type": "string"
        },
        {
          "indexed": false,
          "internalType": "address",
          "name": "newContract",
          "type": "address"
        }
      ],
      "name": "DeployContract",
      "type": "event"
    },
    {
      "anonymous": false,
      "inputs": [
        {
          "indexed": false,
          "internalType": "contract Monaliza",
          "name": "tokenAddress",
          "type": "address"
        },
        {
          "indexed": false,
          "internalType": "uint256",
          "name": "newItemId",
          "type": "uint256"
        }
      ],
      "name": "Mint",
      "type": "event"
    },
    {
      "anonymous": false,
      "inputs": [
        {
          "indexed": false,
          "internalType": "contract Monaliza",
          "name": "tokenAddress",
          "type": "address"
        },
        {
          "indexed": false,
          "internalType": "address",
          "name": "toAddress",
          "type": "address"
        },
        {
          "indexed": false,
          "internalType": "uint256",
          "name": "tokenId",
          "type": "uint256"
        }
      ],
      "name": "TransferToken",
      "type": "event"
    },
    {
      "inputs": [
        {
          "internalType": "uint256",
          "name": "",
          "type": "uint256"
        }
      ],
      "name": "contracts",
      "outputs": [
        {
          "internalType": "address",
          "name": "",
          "type": "address"
        }
      ],
      "stateMutability": "view",
      "type": "function"
    },
    {
      "inputs": [
        {
          "internalType": "string",
          "name": "name",
          "type": "string"
        },
        {
          "internalType": "string",
          "name": "symbol",
          "type": "string"
        },
        {
          "internalType": "address",
          "name": "registryAddress",
          "type": "address"
        },
        {
          "internalType": "address",
          "name": "forwarder",
          "type": "address"
        },
        {
          "internalType": "string",
          "name": "uniq",
          "type": "string"
        }
      ],
      "name": "deployNFTContract",
      "outputs": [
        {
          "internalType": "address",
          "name": "newContract",
          "type": "address"
        }
      ],
      "stateMutability": "nonpayable",
      "type": "function"
    },
    {
      "inputs": [
        {
          "internalType": "contract Monaliza",
          "name": "contractAddress",
          "type": "address"
        }
      ],
      "name": "getBaseTokenURI",
      "outputs": [
        {
          "internalType": "string",
          "name": "baseURI",
          "type": "string"
        }
      ],
      "stateMutability": "view",
      "type": "function"
    },
    {
      "inputs": [],
      "name": "getContractCount",
      "outputs": [
        {
          "internalType": "uint256",
          "name": "contractCount",
          "type": "uint256"
        }
      ],
      "stateMutability": "view",
      "type": "function"
    },
    {
      "inputs": [
        {
          "internalType": "string",
          "name": "uniq",
          "type": "string"
        }
      ],
      "name": "getLastContractAddressWithUniq",
      "outputs": [
        {
          "internalType": "address",
          "name": "lastContract",
          "type": "address"
        }
      ],
      "stateMutability": "view",
      "type": "function"
    },
    {
      "inputs": [
        {
          "internalType": "contract Monaliza",
          "name": "contractAddress",
          "type": "address"
        }
      ],
      "name": "getLastTokenID",
      "outputs": [
        {
          "internalType": "uint256",
          "name": "newItemId",
          "type": "uint256"
        }
      ],
      "stateMutability": "view",
      "type": "function"
    },
    {
      "inputs": [
        {
          "internalType": "string",
          "name": "",
          "type": "string"
        }
      ],
      "name": "lastContractAddressesWithUniqs",
      "outputs": [
        {
          "internalType": "address",
          "name": "",
          "type": "address"
        }
      ],
      "stateMutability": "view",
      "type": "function"
    },
    {
      "inputs": [
        {
          "internalType": "address",
          "name": "",
          "type": "address"
        }
      ],
      "name": "lastTokenIDs",
      "outputs": [
        {
          "internalType": "uint256",
          "name": "",
          "type": "uint256"
        }
      ],
      "stateMutability": "view",
      "type": "function"
    },
    {
      "inputs": [
        {
          "internalType": "contract Monaliza",
          "name": "tokenAddress",
          "type": "address"
        },
        {
          "internalType": "address",
          "name": "to",
          "type": "address"
        },
        {
          "internalType": "string",
          "name": "tokenURI",
          "type": "string"
        }
      ],
      "name": "mintNFT",
      "outputs": [
        {
          "internalType": "uint256",
          "name": "newItemId",
          "type": "uint256"
        }
      ],
      "stateMutability": "nonpayable",
      "type": "function"
    },
    {
      "inputs": [
        {
          "internalType": "contract Monaliza",
          "name": "tokenAddress",
          "type": "address"
        },
        {
          "internalType": "address",
          "name": "from",
          "type": "address"
        },
        {
          "internalType": "address",
          "name": "to",
          "type": "address"
        },
        {
          "internalType": "uint256",
          "name": "tokenID",
          "type": "uint256"
        }
      ],
      "name": "transferToken",
      "outputs": [
        {
          "internalType": "uint256",
          "name": "newItemId",
          "type": "uint256"
        }
      ],
      "stateMutability": "nonpayable",
      "type": "function"
    }
  ],
  "bytecode": "0x608060405234801561001057600080fd5b5033600360006101000a81548173ffffffffffffffffffffffffffffffffffffffff021916908373ffffffffffffffffffffffffffffffffffffffff1602179055506159a2806100616000396000f3fe60806040523480156200001157600080fd5b5060043610620000ac5760003560e01c8063474da79a116200006f578063474da79a14620001bf5780637c818f5414620001f55780639399869d146200022b57806393bd79d1146200024d578063ff55c3a2146200028357620000ac565b806313b7f38314620000b157806319e1f54114620000e757806321f9996b146200011d5780632c54de4f14620001535780633fcf54591462000189575b600080fd5b620000cf6004803603810190620000c9919062000b8e565b620002b9565b604051620000de919062000d77565b60405180910390f35b620001056004803603810190620000ff9190620009d1565b6200040f565b60405162000114919062000f05565b60405180910390f35b6200013b600480360381019062000135919062000b04565b62000427565b6040516200014a919062000d77565b60405180910390f35b6200017160048036038101906200016b919062000a29565b62000470565b60405162000180919062000f05565b60405180910390f35b620001a76004803603810190620001a19190620009fd565b6200052d565b604051620001b6919062000e3b565b60405180910390f35b620001dd6004803603810190620001d7919062000c5b565b620005bd565b604051620001ec919062000d77565b60405180910390f35b6200021360048036038101906200020d919062000a95565b620005fd565b60405162000222919062000f05565b60405180910390f35b62000235620007e4565b60405162000244919062000f05565b60405180910390f35b6200026b600480360381019062000265919062000b04565b620007f0565b6040516200027a919062000d77565b60405180910390f35b620002a160048036038101906200029b9190620009fd565b6200083a565b604051620002b0919062000f05565b60405180910390f35b60008086868686604051620002ce9062000883565b620002dd949392919062000eaa565b604051809103906000f080158015620002fa573d6000803e3d6000fd5b50905060008190506000819080600181540180825580915050600190039060005260206000200160009091909190916101000a81548173ffffffffffffffffffffffffffffffffffffffff021916908373ffffffffffffffffffffffffffffffffffffffff1602179055508060018560405162000378919062000d5e565b908152602001604051809103902060006101000a81548173ffffffffffffffffffffffffffffffffffffffff021916908373ffffffffffffffffffffffffffffffffffffffff1602179055507f909d3a27d497eeb2405be5653f130fc82124fdfb09dc58dd30b8d13406601a23888883604051620003f99392919062000e5f565b60405180910390a1809250505095945050505050565b60026020528060005260406000206000915090505481565b6001818051602081018201805184825260208301602085012081835280955050505050506000915054906101000a900473ffffffffffffffffffffffffffffffffffffffff1681565b60008473ffffffffffffffffffffffffffffffffffffffff166342842e0e8585856040518463ffffffff1660e01b8152600401620004b19392919062000d94565b600060405180830381600087803b158015620004cc57600080fd5b505af1158015620004e1573d6000803e3d6000fd5b505050507f3844b7075ed6e7d4b61342769cb2b1b325cba410a62932affaa90aee247dadf58584846040516200051a9392919062000dd1565b60405180910390a1819050949350505050565b60608173ffffffffffffffffffffffffffffffffffffffff1663d547cfb76040518163ffffffff1660e01b815260040160006040518083038186803b1580156200057657600080fd5b505afa1580156200058b573d6000803e3d6000fd5b505050506040513d6000823e3d601f19601f82011682018060405250810190620005b6919062000b49565b9050919050565b60008181548110620005ce57600080fd5b906000526020600020016000915054906101000a900473ffffffffffffffffffffffffffffffffffffffff1681565b6000600360009054906101000a900473ffffffffffffffffffffffffffffffffffffffff1673ffffffffffffffffffffffffffffffffffffffff163373ffffffffffffffffffffffffffffffffffffffff16146200065a57600080fd5b8373ffffffffffffffffffffffffffffffffffffffff1663755edd17846040518263ffffffff1660e01b815260040162000695919062000d77565b602060405180830381600087803b158015620006b057600080fd5b505af1158015620006c5573d6000803e3d6000fd5b505050506040513d601f19601f82011682018060405250810190620006eb919062000c87565b90508373ffffffffffffffffffffffffffffffffffffffff16630153886882846040518363ffffffff1660e01b81526004016200072a92919062000f22565b600060405180830381600087803b1580156200074557600080fd5b505af11580156200075a573d6000803e3d6000fd5b5050505080600260008673ffffffffffffffffffffffffffffffffffffffff1673ffffffffffffffffffffffffffffffffffffffff168152602001908152602001600020819055507f0f6798a560793a54c3bcfe86a93cde1e73087d944c0ea20544137d41213968858482604051620007d592919062000e0e565b60405180910390a19392505050565b60008080549050905090565b600060018260405162000804919062000d5e565b908152602001604051809103902060009054906101000a900473ffffffffffffffffffffffffffffffffffffffff169050919050565b6000600260008373ffffffffffffffffffffffffffffffffffffffff1673ffffffffffffffffffffffffffffffffffffffff168152602001908152602001600020549050919050565b61483b806200113283390190565b6000620008a8620008a28462000f8a565b62000f56565b905082815260208101848484011115620008c157600080fd5b620008ce8482856200105e565b509392505050565b6000620008ed620008e78462000f8a565b62000f56565b9050828152602081018484840111156200090657600080fd5b620009138482856200106d565b509392505050565b6000813590506200092c81620010e3565b92915050565b6000813590506200094381620010fd565b92915050565b600082601f8301126200095b57600080fd5b81356200096d84826020860162000891565b91505092915050565b600082601f8301126200098857600080fd5b81516200099a848260208601620008d6565b91505092915050565b600081359050620009b48162001117565b92915050565b600081519050620009cb8162001117565b92915050565b600060208284031215620009e457600080fd5b6000620009f4848285016200091b565b91505092915050565b60006020828403121562000a1057600080fd5b600062000a208482850162000932565b91505092915050565b6000806000806080858703121562000a4057600080fd5b600062000a508782880162000932565b945050602062000a63878288016200091b565b935050604062000a76878288016200091b565b925050606062000a8987828801620009a3565b91505092959194509250565b60008060006060848603121562000aab57600080fd5b600062000abb8682870162000932565b935050602062000ace868287016200091b565b925050604084013567ffffffffffffffff81111562000aec57600080fd5b62000afa8682870162000949565b9150509250925092565b60006020828403121562000b1757600080fd5b600082013567ffffffffffffffff81111562000b3257600080fd5b62000b408482850162000949565b91505092915050565b60006020828403121562000b5c57600080fd5b600082015167ffffffffffffffff81111562000b7757600080fd5b62000b858482850162000976565b91505092915050565b600080600080600060a0868803121562000ba757600080fd5b600086013567ffffffffffffffff81111562000bc257600080fd5b62000bd08882890162000949565b955050602086013567ffffffffffffffff81111562000bee57600080fd5b62000bfc8882890162000949565b945050604062000c0f888289016200091b565b935050606062000c22888289016200091b565b925050608086013567ffffffffffffffff81111562000c4057600080fd5b62000c4e8882890162000949565b9150509295509295909350565b60006020828403121562000c6e57600080fd5b600062000c7e84828501620009a3565b91505092915050565b60006020828403121562000c9a57600080fd5b600062000caa84828501620009ba565b91505092915050565b62000cbe8162000fe4565b82525050565b62000ccf8162001036565b82525050565b600062000ce28262000fbd565b62000cee818562000fc8565b935062000d008185602086016200106d565b62000d0b81620010d2565b840191505092915050565b600062000d238262000fbd565b62000d2f818562000fd9565b935062000d418185602086016200106d565b80840191505092915050565b62000d58816200102c565b82525050565b600062000d6c828462000d16565b915081905092915050565b600060208201905062000d8e600083018462000cb3565b92915050565b600060608201905062000dab600083018662000cb3565b62000dba602083018562000cb3565b62000dc9604083018462000d4d565b949350505050565b600060608201905062000de8600083018662000cc4565b62000df7602083018562000cb3565b62000e06604083018462000d4d565b949350505050565b600060408201905062000e25600083018562000cc4565b62000e34602083018462000d4d565b9392505050565b6000602082019050818103600083015262000e57818462000cd5565b905092915050565b6000606082019050818103600083015262000e7b818662000cd5565b9050818103602083015262000e91818562000cd5565b905062000ea2604083018462000cb3565b949350505050565b6000608082019050818103600083015262000ec6818762000cd5565b9050818103602083015262000edc818662000cd5565b905062000eed604083018562000cb3565b62000efc606083018462000cb3565b95945050505050565b600060208201905062000f1c600083018462000d4d565b92915050565b600060408201905062000f39600083018562000d4d565b818103602083015262000f4d818462000cd5565b90509392505050565b6000604051905081810181811067ffffffffffffffff8211171562000f805762000f7f620010a3565b5b8060405250919050565b600067ffffffffffffffff82111562000fa85762000fa7620010a3565b5b601f19601f8301169050602081019050919050565b600081519050919050565b600082825260208201905092915050565b600081905092915050565b600062000ff1826200100c565b9050919050565b6000620010058262000fe4565b9050919050565b600073ffffffffffffffffffffffffffffffffffffffff82169050919050565b6000819050919050565b600062001043826200104a565b9050919050565b600062001057826200100c565b9050919050565b82818337600083830152505050565b60005b838110156200108d57808201518184015260208101905062001070565b838111156200109d576000848401525b50505050565b7f4e487b7100000000000000000000000000000000000000000000000000000000600052604160045260246000fd5b6000601f19601f8301169050919050565b620010ee8162000fe4565b8114620010fa57600080fd5b50565b620011088162000ff8565b81146200111457600080fd5b50565b62001122816200102c565b81146200112e57600080fd5b5056fe60806040526000600760006101000a81548160ff0219169083151502179055506040518060400160405280600581526020017f322e322e30000000000000000000000000000000000000000000000000000000815250600f90805190602001906200006c929190620005af565b503480156200007a57600080fd5b506040516200483b3803806200483b8339818101604052810190620000a09190620006e8565b83838382828160019080519060200190620000bd929190620005af565b508060029080519060200190620000d6929190620005af565b505050620000f9620000ed620001cc60201b60201c565b620001e860201b60201c565b80600c60006101000a81548173ffffffffffffffffffffffffffffffffffffffff021916908373ffffffffffffffffffffffffffffffffffffffff16021790555062000151600b620002ae60201b620017171760201c565b6200016283620002c460201b60201c565b50505062000176816200034660201b60201c565b620001c26040518060400160405280601681526020017f4465706c6f79696e6720636f6e747261637420666f7200000000000000000000815250856200038960201b6200172d1760201c565b5050505062000a9b565b6000620001e36200042f60201b620017c91760201c565b905090565b6000600a60009054906101000a900473ffffffffffffffffffffffffffffffffffffffff16905081600a60006101000a81548173ffffffffffffffffffffffffffffffffffffffff021916908373ffffffffffffffffffffffffffffffffffffffff1602179055508173ffffffffffffffffffffffffffffffffffffffff168173ffffffffffffffffffffffffffffffffffffffff167f8be0079c531659141344cd1fd0a4f28419497f9722a3daafe3b4186f6b6457e060405160405180910390a35050565b6001816000016000828254019250508190555050565b600760009054906101000a900460ff161562000317576040517f08c379a00000000000000000000000000000000000000000000000000000000081526004016200030e90620008c3565b60405180910390fd5b62000328816200047160201b60201c565b6001600760006101000a81548160ff02191690831515021790555050565b806000806101000a81548173ffffffffffffffffffffffffffffffffffffffff021916908373ffffffffffffffffffffffffffffffffffffffff16021790555050565b6200042b8282604051602401620003a292919062000888565b6040516020818303038152906040527f4b5c4277000000000000000000000000000000000000000000000000000000007bffffffffffffffffffffffffffffffffffffffffffffffffffffffff19166020820180517bffffffffffffffffffffffffffffffffffffffffffffffffffffffff83818316178352505050506200052060201b60201c565b5050565b6000601460003690501015801562000454575062000453336200054960201b60201c565b5b156200046a57601436033560601c90506200046e565b3390505b90565b6040518060800160405280604f8152602001620047ec604f91398051906020012081805190602001206040518060400160405280600181526020017f31000000000000000000000000000000000000000000000000000000000000008152508051906020012030620004e8620005a260201b60201c565b60001b604051602001620005019594939291906200082b565b6040516020818303038152906040528051906020012060088190555050565b60008151905060006a636f6e736f6c652e6c6f679050602083016000808483855afa5050505050565b60008060009054906101000a900473ffffffffffffffffffffffffffffffffffffffff1673ffffffffffffffffffffffffffffffffffffffff168273ffffffffffffffffffffffffffffffffffffffff16149050919050565b6000804690508091505090565b828054620005bd90620009dc565b90600052602060002090601f016020900481019282620005e157600085556200062d565b82601f10620005fc57805160ff19168380011785556200062d565b828001600101855582156200062d579182015b828111156200062c5782518255916020019190600101906200060f565b5b5090506200063c919062000640565b5090565b5b808211156200065b57600081600090555060010162000641565b5090565b600062000676620006708462000919565b620008e5565b9050828152602081018484840111156200068f57600080fd5b6200069c848285620009a6565b509392505050565b600081519050620006b58162000a81565b92915050565b600082601f830112620006cd57600080fd5b8151620006df8482602086016200065f565b91505092915050565b60008060008060808587031215620006ff57600080fd5b600085015167ffffffffffffffff8111156200071a57600080fd5b6200072887828801620006bb565b945050602085015167ffffffffffffffff8111156200074657600080fd5b6200075487828801620006bb565b93505060406200076787828801620006a4565b92505060606200077a87828801620006a4565b91505092959194509250565b620007918162000968565b82525050565b620007a2816200097c565b82525050565b6000620007b5826200094c565b620007c1818562000957565b9350620007d3818560208601620009a6565b620007de8162000a70565b840191505092915050565b6000620007f8600e8362000957565b91507f616c726561647920696e697465640000000000000000000000000000000000006000830152602082019050919050565b600060a08201905062000842600083018862000797565b62000851602083018762000797565b62000860604083018662000797565b6200086f606083018562000786565b6200087e608083018462000797565b9695505050505050565b60006040820190508181036000830152620008a48185620007a8565b90508181036020830152620008ba8184620007a8565b90509392505050565b60006020820190508181036000830152620008de81620007e9565b9050919050565b6000604051905081810181811067ffffffffffffffff821117156200090f576200090e62000a41565b5b8060405250919050565b600067ffffffffffffffff82111562000937576200093662000a41565b5b601f19601f8301169050602081019050919050565b600081519050919050565b600082825260208201905092915050565b6000620009758262000986565b9050919050565b6000819050919050565b600073ffffffffffffffffffffffffffffffffffffffff82169050919050565b60005b83811015620009c6578082015181840152602081019050620009a9565b83811115620009d6576000848401525b50505050565b60006002820490506001821680620009f557607f821691505b6020821081141562000a0c5762000a0b62000a12565b5b50919050565b7f4e487b7100000000000000000000000000000000000000000000000000000000600052602260045260246000fd5b7f4e487b7100000000000000000000000000000000000000000000000000000000600052604160045260246000fd5b6000601f19601f8301169050919050565b62000a8c8162000968565b811462000a9857600080fd5b50565b613d418062000aab6000396000f3fe6080604052600436106101cd5760003560e01c8063572b6c05116100f757806395d89b4111610095578063d547cfb711610064578063d547cfb7146106b7578063e8a3d485146106e2578063e985e9c51461070d578063f2fde38b1461074a576101cd565b806395d89b41146105fd578063a22cb46514610628578063b88d4fde14610651578063c87b56dd1461067a576101cd565b8063715018a6116100d1578063715018a614610553578063755edd171461056a5780637da0a877146105a75780638da5cb5b146105d2576101cd565b8063572b6c051461049c5780636352211e146104d957806370a0823114610516576101cd565b806318160ddd1161016f5780633408e4701161013e5780633408e470146103e05780633bb3a24d1461040b57806342842e0e14610448578063486ff0cd14610471576101cd565b806318160ddd1461032457806320379ee51461034f57806323b872dd1461037a5780632d0335ab146103a3576101cd565b8063081812fc116101ab578063081812fc14610263578063095ea7b3146102a05780630c53c51c146102c95780630f7e5970146102f9576101cd565b806301538868146101d257806301ffc9a7146101fb57806306fdde0314610238575b600080fd5b3480156101de57600080fd5b506101f960048036038101906101f49190612add565b610773565b005b34801561020757600080fd5b50610222600480360381019061021d9190612a39565b6107fe565b60405161022f91906134d3565b60405180910390f35b34801561024457600080fd5b5061024d6108e0565b60405161025a91906135b5565b60405180910390f35b34801561026f57600080fd5b5061028a60048036038101906102859190612ab4565b610972565b604051610297919061342e565b60405180910390f35b3480156102ac57600080fd5b506102c760048036038101906102c291906129fd565b6109f7565b005b6102e360048036038101906102de919061296e565b610b0f565b6040516102f09190613593565b60405180910390f35b34801561030557600080fd5b5061030e610d81565b60405161031b91906135b5565b60405180910390f35b34801561033057600080fd5b50610339610dba565b604051610346919061386e565b60405180910390f35b34801561035b57600080fd5b50610364610dd7565b60405161037191906134ee565b60405180910390f35b34801561038657600080fd5b506103a1600480360381019061039c9190612868565b610de1565b005b3480156103af57600080fd5b506103ca60048036038101906103c59190612803565b610e41565b6040516103d7919061386e565b60405180910390f35b3480156103ec57600080fd5b506103f5610e8a565b604051610402919061386e565b60405180910390f35b34801561041757600080fd5b50610432600480360381019061042d9190612ab4565b610e97565b60405161043f91906135b5565b60405180910390f35b34801561045457600080fd5b5061046f600480360381019061046a9190612868565b610f3c565b005b34801561047d57600080fd5b50610486610f5c565b60405161049391906135b5565b60405180910390f35b3480156104a857600080fd5b506104c360048036038101906104be9190612803565b610fea565b6040516104d091906134d3565b60405180910390f35b3480156104e557600080fd5b5061050060048036038101906104fb9190612ab4565b611043565b60405161050d919061342e565b60405180910390f35b34801561052257600080fd5b5061053d60048036038101906105389190612803565b6110f5565b60405161054a919061386e565b60405180910390f35b34801561055f57600080fd5b506105686111ad565b005b34801561057657600080fd5b50610591600480360381019061058c9190612803565b611235565b60405161059e919061386e565b60405180910390f35b3480156105b357600080fd5b506105bc6112de565b6040516105c9919061342e565b60405180910390f35b3480156105de57600080fd5b506105e7611307565b6040516105f4919061342e565b60405180910390f35b34801561060957600080fd5b50610612611331565b60405161061f91906135b5565b60405180910390f35b34801561063457600080fd5b5061064f600480360381019061064a9190612932565b6113c3565b005b34801561065d57600080fd5b50610678600480360381019061067391906128b7565b6113d9565b005b34801561068657600080fd5b506106a1600480360381019061069c9190612ab4565b61143b565b6040516106ae91906135b5565b60405180910390f35b3480156106c357600080fd5b506106cc61146b565b6040516106d991906135b5565b60405180910390f35b3480156106ee57600080fd5b506106f76114fd565b60405161070491906135b5565b60405180910390f35b34801561071957600080fd5b50610734600480360381019061072f919061282c565b61151d565b60405161074191906134d3565b60405180910390f35b34801561075657600080fd5b50610771600480360381019061076c9190612803565b61161f565b005b61077c82611800565b6107bb576040517f08c379a00000000000000000000000000000000000000000000000000000000081526004016107b2906137ae565b60405180910390fd5b80600e600084815260200190815260200160002090805190602001906107e29291906125e8565b5080600d90805190602001906107f99291906125e8565b505050565b60007f80ac58cd000000000000000000000000000000000000000000000000000000007bffffffffffffffffffffffffffffffffffffffffffffffffffffffff1916827bffffffffffffffffffffffffffffffffffffffffffffffffffffffff191614806108c957507f5b5e139f000000000000000000000000000000000000000000000000000000007bffffffffffffffffffffffffffffffffffffffffffffffffffffffff1916827bffffffffffffffffffffffffffffffffffffffffffffffffffffffff1916145b806108d957506108d88261186c565b5b9050919050565b6060600180546108ef90613ae3565b80601f016020809104026020016040519081016040528092919081815260200182805461091b90613ae3565b80156109685780601f1061093d57610100808354040283529160200191610968565b820191906000526020600020905b81548152906001019060200180831161094b57829003601f168201915b5050505050905090565b600061097d82611800565b6109bc576040517f08c379a00000000000000000000000000000000000000000000000000000000081526004016109b39061378e565b60405180910390fd5b6005600083815260200190815260200160002060009054906101000a900473ffffffffffffffffffffffffffffffffffffffff169050919050565b6000610a0282611043565b90508073ffffffffffffffffffffffffffffffffffffffff168373ffffffffffffffffffffffffffffffffffffffff161415610a73576040517f08c379a0000000000000000000000000000000000000000000000000000000008152600401610a6a9061382e565b60405180910390fd5b8073ffffffffffffffffffffffffffffffffffffffff16610a926118d6565b73ffffffffffffffffffffffffffffffffffffffff161480610ac15750610ac081610abb6118d6565b61151d565b5b610b00576040517f08c379a0000000000000000000000000000000000000000000000000000000008152600401610af79061370e565b60405180910390fd5b610b0a83836118e5565b505050565b606060006040518060600160405280600960008a73ffffffffffffffffffffffffffffffffffffffff1673ffffffffffffffffffffffffffffffffffffffff1681526020019081526020016000205481526020018873ffffffffffffffffffffffffffffffffffffffff168152602001878152509050610b92878287878761199e565b610bd1576040517f08c379a0000000000000000000000000000000000000000000000000000000008152600401610bc89061380e565b60405180910390fd5b610c246001600960008a73ffffffffffffffffffffffffffffffffffffffff1673ffffffffffffffffffffffffffffffffffffffff16815260200190815260200160002054611aa790919063ffffffff16565b600960008973ffffffffffffffffffffffffffffffffffffffff1673ffffffffffffffffffffffffffffffffffffffff168152602001908152602001600020819055507f5845892132946850460bff5a0083f71031bc5bf9aadcd40f1de79423eac9b10b873388604051610c9a93929190613449565b60405180910390a16000803073ffffffffffffffffffffffffffffffffffffffff16888a604051602001610ccf9291906133b8565b604051602081830303815290604052604051610ceb91906133a1565b6000604051808303816000865af19150503d8060008114610d28576040519150601f19603f3d011682016040523d82523d6000602084013e610d2d565b606091505b509150915081610d72576040517f08c379a0000000000000000000000000000000000000000000000000000000008152600401610d699061364e565b60405180910390fd5b80935050505095945050505050565b6040518060400160405280600181526020017f310000000000000000000000000000000000000000000000000000000000000081525081565b60006001610dc8600b611abd565b610dd291906139be565b905090565b6000600854905090565b610df2610dec6118d6565b82611acb565b610e31576040517f08c379a0000000000000000000000000000000000000000000000000000000008152600401610e289061384e565b60405180910390fd5b610e3c838383611ba9565b505050565b6000600960008373ffffffffffffffffffffffffffffffffffffffff1673ffffffffffffffffffffffffffffffffffffffff168152602001908152602001600020549050919050565b6000804690508091505090565b6060600e60008381526020019081526020016000208054610eb790613ae3565b80601f0160208091040260200160405190810160405280929190818152602001828054610ee390613ae3565b8015610f305780601f10610f0557610100808354040283529160200191610f30565b820191906000526020600020905b815481529060010190602001808311610f1357829003601f168201915b50505050509050919050565b610f57838383604051806020016040528060008152506113d9565b505050565b600f8054610f6990613ae3565b80601f0160208091040260200160405190810160405280929190818152602001828054610f9590613ae3565b8015610fe25780601f10610fb757610100808354040283529160200191610fe2565b820191906000526020600020905b815481529060010190602001808311610fc557829003601f168201915b505050505081565b60008060009054906101000a900473ffffffffffffffffffffffffffffffffffffffff1673ffffffffffffffffffffffffffffffffffffffff168273ffffffffffffffffffffffffffffffffffffffff16149050919050565b6000806003600084815260200190815260200160002060009054906101000a900473ffffffffffffffffffffffffffffffffffffffff169050600073ffffffffffffffffffffffffffffffffffffffff168173ffffffffffffffffffffffffffffffffffffffff1614156110ec576040517f08c379a00000000000000000000000000000000000000000000000000000000081526004016110e39061374e565b60405180910390fd5b80915050919050565b60008073ffffffffffffffffffffffffffffffffffffffff168273ffffffffffffffffffffffffffffffffffffffff161415611166576040517f08c379a000000000000000000000000000000000000000000000000000000000815260040161115d9061372e565b60405180910390fd5b600460008373ffffffffffffffffffffffffffffffffffffffff1673ffffffffffffffffffffffffffffffffffffffff168152602001908152602001600020549050919050565b6111b56118d6565b73ffffffffffffffffffffffffffffffffffffffff166111d3611307565b73ffffffffffffffffffffffffffffffffffffffff1614611229576040517f08c379a0000000000000000000000000000000000000000000000000000000008152600401611220906137ce565b60405180910390fd5b6112336000611e05565b565b600061123f6118d6565b73ffffffffffffffffffffffffffffffffffffffff1661125d611307565b73ffffffffffffffffffffffffffffffffffffffff16146112b3576040517f08c379a00000000000000000000000000000000000000000000000000000000081526004016112aa906137ce565b60405180910390fd5b60006112bf600b611abd565b90506112cb600b611717565b6112d58382611ecb565b80915050919050565b60008060009054906101000a900473ffffffffffffffffffffffffffffffffffffffff16905090565b6000600a60009054906101000a900473ffffffffffffffffffffffffffffffffffffffff16905090565b60606002805461134090613ae3565b80601f016020809104026020016040519081016040528092919081815260200182805461136c90613ae3565b80156113b95780601f1061138e576101008083540402835291602001916113b9565b820191906000526020600020905b81548152906001019060200180831161139c57829003601f168201915b5050505050905090565b6113d56113ce6118d6565b8383611ee9565b5050565b6113ea6113e46118d6565b83611acb565b611429576040517f08c379a00000000000000000000000000000000000000000000000000000000081526004016114209061384e565b60405180910390fd5b61143584848484612056565b50505050565b606061144561146b565b60405160200161145591906133e0565b6040516020818303038152906040529050919050565b6060600d805461147a90613ae3565b80601f01602080910402602001604051908101604052809291908181526020018280546114a690613ae3565b80156114f35780601f106114c8576101008083540402835291602001916114f3565b820191906000526020600020905b8154815290600101906020018083116114d657829003601f168201915b5050505050905090565b6060604051806060016040528060398152602001613cd360399139905090565b600080600c60009054906101000a900473ffffffffffffffffffffffffffffffffffffffff1690508273ffffffffffffffffffffffffffffffffffffffff168173ffffffffffffffffffffffffffffffffffffffff1663c4552791866040518263ffffffff1660e01b8152600401611595919061342e565b60206040518083038186803b1580156115ad57600080fd5b505afa1580156115c1573d6000803e3d6000fd5b505050506040513d601f19601f820116820180604052508101906115e59190612a8b565b73ffffffffffffffffffffffffffffffffffffffff16141561160b576001915050611619565b61161584846120b2565b9150505b92915050565b6116276118d6565b73ffffffffffffffffffffffffffffffffffffffff16611645611307565b73ffffffffffffffffffffffffffffffffffffffff161461169b576040517f08c379a0000000000000000000000000000000000000000000000000000000008152600401611692906137ce565b60405180910390fd5b600073ffffffffffffffffffffffffffffffffffffffff168173ffffffffffffffffffffffffffffffffffffffff16141561170b576040517f08c379a00000000000000000000000000000000000000000000000000000000081526004016117029061362e565b60405180910390fd5b61171481611e05565b50565b6001816000016000828254019250508190555050565b6117c582826040516024016117439291906135d7565b6040516020818303038152906040527f4b5c4277000000000000000000000000000000000000000000000000000000007bffffffffffffffffffffffffffffffffffffffffffffffffffffffff19166020820180517bffffffffffffffffffffffffffffffffffffffffffffffffffffffff8381831617835250505050612146565b5050565b600060146000369050101580156117e557506117e433610fea565b5b156117f957601436033560601c90506117fd565b3390505b90565b60008073ffffffffffffffffffffffffffffffffffffffff166003600084815260200190815260200160002060009054906101000a900473ffffffffffffffffffffffffffffffffffffffff1673ffffffffffffffffffffffffffffffffffffffff1614159050919050565b60007f01ffc9a7000000000000000000000000000000000000000000000000000000007bffffffffffffffffffffffffffffffffffffffffffffffffffffffff1916827bffffffffffffffffffffffffffffffffffffffffffffffffffffffff1916149050919050565b60006118e06117c9565b905090565b816005600083815260200190815260200160002060006101000a81548173ffffffffffffffffffffffffffffffffffffffff021916908373ffffffffffffffffffffffffffffffffffffffff160217905550808273ffffffffffffffffffffffffffffffffffffffff1661195883611043565b73ffffffffffffffffffffffffffffffffffffffff167f8c5be1e5ebec7d5bd14f71427d1e84f3dd0314c0f7b2291e5b200ac8c7c3b92560405160405180910390a45050565b60008073ffffffffffffffffffffffffffffffffffffffff168673ffffffffffffffffffffffffffffffffffffffff161415611a0f576040517f08c379a0000000000000000000000000000000000000000000000000000000008152600401611a06906136ee565b60405180910390fd5b6001611a22611a1d8761216f565b6121d7565b83868660405160008152602001604052604051611a42949392919061354e565b6020604051602081039080840390855afa158015611a64573d6000803e3d6000fd5b5050506020604051035173ffffffffffffffffffffffffffffffffffffffff168673ffffffffffffffffffffffffffffffffffffffff1614905095945050505050565b60008183611ab59190613968565b905092915050565b600081600001549050919050565b6000611ad682611800565b611b15576040517f08c379a0000000000000000000000000000000000000000000000000000000008152600401611b0c906136ce565b60405180910390fd5b6000611b2083611043565b90508073ffffffffffffffffffffffffffffffffffffffff168473ffffffffffffffffffffffffffffffffffffffff161480611b8f57508373ffffffffffffffffffffffffffffffffffffffff16611b7784610972565b73ffffffffffffffffffffffffffffffffffffffff16145b80611ba05750611b9f818561151d565b5b91505092915050565b8273ffffffffffffffffffffffffffffffffffffffff16611bc982611043565b73ffffffffffffffffffffffffffffffffffffffff1614611c1f576040517f08c379a0000000000000000000000000000000000000000000000000000000008152600401611c16906137ee565b60405180910390fd5b600073ffffffffffffffffffffffffffffffffffffffff168273ffffffffffffffffffffffffffffffffffffffff161415611c8f576040517f08c379a0000000000000000000000000000000000000000000000000000000008152600401611c869061368e565b60405180910390fd5b611c9a838383612210565b611ca56000826118e5565b6001600460008573ffffffffffffffffffffffffffffffffffffffff1673ffffffffffffffffffffffffffffffffffffffff1681526020019081526020016000206000828254611cf591906139be565b925050819055506001600460008473ffffffffffffffffffffffffffffffffffffffff1673ffffffffffffffffffffffffffffffffffffffff1681526020019081526020016000206000828254611d4c9190613968565b92505081905550816003600083815260200190815260200160002060006101000a81548173ffffffffffffffffffffffffffffffffffffffff021916908373ffffffffffffffffffffffffffffffffffffffff160217905550808273ffffffffffffffffffffffffffffffffffffffff168473ffffffffffffffffffffffffffffffffffffffff167fddf252ad1be2c89b69c2b068fc378daa952ba7f163c4a11628f55a4df523b3ef60405160405180910390a4505050565b6000600a60009054906101000a900473ffffffffffffffffffffffffffffffffffffffff16905081600a60006101000a81548173ffffffffffffffffffffffffffffffffffffffff021916908373ffffffffffffffffffffffffffffffffffffffff1602179055508173ffffffffffffffffffffffffffffffffffffffff168173ffffffffffffffffffffffffffffffffffffffff167f8be0079c531659141344cd1fd0a4f28419497f9722a3daafe3b4186f6b6457e060405160405180910390a35050565b611ee5828260405180602001604052806000815250612215565b5050565b8173ffffffffffffffffffffffffffffffffffffffff168373ffffffffffffffffffffffffffffffffffffffff161415611f58576040517f08c379a0000000000000000000000000000000000000000000000000000000008152600401611f4f906136ae565b60405180910390fd5b80600660008573ffffffffffffffffffffffffffffffffffffffff1673ffffffffffffffffffffffffffffffffffffffff16815260200190815260200160002060008473ffffffffffffffffffffffffffffffffffffffff1673ffffffffffffffffffffffffffffffffffffffff16815260200190815260200160002060006101000a81548160ff0219169083151502179055508173ffffffffffffffffffffffffffffffffffffffff168373ffffffffffffffffffffffffffffffffffffffff167f17307eab39ab6107e8899845ad3d59bd9653f200f220920489ca2b5937696c318360405161204991906134d3565b60405180910390a3505050565b612061848484611ba9565b61206d84848484612270565b6120ac576040517f08c379a00000000000000000000000000000000000000000000000000000000081526004016120a39061360e565b60405180910390fd5b50505050565b6000600660008473ffffffffffffffffffffffffffffffffffffffff1673ffffffffffffffffffffffffffffffffffffffff16815260200190815260200160002060008373ffffffffffffffffffffffffffffffffffffffff1673ffffffffffffffffffffffffffffffffffffffff16815260200190815260200160002060009054906101000a900460ff16905092915050565b60008151905060006a636f6e736f6c652e6c6f679050602083016000808483855afa5050505050565b6000604051806080016040528060438152602001613c906043913980519060200120826000015183602001518460400151805190602001206040516020016121ba9493929190613509565b604051602081830303815290604052805190602001209050919050565b60006121e1610dd7565b826040516020016121f39291906133f7565b604051602081830303815290604052805190602001209050919050565b505050565b61221f8383612407565b61222c6000848484612270565b61226b576040517f08c379a00000000000000000000000000000000000000000000000000000000081526004016122629061360e565b60405180910390fd5b505050565b60006122918473ffffffffffffffffffffffffffffffffffffffff166125d5565b156123fa578373ffffffffffffffffffffffffffffffffffffffff1663150b7a026122ba6118d6565b8786866040518563ffffffff1660e01b81526004016122dc9493929190613487565b602060405180830381600087803b1580156122f657600080fd5b505af192505050801561232757506040513d601f19601f820116820180604052508101906123249190612a62565b60015b6123aa573d8060008114612357576040519150601f19603f3d011682016040523d82523d6000602084013e61235c565b606091505b506000815114156123a2576040517f08c379a00000000000000000000000000000000000000000000000000000000081526004016123999061360e565b60405180910390fd5b805181602001fd5b63150b7a0260e01b7bffffffffffffffffffffffffffffffffffffffffffffffffffffffff1916817bffffffffffffffffffffffffffffffffffffffffffffffffffffffff1916149150506123ff565b600190505b949350505050565b600073ffffffffffffffffffffffffffffffffffffffff168273ffffffffffffffffffffffffffffffffffffffff161415612477576040517f08c379a000000000000000000000000000000000000000000000000000000000815260040161246e9061376e565b60405180910390fd5b61248081611800565b156124c0576040517f08c379a00000000000000000000000000000000000000000000000000000000081526004016124b79061366e565b60405180910390fd5b6124cc60008383612210565b6001600460008473ffffffffffffffffffffffffffffffffffffffff1673ffffffffffffffffffffffffffffffffffffffff168152602001908152602001600020600082825461251c9190613968565b92505081905550816003600083815260200190815260200160002060006101000a81548173ffffffffffffffffffffffffffffffffffffffff021916908373ffffffffffffffffffffffffffffffffffffffff160217905550808273ffffffffffffffffffffffffffffffffffffffff16600073ffffffffffffffffffffffffffffffffffffffff167fddf252ad1be2c89b69c2b068fc378daa952ba7f163c4a11628f55a4df523b3ef60405160405180910390a45050565b600080823b905060008111915050919050565b8280546125f490613ae3565b90600052602060002090601f016020900481019282612616576000855561265d565b82601f1061262f57805160ff191683800117855561265d565b8280016001018555821561265d579182015b8281111561265c578251825591602001919060010190612641565b5b50905061266a919061266e565b5090565b5b8082111561268757600081600090555060010161266f565b5090565b600061269e612699846138ba565b613889565b9050828152602081018484840111156126b657600080fd5b6126c1848285613aa1565b509392505050565b60006126dc6126d7846138ea565b613889565b9050828152602081018484840111156126f457600080fd5b6126ff848285613aa1565b509392505050565b60008135905061271681613bee565b92915050565b60008135905061272b81613c05565b92915050565b60008135905061274081613c1c565b92915050565b60008135905061275581613c33565b92915050565b60008151905061276a81613c33565b92915050565b600082601f83011261278157600080fd5b813561279184826020860161268b565b91505092915050565b6000815190506127a981613c4a565b92915050565b600082601f8301126127c057600080fd5b81356127d08482602086016126c9565b91505092915050565b6000813590506127e881613c61565b92915050565b6000813590506127fd81613c78565b92915050565b60006020828403121561281557600080fd5b600061282384828501612707565b91505092915050565b6000806040838503121561283f57600080fd5b600061284d85828601612707565b925050602061285e85828601612707565b9150509250929050565b60008060006060848603121561287d57600080fd5b600061288b86828701612707565b935050602061289c86828701612707565b92505060406128ad868287016127d9565b9150509250925092565b600080600080608085870312156128cd57600080fd5b60006128db87828801612707565b94505060206128ec87828801612707565b93505060406128fd878288016127d9565b925050606085013567ffffffffffffffff81111561291a57600080fd5b61292687828801612770565b91505092959194509250565b6000806040838503121561294557600080fd5b600061295385828601612707565b92505060206129648582860161271c565b9150509250929050565b600080600080600060a0868803121561298657600080fd5b600061299488828901612707565b955050602086013567ffffffffffffffff8111156129b157600080fd5b6129bd88828901612770565b94505060406129ce88828901612731565b93505060606129df88828901612731565b92505060806129f0888289016127ee565b9150509295509295909350565b60008060408385031215612a1057600080fd5b6000612a1e85828601612707565b9250506020612a2f858286016127d9565b9150509250929050565b600060208284031215612a4b57600080fd5b6000612a5984828501612746565b91505092915050565b600060208284031215612a7457600080fd5b6000612a828482850161275b565b91505092915050565b600060208284031215612a9d57600080fd5b6000612aab8482850161279a565b91505092915050565b600060208284031215612ac657600080fd5b6000612ad4848285016127d9565b91505092915050565b60008060408385031215612af057600080fd5b6000612afe858286016127d9565b925050602083013567ffffffffffffffff811115612b1b57600080fd5b612b27858286016127af565b9150509250929050565b612b3a81613a04565b82525050565b612b49816139f2565b82525050565b612b60612b5b826139f2565b613b15565b82525050565b612b6f81613a16565b82525050565b612b7e81613a22565b82525050565b612b95612b9082613a22565b613b27565b82525050565b6000612ba68261391a565b612bb08185613930565b9350612bc0818560208601613ab0565b612bc981613bd0565b840191505092915050565b6000612bdf8261391a565b612be98185613941565b9350612bf9818560208601613ab0565b80840191505092915050565b6000612c1082613925565b612c1a818561394c565b9350612c2a818560208601613ab0565b612c3381613bd0565b840191505092915050565b6000612c4982613925565b612c53818561395d565b9350612c63818560208601613ab0565b80840191505092915050565b6000612c7c60328361394c565b91507f4552433732313a207472616e7366657220746f206e6f6e20455243373231526560008301527f63656976657220696d706c656d656e74657200000000000000000000000000006020830152604082019050919050565b6000612ce260268361394c565b91507f4f776e61626c653a206e6577206f776e657220697320746865207a65726f206160008301527f64647265737300000000000000000000000000000000000000000000000000006020830152604082019050919050565b6000612d48601c8361394c565b91507f46756e6374696f6e2063616c6c206e6f74207375636365737366756c000000006000830152602082019050919050565b6000612d88601c8361394c565b91507f4552433732313a20746f6b656e20616c7265616479206d696e746564000000006000830152602082019050919050565b6000612dc860028361395d565b91507f19010000000000000000000000000000000000000000000000000000000000006000830152600282019050919050565b6000612e0860248361394c565b91507f4552433732313a207472616e7366657220746f20746865207a65726f2061646460008301527f72657373000000000000000000000000000000000000000000000000000000006020830152604082019050919050565b6000612e6e60198361394c565b91507f4552433732313a20617070726f766520746f2063616c6c6572000000000000006000830152602082019050919050565b6000612eae602c8361394c565b91507f4552433732313a206f70657261746f7220717565727920666f72206e6f6e657860008301527f697374656e7420746f6b656e00000000000000000000000000000000000000006020830152604082019050919050565b6000612f1460258361394c565b91507f4e61746976654d6574615472616e73616374696f6e3a20494e56414c49445f5360008301527f49474e45520000000000000000000000000000000000000000000000000000006020830152604082019050919050565b6000612f7a60388361394c565b91507f4552433732313a20617070726f76652063616c6c6572206973206e6f74206f7760008301527f6e6572206e6f7220617070726f76656420666f7220616c6c00000000000000006020830152604082019050919050565b6000612fe0602a8361394c565b91507f4552433732313a2062616c616e636520717565727920666f7220746865207a6560008301527f726f2061646472657373000000000000000000000000000000000000000000006020830152604082019050919050565b600061304660298361394c565b91507f4552433732313a206f776e657220717565727920666f72206e6f6e657869737460008301527f656e7420746f6b656e00000000000000000000000000000000000000000000006020830152604082019050919050565b60006130ac60208361394c565b91507f4552433732313a206d696e7420746f20746865207a65726f20616464726573736000830152602082019050919050565b60006130ec602c8361394c565b91507f4552433732313a20617070726f76656420717565727920666f72206e6f6e657860008301527f697374656e7420746f6b656e00000000000000000000000000000000000000006020830152604082019050919050565b6000613152602c8361394c565b91507f4552433732314d657461646174613a2055524920736574206f66206e6f6e657860008301527f697374656e7420746f6b656e00000000000000000000000000000000000000006020830152604082019050919050565b60006131b860208361394c565b91507f4f776e61626c653a2063616c6c6572206973206e6f7420746865206f776e65726000830152602082019050919050565b60006131f860298361394c565b91507f4552433732313a207472616e73666572206f6620746f6b656e2074686174206960008301527f73206e6f74206f776e00000000000000000000000000000000000000000000006020830152604082019050919050565b600061325e60218361394c565b91507f5369676e657220616e64207369676e617475726520646f206e6f74206d61746360008301527f68000000000000000000000000000000000000000000000000000000000000006020830152604082019050919050565b60006132c460218361394c565b91507f4552433732313a20617070726f76616c20746f2063757272656e74206f776e6560008301527f72000000000000000000000000000000000000000000000000000000000000006020830152604082019050919050565b600061332a60318361394c565b91507f4552433732313a207472616e736665722063616c6c6572206973206e6f74206f60008301527f776e6572206e6f7220617070726f7665640000000000000000000000000000006020830152604082019050919050565b61338c81613a8a565b82525050565b61339b81613a94565b82525050565b60006133ad8284612bd4565b915081905092915050565b60006133c48285612bd4565b91506133d08284612b4f565b6014820191508190509392505050565b60006133ec8284612c3e565b915081905092915050565b600061340282612dbb565b915061340e8285612b84565b60208201915061341e8284612b84565b6020820191508190509392505050565b60006020820190506134436000830184612b40565b92915050565b600060608201905061345e6000830186612b40565b61346b6020830185612b31565b818103604083015261347d8184612b9b565b9050949350505050565b600060808201905061349c6000830187612b40565b6134a96020830186612b40565b6134b66040830185613383565b81810360608301526134c88184612b9b565b905095945050505050565b60006020820190506134e86000830184612b66565b92915050565b60006020820190506135036000830184612b75565b92915050565b600060808201905061351e6000830187612b75565b61352b6020830186613383565b6135386040830185612b40565b6135456060830184612b75565b95945050505050565b60006080820190506135636000830187612b75565b6135706020830186613392565b61357d6040830185612b75565b61358a6060830184612b75565b95945050505050565b600060208201905081810360008301526135ad8184612b9b565b905092915050565b600060208201905081810360008301526135cf8184612c05565b905092915050565b600060408201905081810360008301526135f18185612c05565b905081810360208301526136058184612c05565b90509392505050565b6000602082019050818103600083015261362781612c6f565b9050919050565b6000602082019050818103600083015261364781612cd5565b9050919050565b6000602082019050818103600083015261366781612d3b565b9050919050565b6000602082019050818103600083015261368781612d7b565b9050919050565b600060208201905081810360008301526136a781612dfb565b9050919050565b600060208201905081810360008301526136c781612e61565b9050919050565b600060208201905081810360008301526136e781612ea1565b9050919050565b6000602082019050818103600083015261370781612f07565b9050919050565b6000602082019050818103600083015261372781612f6d565b9050919050565b6000602082019050818103600083015261374781612fd3565b9050919050565b6000602082019050818103600083015261376781613039565b9050919050565b600060208201905081810360008301526137878161309f565b9050919050565b600060208201905081810360008301526137a7816130df565b9050919050565b600060208201905081810360008301526137c781613145565b9050919050565b600060208201905081810360008301526137e7816131ab565b9050919050565b60006020820190508181036000830152613807816131eb565b9050919050565b6000602082019050818103600083015261382781613251565b9050919050565b60006020820190508181036000830152613847816132b7565b9050919050565b600060208201905081810360008301526138678161331d565b9050919050565b60006020820190506138836000830184613383565b92915050565b6000604051905081810181811067ffffffffffffffff821117156138b0576138af613ba1565b5b8060405250919050565b600067ffffffffffffffff8211156138d5576138d4613ba1565b5b601f19601f8301169050602081019050919050565b600067ffffffffffffffff82111561390557613904613ba1565b5b601f19601f8301169050602081019050919050565b600081519050919050565b600081519050919050565b600082825260208201905092915050565b600081905092915050565b600082825260208201905092915050565b600081905092915050565b600061397382613a8a565b915061397e83613a8a565b9250827fffffffffffffffffffffffffffffffffffffffffffffffffffffffffffffffff038211156139b3576139b2613b43565b5b828201905092915050565b60006139c982613a8a565b91506139d483613a8a565b9250828210156139e7576139e6613b43565b5b828203905092915050565b60006139fd82613a6a565b9050919050565b6000613a0f82613a6a565b9050919050565b60008115159050919050565b6000819050919050565b60007fffffffff0000000000000000000000000000000000000000000000000000000082169050919050565b6000613a63826139f2565b9050919050565b600073ffffffffffffffffffffffffffffffffffffffff82169050919050565b6000819050919050565b600060ff82169050919050565b82818337600083830152505050565b60005b83811015613ace578082015181840152602081019050613ab3565b83811115613add576000848401525b50505050565b60006002820490506001821680613afb57607f821691505b60208210811415613b0f57613b0e613b72565b5b50919050565b6000613b2082613b31565b9050919050565b6000819050919050565b6000613b3c82613be1565b9050919050565b7f4e487b7100000000000000000000000000000000000000000000000000000000600052601160045260246000fd5b7f4e487b7100000000000000000000000000000000000000000000000000000000600052602260045260246000fd5b7f4e487b7100000000000000000000000000000000000000000000000000000000600052604160045260246000fd5b6000601f19601f8301169050919050565b60008160601b9050919050565b613bf7816139f2565b8114613c0257600080fd5b50565b613c0e81613a16565b8114613c1957600080fd5b50565b613c2581613a22565b8114613c3057600080fd5b50565b613c3c81613a2c565b8114613c4757600080fd5b50565b613c5381613a58565b8114613c5e57600080fd5b50565b613c6a81613a8a565b8114613c7557600080fd5b50565b613c8181613a94565b8114613c8c57600080fd5b5056fe4d6574615472616e73616374696f6e2875696e74323536206e6f6e63652c616464726573732066726f6d2c62797465732066756e6374696f6e5369676e61747572652968747470733a2f2f6d6f6e616c697a612d6170692e6f70656e7365612e696f2f636f6e74726163742f6f70656e7365612d6d6f6e616c697a61a264697066735822122075da19088a939256e3d261d502b199eeb576468a3a2752639bcf509af766d6c464736f6c63430008000033454950373132446f6d61696e28737472696e67206e616d652c737472696e672076657273696f6e2c6164647265737320766572696679696e67436f6e74726163742c627974657333322073616c7429a26469706673582212209f5b13b17e96607d54372537169655ae2a37f8247482340626b6561711c1b5d164736f6c63430008000033",
  "linkReferences": {},
  "deployedLinkReferences": {}
}