{
  "_format": "hh-sol-artifact-1",
  "contractName": "Monaliza",
  "sourceName": "contracts/MonalizaFactory.sol",
  "abi": [
    {
      "inputs": [
        {
          "internalType": "string",
          "name": "tokenName",
          "type": "string"
        },
        {
          "internalType": "string",
          "name": "symbol",
          "type": "string"
        },
        {
          "internalType": "address",
          "name": "_proxyRegistryAddress",
          "type": "address"
        },
        {
          "internalType": "address",
          "name": "forwarder",
          "type": "address"
        }
      ],
      "stateMutability": "nonpayable",
      "type": "constructor"
    },
    {
      "anonymous": false,
      "inputs": [
        {
          "indexed": true,
          "internalType": "address",
          "name": "owner",
          "type": "address"
        },
        {
          "indexed": true,
          "internalType": "address",
          "name": "approved",
          "type": "address"
        },
        {
          "indexed": true,
          "internalType": "uint256",
          "name": "tokenId",
          "type": "uint256"
        }
      ],
      "name": "Approval",
      "type": "event"
    },
    {
      "anonymous": false,
      "inputs": [
        {
          "indexed": true,
          "internalType": "address",
          "name": "owner",
          "type": "address"
        },
        {
          "indexed": true,
          "internalType": "address",
          "name": "operator",
          "type": "address"
        },
        {
          "indexed": false,
          "internalType": "bool",
          "name": "approved",
          "type": "bool"
        }
      ],
      "name": "ApprovalForAll",
      "type": "event"
    },
    {
      "anonymous": false,
      "inputs": [
        {
          "indexed": false,
          "internalType": "address",
          "name": "userAddress",
          "type": "address"
        },
        {
          "indexed": false,
          "internalType": "address payable",
          "name": "relayerAddress",
          "type": "address"
        },
        {
          "indexed": false,
          "internalType": "bytes",
          "name": "functionSignature",
          "type": "bytes"
        }
      ],
      "name": "MetaTransactionExecuted",
      "type": "event"
    },
    {
      "anonymous": false,
      "inputs": [
        {
          "indexed": true,
          "internalType": "address",
          "name": "previousOwner",
          "type": "address"
        },
        {
          "indexed": true,
          "internalType": "address",
          "name": "newOwner",
          "type": "address"
        }
      ],
      "name": "OwnershipTransferred",
      "type": "event"
    },
    {
      "anonymous": false,
      "inputs": [
        {
          "indexed": true,
          "internalType": "address",
          "name": "from",
          "type": "address"
        },
        {
          "indexed": true,
          "internalType": "address",
          "name": "to",
          "type": "address"
        },
        {
          "indexed": true,
          "internalType": "uint256",
          "name": "tokenId",
          "type": "uint256"
        }
      ],
      "name": "Transfer",
      "type": "event"
    },
    {
      "inputs": [],
      "name": "ERC712_VERSION",
      "outputs": [
        {
          "internalType": "string",
          "name": "",
          "type": "string"
        }
      ],
      "stateMutability": "view",
      "type": "function"
    },
    {
      "inputs": [
        {
          "internalType": "uint256",
          "name": "tokenId",
          "type": "uint256"
        },
        {
          "internalType": "string",
          "name": "_tokenURI",
          "type": "string"
        }
      ],
      "name": "_setTokenURI",
      "outputs": [],
      "stateMutability": "nonpayable",
      "type": "function"
    },
    {
      "inputs": [
        {
          "internalType": "address",
          "name": "",
          "type": "address"
        }
      ],
      "name": "allowedAddresses",
      "outputs": [
        {
          "internalType": "bool",
          "name": "",
          "type": "bool"
        }
      ],
      "stateMutability": "view",
      "type": "function"
    },
    {
      "inputs": [
        {
          "internalType": "address",
          "name": "to",
          "type": "address"
        },
        {
          "internalType": "uint256",
          "name": "tokenId",
          "type": "uint256"
        }
      ],
      "name": "approve",
      "outputs": [],
      "stateMutability": "nonpayable",
      "type": "function"
    },
    {
      "inputs": [
        {
          "internalType": "address",
          "name": "owner",
          "type": "address"
        }
      ],
      "name": "balanceOf",
      "outputs": [
        {
          "internalType": "uint256",
          "name": "",
          "type": "uint256"
        }
      ],
      "stateMutability": "view",
      "type": "function"
    },
    {
      "inputs": [],
      "name": "baseTokenURI",
      "outputs": [
        {
          "internalType": "string",
          "name": "",
          "type": "string"
        }
      ],
      "stateMutability": "view",
      "type": "function"
    },
    {
      "inputs": [],
      "name": "contractURI",
      "outputs": [
        {
          "internalType": "string",
          "name": "",
          "type": "string"
        }
      ],
      "stateMutability": "pure",
      "type": "function"
    },
    {
      "inputs": [
        {
          "internalType": "address",
          "name": "userAddress",
          "type": "address"
        },
        {
          "internalType": "bytes",
          "name": "functionSignature",
          "type": "bytes"
        },
        {
          "internalType": "bytes32",
          "name": "sigR",
          "type": "bytes32"
        },
        {
          "internalType": "bytes32",
          "name": "sigS",
          "type": "bytes32"
        },
        {
          "internalType": "uint8",
          "name": "sigV",
          "type": "uint8"
        }
      ],
      "name": "executeMetaTransaction",
      "outputs": [
        {
          "internalType": "bytes",
          "name": "",
          "type": "bytes"
        }
      ],
      "stateMutability": "payable",
      "type": "function"
    },
    {
      "inputs": [
        {
          "internalType": "uint256",
          "name": "tokenId",
          "type": "uint256"
        }
      ],
      "name": "getApproved",
      "outputs": [
        {
          "internalType": "address",
          "name": "",
          "type": "address"
        }
      ],
      "stateMutability": "view",
      "type": "function"
    },
    {
      "inputs": [],
      "name": "getChainId",
      "outputs": [
        {
          "internalType": "uint256",
          "name": "",
          "type": "uint256"
        }
      ],
      "stateMutability": "view",
      "type": "function"
    },
    {
      "inputs": [],
      "name": "getDomainSeperator",
      "outputs": [
        {
          "internalType": "bytes32",
          "name": "",
          "type": "bytes32"
        }
      ],
      "stateMutability": "view",
      "type": "function"
    },
    {
      "inputs": [
        {
          "internalType": "address",
          "name": "user",
          "type": "address"
        }
      ],
      "name": "getNonce",
      "outputs": [
        {
          "internalType": "uint256",
          "name": "nonce",
          "type": "uint256"
        }
      ],
      "stateMutability": "view",
      "type": "function"
    },
    {
      "inputs": [
        {
          "internalType": "uint256",
          "name": "tokenId",
          "type": "uint256"
        }
      ],
      "name": "getTokenURI",
      "outputs": [
        {
          "internalType": "string",
          "name": "",
          "type": "string"
        }
      ],
      "stateMutability": "view",
      "type": "function"
    },
    {
      "inputs": [
        {
          "internalType": "address",
          "name": "to",
          "type": "address"
        }
      ],
      "name": "isAddressAllowed",
      "outputs": [
        {
          "internalType": "bool",
          "name": "",
          "type": "bool"
        }
      ],
      "stateMutability": "view",
      "type": "function"
    },
    {
      "inputs": [
        {
          "internalType": "address",
          "name": "owner",
          "type": "address"
        },
        {
          "internalType": "address",
          "name": "operator",
          "type": "address"
        }
      ],
      "name": "isApprovedForAll",
      "outputs": [
        {
          "internalType": "bool",
          "name": "",
          "type": "bool"
        }
      ],
      "stateMutability": "view",
      "type": "function"
    },
    {
      "inputs": [
        {
          "internalType": "address",
          "name": "forwarder",
          "type": "address"
        }
      ],
      "name": "isTrustedForwarder",
      "outputs": [
        {
          "internalType": "bool",
          "name": "",
          "type": "bool"
        }
      ],
      "stateMutability": "view",
      "type": "function"
    },
    {
      "inputs": [
        {
          "internalType": "address",
          "name": "_to",
          "type": "address"
        }
      ],
      "name": "mintTo",
      "outputs": [
        {
          "internalType": "uint256",
          "name": "",
          "type": "uint256"
        }
      ],
      "stateMutability": "nonpayable",
      "type": "function"
    },
    {
      "inputs": [],
      "name": "name",
      "outputs": [
        {
          "internalType": "string",
          "name": "",
          "type": "string"
        }
      ],
      "stateMutability": "view",
      "type": "function"
    },
    {
      "inputs": [],
      "name": "owner",
      "outputs": [
        {
          "internalType": "address",
          "name": "",
          "type": "address"
        }
      ],
      "stateMutability": "view",
      "type": "function"
    },
    {
      "inputs": [
        {
          "internalType": "uint256",
          "name": "tokenId",
          "type": "uint256"
        }
      ],
      "name": "ownerOf",
      "outputs": [
        {
          "internalType": "address",
          "name": "",
          "type": "address"
        }
      ],
      "stateMutability": "view",
      "type": "function"
    },
    {
      "inputs": [],
      "name": "renounceOwnership",
      "outputs": [],
      "stateMutability": "nonpayable",
      "type": "function"
    },
    {
      "inputs": [
        {
          "internalType": "address",
          "name": "from",
          "type": "address"
        },
        {
          "internalType": "address",
          "name": "to",
          "type": "address"
        },
        {
          "internalType": "uint256",
          "name": "tokenId",
          "type": "uint256"
        }
      ],
      "name": "safeTransferFrom",
      "outputs": [],
      "stateMutability": "nonpayable",
      "type": "function"
    },
    {
      "inputs": [
        {
          "internalType": "address",
          "name": "from",
          "type": "address"
        },
        {
          "internalType": "address",
          "name": "to",
          "type": "address"
        },
        {
          "internalType": "uint256",
          "name": "tokenId",
          "type": "uint256"
        },
        {
          "internalType": "bytes",
          "name": "_data",
          "type": "bytes"
        }
      ],
      "name": "safeTransferFrom",
      "outputs": [],
      "stateMutability": "nonpayable",
      "type": "function"
    },
    {
      "inputs": [
        {
          "internalType": "address[]",
          "name": "addressesAllowedForMinting",
          "type": "address[]"
        }
      ],
      "name": "setAddressesAllowedForMinting",
      "outputs": [],
      "stateMutability": "nonpayable",
      "type": "function"
    },
    {
      "inputs": [
        {
          "internalType": "address",
          "name": "operator",
          "type": "address"
        },
        {
          "internalType": "bool",
          "name": "approved",
          "type": "bool"
        }
      ],
      "name": "setApprovalForAll",
      "outputs": [],
      "stateMutability": "nonpayable",
      "type": "function"
    },
    {
      "inputs": [
        {
          "internalType": "bytes4",
          "name": "interfaceId",
          "type": "bytes4"
        }
      ],
      "name": "supportsInterface",
      "outputs": [
        {
          "internalType": "bool",
          "name": "",
          "type": "bool"
        }
      ],
      "stateMutability": "view",
      "type": "function"
    },
    {
      "inputs": [],
      "name": "symbol",
      "outputs": [
        {
          "internalType": "string",
          "name": "",
          "type": "string"
        }
      ],
      "stateMutability": "view",
      "type": "function"
    },
    {
      "inputs": [
        {
          "internalType": "uint256",
          "name": "_tokenId",
          "type": "uint256"
        }
      ],
      "name": "tokenURI",
      "outputs": [
        {
          "internalType": "string",
          "name": "",
          "type": "string"
        }
      ],
      "stateMutability": "view",
      "type": "function"
    },
    {
      "inputs": [],
      "name": "totalSupply",
      "outputs": [
        {
          "internalType": "uint256",
          "name": "",
          "type": "uint256"
        }
      ],
      "stateMutability": "view",
      "type": "function"
    },
    {
      "inputs": [
        {
          "internalType": "address",
          "name": "from",
          "type": "address"
        },
        {
          "internalType": "address",
          "name": "to",
          "type": "address"
        },
        {
          "internalType": "uint256",
          "name": "tokenId",
          "type": "uint256"
        }
      ],
      "name": "transferFrom",
      "outputs": [],
      "stateMutability": "nonpayable",
      "type": "function"
    },
    {
      "inputs": [
        {
          "internalType": "address",
          "name": "newOwner",
          "type": "address"
        }
      ],
      "name": "transferOwnership",
      "outputs": [],
      "stateMutability": "nonpayable",
      "type": "function"
    },
    {
      "inputs": [],
      "name": "trustedForwarder",
      "outputs": [
        {
          "internalType": "address",
          "name": "",
          "type": "address"
        }
      ],
      "stateMutability": "view",
      "type": "function"
    },
    {
      "inputs": [],
      "name": "versionRecipient",
      "outputs": [
        {
          "internalType": "string",
          "name": "",
          "type": "string"
        }
      ],
      "stateMutability": "view",
      "type": "function"
    }
  ],
  "bytecode": "0x60806040526000600760006101000a81548160ff0219169083151502179055506040518060400160405280600581526020017f322e322e30000000000000000000000000000000000000000000000000000000815250601090805190602001906200006c92919062000494565b503480156200007a57600080fd5b50604051620048cd380380620048cd8339818101604052810190620000a09190620005cd565b83838382828160019080519060200190620000bd92919062000494565b508060029080519060200190620000d692919062000494565b505050620000f9620000ed6200018060201b60201c565b6200019c60201b60201c565b80600c60006101000a81548173ffffffffffffffffffffffffffffffffffffffff021916908373ffffffffffffffffffffffffffffffffffffffff16021790555062000151600b6200026260201b6200190c1760201c565b62000162836200027860201b60201c565b5050506200017681620002fa60201b60201c565b50505050620008e8565b6000620001976200033d60201b620019221760201c565b905090565b6000600a60009054906101000a900473ffffffffffffffffffffffffffffffffffffffff16905081600a60006101000a81548173ffffffffffffffffffffffffffffffffffffffff021916908373ffffffffffffffffffffffffffffffffffffffff1602179055508173ffffffffffffffffffffffffffffffffffffffff168173ffffffffffffffffffffffffffffffffffffffff167f8be0079c531659141344cd1fd0a4f28419497f9722a3daafe3b4186f6b6457e060405160405180910390a35050565b6001816000016000828254019250508190555050565b600760009054906101000a900460ff1615620002cb576040517f08c379a0000000000000000000000000000000000000000000000000000000008152600401620002c2906200072c565b60405180910390fd5b620002dc816200037f60201b60201c565b6001600760006101000a81548160ff02191690831515021790555050565b806000806101000a81548173ffffffffffffffffffffffffffffffffffffffff021916908373ffffffffffffffffffffffffffffffffffffffff16021790555050565b6000601460003690501015801562000362575062000361336200042e60201b60201c565b5b156200037857601436033560601c90506200037c565b3390505b90565b6040518060800160405280604f81526020016200487e604f91398051906020012081805190602001206040518060400160405280600181526020017f31000000000000000000000000000000000000000000000000000000000000008152508051906020012030620003f66200048760201b60201c565b60001b6040516020016200040f959493929190620006cf565b6040516020818303038152906040528051906020012060088190555050565b60008060009054906101000a900473ffffffffffffffffffffffffffffffffffffffff1673ffffffffffffffffffffffffffffffffffffffff168273ffffffffffffffffffffffffffffffffffffffff16149050919050565b6000804690508091505090565b828054620004a2906200083a565b90600052602060002090601f016020900481019282620004c6576000855562000512565b82601f10620004e157805160ff191683800117855562000512565b8280016001018555821562000512579182015b8281111562000511578251825591602001919060010190620004f4565b5b50905062000521919062000525565b5090565b5b808211156200054057600081600090555060010162000526565b5090565b60006200055b620005558462000782565b6200074e565b9050828152602081018484840111156200057457600080fd5b6200058184828562000804565b509392505050565b6000815190506200059a81620008ce565b92915050565b600082601f830112620005b257600080fd5b8151620005c484826020860162000544565b91505092915050565b60008060008060808587031215620005e457600080fd5b600085015167ffffffffffffffff811115620005ff57600080fd5b6200060d87828801620005a0565b945050602085015167ffffffffffffffff8111156200062b57600080fd5b6200063987828801620005a0565b93505060406200064c8782880162000589565b92505060606200065f8782880162000589565b91505092959194509250565b6200067681620007c6565b82525050565b6200068781620007da565b82525050565b60006200069c600e83620007b5565b91507f616c726561647920696e697465640000000000000000000000000000000000006000830152602082019050919050565b600060a082019050620006e660008301886200067c565b620006f560208301876200067c565b6200070460408301866200067c565b6200071360608301856200066b565b6200072260808301846200067c565b9695505050505050565b6000602082019050818103600083015262000747816200068d565b9050919050565b6000604051905081810181811067ffffffffffffffff821117156200077857620007776200089f565b5b8060405250919050565b600067ffffffffffffffff821115620007a0576200079f6200089f565b5b601f19601f8301169050602081019050919050565b600082825260208201905092915050565b6000620007d382620007e4565b9050919050565b6000819050919050565b600073ffffffffffffffffffffffffffffffffffffffff82169050919050565b60005b838110156200082457808201518184015260208101905062000807565b8381111562000834576000848401525b50505050565b600060028204905060018216806200085357607f821691505b602082108114156200086a576200086962000870565b5b50919050565b7f4e487b7100000000000000000000000000000000000000000000000000000000600052602260045260246000fd5b7f4e487b7100000000000000000000000000000000000000000000000000000000600052604160045260246000fd5b620008d981620007c6565b8114620008e557600080fd5b50565b613f8680620008f86000396000f3fe6080604052600436106101ee5760003560e01c8063572b6c051161010d57806395d89b41116100a0578063c87b56dd1161006f578063c87b56dd1461073e578063d547cfb71461077b578063e8a3d485146107a6578063e985e9c5146107d1578063f2fde38b1461080e576101ee565b806395d89b41146106985780639deecd38146106c3578063a22cb465146106ec578063b88d4fde14610715576101ee565b8063755edd17116100dc578063755edd17146105c85780637da0a877146106055780638da5cb5b146106305780638fa2a9031461065b576101ee565b8063572b6c05146104fa5780636352211e1461053757806370a0823114610574578063715018a6146105b1576101ee565b806320379ee5116101855780633bb3a24d116101545780633bb3a24d1461042c5780634120657a1461046957806342842e0e146104a6578063486ff0cd146104cf576101ee565b806320379ee51461037057806323b872dd1461039b5780632d0335ab146103c45780633408e47014610401576101ee565b8063095ea7b3116101c1578063095ea7b3146102c15780630c53c51c146102ea5780630f7e59701461031a57806318160ddd14610345576101ee565b806301538868146101f357806301ffc9a71461021c57806306fdde0314610259578063081812fc14610284575b600080fd5b3480156101ff57600080fd5b5061021a60048036038101906102159190612ce4565b610837565b005b34801561022857600080fd5b50610243600480360381019061023e9190612c40565b6108c2565b60405161025091906136da565b60405180910390f35b34801561026557600080fd5b5061026e6109a4565b60405161027b91906137bc565b60405180910390f35b34801561029057600080fd5b506102ab60048036038101906102a69190612cbb565b610a36565b6040516102b89190613635565b60405180910390f35b3480156102cd57600080fd5b506102e860048036038101906102e39190612bc3565b610abb565b005b61030460048036038101906102ff9190612b34565b610bd3565b604051610311919061379a565b60405180910390f35b34801561032657600080fd5b5061032f610e45565b60405161033c91906137bc565b60405180910390f35b34801561035157600080fd5b5061035a610e7e565b6040516103679190613a3e565b60405180910390f35b34801561037c57600080fd5b50610385610e9b565b60405161039291906136f5565b60405180910390f35b3480156103a757600080fd5b506103c260048036038101906103bd9190612a2e565b610ea5565b005b3480156103d057600080fd5b506103eb60048036038101906103e691906129c9565b610f05565b6040516103f89190613a3e565b60405180910390f35b34801561040d57600080fd5b50610416610f4e565b6040516104239190613a3e565b60405180910390f35b34801561043857600080fd5b50610453600480360381019061044e9190612cbb565b610f5b565b60405161046091906137bc565b60405180910390f35b34801561047557600080fd5b50610490600480360381019061048b91906129c9565b611000565b60405161049d91906136da565b60405180910390f35b3480156104b257600080fd5b506104cd60048036038101906104c89190612a2e565b611020565b005b3480156104db57600080fd5b506104e4611040565b6040516104f191906137bc565b60405180910390f35b34801561050657600080fd5b50610521600480360381019061051c91906129c9565b6110ce565b60405161052e91906136da565b60405180910390f35b34801561054357600080fd5b5061055e60048036038101906105599190612cbb565b611127565b60405161056b9190613635565b60405180910390f35b34801561058057600080fd5b5061059b600480360381019061059691906129c9565b6111d9565b6040516105a89190613a3e565b60405180910390f35b3480156105bd57600080fd5b506105c6611291565b005b3480156105d457600080fd5b506105ef60048036038101906105ea91906129c9565b611319565b6040516105fc9190613a3e565b60405180910390f35b34801561061157600080fd5b5061061a6113c2565b6040516106279190613635565b60405180910390f35b34801561063c57600080fd5b506106456113eb565b6040516106529190613635565b60405180910390f35b34801561066757600080fd5b50610682600480360381019061067d91906129c9565b611415565b60405161068f91906136da565b60405180910390f35b3480156106a457600080fd5b506106ad61146b565b6040516106ba91906137bc565b60405180910390f35b3480156106cf57600080fd5b506106ea60048036038101906106e59190612bff565b6114fd565b005b3480156106f857600080fd5b50610713600480360381019061070e9190612af8565b6115b8565b005b34801561072157600080fd5b5061073c60048036038101906107379190612a7d565b6115ce565b005b34801561074a57600080fd5b5061076560048036038101906107609190612cbb565b611630565b60405161077291906137bc565b60405180910390f35b34801561078757600080fd5b50610790611660565b60405161079d91906137bc565b60405180910390f35b3480156107b257600080fd5b506107bb6116f2565b6040516107c891906137bc565b60405180910390f35b3480156107dd57600080fd5b506107f860048036038101906107f391906129f2565b611712565b60405161080591906136da565b60405180910390f35b34801561081a57600080fd5b50610835600480360381019061083091906129c9565b611814565b005b61084082611959565b61087f576040517f08c379a00000000000000000000000000000000000000000000000000000000081526004016108769061397e565b60405180910390fd5b80600e600084815260200190815260200160002090805190602001906108a6929190612718565b5080600d90805190602001906108bd929190612718565b505050565b60007f80ac58cd000000000000000000000000000000000000000000000000000000007bffffffffffffffffffffffffffffffffffffffffffffffffffffffff1916827bffffffffffffffffffffffffffffffffffffffffffffffffffffffff1916148061098d57507f5b5e139f000000000000000000000000000000000000000000000000000000007bffffffffffffffffffffffffffffffffffffffffffffffffffffffff1916827bffffffffffffffffffffffffffffffffffffffffffffffffffffffff1916145b8061099d575061099c826119c5565b5b9050919050565b6060600180546109b390613cdf565b80601f01602080910402602001604051908101604052809291908181526020018280546109df90613cdf565b8015610a2c5780601f10610a0157610100808354040283529160200191610a2c565b820191906000526020600020905b815481529060010190602001808311610a0f57829003601f168201915b5050505050905090565b6000610a4182611959565b610a80576040517f08c379a0000000000000000000000000000000000000000000000000000000008152600401610a779061395e565b60405180910390fd5b6005600083815260200190815260200160002060009054906101000a900473ffffffffffffffffffffffffffffffffffffffff169050919050565b6000610ac682611127565b90508073ffffffffffffffffffffffffffffffffffffffff168373ffffffffffffffffffffffffffffffffffffffff161415610b37576040517f08c379a0000000000000000000000000000000000000000000000000000000008152600401610b2e906139fe565b60405180910390fd5b8073ffffffffffffffffffffffffffffffffffffffff16610b56611a2f565b73ffffffffffffffffffffffffffffffffffffffff161480610b855750610b8481610b7f611a2f565b611712565b5b610bc4576040517f08c379a0000000000000000000000000000000000000000000000000000000008152600401610bbb906138de565b60405180910390fd5b610bce8383611a3e565b505050565b606060006040518060600160405280600960008a73ffffffffffffffffffffffffffffffffffffffff1673ffffffffffffffffffffffffffffffffffffffff1681526020019081526020016000205481526020018873ffffffffffffffffffffffffffffffffffffffff168152602001878152509050610c568782878787611af7565b610c95576040517f08c379a0000000000000000000000000000000000000000000000000000000008152600401610c8c906139de565b60405180910390fd5b610ce86001600960008a73ffffffffffffffffffffffffffffffffffffffff1673ffffffffffffffffffffffffffffffffffffffff16815260200190815260200160002054611c0090919063ffffffff16565b600960008973ffffffffffffffffffffffffffffffffffffffff1673ffffffffffffffffffffffffffffffffffffffff168152602001908152602001600020819055507f5845892132946850460bff5a0083f71031bc5bf9aadcd40f1de79423eac9b10b873388604051610d5e93929190613650565b60405180910390a16000803073ffffffffffffffffffffffffffffffffffffffff16888a604051602001610d939291906135bf565b604051602081830303815290604052604051610daf91906135a8565b6000604051808303816000865af19150503d8060008114610dec576040519150601f19603f3d011682016040523d82523d6000602084013e610df1565b606091505b509150915081610e36576040517f08c379a0000000000000000000000000000000000000000000000000000000008152600401610e2d9061381e565b60405180910390fd5b80935050505095945050505050565b6040518060400160405280600181526020017f310000000000000000000000000000000000000000000000000000000000000081525081565b60006001610e8c600b611c16565b610e969190613bba565b905090565b6000600854905090565b610eb6610eb0611a2f565b82611c24565b610ef5576040517f08c379a0000000000000000000000000000000000000000000000000000000008152600401610eec90613a1e565b60405180910390fd5b610f00838383611d02565b505050565b6000600960008373ffffffffffffffffffffffffffffffffffffffff1673ffffffffffffffffffffffffffffffffffffffff168152602001908152602001600020549050919050565b6000804690508091505090565b6060600e60008381526020019081526020016000208054610f7b90613cdf565b80601f0160208091040260200160405190810160405280929190818152602001828054610fa790613cdf565b8015610ff45780601f10610fc957610100808354040283529160200191610ff4565b820191906000526020600020905b815481529060010190602001808311610fd757829003601f168201915b50505050509050919050565b600f6020528060005260406000206000915054906101000a900460ff1681565b61103b838383604051806020016040528060008152506115ce565b505050565b6010805461104d90613cdf565b80601f016020809104026020016040519081016040528092919081815260200182805461107990613cdf565b80156110c65780601f1061109b576101008083540402835291602001916110c6565b820191906000526020600020905b8154815290600101906020018083116110a957829003601f168201915b505050505081565b60008060009054906101000a900473ffffffffffffffffffffffffffffffffffffffff1673ffffffffffffffffffffffffffffffffffffffff168273ffffffffffffffffffffffffffffffffffffffff16149050919050565b6000806003600084815260200190815260200160002060009054906101000a900473ffffffffffffffffffffffffffffffffffffffff169050600073ffffffffffffffffffffffffffffffffffffffff168173ffffffffffffffffffffffffffffffffffffffff1614156111d0576040517f08c379a00000000000000000000000000000000000000000000000000000000081526004016111c79061391e565b60405180910390fd5b80915050919050565b60008073ffffffffffffffffffffffffffffffffffffffff168273ffffffffffffffffffffffffffffffffffffffff16141561124a576040517f08c379a0000000000000000000000000000000000000000000000000000000008152600401611241906138fe565b60405180910390fd5b600460008373ffffffffffffffffffffffffffffffffffffffff1673ffffffffffffffffffffffffffffffffffffffff168152602001908152602001600020549050919050565b611299611a2f565b73ffffffffffffffffffffffffffffffffffffffff166112b76113eb565b73ffffffffffffffffffffffffffffffffffffffff161461130d576040517f08c379a00000000000000000000000000000000000000000000000000000000081526004016113049061399e565b60405180910390fd5b6113176000611f5e565b565b6000611323611a2f565b73ffffffffffffffffffffffffffffffffffffffff166113416113eb565b73ffffffffffffffffffffffffffffffffffffffff1614611397576040517f08c379a000000000000000000000000000000000000000000000000000000000815260040161138e9061399e565b60405180910390fd5b60006113a3600b611c16565b90506113af600b61190c565b6113b98382612024565b80915050919050565b60008060009054906101000a900473ffffffffffffffffffffffffffffffffffffffff16905090565b6000600a60009054906101000a900473ffffffffffffffffffffffffffffffffffffffff16905090565b6000600f60008373ffffffffffffffffffffffffffffffffffffffff1673ffffffffffffffffffffffffffffffffffffffff16815260200190815260200160002060009054906101000a900460ff169050919050565b60606002805461147a90613cdf565b80601f01602080910402602001604051908101604052809291908181526020018280546114a690613cdf565b80156114f35780601f106114c8576101008083540402835291602001916114f3565b820191906000526020600020905b8154815290600101906020018083116114d657829003601f168201915b5050505050905090565b60005b81518110156115b4576001600f6000848481518110611548577f4e487b7100000000000000000000000000000000000000000000000000000000600052603260045260246000fd5b602002602001015173ffffffffffffffffffffffffffffffffffffffff1673ffffffffffffffffffffffffffffffffffffffff16815260200190815260200160002060006101000a81548160ff02191690831515021790555080806115ac90613d11565b915050611500565b5050565b6115ca6115c3611a2f565b8383612042565b5050565b6115df6115d9611a2f565b83611c24565b61161e576040517f08c379a000000000000000000000000000000000000000000000000000000000815260040161161590613a1e565b60405180910390fd5b61162a848484846121af565b50505050565b606061163a611660565b60405160200161164a91906135e7565b6040516020818303038152906040529050919050565b6060600d805461166f90613cdf565b80601f016020809104026020016040519081016040528092919081815260200182805461169b90613cdf565b80156116e85780601f106116bd576101008083540402835291602001916116e8565b820191906000526020600020905b8154815290600101906020018083116116cb57829003601f168201915b5050505050905090565b6060604051806060016040528060398152602001613f1860399139905090565b600080600c60009054906101000a900473ffffffffffffffffffffffffffffffffffffffff1690508273ffffffffffffffffffffffffffffffffffffffff168173ffffffffffffffffffffffffffffffffffffffff1663c4552791866040518263ffffffff1660e01b815260040161178a9190613635565b60206040518083038186803b1580156117a257600080fd5b505afa1580156117b6573d6000803e3d6000fd5b505050506040513d601f19601f820116820180604052508101906117da9190612c92565b73ffffffffffffffffffffffffffffffffffffffff16141561180057600191505061180e565b61180a848461220b565b9150505b92915050565b61181c611a2f565b73ffffffffffffffffffffffffffffffffffffffff1661183a6113eb565b73ffffffffffffffffffffffffffffffffffffffff1614611890576040517f08c379a00000000000000000000000000000000000000000000000000000000081526004016118879061399e565b60405180910390fd5b600073ffffffffffffffffffffffffffffffffffffffff168173ffffffffffffffffffffffffffffffffffffffff161415611900576040517f08c379a00000000000000000000000000000000000000000000000000000000081526004016118f7906137fe565b60405180910390fd5b61190981611f5e565b50565b6001816000016000828254019250508190555050565b6000601460003690501015801561193e575061193d336110ce565b5b1561195257601436033560601c9050611956565b3390505b90565b60008073ffffffffffffffffffffffffffffffffffffffff166003600084815260200190815260200160002060009054906101000a900473ffffffffffffffffffffffffffffffffffffffff1673ffffffffffffffffffffffffffffffffffffffff1614159050919050565b60007f01ffc9a7000000000000000000000000000000000000000000000000000000007bffffffffffffffffffffffffffffffffffffffffffffffffffffffff1916827bffffffffffffffffffffffffffffffffffffffffffffffffffffffff1916149050919050565b6000611a39611922565b905090565b816005600083815260200190815260200160002060006101000a81548173ffffffffffffffffffffffffffffffffffffffff021916908373ffffffffffffffffffffffffffffffffffffffff160217905550808273ffffffffffffffffffffffffffffffffffffffff16611ab183611127565b73ffffffffffffffffffffffffffffffffffffffff167f8c5be1e5ebec7d5bd14f71427d1e84f3dd0314c0f7b2291e5b200ac8c7c3b92560405160405180910390a45050565b60008073ffffffffffffffffffffffffffffffffffffffff168673ffffffffffffffffffffffffffffffffffffffff161415611b68576040517f08c379a0000000000000000000000000000000000000000000000000000000008152600401611b5f906138be565b60405180910390fd5b6001611b7b611b768761229f565b612307565b83868660405160008152602001604052604051611b9b9493929190613755565b6020604051602081039080840390855afa158015611bbd573d6000803e3d6000fd5b5050506020604051035173ffffffffffffffffffffffffffffffffffffffff168673ffffffffffffffffffffffffffffffffffffffff1614905095945050505050565b60008183611c0e9190613b64565b905092915050565b600081600001549050919050565b6000611c2f82611959565b611c6e576040517f08c379a0000000000000000000000000000000000000000000000000000000008152600401611c659061389e565b60405180910390fd5b6000611c7983611127565b90508073ffffffffffffffffffffffffffffffffffffffff168473ffffffffffffffffffffffffffffffffffffffff161480611ce857508373ffffffffffffffffffffffffffffffffffffffff16611cd084610a36565b73ffffffffffffffffffffffffffffffffffffffff16145b80611cf95750611cf88185611712565b5b91505092915050565b8273ffffffffffffffffffffffffffffffffffffffff16611d2282611127565b73ffffffffffffffffffffffffffffffffffffffff1614611d78576040517f08c379a0000000000000000000000000000000000000000000000000000000008152600401611d6f906139be565b60405180910390fd5b600073ffffffffffffffffffffffffffffffffffffffff168273ffffffffffffffffffffffffffffffffffffffff161415611de8576040517f08c379a0000000000000000000000000000000000000000000000000000000008152600401611ddf9061385e565b60405180910390fd5b611df3838383612340565b611dfe600082611a3e565b6001600460008573ffffffffffffffffffffffffffffffffffffffff1673ffffffffffffffffffffffffffffffffffffffff1681526020019081526020016000206000828254611e4e9190613bba565b925050819055506001600460008473ffffffffffffffffffffffffffffffffffffffff1673ffffffffffffffffffffffffffffffffffffffff1681526020019081526020016000206000828254611ea59190613b64565b92505081905550816003600083815260200190815260200160002060006101000a81548173ffffffffffffffffffffffffffffffffffffffff021916908373ffffffffffffffffffffffffffffffffffffffff160217905550808273ffffffffffffffffffffffffffffffffffffffff168473ffffffffffffffffffffffffffffffffffffffff167fddf252ad1be2c89b69c2b068fc378daa952ba7f163c4a11628f55a4df523b3ef60405160405180910390a4505050565b6000600a60009054906101000a900473ffffffffffffffffffffffffffffffffffffffff16905081600a60006101000a81548173ffffffffffffffffffffffffffffffffffffffff021916908373ffffffffffffffffffffffffffffffffffffffff1602179055508173ffffffffffffffffffffffffffffffffffffffff168173ffffffffffffffffffffffffffffffffffffffff167f8be0079c531659141344cd1fd0a4f28419497f9722a3daafe3b4186f6b6457e060405160405180910390a35050565b61203e828260405180602001604052806000815250612345565b5050565b8173ffffffffffffffffffffffffffffffffffffffff168373ffffffffffffffffffffffffffffffffffffffff1614156120b1576040517f08c379a00000000000000000000000000000000000000000000000000000000081526004016120a89061387e565b60405180910390fd5b80600660008573ffffffffffffffffffffffffffffffffffffffff1673ffffffffffffffffffffffffffffffffffffffff16815260200190815260200160002060008473ffffffffffffffffffffffffffffffffffffffff1673ffffffffffffffffffffffffffffffffffffffff16815260200190815260200160002060006101000a81548160ff0219169083151502179055508173ffffffffffffffffffffffffffffffffffffffff168373ffffffffffffffffffffffffffffffffffffffff167f17307eab39ab6107e8899845ad3d59bd9653f200f220920489ca2b5937696c31836040516121a291906136da565b60405180910390a3505050565b6121ba848484611d02565b6121c6848484846123a0565b612205576040517f08c379a00000000000000000000000000000000000000000000000000000000081526004016121fc906137de565b60405180910390fd5b50505050565b6000600660008473ffffffffffffffffffffffffffffffffffffffff1673ffffffffffffffffffffffffffffffffffffffff16815260200190815260200160002060008373ffffffffffffffffffffffffffffffffffffffff1673ffffffffffffffffffffffffffffffffffffffff16815260200190815260200160002060009054906101000a900460ff16905092915050565b6000604051806080016040528060438152602001613ed56043913980519060200120826000015183602001518460400151805190602001206040516020016122ea9493929190613710565b604051602081830303815290604052805190602001209050919050565b6000612311610e9b565b826040516020016123239291906135fe565b604051602081830303815290604052805190602001209050919050565b505050565b61234f8383612537565b61235c60008484846123a0565b61239b576040517f08c379a0000000000000000000000000000000000000000000000000000000008152600401612392906137de565b60405180910390fd5b505050565b60006123c18473ffffffffffffffffffffffffffffffffffffffff16612705565b1561252a578373ffffffffffffffffffffffffffffffffffffffff1663150b7a026123ea611a2f565b8786866040518563ffffffff1660e01b815260040161240c949392919061368e565b602060405180830381600087803b15801561242657600080fd5b505af192505050801561245757506040513d601f19601f820116820180604052508101906124549190612c69565b60015b6124da573d8060008114612487576040519150601f19603f3d011682016040523d82523d6000602084013e61248c565b606091505b506000815114156124d2576040517f08c379a00000000000000000000000000000000000000000000000000000000081526004016124c9906137de565b60405180910390fd5b805181602001fd5b63150b7a0260e01b7bffffffffffffffffffffffffffffffffffffffffffffffffffffffff1916817bffffffffffffffffffffffffffffffffffffffffffffffffffffffff19161491505061252f565b600190505b949350505050565b600073ffffffffffffffffffffffffffffffffffffffff168273ffffffffffffffffffffffffffffffffffffffff1614156125a7576040517f08c379a000000000000000000000000000000000000000000000000000000000815260040161259e9061393e565b60405180910390fd5b6125b081611959565b156125f0576040517f08c379a00000000000000000000000000000000000000000000000000000000081526004016125e79061383e565b60405180910390fd5b6125fc60008383612340565b6001600460008473ffffffffffffffffffffffffffffffffffffffff1673ffffffffffffffffffffffffffffffffffffffff168152602001908152602001600020600082825461264c9190613b64565b92505081905550816003600083815260200190815260200160002060006101000a81548173ffffffffffffffffffffffffffffffffffffffff021916908373ffffffffffffffffffffffffffffffffffffffff160217905550808273ffffffffffffffffffffffffffffffffffffffff16600073ffffffffffffffffffffffffffffffffffffffff167fddf252ad1be2c89b69c2b068fc378daa952ba7f163c4a11628f55a4df523b3ef60405160405180910390a45050565b600080823b905060008111915050919050565b82805461272490613cdf565b90600052602060002090601f016020900481019282612746576000855561278d565b82601f1061275f57805160ff191683800117855561278d565b8280016001018555821561278d579182015b8281111561278c578251825591602001919060010190612771565b5b50905061279a919061279e565b5090565b5b808211156127b757600081600090555060010161279f565b5090565b60006127ce6127c984613a8a565b613a59565b905080838252602082019050828560208602820111156127ed57600080fd5b60005b8581101561281d578161280388826128a3565b8452602084019350602083019250506001810190506127f0565b5050509392505050565b600061283a61283584613ab6565b613a59565b90508281526020810184848401111561285257600080fd5b61285d848285613c9d565b509392505050565b600061287861287384613ae6565b613a59565b90508281526020810184848401111561289057600080fd5b61289b848285613c9d565b509392505050565b6000813590506128b281613e33565b92915050565b600082601f8301126128c957600080fd5b81356128d98482602086016127bb565b91505092915050565b6000813590506128f181613e4a565b92915050565b60008135905061290681613e61565b92915050565b60008135905061291b81613e78565b92915050565b60008151905061293081613e78565b92915050565b600082601f83011261294757600080fd5b8135612957848260208601612827565b91505092915050565b60008151905061296f81613e8f565b92915050565b600082601f83011261298657600080fd5b8135612996848260208601612865565b91505092915050565b6000813590506129ae81613ea6565b92915050565b6000813590506129c381613ebd565b92915050565b6000602082840312156129db57600080fd5b60006129e9848285016128a3565b91505092915050565b60008060408385031215612a0557600080fd5b6000612a13858286016128a3565b9250506020612a24858286016128a3565b9150509250929050565b600080600060608486031215612a4357600080fd5b6000612a51868287016128a3565b9350506020612a62868287016128a3565b9250506040612a738682870161299f565b9150509250925092565b60008060008060808587031215612a9357600080fd5b6000612aa1878288016128a3565b9450506020612ab2878288016128a3565b9350506040612ac38782880161299f565b925050606085013567ffffffffffffffff811115612ae057600080fd5b612aec87828801612936565b91505092959194509250565b60008060408385031215612b0b57600080fd5b6000612b19858286016128a3565b9250506020612b2a858286016128e2565b9150509250929050565b600080600080600060a08688031215612b4c57600080fd5b6000612b5a888289016128a3565b955050602086013567ffffffffffffffff811115612b7757600080fd5b612b8388828901612936565b9450506040612b94888289016128f7565b9350506060612ba5888289016128f7565b9250506080612bb6888289016129b4565b9150509295509295909350565b60008060408385031215612bd657600080fd5b6000612be4858286016128a3565b9250506020612bf58582860161299f565b9150509250929050565b600060208284031215612c1157600080fd5b600082013567ffffffffffffffff811115612c2b57600080fd5b612c37848285016128b8565b91505092915050565b600060208284031215612c5257600080fd5b6000612c608482850161290c565b91505092915050565b600060208284031215612c7b57600080fd5b6000612c8984828501612921565b91505092915050565b600060208284031215612ca457600080fd5b6000612cb284828501612960565b91505092915050565b600060208284031215612ccd57600080fd5b6000612cdb8482850161299f565b91505092915050565b60008060408385031215612cf757600080fd5b6000612d058582860161299f565b925050602083013567ffffffffffffffff811115612d2257600080fd5b612d2e85828601612975565b9150509250929050565b612d4181613c00565b82525050565b612d5081613bee565b82525050565b612d67612d6282613bee565b613d5a565b82525050565b612d7681613c12565b82525050565b612d8581613c1e565b82525050565b612d9c612d9782613c1e565b613d6c565b82525050565b6000612dad82613b16565b612db78185613b2c565b9350612dc7818560208601613cac565b612dd081613e15565b840191505092915050565b6000612de682613b16565b612df08185613b3d565b9350612e00818560208601613cac565b80840191505092915050565b6000612e1782613b21565b612e218185613b48565b9350612e31818560208601613cac565b612e3a81613e15565b840191505092915050565b6000612e5082613b21565b612e5a8185613b59565b9350612e6a818560208601613cac565b80840191505092915050565b6000612e83603283613b48565b91507f4552433732313a207472616e7366657220746f206e6f6e20455243373231526560008301527f63656976657220696d706c656d656e74657200000000000000000000000000006020830152604082019050919050565b6000612ee9602683613b48565b91507f4f776e61626c653a206e6577206f776e657220697320746865207a65726f206160008301527f64647265737300000000000000000000000000000000000000000000000000006020830152604082019050919050565b6000612f4f601c83613b48565b91507f46756e6374696f6e2063616c6c206e6f74207375636365737366756c000000006000830152602082019050919050565b6000612f8f601c83613b48565b91507f4552433732313a20746f6b656e20616c7265616479206d696e746564000000006000830152602082019050919050565b6000612fcf600283613b59565b91507f19010000000000000000000000000000000000000000000000000000000000006000830152600282019050919050565b600061300f602483613b48565b91507f4552433732313a207472616e7366657220746f20746865207a65726f2061646460008301527f72657373000000000000000000000000000000000000000000000000000000006020830152604082019050919050565b6000613075601983613b48565b91507f4552433732313a20617070726f766520746f2063616c6c6572000000000000006000830152602082019050919050565b60006130b5602c83613b48565b91507f4552433732313a206f70657261746f7220717565727920666f72206e6f6e657860008301527f697374656e7420746f6b656e00000000000000000000000000000000000000006020830152604082019050919050565b600061311b602583613b48565b91507f4e61746976654d6574615472616e73616374696f6e3a20494e56414c49445f5360008301527f49474e45520000000000000000000000000000000000000000000000000000006020830152604082019050919050565b6000613181603883613b48565b91507f4552433732313a20617070726f76652063616c6c6572206973206e6f74206f7760008301527f6e6572206e6f7220617070726f76656420666f7220616c6c00000000000000006020830152604082019050919050565b60006131e7602a83613b48565b91507f4552433732313a2062616c616e636520717565727920666f7220746865207a6560008301527f726f2061646472657373000000000000000000000000000000000000000000006020830152604082019050919050565b600061324d602983613b48565b91507f4552433732313a206f776e657220717565727920666f72206e6f6e657869737460008301527f656e7420746f6b656e00000000000000000000000000000000000000000000006020830152604082019050919050565b60006132b3602083613b48565b91507f4552433732313a206d696e7420746f20746865207a65726f20616464726573736000830152602082019050919050565b60006132f3602c83613b48565b91507f4552433732313a20617070726f76656420717565727920666f72206e6f6e657860008301527f697374656e7420746f6b656e00000000000000000000000000000000000000006020830152604082019050919050565b6000613359602c83613b48565b91507f4552433732314d657461646174613a2055524920736574206f66206e6f6e657860008301527f697374656e7420746f6b656e00000000000000000000000000000000000000006020830152604082019050919050565b60006133bf602083613b48565b91507f4f776e61626c653a2063616c6c6572206973206e6f7420746865206f776e65726000830152602082019050919050565b60006133ff602983613b48565b91507f4552433732313a207472616e73666572206f6620746f6b656e2074686174206960008301527f73206e6f74206f776e00000000000000000000000000000000000000000000006020830152604082019050919050565b6000613465602183613b48565b91507f5369676e657220616e64207369676e617475726520646f206e6f74206d61746360008301527f68000000000000000000000000000000000000000000000000000000000000006020830152604082019050919050565b60006134cb602183613b48565b91507f4552433732313a20617070726f76616c20746f2063757272656e74206f776e6560008301527f72000000000000000000000000000000000000000000000000000000000000006020830152604082019050919050565b6000613531603183613b48565b91507f4552433732313a207472616e736665722063616c6c6572206973206e6f74206f60008301527f776e6572206e6f7220617070726f7665640000000000000000000000000000006020830152604082019050919050565b61359381613c86565b82525050565b6135a281613c90565b82525050565b60006135b48284612ddb565b915081905092915050565b60006135cb8285612ddb565b91506135d78284612d56565b6014820191508190509392505050565b60006135f38284612e45565b915081905092915050565b600061360982612fc2565b91506136158285612d8b565b6020820191506136258284612d8b565b6020820191508190509392505050565b600060208201905061364a6000830184612d47565b92915050565b60006060820190506136656000830186612d47565b6136726020830185612d38565b81810360408301526136848184612da2565b9050949350505050565b60006080820190506136a36000830187612d47565b6136b06020830186612d47565b6136bd604083018561358a565b81810360608301526136cf8184612da2565b905095945050505050565b60006020820190506136ef6000830184612d6d565b92915050565b600060208201905061370a6000830184612d7c565b92915050565b60006080820190506137256000830187612d7c565b613732602083018661358a565b61373f6040830185612d47565b61374c6060830184612d7c565b95945050505050565b600060808201905061376a6000830187612d7c565b6137776020830186613599565b6137846040830185612d7c565b6137916060830184612d7c565b95945050505050565b600060208201905081810360008301526137b48184612da2565b905092915050565b600060208201905081810360008301526137d68184612e0c565b905092915050565b600060208201905081810360008301526137f781612e76565b9050919050565b6000602082019050818103600083015261381781612edc565b9050919050565b6000602082019050818103600083015261383781612f42565b9050919050565b6000602082019050818103600083015261385781612f82565b9050919050565b6000602082019050818103600083015261387781613002565b9050919050565b6000602082019050818103600083015261389781613068565b9050919050565b600060208201905081810360008301526138b7816130a8565b9050919050565b600060208201905081810360008301526138d78161310e565b9050919050565b600060208201905081810360008301526138f781613174565b9050919050565b60006020820190508181036000830152613917816131da565b9050919050565b6000602082019050818103600083015261393781613240565b9050919050565b60006020820190508181036000830152613957816132a6565b9050919050565b60006020820190508181036000830152613977816132e6565b9050919050565b600060208201905081810360008301526139978161334c565b9050919050565b600060208201905081810360008301526139b7816133b2565b9050919050565b600060208201905081810360008301526139d7816133f2565b9050919050565b600060208201905081810360008301526139f781613458565b9050919050565b60006020820190508181036000830152613a17816134be565b9050919050565b60006020820190508181036000830152613a3781613524565b9050919050565b6000602082019050613a53600083018461358a565b92915050565b6000604051905081810181811067ffffffffffffffff82111715613a8057613a7f613de6565b5b8060405250919050565b600067ffffffffffffffff821115613aa557613aa4613de6565b5b602082029050602081019050919050565b600067ffffffffffffffff821115613ad157613ad0613de6565b5b601f19601f8301169050602081019050919050565b600067ffffffffffffffff821115613b0157613b00613de6565b5b601f19601f8301169050602081019050919050565b600081519050919050565b600081519050919050565b600082825260208201905092915050565b600081905092915050565b600082825260208201905092915050565b600081905092915050565b6000613b6f82613c86565b9150613b7a83613c86565b9250827fffffffffffffffffffffffffffffffffffffffffffffffffffffffffffffffff03821115613baf57613bae613d88565b5b828201905092915050565b6000613bc582613c86565b9150613bd083613c86565b925082821015613be357613be2613d88565b5b828203905092915050565b6000613bf982613c66565b9050919050565b6000613c0b82613c66565b9050919050565b60008115159050919050565b6000819050919050565b60007fffffffff0000000000000000000000000000000000000000000000000000000082169050919050565b6000613c5f82613bee565b9050919050565b600073ffffffffffffffffffffffffffffffffffffffff82169050919050565b6000819050919050565b600060ff82169050919050565b82818337600083830152505050565b60005b83811015613cca578082015181840152602081019050613caf565b83811115613cd9576000848401525b50505050565b60006002820490506001821680613cf757607f821691505b60208210811415613d0b57613d0a613db7565b5b50919050565b6000613d1c82613c86565b91507fffffffffffffffffffffffffffffffffffffffffffffffffffffffffffffffff821415613d4f57613d4e613d88565b5b600182019050919050565b6000613d6582613d76565b9050919050565b6000819050919050565b6000613d8182613e26565b9050919050565b7f4e487b7100000000000000000000000000000000000000000000000000000000600052601160045260246000fd5b7f4e487b7100000000000000000000000000000000000000000000000000000000600052602260045260246000fd5b7f4e487b7100000000000000000000000000000000000000000000000000000000600052604160045260246000fd5b6000601f19601f8301169050919050565b60008160601b9050919050565b613e3c81613bee565b8114613e4757600080fd5b50565b613e5381613c12565b8114613e5e57600080fd5b50565b613e6a81613c1e565b8114613e7557600080fd5b50565b613e8181613c28565b8114613e8c57600080fd5b50565b613e9881613c54565b8114613ea357600080fd5b50565b613eaf81613c86565b8114613eba57600080fd5b50565b613ec681613c90565b8114613ed157600080fd5b5056fe4d6574615472616e73616374696f6e2875696e74323536206e6f6e63652c616464726573732066726f6d2c62797465732066756e6374696f6e5369676e61747572652968747470733a2f2f6d6f6e616c697a612d6170692e6f70656e7365612e696f2f636f6e74726163742f6f70656e7365612d6d6f6e616c697a61a26469706673582212207cd4751bc64b9ae1bd34e504d4511fe9ce5289e8281eca0e86db2e2d9b0ad43364736f6c63430008000033454950373132446f6d61696e28737472696e67206e616d652c737472696e672076657273696f6e2c6164647265737320766572696679696e67436f6e74726163742c627974657333322073616c7429",
  "linkReferences": {},
  "deployedLinkReferences": {}
}