{
  "_format": "hh-sol-artifact-1",
  "contractName": "MonalizaFactory",
  "sourceName": "contracts/MonalizaFactory.sol",
  "abi": [
    {
      "anonymous": false,
      "inputs": [
        {
          "indexed": false,
          "internalType": "string",
          "name": "name",
          "type": "string"
        },
        {
          "indexed": false,
          "internalType": "string",
          "name": "symbol",
          "type": "string"
        },
        {
          "indexed": false,
          "internalType": "address",
          "name": "newContract",
          "type": "address"
        }
      ],
      "name": "DeployContract",
      "type": "event"
    },
    {
      "anonymous": false,
      "inputs": [
        {
          "indexed": false,
          "internalType": "contract Monaliza",
          "name": "tokenAddress",
          "type": "address"
        },
        {
          "indexed": false,
          "internalType": "uint256",
          "name": "newItemId",
          "type": "uint256"
        }
      ],
      "name": "Mint",
      "type": "event"
    },
    {
      "inputs": [
        {
          "internalType": "uint256",
          "name": "",
          "type": "uint256"
        }
      ],
      "name": "contracts",
      "outputs": [
        {
          "internalType": "address",
          "name": "",
          "type": "address"
        }
      ],
      "stateMutability": "view",
      "type": "function"
    },
    {
      "inputs": [
        {
          "internalType": "string",
          "name": "name",
          "type": "string"
        },
        {
          "internalType": "string",
          "name": "symbol",
          "type": "string"
        }
      ],
      "name": "deployNFTContract",
      "outputs": [
        {
          "internalType": "address",
          "name": "newContract",
          "type": "address"
        }
      ],
      "stateMutability": "nonpayable",
      "type": "function"
    },
    {
      "inputs": [],
      "name": "getContractCount",
      "outputs": [
        {
          "internalType": "uint256",
          "name": "contractCount",
          "type": "uint256"
        }
      ],
      "stateMutability": "view",
      "type": "function"
    },
    {
      "inputs": [],
      "name": "lastContractAddress",
      "outputs": [
        {
          "internalType": "address",
          "name": "",
          "type": "address"
        }
      ],
      "stateMutability": "view",
      "type": "function"
    },
    {
      "inputs": [
        {
          "internalType": "contract Monaliza",
          "name": "tokenAddress",
          "type": "address"
        },
        {
          "internalType": "address",
          "name": "to",
          "type": "address"
        },
        {
          "internalType": "string",
          "name": "tokenURI",
          "type": "string"
        }
      ],
      "name": "mintNFT",
      "outputs": [
        {
          "internalType": "uint256",
          "name": "newItemId",
          "type": "uint256"
        }
      ],
      "stateMutability": "nonpayable",
      "type": "function"
    }
  ],
  "bytecode": "0x608060405234801561001057600080fd5b50613a19806100206000396000f3fe60806040523480156200001157600080fd5b50600436106200005e5760003560e01c8063327097381462000063578063474da79a146200008557806351e2d5f114620000bb5780637c818f5414620000f15780639399869d1462000127575b600080fd5b6200006d62000149565b6040516200007c91906200064f565b60405180910390f35b620000a360048036038101906200009d919062000583565b6200016f565b604051620000b291906200064f565b60405180910390f35b620000d96004803603810190620000d3919062000510565b620001af565b604051620000e891906200064f565b60405180910390f35b6200010f6004803603810190620001099190620004a1565b620002e0565b6040516200011e919062000753565b60405180910390f35b62000131620003b9565b60405162000140919062000753565b60405180910390f35b600160009054906101000a900473ffffffffffffffffffffffffffffffffffffffff1681565b600081815481106200018057600080fd5b906000526020600020016000915054906101000a900473ffffffffffffffffffffffffffffffffffffffff1681565b6000808383604051620001c290620003c5565b620001cf929190620006cd565b604051809103906000f080158015620001ec573d6000803e3d6000fd5b50905060008190506000819080600181540180825580915050600190039060005260206000200160009091909190916101000a81548173ffffffffffffffffffffffffffffffffffffffff021916908373ffffffffffffffffffffffffffffffffffffffff16021790555080600160006101000a81548173ffffffffffffffffffffffffffffffffffffffff021916908373ffffffffffffffffffffffffffffffffffffffff1602179055507f909d3a27d497eeb2405be5653f130fc82124fdfb09dc58dd30b8d13406601a23858583604051620002cd9392919062000708565b60405180910390a1809250505092915050565b60008373ffffffffffffffffffffffffffffffffffffffff1663d0def52184846040518363ffffffff1660e01b81526004016200031f9291906200066c565b602060405180830381600087803b1580156200033a57600080fd5b505af11580156200034f573d6000803e3d6000fd5b505050506040513d601f19601f82011682018060405250810190620003759190620005af565b90507f0f6798a560793a54c3bcfe86a93cde1e73087d944c0ea20544137d41213968858482604051620003aa929190620006a0565b60405180910390a19392505050565b60008080549050905090565b6130a3806200094183390190565b6000620003ea620003e484620007a4565b62000770565b9050828152602081018484840111156200040357600080fd5b620004108482856200086d565b509392505050565b6000813590506200042981620008f2565b92915050565b60008135905062000440816200090c565b92915050565b600082601f8301126200045857600080fd5b81356200046a848260208601620003d3565b91505092915050565b600081359050620004848162000926565b92915050565b6000815190506200049b8162000926565b92915050565b600080600060608486031215620004b757600080fd5b6000620004c7868287016200042f565b9350506020620004da8682870162000418565b925050604084013567ffffffffffffffff811115620004f857600080fd5b620005068682870162000446565b9150509250925092565b600080604083850312156200052457600080fd5b600083013567ffffffffffffffff8111156200053f57600080fd5b6200054d8582860162000446565b925050602083013567ffffffffffffffff8111156200056b57600080fd5b620005798582860162000446565b9150509250929050565b6000602082840312156200059657600080fd5b6000620005a68482850162000473565b91505092915050565b600060208284031215620005c257600080fd5b6000620005d2848285016200048a565b91505092915050565b620005e681620007f3565b82525050565b620005f78162000845565b82525050565b60006200060a82620007d7565b620006168185620007e2565b9350620006288185602086016200087c565b6200063381620008e1565b840191505092915050565b62000649816200083b565b82525050565b6000602082019050620006666000830184620005db565b92915050565b6000604082019050620006836000830185620005db565b8181036020830152620006978184620005fd565b90509392505050565b6000604082019050620006b76000830185620005ec565b620006c660208301846200063e565b9392505050565b60006040820190508181036000830152620006e98185620005fd565b90508181036020830152620006ff8184620005fd565b90509392505050565b60006060820190508181036000830152620007248186620005fd565b905081810360208301526200073a8185620005fd565b90506200074b6040830184620005db565b949350505050565b60006020820190506200076a60008301846200063e565b92915050565b6000604051905081810181811067ffffffffffffffff821117156200079a5762000799620008b2565b5b8060405250919050565b600067ffffffffffffffff821115620007c257620007c1620008b2565b5b601f19601f8301169050602081019050919050565b600081519050919050565b600082825260208201905092915050565b600062000800826200081b565b9050919050565b60006200081482620007f3565b9050919050565b600073ffffffffffffffffffffffffffffffffffffffff82169050919050565b6000819050919050565b6000620008528262000859565b9050919050565b600062000866826200081b565b9050919050565b82818337600083830152505050565b60005b838110156200089c5780820151818401526020810190506200087f565b83811115620008ac576000848401525b50505050565b7f4e487b7100000000000000000000000000000000000000000000000000000000600052604160045260246000fd5b6000601f19601f8301169050919050565b620008fd81620007f3565b81146200090957600080fd5b50565b620009178162000807565b81146200092357600080fd5b50565b62000931816200083b565b81146200093d57600080fd5b5056fe60806040523480156200001157600080fd5b50604051620030a3380380620030a3833981810160405281019062000037919062000285565b818181600090805190602001906200005192919062000163565b5080600190805190602001906200006a92919062000163565b5050506200008d620000816200009560201b60201c565b6200009d60201b60201c565b505062000429565b600033905090565b6000600660009054906101000a900473ffffffffffffffffffffffffffffffffffffffff16905081600660006101000a81548173ffffffffffffffffffffffffffffffffffffffff021916908373ffffffffffffffffffffffffffffffffffffffff1602179055508173ffffffffffffffffffffffffffffffffffffffff168173ffffffffffffffffffffffffffffffffffffffff167f8be0079c531659141344cd1fd0a4f28419497f9722a3daafe3b4186f6b6457e060405160405180910390a35050565b828054620001719062000395565b90600052602060002090601f016020900481019282620001955760008555620001e1565b82601f10620001b057805160ff1916838001178555620001e1565b82800160010185558215620001e1579182015b82811115620001e0578251825591602001919060010190620001c3565b5b509050620001f09190620001f4565b5090565b5b808211156200020f576000816000905550600101620001f5565b5090565b60006200022a62000224846200032c565b620002f8565b9050828152602081018484840111156200024357600080fd5b620002508482856200035f565b509392505050565b600082601f8301126200026a57600080fd5b81516200027c84826020860162000213565b91505092915050565b600080604083850312156200029957600080fd5b600083015167ffffffffffffffff811115620002b457600080fd5b620002c28582860162000258565b925050602083015167ffffffffffffffff811115620002e057600080fd5b620002ee8582860162000258565b9150509250929050565b6000604051905081810181811067ffffffffffffffff82111715620003225762000321620003fa565b5b8060405250919050565b600067ffffffffffffffff8211156200034a5762000349620003fa565b5b601f19601f8301169050602081019050919050565b60005b838110156200037f57808201518184015260208101905062000362565b838111156200038f576000848401525b50505050565b60006002820490506001821680620003ae57607f821691505b60208210811415620003c557620003c4620003cb565b5b50919050565b7f4e487b7100000000000000000000000000000000000000000000000000000000600052602260045260246000fd5b7f4e487b7100000000000000000000000000000000000000000000000000000000600052604160045260246000fd5b612c6a80620004396000396000f3fe608060405234801561001057600080fd5b506004361061010b5760003560e01c8063715018a6116100a2578063b88d4fde11610071578063b88d4fde146102a4578063c87b56dd146102c0578063d0def521146102f0578063e985e9c514610320578063f2fde38b146103505761010b565b8063715018a6146102425780638da5cb5b1461024c57806395d89b411461026a578063a22cb465146102885761010b565b806323b872dd116100de57806323b872dd146101aa57806342842e0e146101c65780636352211e146101e257806370a08231146102125761010b565b806301ffc9a71461011057806306fdde0314610140578063081812fc1461015e578063095ea7b31461018e575b600080fd5b61012a60048036038101906101259190611d9e565b61036c565b60405161013791906125a2565b60405180910390f35b61014861044e565b60405161015591906125bd565b60405180910390f35b61017860048036038101906101739190611df0565b6104e0565b604051610185919061253b565b60405180910390f35b6101a860048036038101906101a39190611d62565b610565565b005b6101c460048036038101906101bf9190611c08565b61067d565b005b6101e060048036038101906101db9190611c08565b6106dd565b005b6101fc60048036038101906101f79190611df0565b6106fd565b604051610209919061253b565b60405180910390f35b61022c60048036038101906102279190611ba3565b6107af565b60405161023991906127ff565b60405180910390f35b61024a610867565b005b6102546108ef565b604051610261919061253b565b60405180910390f35b610272610919565b60405161027f91906125bd565b60405180910390f35b6102a2600480360381019061029d9190611cd2565b6109ab565b005b6102be60048036038101906102b99190611c57565b6109c1565b005b6102da60048036038101906102d59190611df0565b610a23565b6040516102e791906125bd565b60405180910390f35b61030a60048036038101906103059190611d0e565b610aca565b60405161031791906127ff565b60405180910390f35b61033a60048036038101906103359190611bcc565b610b02565b60405161034791906125a2565b60405180910390f35b61036a60048036038101906103659190611ba3565b610b96565b005b60007f80ac58cd000000000000000000000000000000000000000000000000000000007bffffffffffffffffffffffffffffffffffffffffffffffffffffffff1916827bffffffffffffffffffffffffffffffffffffffffffffffffffffffff1916148061043757507f5b5e139f000000000000000000000000000000000000000000000000000000007bffffffffffffffffffffffffffffffffffffffffffffffffffffffff1916827bffffffffffffffffffffffffffffffffffffffffffffffffffffffff1916145b80610447575061044682610c8e565b5b9050919050565b60606000805461045d90612a5f565b80601f016020809104026020016040519081016040528092919081815260200182805461048990612a5f565b80156104d65780601f106104ab576101008083540402835291602001916104d6565b820191906000526020600020905b8154815290600101906020018083116104b957829003601f168201915b5050505050905090565b60006104eb82610cf8565b61052a576040517f08c379a00000000000000000000000000000000000000000000000000000000081526004016105219061271f565b60405180910390fd5b6004600083815260200190815260200160002060009054906101000a900473ffffffffffffffffffffffffffffffffffffffff169050919050565b6000610570826106fd565b90508073ffffffffffffffffffffffffffffffffffffffff168373ffffffffffffffffffffffffffffffffffffffff1614156105e1576040517f08c379a00000000000000000000000000000000000000000000000000000000081526004016105d8906127bf565b60405180910390fd5b8073ffffffffffffffffffffffffffffffffffffffff16610600610d64565b73ffffffffffffffffffffffffffffffffffffffff16148061062f575061062e81610629610d64565b610b02565b5b61066e576040517f08c379a00000000000000000000000000000000000000000000000000000000081526004016106659061269f565b60405180910390fd5b6106788383610d6c565b505050565b61068e610688610d64565b82610e25565b6106cd576040517f08c379a00000000000000000000000000000000000000000000000000000000081526004016106c4906127df565b60405180910390fd5b6106d8838383610f03565b505050565b6106f8838383604051806020016040528060008152506109c1565b505050565b6000806002600084815260200190815260200160002060009054906101000a900473ffffffffffffffffffffffffffffffffffffffff169050600073ffffffffffffffffffffffffffffffffffffffff168173ffffffffffffffffffffffffffffffffffffffff1614156107a6576040517f08c379a000000000000000000000000000000000000000000000000000000000815260040161079d906126df565b60405180910390fd5b80915050919050565b60008073ffffffffffffffffffffffffffffffffffffffff168273ffffffffffffffffffffffffffffffffffffffff161415610820576040517f08c379a0000000000000000000000000000000000000000000000000000000008152600401610817906126bf565b60405180910390fd5b600360008373ffffffffffffffffffffffffffffffffffffffff1673ffffffffffffffffffffffffffffffffffffffff168152602001908152602001600020549050919050565b61086f610d64565b73ffffffffffffffffffffffffffffffffffffffff1661088d6108ef565b73ffffffffffffffffffffffffffffffffffffffff16146108e3576040517f08c379a00000000000000000000000000000000000000000000000000000000081526004016108da9061275f565b60405180910390fd5b6108ed600061115f565b565b6000600660009054906101000a900473ffffffffffffffffffffffffffffffffffffffff16905090565b60606001805461092890612a5f565b80601f016020809104026020016040519081016040528092919081815260200182805461095490612a5f565b80156109a15780601f10610976576101008083540402835291602001916109a1565b820191906000526020600020905b81548152906001019060200180831161098457829003601f168201915b5050505050905090565b6109bd6109b6610d64565b8383611225565b5050565b6109d26109cc610d64565b83610e25565b610a11576040517f08c379a0000000000000000000000000000000000000000000000000000000008152600401610a08906127df565b60405180910390fd5b610a1d84848484611392565b50505050565b6060610a2e82610cf8565b610a6d576040517f08c379a0000000000000000000000000000000000000000000000000000000008152600401610a649061279f565b60405180910390fd5b6000610a776113ee565b90506000815111610a975760405180602001604052806000815250610ac2565b80610aa184611405565b604051602001610ab2929190612517565b6040516020818303038152906040525b915050919050565b6000610ad660076115b2565b6000610ae260076115c8565b9050610aee84826115d6565b610af881846117a4565b8091505092915050565b6000600560008473ffffffffffffffffffffffffffffffffffffffff1673ffffffffffffffffffffffffffffffffffffffff16815260200190815260200160002060008373ffffffffffffffffffffffffffffffffffffffff1673ffffffffffffffffffffffffffffffffffffffff16815260200190815260200160002060009054906101000a900460ff16905092915050565b610b9e610d64565b73ffffffffffffffffffffffffffffffffffffffff16610bbc6108ef565b73ffffffffffffffffffffffffffffffffffffffff1614610c12576040517f08c379a0000000000000000000000000000000000000000000000000000000008152600401610c099061275f565b60405180910390fd5b600073ffffffffffffffffffffffffffffffffffffffff168173ffffffffffffffffffffffffffffffffffffffff161415610c82576040517f08c379a0000000000000000000000000000000000000000000000000000000008152600401610c79906125ff565b60405180910390fd5b610c8b8161115f565b50565b60007f01ffc9a7000000000000000000000000000000000000000000000000000000007bffffffffffffffffffffffffffffffffffffffffffffffffffffffff1916827bffffffffffffffffffffffffffffffffffffffffffffffffffffffff1916149050919050565b60008073ffffffffffffffffffffffffffffffffffffffff166002600084815260200190815260200160002060009054906101000a900473ffffffffffffffffffffffffffffffffffffffff1673ffffffffffffffffffffffffffffffffffffffff1614159050919050565b600033905090565b816004600083815260200190815260200160002060006101000a81548173ffffffffffffffffffffffffffffffffffffffff021916908373ffffffffffffffffffffffffffffffffffffffff160217905550808273ffffffffffffffffffffffffffffffffffffffff16610ddf836106fd565b73ffffffffffffffffffffffffffffffffffffffff167f8c5be1e5ebec7d5bd14f71427d1e84f3dd0314c0f7b2291e5b200ac8c7c3b92560405160405180910390a45050565b6000610e3082610cf8565b610e6f576040517f08c379a0000000000000000000000000000000000000000000000000000000008152600401610e669061267f565b60405180910390fd5b6000610e7a836106fd565b90508073ffffffffffffffffffffffffffffffffffffffff168473ffffffffffffffffffffffffffffffffffffffff161480610ee957508373ffffffffffffffffffffffffffffffffffffffff16610ed1846104e0565b73ffffffffffffffffffffffffffffffffffffffff16145b80610efa5750610ef98185610b02565b5b91505092915050565b8273ffffffffffffffffffffffffffffffffffffffff16610f23826106fd565b73ffffffffffffffffffffffffffffffffffffffff1614610f79576040517f08c379a0000000000000000000000000000000000000000000000000000000008152600401610f709061277f565b60405180910390fd5b600073ffffffffffffffffffffffffffffffffffffffff168273ffffffffffffffffffffffffffffffffffffffff161415610fe9576040517f08c379a0000000000000000000000000000000000000000000000000000000008152600401610fe09061263f565b60405180910390fd5b610ff4838383611818565b610fff600082610d6c565b6001600360008573ffffffffffffffffffffffffffffffffffffffff1673ffffffffffffffffffffffffffffffffffffffff168152602001908152602001600020600082825461104f9190612975565b925050819055506001600360008473ffffffffffffffffffffffffffffffffffffffff1673ffffffffffffffffffffffffffffffffffffffff16815260200190815260200160002060008282546110a691906128ee565b92505081905550816002600083815260200190815260200160002060006101000a81548173ffffffffffffffffffffffffffffffffffffffff021916908373ffffffffffffffffffffffffffffffffffffffff160217905550808273ffffffffffffffffffffffffffffffffffffffff168473ffffffffffffffffffffffffffffffffffffffff167fddf252ad1be2c89b69c2b068fc378daa952ba7f163c4a11628f55a4df523b3ef60405160405180910390a4505050565b6000600660009054906101000a900473ffffffffffffffffffffffffffffffffffffffff16905081600660006101000a81548173ffffffffffffffffffffffffffffffffffffffff021916908373ffffffffffffffffffffffffffffffffffffffff1602179055508173ffffffffffffffffffffffffffffffffffffffff168173ffffffffffffffffffffffffffffffffffffffff167f8be0079c531659141344cd1fd0a4f28419497f9722a3daafe3b4186f6b6457e060405160405180910390a35050565b8173ffffffffffffffffffffffffffffffffffffffff168373ffffffffffffffffffffffffffffffffffffffff161415611294576040517f08c379a000000000000000000000000000000000000000000000000000000000815260040161128b9061265f565b60405180910390fd5b80600560008573ffffffffffffffffffffffffffffffffffffffff1673ffffffffffffffffffffffffffffffffffffffff16815260200190815260200160002060008473ffffffffffffffffffffffffffffffffffffffff1673ffffffffffffffffffffffffffffffffffffffff16815260200190815260200160002060006101000a81548160ff0219169083151502179055508173ffffffffffffffffffffffffffffffffffffffff168373ffffffffffffffffffffffffffffffffffffffff167f17307eab39ab6107e8899845ad3d59bd9653f200f220920489ca2b5937696c318360405161138591906125a2565b60405180910390a3505050565b61139d848484610f03565b6113a98484848461181d565b6113e8576040517f08c379a00000000000000000000000000000000000000000000000000000000081526004016113df906125df565b60405180910390fd5b50505050565b606060405180602001604052806000815250905090565b6060600082141561144d576040518060400160405280600181526020017f300000000000000000000000000000000000000000000000000000000000000081525090506115ad565b600082905060005b6000821461147f57808061146890612a91565b915050600a826114789190612944565b9150611455565b60008167ffffffffffffffff8111156114c1577f4e487b7100000000000000000000000000000000000000000000000000000000600052604160045260246000fd5b6040519080825280601f01601f1916602001820160405280156114f35781602001600182028036833780820191505090505b5090505b600085146115a65760018261150c9190612975565b9150600a8561151b9190612ada565b603061152791906128ee565b60f81b818381518110611563577f4e487b7100000000000000000000000000000000000000000000000000000000600052603260045260246000fd5b60200101907effffffffffffffffffffffffffffffffffffffffffffffffffffffffffffff1916908160001a905350600a8561159f9190612944565b94506114f7565b8093505050505b919050565b6001816000016000828254019250508190555050565b600081600001549050919050565b600073ffffffffffffffffffffffffffffffffffffffff168273ffffffffffffffffffffffffffffffffffffffff161415611646576040517f08c379a000000000000000000000000000000000000000000000000000000000815260040161163d906126ff565b60405180910390fd5b61164f81610cf8565b1561168f576040517f08c379a00000000000000000000000000000000000000000000000000000000081526004016116869061261f565b60405180910390fd5b61169b60008383611818565b6001600360008473ffffffffffffffffffffffffffffffffffffffff1673ffffffffffffffffffffffffffffffffffffffff16815260200190815260200160002060008282546116eb91906128ee565b92505081905550816002600083815260200190815260200160002060006101000a81548173ffffffffffffffffffffffffffffffffffffffff021916908373ffffffffffffffffffffffffffffffffffffffff160217905550808273ffffffffffffffffffffffffffffffffffffffff16600073ffffffffffffffffffffffffffffffffffffffff167fddf252ad1be2c89b69c2b068fc378daa952ba7f163c4a11628f55a4df523b3ef60405160405180910390a45050565b6117ad82610cf8565b6117ec576040517f08c379a00000000000000000000000000000000000000000000000000000000081526004016117e39061273f565b60405180910390fd5b806008600084815260200190815260200160002090805190602001906118139291906119c7565b505050565b505050565b600061183e8473ffffffffffffffffffffffffffffffffffffffff166119b4565b156119a7578373ffffffffffffffffffffffffffffffffffffffff1663150b7a02611867610d64565b8786866040518563ffffffff1660e01b81526004016118899493929190612556565b602060405180830381600087803b1580156118a357600080fd5b505af19250505080156118d457506040513d601f19601f820116820180604052508101906118d19190611dc7565b60015b611957573d8060008114611904576040519150601f19603f3d011682016040523d82523d6000602084013e611909565b606091505b5060008151141561194f576040517f08c379a0000000000000000000000000000000000000000000000000000000008152600401611946906125df565b60405180910390fd5b805181602001fd5b63150b7a0260e01b7bffffffffffffffffffffffffffffffffffffffffffffffffffffffff1916817bffffffffffffffffffffffffffffffffffffffffffffffffffffffff1916149150506119ac565b600190505b949350505050565b600080823b905060008111915050919050565b8280546119d390612a5f565b90600052602060002090601f0160209004810192826119f55760008555611a3c565b82601f10611a0e57805160ff1916838001178555611a3c565b82800160010185558215611a3c579182015b82811115611a3b578251825591602001919060010190611a20565b5b509050611a499190611a4d565b5090565b5b80821115611a66576000816000905550600101611a4e565b5090565b6000611a7d611a788461284b565b61281a565b905082815260208101848484011115611a9557600080fd5b611aa0848285612a1d565b509392505050565b6000611abb611ab68461287b565b61281a565b905082815260208101848484011115611ad357600080fd5b611ade848285612a1d565b509392505050565b600081359050611af581612bd8565b92915050565b600081359050611b0a81612bef565b92915050565b600081359050611b1f81612c06565b92915050565b600081519050611b3481612c06565b92915050565b600082601f830112611b4b57600080fd5b8135611b5b848260208601611a6a565b91505092915050565b600082601f830112611b7557600080fd5b8135611b85848260208601611aa8565b91505092915050565b600081359050611b9d81612c1d565b92915050565b600060208284031215611bb557600080fd5b6000611bc384828501611ae6565b91505092915050565b60008060408385031215611bdf57600080fd5b6000611bed85828601611ae6565b9250506020611bfe85828601611ae6565b9150509250929050565b600080600060608486031215611c1d57600080fd5b6000611c2b86828701611ae6565b9350506020611c3c86828701611ae6565b9250506040611c4d86828701611b8e565b9150509250925092565b60008060008060808587031215611c6d57600080fd5b6000611c7b87828801611ae6565b9450506020611c8c87828801611ae6565b9350506040611c9d87828801611b8e565b925050606085013567ffffffffffffffff811115611cba57600080fd5b611cc687828801611b3a565b91505092959194509250565b60008060408385031215611ce557600080fd5b6000611cf385828601611ae6565b9250506020611d0485828601611afb565b9150509250929050565b60008060408385031215611d2157600080fd5b6000611d2f85828601611ae6565b925050602083013567ffffffffffffffff811115611d4c57600080fd5b611d5885828601611b64565b9150509250929050565b60008060408385031215611d7557600080fd5b6000611d8385828601611ae6565b9250506020611d9485828601611b8e565b9150509250929050565b600060208284031215611db057600080fd5b6000611dbe84828501611b10565b91505092915050565b600060208284031215611dd957600080fd5b6000611de784828501611b25565b91505092915050565b600060208284031215611e0257600080fd5b6000611e1084828501611b8e565b91505092915050565b611e22816129a9565b82525050565b611e31816129bb565b82525050565b6000611e42826128ab565b611e4c81856128c1565b9350611e5c818560208601612a2c565b611e6581612bc7565b840191505092915050565b6000611e7b826128b6565b611e8581856128d2565b9350611e95818560208601612a2c565b611e9e81612bc7565b840191505092915050565b6000611eb4826128b6565b611ebe81856128e3565b9350611ece818560208601612a2c565b80840191505092915050565b6000611ee76032836128d2565b91507f4552433732313a207472616e7366657220746f206e6f6e20455243373231526560008301527f63656976657220696d706c656d656e74657200000000000000000000000000006020830152604082019050919050565b6000611f4d6026836128d2565b91507f4f776e61626c653a206e6577206f776e657220697320746865207a65726f206160008301527f64647265737300000000000000000000000000000000000000000000000000006020830152604082019050919050565b6000611fb3601c836128d2565b91507f4552433732313a20746f6b656e20616c7265616479206d696e746564000000006000830152602082019050919050565b6000611ff36024836128d2565b91507f4552433732313a207472616e7366657220746f20746865207a65726f2061646460008301527f72657373000000000000000000000000000000000000000000000000000000006020830152604082019050919050565b60006120596019836128d2565b91507f4552433732313a20617070726f766520746f2063616c6c6572000000000000006000830152602082019050919050565b6000612099602c836128d2565b91507f4552433732313a206f70657261746f7220717565727920666f72206e6f6e657860008301527f697374656e7420746f6b656e00000000000000000000000000000000000000006020830152604082019050919050565b60006120ff6038836128d2565b91507f4552433732313a20617070726f76652063616c6c6572206973206e6f74206f7760008301527f6e6572206e6f7220617070726f76656420666f7220616c6c00000000000000006020830152604082019050919050565b6000612165602a836128d2565b91507f4552433732313a2062616c616e636520717565727920666f7220746865207a6560008301527f726f2061646472657373000000000000000000000000000000000000000000006020830152604082019050919050565b60006121cb6029836128d2565b91507f4552433732313a206f776e657220717565727920666f72206e6f6e657869737460008301527f656e7420746f6b656e00000000000000000000000000000000000000000000006020830152604082019050919050565b60006122316020836128d2565b91507f4552433732313a206d696e7420746f20746865207a65726f20616464726573736000830152602082019050919050565b6000612271602c836128d2565b91507f4552433732313a20617070726f76656420717565727920666f72206e6f6e657860008301527f697374656e7420746f6b656e00000000000000000000000000000000000000006020830152604082019050919050565b60006122d7602c836128d2565b91507f4552433732314d657461646174613a2055524920736574206f66206e6f6e657860008301527f697374656e7420746f6b656e00000000000000000000000000000000000000006020830152604082019050919050565b600061233d6020836128d2565b91507f4f776e61626c653a2063616c6c6572206973206e6f7420746865206f776e65726000830152602082019050919050565b600061237d6029836128d2565b91507f4552433732313a207472616e73666572206f6620746f6b656e2074686174206960008301527f73206e6f74206f776e00000000000000000000000000000000000000000000006020830152604082019050919050565b60006123e3602f836128d2565b91507f4552433732314d657461646174613a2055524920717565727920666f72206e6f60008301527f6e6578697374656e7420746f6b656e00000000000000000000000000000000006020830152604082019050919050565b60006124496021836128d2565b91507f4552433732313a20617070726f76616c20746f2063757272656e74206f776e6560008301527f72000000000000000000000000000000000000000000000000000000000000006020830152604082019050919050565b60006124af6031836128d2565b91507f4552433732313a207472616e736665722063616c6c6572206973206e6f74206f60008301527f776e6572206e6f7220617070726f7665640000000000000000000000000000006020830152604082019050919050565b61251181612a13565b82525050565b60006125238285611ea9565b915061252f8284611ea9565b91508190509392505050565b60006020820190506125506000830184611e19565b92915050565b600060808201905061256b6000830187611e19565b6125786020830186611e19565b6125856040830185612508565b81810360608301526125978184611e37565b905095945050505050565b60006020820190506125b76000830184611e28565b92915050565b600060208201905081810360008301526125d78184611e70565b905092915050565b600060208201905081810360008301526125f881611eda565b9050919050565b6000602082019050818103600083015261261881611f40565b9050919050565b6000602082019050818103600083015261263881611fa6565b9050919050565b6000602082019050818103600083015261265881611fe6565b9050919050565b600060208201905081810360008301526126788161204c565b9050919050565b600060208201905081810360008301526126988161208c565b9050919050565b600060208201905081810360008301526126b8816120f2565b9050919050565b600060208201905081810360008301526126d881612158565b9050919050565b600060208201905081810360008301526126f8816121be565b9050919050565b6000602082019050818103600083015261271881612224565b9050919050565b6000602082019050818103600083015261273881612264565b9050919050565b60006020820190508181036000830152612758816122ca565b9050919050565b6000602082019050818103600083015261277881612330565b9050919050565b6000602082019050818103600083015261279881612370565b9050919050565b600060208201905081810360008301526127b8816123d6565b9050919050565b600060208201905081810360008301526127d88161243c565b9050919050565b600060208201905081810360008301526127f8816124a2565b9050919050565b60006020820190506128146000830184612508565b92915050565b6000604051905081810181811067ffffffffffffffff8211171561284157612840612b98565b5b8060405250919050565b600067ffffffffffffffff82111561286657612865612b98565b5b601f19601f8301169050602081019050919050565b600067ffffffffffffffff82111561289657612895612b98565b5b601f19601f8301169050602081019050919050565b600081519050919050565b600081519050919050565b600082825260208201905092915050565b600082825260208201905092915050565b600081905092915050565b60006128f982612a13565b915061290483612a13565b9250827fffffffffffffffffffffffffffffffffffffffffffffffffffffffffffffffff0382111561293957612938612b0b565b5b828201905092915050565b600061294f82612a13565b915061295a83612a13565b92508261296a57612969612b3a565b5b828204905092915050565b600061298082612a13565b915061298b83612a13565b92508282101561299e5761299d612b0b565b5b828203905092915050565b60006129b4826129f3565b9050919050565b60008115159050919050565b60007fffffffff0000000000000000000000000000000000000000000000000000000082169050919050565b600073ffffffffffffffffffffffffffffffffffffffff82169050919050565b6000819050919050565b82818337600083830152505050565b60005b83811015612a4a578082015181840152602081019050612a2f565b83811115612a59576000848401525b50505050565b60006002820490506001821680612a7757607f821691505b60208210811415612a8b57612a8a612b69565b5b50919050565b6000612a9c82612a13565b91507fffffffffffffffffffffffffffffffffffffffffffffffffffffffffffffffff821415612acf57612ace612b0b565b5b600182019050919050565b6000612ae582612a13565b9150612af083612a13565b925082612b0057612aff612b3a565b5b828206905092915050565b7f4e487b7100000000000000000000000000000000000000000000000000000000600052601160045260246000fd5b7f4e487b7100000000000000000000000000000000000000000000000000000000600052601260045260246000fd5b7f4e487b7100000000000000000000000000000000000000000000000000000000600052602260045260246000fd5b7f4e487b7100000000000000000000000000000000000000000000000000000000600052604160045260246000fd5b6000601f19601f8301169050919050565b612be1816129a9565b8114612bec57600080fd5b50565b612bf8816129bb565b8114612c0357600080fd5b50565b612c0f816129c7565b8114612c1a57600080fd5b50565b612c2681612a13565b8114612c3157600080fd5b5056fea2646970667358221220699e17cb8164a774134e748cad8c98ee2871dc159e5ac7b2fa267eca9ecd1c8b64736f6c63430008000033a26469706673582212206b522bb4c0dc672fc3aebc3cd58b18f03da048dfb9fe4311a2729440f9df710064736f6c63430008000033",
  "linkReferences": {},
  "deployedLinkReferences": {}
}