{
  "_format": "hh-sol-artifact-1",
  "contractName": "Monaliza",
  "sourceName": "contracts/MonalizaFactory.sol",
  "abi": [
    {
      "inputs": [
        {
          "internalType": "string",
          "name": "tokenName",
          "type": "string"
        },
        {
          "internalType": "string",
          "name": "symbol",
          "type": "string"
        },
        {
          "internalType": "address",
          "name": "_proxyRegistryAddress",
          "type": "address"
        },
        {
          "internalType": "address",
          "name": "forwarder",
          "type": "address"
        }
      ],
      "stateMutability": "nonpayable",
      "type": "constructor"
    },
    {
      "anonymous": false,
      "inputs": [
        {
          "indexed": true,
          "internalType": "address",
          "name": "owner",
          "type": "address"
        },
        {
          "indexed": true,
          "internalType": "address",
          "name": "approved",
          "type": "address"
        },
        {
          "indexed": true,
          "internalType": "uint256",
          "name": "tokenId",
          "type": "uint256"
        }
      ],
      "name": "Approval",
      "type": "event"
    },
    {
      "anonymous": false,
      "inputs": [
        {
          "indexed": true,
          "internalType": "address",
          "name": "owner",
          "type": "address"
        },
        {
          "indexed": true,
          "internalType": "address",
          "name": "operator",
          "type": "address"
        },
        {
          "indexed": false,
          "internalType": "bool",
          "name": "approved",
          "type": "bool"
        }
      ],
      "name": "ApprovalForAll",
      "type": "event"
    },
    {
      "anonymous": false,
      "inputs": [
        {
          "indexed": false,
          "internalType": "address",
          "name": "userAddress",
          "type": "address"
        },
        {
          "indexed": false,
          "internalType": "address payable",
          "name": "relayerAddress",
          "type": "address"
        },
        {
          "indexed": false,
          "internalType": "bytes",
          "name": "functionSignature",
          "type": "bytes"
        }
      ],
      "name": "MetaTransactionExecuted",
      "type": "event"
    },
    {
      "anonymous": false,
      "inputs": [
        {
          "indexed": true,
          "internalType": "address",
          "name": "previousOwner",
          "type": "address"
        },
        {
          "indexed": true,
          "internalType": "address",
          "name": "newOwner",
          "type": "address"
        }
      ],
      "name": "OwnershipTransferred",
      "type": "event"
    },
    {
      "anonymous": false,
      "inputs": [
        {
          "indexed": true,
          "internalType": "address",
          "name": "from",
          "type": "address"
        },
        {
          "indexed": true,
          "internalType": "address",
          "name": "to",
          "type": "address"
        },
        {
          "indexed": true,
          "internalType": "uint256",
          "name": "tokenId",
          "type": "uint256"
        }
      ],
      "name": "Transfer",
      "type": "event"
    },
    {
      "inputs": [],
      "name": "ERC712_VERSION",
      "outputs": [
        {
          "internalType": "string",
          "name": "",
          "type": "string"
        }
      ],
      "stateMutability": "view",
      "type": "function"
    },
    {
      "inputs": [
        {
          "internalType": "uint256",
          "name": "tokenId",
          "type": "uint256"
        },
        {
          "internalType": "string",
          "name": "_tokenURI",
          "type": "string"
        }
      ],
      "name": "_setTokenURI",
      "outputs": [],
      "stateMutability": "nonpayable",
      "type": "function"
    },
    {
      "inputs": [
        {
          "internalType": "address",
          "name": "to",
          "type": "address"
        },
        {
          "internalType": "uint256",
          "name": "tokenId",
          "type": "uint256"
        }
      ],
      "name": "approve",
      "outputs": [],
      "stateMutability": "nonpayable",
      "type": "function"
    },
    {
      "inputs": [
        {
          "internalType": "address",
          "name": "owner",
          "type": "address"
        }
      ],
      "name": "balanceOf",
      "outputs": [
        {
          "internalType": "uint256",
          "name": "",
          "type": "uint256"
        }
      ],
      "stateMutability": "view",
      "type": "function"
    },
    {
      "inputs": [],
      "name": "baseTokenURI",
      "outputs": [
        {
          "internalType": "string",
          "name": "",
          "type": "string"
        }
      ],
      "stateMutability": "view",
      "type": "function"
    },
    {
      "inputs": [],
      "name": "contractURI",
      "outputs": [
        {
          "internalType": "string",
          "name": "",
          "type": "string"
        }
      ],
      "stateMutability": "pure",
      "type": "function"
    },
    {
      "inputs": [
        {
          "internalType": "address",
          "name": "userAddress",
          "type": "address"
        },
        {
          "internalType": "bytes",
          "name": "functionSignature",
          "type": "bytes"
        },
        {
          "internalType": "bytes32",
          "name": "sigR",
          "type": "bytes32"
        },
        {
          "internalType": "bytes32",
          "name": "sigS",
          "type": "bytes32"
        },
        {
          "internalType": "uint8",
          "name": "sigV",
          "type": "uint8"
        }
      ],
      "name": "executeMetaTransaction",
      "outputs": [
        {
          "internalType": "bytes",
          "name": "",
          "type": "bytes"
        }
      ],
      "stateMutability": "payable",
      "type": "function"
    },
    {
      "inputs": [
        {
          "internalType": "uint256",
          "name": "tokenId",
          "type": "uint256"
        }
      ],
      "name": "getApproved",
      "outputs": [
        {
          "internalType": "address",
          "name": "",
          "type": "address"
        }
      ],
      "stateMutability": "view",
      "type": "function"
    },
    {
      "inputs": [],
      "name": "getChainId",
      "outputs": [
        {
          "internalType": "uint256",
          "name": "",
          "type": "uint256"
        }
      ],
      "stateMutability": "view",
      "type": "function"
    },
    {
      "inputs": [],
      "name": "getDomainSeperator",
      "outputs": [
        {
          "internalType": "bytes32",
          "name": "",
          "type": "bytes32"
        }
      ],
      "stateMutability": "view",
      "type": "function"
    },
    {
      "inputs": [
        {
          "internalType": "address",
          "name": "user",
          "type": "address"
        }
      ],
      "name": "getNonce",
      "outputs": [
        {
          "internalType": "uint256",
          "name": "nonce",
          "type": "uint256"
        }
      ],
      "stateMutability": "view",
      "type": "function"
    },
    {
      "inputs": [
        {
          "internalType": "uint256",
          "name": "tokenId",
          "type": "uint256"
        }
      ],
      "name": "getTokenURI",
      "outputs": [
        {
          "internalType": "string",
          "name": "",
          "type": "string"
        }
      ],
      "stateMutability": "view",
      "type": "function"
    },
    {
      "inputs": [
        {
          "internalType": "address",
          "name": "owner",
          "type": "address"
        },
        {
          "internalType": "address",
          "name": "operator",
          "type": "address"
        }
      ],
      "name": "isApprovedForAll",
      "outputs": [
        {
          "internalType": "bool",
          "name": "",
          "type": "bool"
        }
      ],
      "stateMutability": "view",
      "type": "function"
    },
    {
      "inputs": [
        {
          "internalType": "address",
          "name": "forwarder",
          "type": "address"
        }
      ],
      "name": "isTrustedForwarder",
      "outputs": [
        {
          "internalType": "bool",
          "name": "",
          "type": "bool"
        }
      ],
      "stateMutability": "view",
      "type": "function"
    },
    {
      "inputs": [
        {
          "internalType": "address",
          "name": "_to",
          "type": "address"
        }
      ],
      "name": "mintTo",
      "outputs": [
        {
          "internalType": "uint256",
          "name": "",
          "type": "uint256"
        }
      ],
      "stateMutability": "nonpayable",
      "type": "function"
    },
    {
      "inputs": [],
      "name": "name",
      "outputs": [
        {
          "internalType": "string",
          "name": "",
          "type": "string"
        }
      ],
      "stateMutability": "view",
      "type": "function"
    },
    {
      "inputs": [],
      "name": "owner",
      "outputs": [
        {
          "internalType": "address",
          "name": "",
          "type": "address"
        }
      ],
      "stateMutability": "view",
      "type": "function"
    },
    {
      "inputs": [
        {
          "internalType": "uint256",
          "name": "tokenId",
          "type": "uint256"
        }
      ],
      "name": "ownerOf",
      "outputs": [
        {
          "internalType": "address",
          "name": "",
          "type": "address"
        }
      ],
      "stateMutability": "view",
      "type": "function"
    },
    {
      "inputs": [],
      "name": "renounceOwnership",
      "outputs": [],
      "stateMutability": "nonpayable",
      "type": "function"
    },
    {
      "inputs": [
        {
          "internalType": "address",
          "name": "from",
          "type": "address"
        },
        {
          "internalType": "address",
          "name": "to",
          "type": "address"
        },
        {
          "internalType": "uint256",
          "name": "tokenId",
          "type": "uint256"
        }
      ],
      "name": "safeTransferFrom",
      "outputs": [],
      "stateMutability": "nonpayable",
      "type": "function"
    },
    {
      "inputs": [
        {
          "internalType": "address",
          "name": "from",
          "type": "address"
        },
        {
          "internalType": "address",
          "name": "to",
          "type": "address"
        },
        {
          "internalType": "uint256",
          "name": "tokenId",
          "type": "uint256"
        },
        {
          "internalType": "bytes",
          "name": "_data",
          "type": "bytes"
        }
      ],
      "name": "safeTransferFrom",
      "outputs": [],
      "stateMutability": "nonpayable",
      "type": "function"
    },
    {
      "inputs": [
        {
          "internalType": "address",
          "name": "operator",
          "type": "address"
        },
        {
          "internalType": "bool",
          "name": "approved",
          "type": "bool"
        }
      ],
      "name": "setApprovalForAll",
      "outputs": [],
      "stateMutability": "nonpayable",
      "type": "function"
    },
    {
      "inputs": [
        {
          "internalType": "bytes4",
          "name": "interfaceId",
          "type": "bytes4"
        }
      ],
      "name": "supportsInterface",
      "outputs": [
        {
          "internalType": "bool",
          "name": "",
          "type": "bool"
        }
      ],
      "stateMutability": "view",
      "type": "function"
    },
    {
      "inputs": [],
      "name": "symbol",
      "outputs": [
        {
          "internalType": "string",
          "name": "",
          "type": "string"
        }
      ],
      "stateMutability": "view",
      "type": "function"
    },
    {
      "inputs": [
        {
          "internalType": "uint256",
          "name": "_tokenId",
          "type": "uint256"
        }
      ],
      "name": "tokenURI",
      "outputs": [
        {
          "internalType": "string",
          "name": "",
          "type": "string"
        }
      ],
      "stateMutability": "view",
      "type": "function"
    },
    {
      "inputs": [],
      "name": "totalSupply",
      "outputs": [
        {
          "internalType": "uint256",
          "name": "",
          "type": "uint256"
        }
      ],
      "stateMutability": "view",
      "type": "function"
    },
    {
      "inputs": [
        {
          "internalType": "address",
          "name": "from",
          "type": "address"
        },
        {
          "internalType": "address",
          "name": "to",
          "type": "address"
        },
        {
          "internalType": "uint256",
          "name": "tokenId",
          "type": "uint256"
        }
      ],
      "name": "transferFrom",
      "outputs": [],
      "stateMutability": "nonpayable",
      "type": "function"
    },
    {
      "inputs": [
        {
          "internalType": "address",
          "name": "newOwner",
          "type": "address"
        }
      ],
      "name": "transferOwnership",
      "outputs": [],
      "stateMutability": "nonpayable",
      "type": "function"
    },
    {
      "inputs": [],
      "name": "trustedForwarder",
      "outputs": [
        {
          "internalType": "address",
          "name": "",
          "type": "address"
        }
      ],
      "stateMutability": "view",
      "type": "function"
    },
    {
      "inputs": [],
      "name": "versionRecipient",
      "outputs": [
        {
          "internalType": "string",
          "name": "",
          "type": "string"
        }
      ],
      "stateMutability": "view",
      "type": "function"
    }
  ],
  "bytecode": "0x60806040526000600760006101000a81548160ff0219169083151502179055506040518060400160405280600581526020017f322e322e30000000000000000000000000000000000000000000000000000000815250600f90805190602001906200006c92919062000494565b503480156200007a57600080fd5b506040516200458c3803806200458c8339818101604052810190620000a09190620005cd565b83838382828160019080519060200190620000bd92919062000494565b508060029080519060200190620000d692919062000494565b505050620000f9620000ed6200018060201b60201c565b6200019c60201b60201c565b80600c60006101000a81548173ffffffffffffffffffffffffffffffffffffffff021916908373ffffffffffffffffffffffffffffffffffffffff16021790555062000151600b6200026260201b620017171760201c565b62000162836200027860201b60201c565b5050506200017681620002fa60201b60201c565b50505050620008e8565b6000620001976200033d60201b6200172d1760201c565b905090565b6000600a60009054906101000a900473ffffffffffffffffffffffffffffffffffffffff16905081600a60006101000a81548173ffffffffffffffffffffffffffffffffffffffff021916908373ffffffffffffffffffffffffffffffffffffffff1602179055508173ffffffffffffffffffffffffffffffffffffffff168173ffffffffffffffffffffffffffffffffffffffff167f8be0079c531659141344cd1fd0a4f28419497f9722a3daafe3b4186f6b6457e060405160405180910390a35050565b6001816000016000828254019250508190555050565b600760009054906101000a900460ff1615620002cb576040517f08c379a0000000000000000000000000000000000000000000000000000000008152600401620002c2906200072c565b60405180910390fd5b620002dc816200037f60201b60201c565b6001600760006101000a81548160ff02191690831515021790555050565b806000806101000a81548173ffffffffffffffffffffffffffffffffffffffff021916908373ffffffffffffffffffffffffffffffffffffffff16021790555050565b6000601460003690501015801562000362575062000361336200042e60201b60201c565b5b156200037857601436033560601c90506200037c565b3390505b90565b6040518060800160405280604f81526020016200453d604f91398051906020012081805190602001206040518060400160405280600181526020017f31000000000000000000000000000000000000000000000000000000000000008152508051906020012030620003f66200048760201b60201c565b60001b6040516020016200040f959493929190620006cf565b6040516020818303038152906040528051906020012060088190555050565b60008060009054906101000a900473ffffffffffffffffffffffffffffffffffffffff1673ffffffffffffffffffffffffffffffffffffffff168273ffffffffffffffffffffffffffffffffffffffff16149050919050565b6000804690508091505090565b828054620004a2906200083a565b90600052602060002090601f016020900481019282620004c6576000855562000512565b82601f10620004e157805160ff191683800117855562000512565b8280016001018555821562000512579182015b8281111562000511578251825591602001919060010190620004f4565b5b50905062000521919062000525565b5090565b5b808211156200054057600081600090555060010162000526565b5090565b60006200055b620005558462000782565b6200074e565b9050828152602081018484840111156200057457600080fd5b6200058184828562000804565b509392505050565b6000815190506200059a81620008ce565b92915050565b600082601f830112620005b257600080fd5b8151620005c484826020860162000544565b91505092915050565b60008060008060808587031215620005e457600080fd5b600085015167ffffffffffffffff811115620005ff57600080fd5b6200060d87828801620005a0565b945050602085015167ffffffffffffffff8111156200062b57600080fd5b6200063987828801620005a0565b93505060406200064c8782880162000589565b92505060606200065f8782880162000589565b91505092959194509250565b6200067681620007c6565b82525050565b6200068781620007da565b82525050565b60006200069c600e83620007b5565b91507f616c726561647920696e697465640000000000000000000000000000000000006000830152602082019050919050565b600060a082019050620006e660008301886200067c565b620006f560208301876200067c565b6200070460408301866200067c565b6200071360608301856200066b565b6200072260808301846200067c565b9695505050505050565b6000602082019050818103600083015262000747816200068d565b9050919050565b6000604051905081810181811067ffffffffffffffff821117156200077857620007776200089f565b5b8060405250919050565b600067ffffffffffffffff821115620007a0576200079f6200089f565b5b601f19601f8301169050602081019050919050565b600082825260208201905092915050565b6000620007d382620007e4565b9050919050565b6000819050919050565b600073ffffffffffffffffffffffffffffffffffffffff82169050919050565b60005b838110156200082457808201518184015260208101905062000807565b8381111562000834576000848401525b50505050565b600060028204905060018216806200085357607f821691505b602082108114156200086a576200086962000870565b5b50919050565b7f4e487b7100000000000000000000000000000000000000000000000000000000600052602260045260246000fd5b7f4e487b7100000000000000000000000000000000000000000000000000000000600052604160045260246000fd5b620008d981620007c6565b8114620008e557600080fd5b50565b613c4580620008f86000396000f3fe6080604052600436106101cd5760003560e01c8063572b6c05116100f757806395d89b4111610095578063d547cfb711610064578063d547cfb7146106b7578063e8a3d485146106e2578063e985e9c51461070d578063f2fde38b1461074a576101cd565b806395d89b41146105fd578063a22cb46514610628578063b88d4fde14610651578063c87b56dd1461067a576101cd565b8063715018a6116100d1578063715018a614610553578063755edd171461056a5780637da0a877146105a75780638da5cb5b146105d2576101cd565b8063572b6c051461049c5780636352211e146104d957806370a0823114610516576101cd565b806318160ddd1161016f5780633408e4701161013e5780633408e470146103e05780633bb3a24d1461040b57806342842e0e14610448578063486ff0cd14610471576101cd565b806318160ddd1461032457806320379ee51461034f57806323b872dd1461037a5780632d0335ab146103a3576101cd565b8063081812fc116101ab578063081812fc14610263578063095ea7b3146102a05780630c53c51c146102c95780630f7e5970146102f9576101cd565b806301538868146101d257806301ffc9a7146101fb57806306fdde0314610238575b600080fd5b3480156101de57600080fd5b506101f960048036038101906101f49190612a18565b610773565b005b34801561020757600080fd5b50610222600480360381019061021d9190612974565b6107fe565b60405161022f919061340e565b60405180910390f35b34801561024457600080fd5b5061024d6108e0565b60405161025a91906134f0565b60405180910390f35b34801561026f57600080fd5b5061028a600480360381019061028591906129ef565b610972565b6040516102979190613369565b60405180910390f35b3480156102ac57600080fd5b506102c760048036038101906102c29190612938565b6109f7565b005b6102e360048036038101906102de91906128a9565b610b0f565b6040516102f091906134ce565b60405180910390f35b34801561030557600080fd5b5061030e610d81565b60405161031b91906134f0565b60405180910390f35b34801561033057600080fd5b50610339610dba565b6040516103469190613772565b60405180910390f35b34801561035b57600080fd5b50610364610dd7565b6040516103719190613429565b60405180910390f35b34801561038657600080fd5b506103a1600480360381019061039c91906127a3565b610de1565b005b3480156103af57600080fd5b506103ca60048036038101906103c5919061273e565b610e41565b6040516103d79190613772565b60405180910390f35b3480156103ec57600080fd5b506103f5610e8a565b6040516104029190613772565b60405180910390f35b34801561041757600080fd5b50610432600480360381019061042d91906129ef565b610e97565b60405161043f91906134f0565b60405180910390f35b34801561045457600080fd5b5061046f600480360381019061046a91906127a3565b610f3c565b005b34801561047d57600080fd5b50610486610f5c565b60405161049391906134f0565b60405180910390f35b3480156104a857600080fd5b506104c360048036038101906104be919061273e565b610fea565b6040516104d0919061340e565b60405180910390f35b3480156104e557600080fd5b5061050060048036038101906104fb91906129ef565b611043565b60405161050d9190613369565b60405180910390f35b34801561052257600080fd5b5061053d6004803603810190610538919061273e565b6110f5565b60405161054a9190613772565b60405180910390f35b34801561055f57600080fd5b506105686111ad565b005b34801561057657600080fd5b50610591600480360381019061058c919061273e565b611235565b60405161059e9190613772565b60405180910390f35b3480156105b357600080fd5b506105bc6112de565b6040516105c99190613369565b60405180910390f35b3480156105de57600080fd5b506105e7611307565b6040516105f49190613369565b60405180910390f35b34801561060957600080fd5b50610612611331565b60405161061f91906134f0565b60405180910390f35b34801561063457600080fd5b5061064f600480360381019061064a919061286d565b6113c3565b005b34801561065d57600080fd5b50610678600480360381019061067391906127f2565b6113d9565b005b34801561068657600080fd5b506106a1600480360381019061069c91906129ef565b61143b565b6040516106ae91906134f0565b60405180910390f35b3480156106c357600080fd5b506106cc61146b565b6040516106d991906134f0565b60405180910390f35b3480156106ee57600080fd5b506106f76114fd565b60405161070491906134f0565b60405180910390f35b34801561071957600080fd5b50610734600480360381019061072f9190612767565b61151d565b604051610741919061340e565b60405180910390f35b34801561075657600080fd5b50610771600480360381019061076c919061273e565b61161f565b005b61077c82611764565b6107bb576040517f08c379a00000000000000000000000000000000000000000000000000000000081526004016107b2906136b2565b60405180910390fd5b80600e600084815260200190815260200160002090805190602001906107e2929190612523565b5080600d90805190602001906107f9929190612523565b505050565b60007f80ac58cd000000000000000000000000000000000000000000000000000000007bffffffffffffffffffffffffffffffffffffffffffffffffffffffff1916827bffffffffffffffffffffffffffffffffffffffffffffffffffffffff191614806108c957507f5b5e139f000000000000000000000000000000000000000000000000000000007bffffffffffffffffffffffffffffffffffffffffffffffffffffffff1916827bffffffffffffffffffffffffffffffffffffffffffffffffffffffff1916145b806108d957506108d8826117d0565b5b9050919050565b6060600180546108ef906139e7565b80601f016020809104026020016040519081016040528092919081815260200182805461091b906139e7565b80156109685780601f1061093d57610100808354040283529160200191610968565b820191906000526020600020905b81548152906001019060200180831161094b57829003601f168201915b5050505050905090565b600061097d82611764565b6109bc576040517f08c379a00000000000000000000000000000000000000000000000000000000081526004016109b390613692565b60405180910390fd5b6005600083815260200190815260200160002060009054906101000a900473ffffffffffffffffffffffffffffffffffffffff169050919050565b6000610a0282611043565b90508073ffffffffffffffffffffffffffffffffffffffff168373ffffffffffffffffffffffffffffffffffffffff161415610a73576040517f08c379a0000000000000000000000000000000000000000000000000000000008152600401610a6a90613732565b60405180910390fd5b8073ffffffffffffffffffffffffffffffffffffffff16610a9261183a565b73ffffffffffffffffffffffffffffffffffffffff161480610ac15750610ac081610abb61183a565b61151d565b5b610b00576040517f08c379a0000000000000000000000000000000000000000000000000000000008152600401610af790613612565b60405180910390fd5b610b0a8383611849565b505050565b606060006040518060600160405280600960008a73ffffffffffffffffffffffffffffffffffffffff1673ffffffffffffffffffffffffffffffffffffffff1681526020019081526020016000205481526020018873ffffffffffffffffffffffffffffffffffffffff168152602001878152509050610b928782878787611902565b610bd1576040517f08c379a0000000000000000000000000000000000000000000000000000000008152600401610bc890613712565b60405180910390fd5b610c246001600960008a73ffffffffffffffffffffffffffffffffffffffff1673ffffffffffffffffffffffffffffffffffffffff16815260200190815260200160002054611a0b90919063ffffffff16565b600960008973ffffffffffffffffffffffffffffffffffffffff1673ffffffffffffffffffffffffffffffffffffffff168152602001908152602001600020819055507f5845892132946850460bff5a0083f71031bc5bf9aadcd40f1de79423eac9b10b873388604051610c9a93929190613384565b60405180910390a16000803073ffffffffffffffffffffffffffffffffffffffff16888a604051602001610ccf9291906132f3565b604051602081830303815290604052604051610ceb91906132dc565b6000604051808303816000865af19150503d8060008114610d28576040519150601f19603f3d011682016040523d82523d6000602084013e610d2d565b606091505b509150915081610d72576040517f08c379a0000000000000000000000000000000000000000000000000000000008152600401610d6990613552565b60405180910390fd5b80935050505095945050505050565b6040518060400160405280600181526020017f310000000000000000000000000000000000000000000000000000000000000081525081565b60006001610dc8600b611a21565b610dd291906138c2565b905090565b6000600854905090565b610df2610dec61183a565b82611a2f565b610e31576040517f08c379a0000000000000000000000000000000000000000000000000000000008152600401610e2890613752565b60405180910390fd5b610e3c838383611b0d565b505050565b6000600960008373ffffffffffffffffffffffffffffffffffffffff1673ffffffffffffffffffffffffffffffffffffffff168152602001908152602001600020549050919050565b6000804690508091505090565b6060600e60008381526020019081526020016000208054610eb7906139e7565b80601f0160208091040260200160405190810160405280929190818152602001828054610ee3906139e7565b8015610f305780601f10610f0557610100808354040283529160200191610f30565b820191906000526020600020905b815481529060010190602001808311610f1357829003601f168201915b50505050509050919050565b610f57838383604051806020016040528060008152506113d9565b505050565b600f8054610f69906139e7565b80601f0160208091040260200160405190810160405280929190818152602001828054610f95906139e7565b8015610fe25780601f10610fb757610100808354040283529160200191610fe2565b820191906000526020600020905b815481529060010190602001808311610fc557829003601f168201915b505050505081565b60008060009054906101000a900473ffffffffffffffffffffffffffffffffffffffff1673ffffffffffffffffffffffffffffffffffffffff168273ffffffffffffffffffffffffffffffffffffffff16149050919050565b6000806003600084815260200190815260200160002060009054906101000a900473ffffffffffffffffffffffffffffffffffffffff169050600073ffffffffffffffffffffffffffffffffffffffff168173ffffffffffffffffffffffffffffffffffffffff1614156110ec576040517f08c379a00000000000000000000000000000000000000000000000000000000081526004016110e390613652565b60405180910390fd5b80915050919050565b60008073ffffffffffffffffffffffffffffffffffffffff168273ffffffffffffffffffffffffffffffffffffffff161415611166576040517f08c379a000000000000000000000000000000000000000000000000000000000815260040161115d90613632565b60405180910390fd5b600460008373ffffffffffffffffffffffffffffffffffffffff1673ffffffffffffffffffffffffffffffffffffffff168152602001908152602001600020549050919050565b6111b561183a565b73ffffffffffffffffffffffffffffffffffffffff166111d3611307565b73ffffffffffffffffffffffffffffffffffffffff1614611229576040517f08c379a0000000000000000000000000000000000000000000000000000000008152600401611220906136d2565b60405180910390fd5b6112336000611d69565b565b600061123f61183a565b73ffffffffffffffffffffffffffffffffffffffff1661125d611307565b73ffffffffffffffffffffffffffffffffffffffff16146112b3576040517f08c379a00000000000000000000000000000000000000000000000000000000081526004016112aa906136d2565b60405180910390fd5b60006112bf600b611a21565b90506112cb600b611717565b6112d58382611e2f565b80915050919050565b60008060009054906101000a900473ffffffffffffffffffffffffffffffffffffffff16905090565b6000600a60009054906101000a900473ffffffffffffffffffffffffffffffffffffffff16905090565b606060028054611340906139e7565b80601f016020809104026020016040519081016040528092919081815260200182805461136c906139e7565b80156113b95780601f1061138e576101008083540402835291602001916113b9565b820191906000526020600020905b81548152906001019060200180831161139c57829003601f168201915b5050505050905090565b6113d56113ce61183a565b8383611e4d565b5050565b6113ea6113e461183a565b83611a2f565b611429576040517f08c379a000000000000000000000000000000000000000000000000000000000815260040161142090613752565b60405180910390fd5b61143584848484611fba565b50505050565b606061144561146b565b604051602001611455919061331b565b6040516020818303038152906040529050919050565b6060600d805461147a906139e7565b80601f01602080910402602001604051908101604052809291908181526020018280546114a6906139e7565b80156114f35780601f106114c8576101008083540402835291602001916114f3565b820191906000526020600020905b8154815290600101906020018083116114d657829003601f168201915b5050505050905090565b6060604051806060016040528060398152602001613bd760399139905090565b600080600c60009054906101000a900473ffffffffffffffffffffffffffffffffffffffff1690508273ffffffffffffffffffffffffffffffffffffffff168173ffffffffffffffffffffffffffffffffffffffff1663c4552791866040518263ffffffff1660e01b81526004016115959190613369565b60206040518083038186803b1580156115ad57600080fd5b505afa1580156115c1573d6000803e3d6000fd5b505050506040513d601f19601f820116820180604052508101906115e591906129c6565b73ffffffffffffffffffffffffffffffffffffffff16141561160b576001915050611619565b6116158484612016565b9150505b92915050565b61162761183a565b73ffffffffffffffffffffffffffffffffffffffff16611645611307565b73ffffffffffffffffffffffffffffffffffffffff161461169b576040517f08c379a0000000000000000000000000000000000000000000000000000000008152600401611692906136d2565b60405180910390fd5b600073ffffffffffffffffffffffffffffffffffffffff168173ffffffffffffffffffffffffffffffffffffffff16141561170b576040517f08c379a000000000000000000000000000000000000000000000000000000000815260040161170290613532565b60405180910390fd5b61171481611d69565b50565b6001816000016000828254019250508190555050565b60006014600036905010158015611749575061174833610fea565b5b1561175d57601436033560601c9050611761565b3390505b90565b60008073ffffffffffffffffffffffffffffffffffffffff166003600084815260200190815260200160002060009054906101000a900473ffffffffffffffffffffffffffffffffffffffff1673ffffffffffffffffffffffffffffffffffffffff1614159050919050565b60007f01ffc9a7000000000000000000000000000000000000000000000000000000007bffffffffffffffffffffffffffffffffffffffffffffffffffffffff1916827bffffffffffffffffffffffffffffffffffffffffffffffffffffffff1916149050919050565b600061184461172d565b905090565b816005600083815260200190815260200160002060006101000a81548173ffffffffffffffffffffffffffffffffffffffff021916908373ffffffffffffffffffffffffffffffffffffffff160217905550808273ffffffffffffffffffffffffffffffffffffffff166118bc83611043565b73ffffffffffffffffffffffffffffffffffffffff167f8c5be1e5ebec7d5bd14f71427d1e84f3dd0314c0f7b2291e5b200ac8c7c3b92560405160405180910390a45050565b60008073ffffffffffffffffffffffffffffffffffffffff168673ffffffffffffffffffffffffffffffffffffffff161415611973576040517f08c379a000000000000000000000000000000000000000000000000000000000815260040161196a906135f2565b60405180910390fd5b6001611986611981876120aa565b612112565b838686604051600081526020016040526040516119a69493929190613489565b6020604051602081039080840390855afa1580156119c8573d6000803e3d6000fd5b5050506020604051035173ffffffffffffffffffffffffffffffffffffffff168673ffffffffffffffffffffffffffffffffffffffff1614905095945050505050565b60008183611a19919061386c565b905092915050565b600081600001549050919050565b6000611a3a82611764565b611a79576040517f08c379a0000000000000000000000000000000000000000000000000000000008152600401611a70906135d2565b60405180910390fd5b6000611a8483611043565b90508073ffffffffffffffffffffffffffffffffffffffff168473ffffffffffffffffffffffffffffffffffffffff161480611af357508373ffffffffffffffffffffffffffffffffffffffff16611adb84610972565b73ffffffffffffffffffffffffffffffffffffffff16145b80611b045750611b03818561151d565b5b91505092915050565b8273ffffffffffffffffffffffffffffffffffffffff16611b2d82611043565b73ffffffffffffffffffffffffffffffffffffffff1614611b83576040517f08c379a0000000000000000000000000000000000000000000000000000000008152600401611b7a906136f2565b60405180910390fd5b600073ffffffffffffffffffffffffffffffffffffffff168273ffffffffffffffffffffffffffffffffffffffff161415611bf3576040517f08c379a0000000000000000000000000000000000000000000000000000000008152600401611bea90613592565b60405180910390fd5b611bfe83838361214b565b611c09600082611849565b6001600460008573ffffffffffffffffffffffffffffffffffffffff1673ffffffffffffffffffffffffffffffffffffffff1681526020019081526020016000206000828254611c5991906138c2565b925050819055506001600460008473ffffffffffffffffffffffffffffffffffffffff1673ffffffffffffffffffffffffffffffffffffffff1681526020019081526020016000206000828254611cb0919061386c565b92505081905550816003600083815260200190815260200160002060006101000a81548173ffffffffffffffffffffffffffffffffffffffff021916908373ffffffffffffffffffffffffffffffffffffffff160217905550808273ffffffffffffffffffffffffffffffffffffffff168473ffffffffffffffffffffffffffffffffffffffff167fddf252ad1be2c89b69c2b068fc378daa952ba7f163c4a11628f55a4df523b3ef60405160405180910390a4505050565b6000600a60009054906101000a900473ffffffffffffffffffffffffffffffffffffffff16905081600a60006101000a81548173ffffffffffffffffffffffffffffffffffffffff021916908373ffffffffffffffffffffffffffffffffffffffff1602179055508173ffffffffffffffffffffffffffffffffffffffff168173ffffffffffffffffffffffffffffffffffffffff167f8be0079c531659141344cd1fd0a4f28419497f9722a3daafe3b4186f6b6457e060405160405180910390a35050565b611e49828260405180602001604052806000815250612150565b5050565b8173ffffffffffffffffffffffffffffffffffffffff168373ffffffffffffffffffffffffffffffffffffffff161415611ebc576040517f08c379a0000000000000000000000000000000000000000000000000000000008152600401611eb3906135b2565b60405180910390fd5b80600660008573ffffffffffffffffffffffffffffffffffffffff1673ffffffffffffffffffffffffffffffffffffffff16815260200190815260200160002060008473ffffffffffffffffffffffffffffffffffffffff1673ffffffffffffffffffffffffffffffffffffffff16815260200190815260200160002060006101000a81548160ff0219169083151502179055508173ffffffffffffffffffffffffffffffffffffffff168373ffffffffffffffffffffffffffffffffffffffff167f17307eab39ab6107e8899845ad3d59bd9653f200f220920489ca2b5937696c3183604051611fad919061340e565b60405180910390a3505050565b611fc5848484611b0d565b611fd1848484846121ab565b612010576040517f08c379a000000000000000000000000000000000000000000000000000000000815260040161200790613512565b60405180910390fd5b50505050565b6000600660008473ffffffffffffffffffffffffffffffffffffffff1673ffffffffffffffffffffffffffffffffffffffff16815260200190815260200160002060008373ffffffffffffffffffffffffffffffffffffffff1673ffffffffffffffffffffffffffffffffffffffff16815260200190815260200160002060009054906101000a900460ff16905092915050565b6000604051806080016040528060438152602001613b946043913980519060200120826000015183602001518460400151805190602001206040516020016120f59493929190613444565b604051602081830303815290604052805190602001209050919050565b600061211c610dd7565b8260405160200161212e929190613332565b604051602081830303815290604052805190602001209050919050565b505050565b61215a8383612342565b61216760008484846121ab565b6121a6576040517f08c379a000000000000000000000000000000000000000000000000000000000815260040161219d90613512565b60405180910390fd5b505050565b60006121cc8473ffffffffffffffffffffffffffffffffffffffff16612510565b15612335578373ffffffffffffffffffffffffffffffffffffffff1663150b7a026121f561183a565b8786866040518563ffffffff1660e01b815260040161221794939291906133c2565b602060405180830381600087803b15801561223157600080fd5b505af192505050801561226257506040513d601f19601f8201168201806040525081019061225f919061299d565b60015b6122e5573d8060008114612292576040519150601f19603f3d011682016040523d82523d6000602084013e612297565b606091505b506000815114156122dd576040517f08c379a00000000000000000000000000000000000000000000000000000000081526004016122d490613512565b60405180910390fd5b805181602001fd5b63150b7a0260e01b7bffffffffffffffffffffffffffffffffffffffffffffffffffffffff1916817bffffffffffffffffffffffffffffffffffffffffffffffffffffffff19161491505061233a565b600190505b949350505050565b600073ffffffffffffffffffffffffffffffffffffffff168273ffffffffffffffffffffffffffffffffffffffff1614156123b2576040517f08c379a00000000000000000000000000000000000000000000000000000000081526004016123a990613672565b60405180910390fd5b6123bb81611764565b156123fb576040517f08c379a00000000000000000000000000000000000000000000000000000000081526004016123f290613572565b60405180910390fd5b6124076000838361214b565b6001600460008473ffffffffffffffffffffffffffffffffffffffff1673ffffffffffffffffffffffffffffffffffffffff1681526020019081526020016000206000828254612457919061386c565b92505081905550816003600083815260200190815260200160002060006101000a81548173ffffffffffffffffffffffffffffffffffffffff021916908373ffffffffffffffffffffffffffffffffffffffff160217905550808273ffffffffffffffffffffffffffffffffffffffff16600073ffffffffffffffffffffffffffffffffffffffff167fddf252ad1be2c89b69c2b068fc378daa952ba7f163c4a11628f55a4df523b3ef60405160405180910390a45050565b600080823b905060008111915050919050565b82805461252f906139e7565b90600052602060002090601f0160209004810192826125515760008555612598565b82601f1061256a57805160ff1916838001178555612598565b82800160010185558215612598579182015b8281111561259757825182559160200191906001019061257c565b5b5090506125a591906125a9565b5090565b5b808211156125c25760008160009055506001016125aa565b5090565b60006125d96125d4846137be565b61378d565b9050828152602081018484840111156125f157600080fd5b6125fc8482856139a5565b509392505050565b6000612617612612846137ee565b61378d565b90508281526020810184848401111561262f57600080fd5b61263a8482856139a5565b509392505050565b60008135905061265181613af2565b92915050565b60008135905061266681613b09565b92915050565b60008135905061267b81613b20565b92915050565b60008135905061269081613b37565b92915050565b6000815190506126a581613b37565b92915050565b600082601f8301126126bc57600080fd5b81356126cc8482602086016125c6565b91505092915050565b6000815190506126e481613b4e565b92915050565b600082601f8301126126fb57600080fd5b813561270b848260208601612604565b91505092915050565b60008135905061272381613b65565b92915050565b60008135905061273881613b7c565b92915050565b60006020828403121561275057600080fd5b600061275e84828501612642565b91505092915050565b6000806040838503121561277a57600080fd5b600061278885828601612642565b925050602061279985828601612642565b9150509250929050565b6000806000606084860312156127b857600080fd5b60006127c686828701612642565b93505060206127d786828701612642565b92505060406127e886828701612714565b9150509250925092565b6000806000806080858703121561280857600080fd5b600061281687828801612642565b945050602061282787828801612642565b935050604061283887828801612714565b925050606085013567ffffffffffffffff81111561285557600080fd5b612861878288016126ab565b91505092959194509250565b6000806040838503121561288057600080fd5b600061288e85828601612642565b925050602061289f85828601612657565b9150509250929050565b600080600080600060a086880312156128c157600080fd5b60006128cf88828901612642565b955050602086013567ffffffffffffffff8111156128ec57600080fd5b6128f8888289016126ab565b94505060406129098882890161266c565b935050606061291a8882890161266c565b925050608061292b88828901612729565b9150509295509295909350565b6000806040838503121561294b57600080fd5b600061295985828601612642565b925050602061296a85828601612714565b9150509250929050565b60006020828403121561298657600080fd5b600061299484828501612681565b91505092915050565b6000602082840312156129af57600080fd5b60006129bd84828501612696565b91505092915050565b6000602082840312156129d857600080fd5b60006129e6848285016126d5565b91505092915050565b600060208284031215612a0157600080fd5b6000612a0f84828501612714565b91505092915050565b60008060408385031215612a2b57600080fd5b6000612a3985828601612714565b925050602083013567ffffffffffffffff811115612a5657600080fd5b612a62858286016126ea565b9150509250929050565b612a7581613908565b82525050565b612a84816138f6565b82525050565b612a9b612a96826138f6565b613a19565b82525050565b612aaa8161391a565b82525050565b612ab981613926565b82525050565b612ad0612acb82613926565b613a2b565b82525050565b6000612ae18261381e565b612aeb8185613834565b9350612afb8185602086016139b4565b612b0481613ad4565b840191505092915050565b6000612b1a8261381e565b612b248185613845565b9350612b348185602086016139b4565b80840191505092915050565b6000612b4b82613829565b612b558185613850565b9350612b658185602086016139b4565b612b6e81613ad4565b840191505092915050565b6000612b8482613829565b612b8e8185613861565b9350612b9e8185602086016139b4565b80840191505092915050565b6000612bb7603283613850565b91507f4552433732313a207472616e7366657220746f206e6f6e20455243373231526560008301527f63656976657220696d706c656d656e74657200000000000000000000000000006020830152604082019050919050565b6000612c1d602683613850565b91507f4f776e61626c653a206e6577206f776e657220697320746865207a65726f206160008301527f64647265737300000000000000000000000000000000000000000000000000006020830152604082019050919050565b6000612c83601c83613850565b91507f46756e6374696f6e2063616c6c206e6f74207375636365737366756c000000006000830152602082019050919050565b6000612cc3601c83613850565b91507f4552433732313a20746f6b656e20616c7265616479206d696e746564000000006000830152602082019050919050565b6000612d03600283613861565b91507f19010000000000000000000000000000000000000000000000000000000000006000830152600282019050919050565b6000612d43602483613850565b91507f4552433732313a207472616e7366657220746f20746865207a65726f2061646460008301527f72657373000000000000000000000000000000000000000000000000000000006020830152604082019050919050565b6000612da9601983613850565b91507f4552433732313a20617070726f766520746f2063616c6c6572000000000000006000830152602082019050919050565b6000612de9602c83613850565b91507f4552433732313a206f70657261746f7220717565727920666f72206e6f6e657860008301527f697374656e7420746f6b656e00000000000000000000000000000000000000006020830152604082019050919050565b6000612e4f602583613850565b91507f4e61746976654d6574615472616e73616374696f6e3a20494e56414c49445f5360008301527f49474e45520000000000000000000000000000000000000000000000000000006020830152604082019050919050565b6000612eb5603883613850565b91507f4552433732313a20617070726f76652063616c6c6572206973206e6f74206f7760008301527f6e6572206e6f7220617070726f76656420666f7220616c6c00000000000000006020830152604082019050919050565b6000612f1b602a83613850565b91507f4552433732313a2062616c616e636520717565727920666f7220746865207a6560008301527f726f2061646472657373000000000000000000000000000000000000000000006020830152604082019050919050565b6000612f81602983613850565b91507f4552433732313a206f776e657220717565727920666f72206e6f6e657869737460008301527f656e7420746f6b656e00000000000000000000000000000000000000000000006020830152604082019050919050565b6000612fe7602083613850565b91507f4552433732313a206d696e7420746f20746865207a65726f20616464726573736000830152602082019050919050565b6000613027602c83613850565b91507f4552433732313a20617070726f76656420717565727920666f72206e6f6e657860008301527f697374656e7420746f6b656e00000000000000000000000000000000000000006020830152604082019050919050565b600061308d602c83613850565b91507f4552433732314d657461646174613a2055524920736574206f66206e6f6e657860008301527f697374656e7420746f6b656e00000000000000000000000000000000000000006020830152604082019050919050565b60006130f3602083613850565b91507f4f776e61626c653a2063616c6c6572206973206e6f7420746865206f776e65726000830152602082019050919050565b6000613133602983613850565b91507f4552433732313a207472616e73666572206f6620746f6b656e2074686174206960008301527f73206e6f74206f776e00000000000000000000000000000000000000000000006020830152604082019050919050565b6000613199602183613850565b91507f5369676e657220616e64207369676e617475726520646f206e6f74206d61746360008301527f68000000000000000000000000000000000000000000000000000000000000006020830152604082019050919050565b60006131ff602183613850565b91507f4552433732313a20617070726f76616c20746f2063757272656e74206f776e6560008301527f72000000000000000000000000000000000000000000000000000000000000006020830152604082019050919050565b6000613265603183613850565b91507f4552433732313a207472616e736665722063616c6c6572206973206e6f74206f60008301527f776e6572206e6f7220617070726f7665640000000000000000000000000000006020830152604082019050919050565b6132c78161398e565b82525050565b6132d681613998565b82525050565b60006132e88284612b0f565b915081905092915050565b60006132ff8285612b0f565b915061330b8284612a8a565b6014820191508190509392505050565b60006133278284612b79565b915081905092915050565b600061333d82612cf6565b91506133498285612abf565b6020820191506133598284612abf565b6020820191508190509392505050565b600060208201905061337e6000830184612a7b565b92915050565b60006060820190506133996000830186612a7b565b6133a66020830185612a6c565b81810360408301526133b88184612ad6565b9050949350505050565b60006080820190506133d76000830187612a7b565b6133e46020830186612a7b565b6133f160408301856132be565b81810360608301526134038184612ad6565b905095945050505050565b60006020820190506134236000830184612aa1565b92915050565b600060208201905061343e6000830184612ab0565b92915050565b60006080820190506134596000830187612ab0565b61346660208301866132be565b6134736040830185612a7b565b6134806060830184612ab0565b95945050505050565b600060808201905061349e6000830187612ab0565b6134ab60208301866132cd565b6134b86040830185612ab0565b6134c56060830184612ab0565b95945050505050565b600060208201905081810360008301526134e88184612ad6565b905092915050565b6000602082019050818103600083015261350a8184612b40565b905092915050565b6000602082019050818103600083015261352b81612baa565b9050919050565b6000602082019050818103600083015261354b81612c10565b9050919050565b6000602082019050818103600083015261356b81612c76565b9050919050565b6000602082019050818103600083015261358b81612cb6565b9050919050565b600060208201905081810360008301526135ab81612d36565b9050919050565b600060208201905081810360008301526135cb81612d9c565b9050919050565b600060208201905081810360008301526135eb81612ddc565b9050919050565b6000602082019050818103600083015261360b81612e42565b9050919050565b6000602082019050818103600083015261362b81612ea8565b9050919050565b6000602082019050818103600083015261364b81612f0e565b9050919050565b6000602082019050818103600083015261366b81612f74565b9050919050565b6000602082019050818103600083015261368b81612fda565b9050919050565b600060208201905081810360008301526136ab8161301a565b9050919050565b600060208201905081810360008301526136cb81613080565b9050919050565b600060208201905081810360008301526136eb816130e6565b9050919050565b6000602082019050818103600083015261370b81613126565b9050919050565b6000602082019050818103600083015261372b8161318c565b9050919050565b6000602082019050818103600083015261374b816131f2565b9050919050565b6000602082019050818103600083015261376b81613258565b9050919050565b600060208201905061378760008301846132be565b92915050565b6000604051905081810181811067ffffffffffffffff821117156137b4576137b3613aa5565b5b8060405250919050565b600067ffffffffffffffff8211156137d9576137d8613aa5565b5b601f19601f8301169050602081019050919050565b600067ffffffffffffffff82111561380957613808613aa5565b5b601f19601f8301169050602081019050919050565b600081519050919050565b600081519050919050565b600082825260208201905092915050565b600081905092915050565b600082825260208201905092915050565b600081905092915050565b60006138778261398e565b91506138828361398e565b9250827fffffffffffffffffffffffffffffffffffffffffffffffffffffffffffffffff038211156138b7576138b6613a47565b5b828201905092915050565b60006138cd8261398e565b91506138d88361398e565b9250828210156138eb576138ea613a47565b5b828203905092915050565b60006139018261396e565b9050919050565b60006139138261396e565b9050919050565b60008115159050919050565b6000819050919050565b60007fffffffff0000000000000000000000000000000000000000000000000000000082169050919050565b6000613967826138f6565b9050919050565b600073ffffffffffffffffffffffffffffffffffffffff82169050919050565b6000819050919050565b600060ff82169050919050565b82818337600083830152505050565b60005b838110156139d25780820151818401526020810190506139b7565b838111156139e1576000848401525b50505050565b600060028204905060018216806139ff57607f821691505b60208210811415613a1357613a12613a76565b5b50919050565b6000613a2482613a35565b9050919050565b6000819050919050565b6000613a4082613ae5565b9050919050565b7f4e487b7100000000000000000000000000000000000000000000000000000000600052601160045260246000fd5b7f4e487b7100000000000000000000000000000000000000000000000000000000600052602260045260246000fd5b7f4e487b7100000000000000000000000000000000000000000000000000000000600052604160045260246000fd5b6000601f19601f8301169050919050565b60008160601b9050919050565b613afb816138f6565b8114613b0657600080fd5b50565b613b128161391a565b8114613b1d57600080fd5b50565b613b2981613926565b8114613b3457600080fd5b50565b613b4081613930565b8114613b4b57600080fd5b50565b613b578161395c565b8114613b6257600080fd5b50565b613b6e8161398e565b8114613b7957600080fd5b50565b613b8581613998565b8114613b9057600080fd5b5056fe4d6574615472616e73616374696f6e2875696e74323536206e6f6e63652c616464726573732066726f6d2c62797465732066756e6374696f6e5369676e61747572652968747470733a2f2f6d6f6e616c697a612d6170692e6f70656e7365612e696f2f636f6e74726163742f6f70656e7365612d6d6f6e616c697a61a2646970667358221220e2160aae9db84c87dc1a0fd41e90a4255a0bbd2c140d64385ebf50b81843662e64736f6c63430008000033454950373132446f6d61696e28737472696e67206e616d652c737472696e672076657273696f6e2c6164647265737320766572696679696e67436f6e74726163742c627974657333322073616c7429",
  "linkReferences": {},
  "deployedLinkReferences": {}
}