{
  "_format": "hh-sol-artifact-1",
  "contractName": "MonalizaFactory",
  "sourceName": "contracts/MonalizaFactory.sol",
  "abi": [
    {
      "inputs": [
        {
          "internalType": "address",
          "name": "forwarder",
          "type": "address"
        }
      ],
      "stateMutability": "nonpayable",
      "type": "constructor"
    },
    {
      "anonymous": false,
      "inputs": [
        {
          "indexed": false,
          "internalType": "address",
          "name": "tokenAddress",
          "type": "address"
        }
      ],
      "name": "AddAirDrop",
      "type": "event"
    },
    {
      "anonymous": false,
      "inputs": [
        {
          "indexed": false,
          "internalType": "string",
          "name": "name",
          "type": "string"
        },
        {
          "indexed": false,
          "internalType": "string",
          "name": "symbol",
          "type": "string"
        },
        {
          "indexed": false,
          "internalType": "address",
          "name": "newContract",
          "type": "address"
        }
      ],
      "name": "DeployContract",
      "type": "event"
    },
    {
      "anonymous": false,
      "inputs": [
        {
          "indexed": false,
          "internalType": "contract Monaliza",
          "name": "tokenAddress",
          "type": "address"
        },
        {
          "indexed": false,
          "internalType": "uint256",
          "name": "newItemId",
          "type": "uint256"
        }
      ],
      "name": "Mint",
      "type": "event"
    },
    {
      "anonymous": false,
      "inputs": [
        {
          "indexed": false,
          "internalType": "contract Monaliza",
          "name": "tokenAddress",
          "type": "address"
        },
        {
          "indexed": false,
          "internalType": "address",
          "name": "toAddress",
          "type": "address"
        },
        {
          "indexed": false,
          "internalType": "uint256",
          "name": "tokenId",
          "type": "uint256"
        }
      ],
      "name": "TransferToken",
      "type": "event"
    },
    {
      "inputs": [
        {
          "internalType": "contract Monaliza",
          "name": "tokenAddress",
          "type": "address"
        },
        {
          "internalType": "address[]",
          "name": "addressesAllowedForMinting",
          "type": "address[]"
        }
      ],
      "name": "addAirDrop",
      "outputs": [
        {
          "internalType": "address",
          "name": "contractAddress",
          "type": "address"
        }
      ],
      "stateMutability": "nonpayable",
      "type": "function"
    },
    {
      "inputs": [
        {
          "internalType": "uint256",
          "name": "",
          "type": "uint256"
        }
      ],
      "name": "contracts",
      "outputs": [
        {
          "internalType": "address",
          "name": "",
          "type": "address"
        }
      ],
      "stateMutability": "view",
      "type": "function"
    },
    {
      "inputs": [
        {
          "internalType": "string",
          "name": "name",
          "type": "string"
        },
        {
          "internalType": "string",
          "name": "symbol",
          "type": "string"
        },
        {
          "internalType": "address",
          "name": "registryAddress",
          "type": "address"
        }
      ],
      "name": "deployNFTContract",
      "outputs": [
        {
          "internalType": "address",
          "name": "newContract",
          "type": "address"
        }
      ],
      "stateMutability": "nonpayable",
      "type": "function"
    },
    {
      "inputs": [
        {
          "internalType": "contract Monaliza",
          "name": "contractAddress",
          "type": "address"
        }
      ],
      "name": "getBaseTokenURI",
      "outputs": [
        {
          "internalType": "string",
          "name": "baseURI",
          "type": "string"
        }
      ],
      "stateMutability": "view",
      "type": "function"
    },
    {
      "inputs": [],
      "name": "getContractCount",
      "outputs": [
        {
          "internalType": "uint256",
          "name": "contractCount",
          "type": "uint256"
        }
      ],
      "stateMutability": "view",
      "type": "function"
    },
    {
      "inputs": [],
      "name": "getLastContractAddress",
      "outputs": [
        {
          "internalType": "address",
          "name": "cAddr",
          "type": "address"
        }
      ],
      "stateMutability": "view",
      "type": "function"
    },
    {
      "inputs": [
        {
          "internalType": "contract Monaliza",
          "name": "contractAddress",
          "type": "address"
        }
      ],
      "name": "getLastTokenID",
      "outputs": [
        {
          "internalType": "uint256",
          "name": "newItemId",
          "type": "uint256"
        }
      ],
      "stateMutability": "view",
      "type": "function"
    },
    {
      "inputs": [
        {
          "internalType": "contract Monaliza",
          "name": "contractAddress",
          "type": "address"
        },
        {
          "internalType": "address",
          "name": "userAddress",
          "type": "address"
        }
      ],
      "name": "isAddressAllowedForMinting",
      "outputs": [
        {
          "internalType": "bool",
          "name": "",
          "type": "bool"
        }
      ],
      "stateMutability": "view",
      "type": "function"
    },
    {
      "inputs": [
        {
          "internalType": "address",
          "name": "forwarder",
          "type": "address"
        }
      ],
      "name": "isTrustedForwarder",
      "outputs": [
        {
          "internalType": "bool",
          "name": "",
          "type": "bool"
        }
      ],
      "stateMutability": "view",
      "type": "function"
    },
    {
      "inputs": [],
      "name": "lastContractAddress",
      "outputs": [
        {
          "internalType": "address",
          "name": "",
          "type": "address"
        }
      ],
      "stateMutability": "view",
      "type": "function"
    },
    {
      "inputs": [
        {
          "internalType": "address",
          "name": "",
          "type": "address"
        }
      ],
      "name": "lastTokenIDs",
      "outputs": [
        {
          "internalType": "uint256",
          "name": "",
          "type": "uint256"
        }
      ],
      "stateMutability": "view",
      "type": "function"
    },
    {
      "inputs": [
        {
          "internalType": "contract Monaliza",
          "name": "tokenAddress",
          "type": "address"
        },
        {
          "internalType": "address",
          "name": "to",
          "type": "address"
        },
        {
          "internalType": "string",
          "name": "tokenURI",
          "type": "string"
        }
      ],
      "name": "mintNFT",
      "outputs": [
        {
          "internalType": "uint256",
          "name": "newItemId",
          "type": "uint256"
        }
      ],
      "stateMutability": "nonpayable",
      "type": "function"
    },
    {
      "inputs": [
        {
          "internalType": "contract Monaliza",
          "name": "tokenAddress",
          "type": "address"
        },
        {
          "internalType": "address",
          "name": "from",
          "type": "address"
        },
        {
          "internalType": "address",
          "name": "to",
          "type": "address"
        },
        {
          "internalType": "uint256",
          "name": "tokenID",
          "type": "uint256"
        }
      ],
      "name": "transferToken",
      "outputs": [
        {
          "internalType": "uint256",
          "name": "newItemId",
          "type": "uint256"
        }
      ],
      "stateMutability": "nonpayable",
      "type": "function"
    },
    {
      "inputs": [],
      "name": "trustedForwarder",
      "outputs": [
        {
          "internalType": "address",
          "name": "",
          "type": "address"
        }
      ],
      "stateMutability": "view",
      "type": "function"
    },
    {
      "inputs": [],
      "name": "versionRecipient",
      "outputs": [
        {
          "internalType": "string",
          "name": "",
          "type": "string"
        }
      ],
      "stateMutability": "view",
      "type": "function"
    }
  ],
  "bytecode": "0x60806040526040518060400160405280600581526020017f322e322e30000000000000000000000000000000000000000000000000000000815250600590805190602001906200005192919062000121565b503480156200005f57600080fd5b50604051620061f3380380620061f38339818101604052810190620000859190620001e8565b33600460006101000a81548173ffffffffffffffffffffffffffffffffffffffff021916908373ffffffffffffffffffffffffffffffffffffffff160217905550620000d781620000de60201b60201c565b50620002c7565b806000806101000a81548173ffffffffffffffffffffffffffffffffffffffff021916908373ffffffffffffffffffffffffffffffffffffffff16021790555050565b8280546200012f9062000248565b90600052602060002090601f0160209004810192826200015357600085556200019f565b82601f106200016e57805160ff19168380011785556200019f565b828001600101855582156200019f579182015b828111156200019e57825182559160200191906001019062000181565b5b509050620001ae9190620001b2565b5090565b5b80821115620001cd576000816000905550600101620001b3565b5090565b600081519050620001e281620002ad565b92915050565b600060208284031215620001fb57600080fd5b60006200020b84828501620001d1565b91505092915050565b6000620002218262000228565b9050919050565b600073ffffffffffffffffffffffffffffffffffffffff82169050919050565b600060028204905060018216806200026157607f821691505b602082108114156200027857620002776200027e565b5b50919050565b7f4e487b7100000000000000000000000000000000000000000000000000000000600052602260045260246000fd5b620002b88162000214565b8114620002c457600080fd5b50565b615f1c80620002d76000396000f3fe60806040523480156200001157600080fd5b50600436106200010c5760003560e01c8063486ff0cd11620000a55780637da0a877116200006f5780637da0a877146200033b5780639399869d146200035d578063abed2f77146200037f578063ff55c3a214620003a1576200010c565b8063486ff0cd1462000277578063572b6c0514620002995780637779f7e214620002cf5780637c818f541462000305576200010c565b80633270973811620000e75780633270973814620001b35780633c2115f914620001d55780633fcf5459146200020b578063474da79a1462000241576200010c565b806319e1f54114620001115780632ac0f25414620001475780632c54de4f146200017d575b600080fd5b6200012f600480360381019062000129919062000f16565b620003d7565b6040516200013e9190620014f0565b60405180910390f35b6200016560048036038101906200015f919062001155565b620003ef565b6040516200017491906200134f565b60405180910390f35b6200019b600480360381019062000195919062000fdb565b62000523565b604051620001aa9190620014f0565b60405180910390f35b620001bd62000651565b604051620001cc91906200134f565b60405180910390f35b620001f36004803603810190620001ed919062000f9a565b62000677565b604051620002029190620013fa565b60405180910390f35b62000229600480360381019062000223919062000f6e565b62000710565b60405162000238919062001481565b60405180910390f35b6200025f6004803603810190620002599190620011dd565b620007a0565b6040516200026e91906200134f565b60405180910390f35b62000281620007e0565b60405162000290919062001481565b60405180910390f35b620002b76004803603810190620002b1919062000f16565b62000876565b604051620002c69190620013fa565b60405180910390f35b620002ed6004803603810190620002e79190620010b6565b620008cf565b604051620002fc91906200134f565b60405180910390f35b6200032360048036038101906200031d919062001047565b620009e3565b604051620003329190620014f0565b60405180910390f35b6200034562000c66565b6040516200035491906200134f565b60405180910390f35b6200036762000c8f565b604051620003769190620014f0565b60405180910390f35b6200038962000c9c565b6040516200039891906200134f565b60405180910390f35b620003bf6004803603810190620003b9919062000f6e565b62000cc6565b604051620003ce9190620014f0565b60405180910390f35b60036020528060005260406000206000915090505481565b600080848484604051620004039062000d0f565b6200041193929190620014a5565b604051809103906000f0801580156200042e573d6000803e3d6000fd5b50905060008190506001819080600181540180825580915050600190039060005260206000200160009091909190916101000a81548173ffffffffffffffffffffffffffffffffffffffff021916908373ffffffffffffffffffffffffffffffffffffffff16021790555080600260006101000a81548173ffffffffffffffffffffffffffffffffffffffff021916908373ffffffffffffffffffffffffffffffffffffffff1602179055507f909d3a27d497eeb2405be5653f130fc82124fdfb09dc58dd30b8d13406601a238686836040516200050f93929190620014a5565b60405180910390a180925050509392505050565b60008473ffffffffffffffffffffffffffffffffffffffff1663095ea7b384846040518363ffffffff1660e01b815260040162000562929190620013a9565b600060405180830381600087803b1580156200057d57600080fd5b505af115801562000592573d6000803e3d6000fd5b505050508473ffffffffffffffffffffffffffffffffffffffff166342842e0e8585856040518463ffffffff1660e01b8152600401620005d5939291906200136c565b600060405180830381600087803b158015620005f057600080fd5b505af115801562000605573d6000803e3d6000fd5b505050507f3844b7075ed6e7d4b61342769cb2b1b325cba410a62932affaa90aee247dadf58584846040516200063e9392919062001417565b60405180910390a1819050949350505050565b600260009054906101000a900473ffffffffffffffffffffffffffffffffffffffff1681565b60008273ffffffffffffffffffffffffffffffffffffffff16638fa2a903836040518263ffffffff1660e01b8152600401620006b491906200134f565b60206040518083038186803b158015620006cd57600080fd5b505afa158015620006e2573d6000803e3d6000fd5b505050506040513d601f19601f8201168201806040525081019062000708919062000f42565b905092915050565b60608173ffffffffffffffffffffffffffffffffffffffff1663d547cfb76040518163ffffffff1660e01b815260040160006040518083038186803b1580156200075957600080fd5b505afa1580156200076e573d6000803e3d6000fd5b505050506040513d6000823e3d601f19601f8201168201806040525081019062000799919062001110565b9050919050565b60018181548110620007b157600080fd5b906000526020600020016000915054906101000a900473ffffffffffffffffffffffffffffffffffffffff1681565b60058054620007ef90620016f7565b80601f01602080910402602001604051908101604052809291908181526020018280546200081d90620016f7565b80156200086e5780601f1062000842576101008083540402835291602001916200086e565b820191906000526020600020905b8154815290600101906020018083116200085057829003601f168201915b505050505081565b60008060009054906101000a900473ffffffffffffffffffffffffffffffffffffffff1673ffffffffffffffffffffffffffffffffffffffff168273ffffffffffffffffffffffffffffffffffffffff16149050919050565b6000600460009054906101000a900473ffffffffffffffffffffffffffffffffffffffff1673ffffffffffffffffffffffffffffffffffffffff163373ffffffffffffffffffffffffffffffffffffffff16146200092c57600080fd5b8273ffffffffffffffffffffffffffffffffffffffff16639deecd38836040518263ffffffff1660e01b8152600401620009679190620013d6565b600060405180830381600087803b1580156200098257600080fd5b505af115801562000997573d6000803e3d6000fd5b5050505060008390507f1f7a0540d82f0e6b0687993fd109c34b97b260d4a99574e50f0875f59b86a8ae81604051620009d191906200134f565b60405180910390a18091505092915050565b6000600460009054906101000a900473ffffffffffffffffffffffffffffffffffffffff1673ffffffffffffffffffffffffffffffffffffffff163373ffffffffffffffffffffffffffffffffffffffff161462000a4057600080fd5b8373ffffffffffffffffffffffffffffffffffffffff16638fa2a903846040518263ffffffff1660e01b815260040162000a7b91906200134f565b60206040518083038186803b15801562000a9457600080fd5b505afa15801562000aa9573d6000803e3d6000fd5b505050506040513d601f19601f8201168201806040525081019062000acf919062000f42565b1562000c5e578373ffffffffffffffffffffffffffffffffffffffff1663755edd17846040518263ffffffff1660e01b815260040162000b1091906200134f565b602060405180830381600087803b15801562000b2b57600080fd5b505af115801562000b40573d6000803e3d6000fd5b505050506040513d601f19601f8201168201806040525081019062000b66919062001209565b90508373ffffffffffffffffffffffffffffffffffffffff16630153886882846040518363ffffffff1660e01b815260040162000ba59291906200150d565b600060405180830381600087803b15801562000bc057600080fd5b505af115801562000bd5573d6000803e3d6000fd5b5050505080600360008673ffffffffffffffffffffffffffffffffffffffff1673ffffffffffffffffffffffffffffffffffffffff168152602001908152602001600020819055507f0f6798a560793a54c3bcfe86a93cde1e73087d944c0ea20544137d4121396885848260405162000c5092919062001454565b60405180910390a162000c5f565b5b9392505050565b60008060009054906101000a900473ffffffffffffffffffffffffffffffffffffffff16905090565b6000600180549050905090565b6000600260009054906101000a900473ffffffffffffffffffffffffffffffffffffffff16905090565b6000600360008373ffffffffffffffffffffffffffffffffffffffff1673ffffffffffffffffffffffffffffffffffffffff168152602001908152602001600020549050919050565b6146e2806200180583390190565b600062000d3462000d2e8462001575565b62001541565b9050808382526020820190508285602086028201111562000d5457600080fd5b60005b8581101562000d88578162000d6d888262000e1c565b84526020840193506020830192505060018101905062000d57565b5050509392505050565b600062000da962000da384620015a4565b62001541565b90508281526020810184848401111562000dc257600080fd5b62000dcf848285620016b2565b509392505050565b600062000dee62000de884620015a4565b62001541565b90508281526020810184848401111562000e0757600080fd5b62000e14848285620016c1565b509392505050565b60008135905062000e2d816200179c565b92915050565b600082601f83011262000e4557600080fd5b813562000e5784826020860162000d1d565b91505092915050565b60008151905062000e7181620017b6565b92915050565b60008135905062000e8881620017d0565b92915050565b600082601f83011262000ea057600080fd5b813562000eb284826020860162000d92565b91505092915050565b600082601f83011262000ecd57600080fd5b815162000edf84826020860162000dd7565b91505092915050565b60008135905062000ef981620017ea565b92915050565b60008151905062000f1081620017ea565b92915050565b60006020828403121562000f2957600080fd5b600062000f398482850162000e1c565b91505092915050565b60006020828403121562000f5557600080fd5b600062000f658482850162000e60565b91505092915050565b60006020828403121562000f8157600080fd5b600062000f918482850162000e77565b91505092915050565b6000806040838503121562000fae57600080fd5b600062000fbe8582860162000e77565b925050602062000fd18582860162000e1c565b9150509250929050565b6000806000806080858703121562000ff257600080fd5b6000620010028782880162000e77565b9450506020620010158782880162000e1c565b9350506040620010288782880162000e1c565b92505060606200103b8782880162000ee8565b91505092959194509250565b6000806000606084860312156200105d57600080fd5b60006200106d8682870162000e77565b9350506020620010808682870162000e1c565b925050604084013567ffffffffffffffff8111156200109e57600080fd5b620010ac8682870162000e8e565b9150509250925092565b60008060408385031215620010ca57600080fd5b6000620010da8582860162000e77565b925050602083013567ffffffffffffffff811115620010f857600080fd5b620011068582860162000e33565b9150509250929050565b6000602082840312156200112357600080fd5b600082015167ffffffffffffffff8111156200113e57600080fd5b6200114c8482850162000ebb565b91505092915050565b6000806000606084860312156200116b57600080fd5b600084013567ffffffffffffffff8111156200118657600080fd5b620011948682870162000e8e565b935050602084013567ffffffffffffffff811115620011b257600080fd5b620011c08682870162000e8e565b9250506040620011d38682870162000e1c565b9150509250925092565b600060208284031215620011f057600080fd5b6000620012008482850162000ee8565b91505092915050565b6000602082840312156200121c57600080fd5b60006200122c8482850162000eff565b91505092915050565b60006200124383836200124f565b60208301905092915050565b6200125a816200162c565b82525050565b6200126b816200162c565b82525050565b60006200127e82620015e7565b6200128a81856200160a565b93506200129783620015d7565b8060005b83811015620012ce578151620012b2888262001235565b9750620012bf83620015fd565b9250506001810190506200129b565b5085935050505092915050565b620012e68162001640565b82525050565b620012f7816200168a565b82525050565b60006200130a82620015f2565b6200131681856200161b565b935062001328818560208601620016c1565b62001333816200178b565b840191505092915050565b620013498162001680565b82525050565b600060208201905062001366600083018462001260565b92915050565b600060608201905062001383600083018662001260565b62001392602083018562001260565b620013a160408301846200133e565b949350505050565b6000604082019050620013c0600083018562001260565b620013cf60208301846200133e565b9392505050565b60006020820190508181036000830152620013f2818462001271565b905092915050565b6000602082019050620014116000830184620012db565b92915050565b60006060820190506200142e6000830186620012ec565b6200143d602083018562001260565b6200144c60408301846200133e565b949350505050565b60006040820190506200146b6000830185620012ec565b6200147a60208301846200133e565b9392505050565b600060208201905081810360008301526200149d8184620012fd565b905092915050565b60006060820190508181036000830152620014c18186620012fd565b90508181036020830152620014d78185620012fd565b9050620014e8604083018462001260565b949350505050565b60006020820190506200150760008301846200133e565b92915050565b60006040820190506200152460008301856200133e565b8181036020830152620015388184620012fd565b90509392505050565b6000604051905081810181811067ffffffffffffffff821117156200156b576200156a6200175c565b5b8060405250919050565b600067ffffffffffffffff8211156200159357620015926200175c565b5b602082029050602081019050919050565b600067ffffffffffffffff821115620015c257620015c16200175c565b5b601f19601f8301169050602081019050919050565b6000819050602082019050919050565b600081519050919050565b600081519050919050565b6000602082019050919050565b600082825260208201905092915050565b600082825260208201905092915050565b6000620016398262001660565b9050919050565b60008115159050919050565b600062001659826200162c565b9050919050565b600073ffffffffffffffffffffffffffffffffffffffff82169050919050565b6000819050919050565b600062001697826200169e565b9050919050565b6000620016ab8262001660565b9050919050565b82818337600083830152505050565b60005b83811015620016e1578082015181840152602081019050620016c4565b83811115620016f1576000848401525b50505050565b600060028204905060018216806200171057607f821691505b602082108114156200172757620017266200172d565b5b50919050565b7f4e487b7100000000000000000000000000000000000000000000000000000000600052602260045260246000fd5b7f4e487b7100000000000000000000000000000000000000000000000000000000600052604160045260246000fd5b6000601f19601f8301169050919050565b620017a7816200162c565b8114620017b357600080fd5b50565b620017c18162001640565b8114620017cd57600080fd5b50565b620017db816200164c565b8114620017e757600080fd5b50565b620017f58162001680565b81146200180157600080fd5b5056fe60806040526000600660006101000a81548160ff0219169083151502179055503480156200002c57600080fd5b50604051620046e2380380620046e2833981810160405281019062000052919062000542565b828282828281600090805190602001906200006f92919062000409565b5080600190805190602001906200008892919062000409565b505050620000ab6200009f6200012060201b60201c565b6200013c60201b60201c565b80600b60006101000a81548173ffffffffffffffffffffffffffffffffffffffff021916908373ffffffffffffffffffffffffffffffffffffffff16021790555062000103600a6200020260201b620017481760201c565b62000114836200021860201b60201c565b50505050505062000847565b6000620001376200029a60201b6200175e1760201c565b905090565b6000600960009054906101000a900473ffffffffffffffffffffffffffffffffffffffff16905081600960006101000a81548173ffffffffffffffffffffffffffffffffffffffff021916908373ffffffffffffffffffffffffffffffffffffffff1602179055508173ffffffffffffffffffffffffffffffffffffffff168173ffffffffffffffffffffffffffffffffffffffff167f8be0079c531659141344cd1fd0a4f28419497f9722a3daafe3b4186f6b6457e060405160405180910390a35050565b6001816000016000828254019250508190555050565b600660009054906101000a900460ff16156200026b576040517f08c379a000000000000000000000000000000000000000000000000000000000815260040162000262906200068b565b60405180910390fd5b6200027c816200034d60201b60201c565b6001600660006101000a81548160ff02191690831515021790555050565b60003073ffffffffffffffffffffffffffffffffffffffff163373ffffffffffffffffffffffffffffffffffffffff1614156200034657600080368080601f016020809104026020016040519081016040528093929190818152602001838380828437600081840152601f19601f820116905080830192505050505050509050600080369050905073ffffffffffffffffffffffffffffffffffffffff8183015116925050506200034a565b3390505b90565b6040518060800160405280604f815260200162004693604f91398051906020012081805190602001206040518060400160405280600181526020017f31000000000000000000000000000000000000000000000000000000000000008152508051906020012030620003c4620003fc60201b60201c565b60001b604051602001620003dd9594939291906200062e565b6040516020818303038152906040528051906020012060078190555050565b6000804690508091505090565b828054620004179062000799565b90600052602060002090601f0160209004810192826200043b576000855562000487565b82601f106200045657805160ff191683800117855562000487565b8280016001018555821562000487579182015b828111156200048657825182559160200191906001019062000469565b5b5090506200049691906200049a565b5090565b5b80821115620004b55760008160009055506001016200049b565b5090565b6000620004d0620004ca84620006e1565b620006ad565b905082815260208101848484011115620004e957600080fd5b620004f684828562000763565b509392505050565b6000815190506200050f816200082d565b92915050565b600082601f8301126200052757600080fd5b815162000539848260208601620004b9565b91505092915050565b6000806000606084860312156200055857600080fd5b600084015167ffffffffffffffff8111156200057357600080fd5b620005818682870162000515565b935050602084015167ffffffffffffffff8111156200059f57600080fd5b620005ad8682870162000515565b9250506040620005c086828701620004fe565b9150509250925092565b620005d58162000725565b82525050565b620005e68162000739565b82525050565b6000620005fb600e8362000714565b91507f616c726561647920696e697465640000000000000000000000000000000000006000830152602082019050919050565b600060a082019050620006456000830188620005db565b620006546020830187620005db565b620006636040830186620005db565b620006726060830185620005ca565b620006816080830184620005db565b9695505050505050565b60006020820190508181036000830152620006a681620005ec565b9050919050565b6000604051905081810181811067ffffffffffffffff82111715620006d757620006d6620007fe565b5b8060405250919050565b600067ffffffffffffffff821115620006ff57620006fe620007fe565b5b601f19601f8301169050602081019050919050565b600082825260208201905092915050565b6000620007328262000743565b9050919050565b6000819050919050565b600073ffffffffffffffffffffffffffffffffffffffff82169050919050565b60005b838110156200078357808201518184015260208101905062000766565b8381111562000793576000848401525b50505050565b60006002820490506001821680620007b257607f821691505b60208210811415620007c957620007c8620007cf565b5b50919050565b7f4e487b7100000000000000000000000000000000000000000000000000000000600052602260045260246000fd5b7f4e487b7100000000000000000000000000000000000000000000000000000000600052604160045260246000fd5b620008388162000725565b81146200084457600080fd5b50565b613e3c80620008576000396000f3fe6080604052600436106101cd5760003560e01c80636352211e116100f75780639deecd3811610095578063d547cfb711610064578063d547cfb7146106c7578063e8a3d485146106f2578063e985e9c51461071d578063f2fde38b1461075a576101cd565b80639deecd381461060f578063a22cb46514610638578063b88d4fde14610661578063c87b56dd1461068a576101cd565b8063755edd17116100d1578063755edd171461053f5780638da5cb5b1461057c5780638fa2a903146105a757806395d89b41146105e4576101cd565b80636352211e146104ae57806370a08231146104eb578063715018a614610528576101cd565b806318160ddd1161016f5780633408e4701161013e5780633408e470146103e05780633bb3a24d1461040b5780634120657a1461044857806342842e0e14610485576101cd565b806318160ddd1461032457806320379ee51461034f57806323b872dd1461037a5780632d0335ab146103a3576101cd565b8063081812fc116101ab578063081812fc14610263578063095ea7b3146102a05780630c53c51c146102c95780630f7e5970146102f9576101cd565b806301538868146101d257806301ffc9a7146101fb57806306fdde0314610238575b600080fd5b3480156101de57600080fd5b506101f960048036038101906101f49190612b9a565b610783565b005b34801561020757600080fd5b50610222600480360381019061021d9190612af6565b61080e565b60405161022f9190613590565b60405180910390f35b34801561024457600080fd5b5061024d6108f0565b60405161025a9190613672565b60405180910390f35b34801561026f57600080fd5b5061028a60048036038101906102859190612b71565b610982565b60405161029791906134eb565b60405180910390f35b3480156102ac57600080fd5b506102c760048036038101906102c29190612a79565b610a07565b005b6102e360048036038101906102de91906129ea565b610b1f565b6040516102f09190613650565b60405180910390f35b34801561030557600080fd5b5061030e610d91565b60405161031b9190613672565b60405180910390f35b34801561033057600080fd5b50610339610dca565b60405161034691906138f4565b60405180910390f35b34801561035b57600080fd5b50610364610de7565b60405161037191906135ab565b60405180910390f35b34801561038657600080fd5b506103a1600480360381019061039c91906128e4565b610df1565b005b3480156103af57600080fd5b506103ca60048036038101906103c5919061287f565b610e51565b6040516103d791906138f4565b60405180910390f35b3480156103ec57600080fd5b506103f5610e9a565b60405161040291906138f4565b60405180910390f35b34801561041757600080fd5b50610432600480360381019061042d9190612b71565b610ea7565b60405161043f9190613672565b60405180910390f35b34801561045457600080fd5b5061046f600480360381019061046a919061287f565b610f4c565b60405161047c9190613590565b60405180910390f35b34801561049157600080fd5b506104ac60048036038101906104a791906128e4565b610f6c565b005b3480156104ba57600080fd5b506104d560048036038101906104d09190612b71565b610f8c565b6040516104e291906134eb565b60405180910390f35b3480156104f757600080fd5b50610512600480360381019061050d919061287f565b61103e565b60405161051f91906138f4565b60405180910390f35b34801561053457600080fd5b5061053d6110f6565b005b34801561054b57600080fd5b506105666004803603810190610561919061287f565b61117e565b60405161057391906138f4565b60405180910390f35b34801561058857600080fd5b50610591611227565b60405161059e91906134eb565b60405180910390f35b3480156105b357600080fd5b506105ce60048036038101906105c9919061287f565b611251565b6040516105db9190613590565b60405180910390f35b3480156105f057600080fd5b506105f96112a7565b6040516106069190613672565b60405180910390f35b34801561061b57600080fd5b5061063660048036038101906106319190612ab5565b611339565b005b34801561064457600080fd5b5061065f600480360381019061065a91906129ae565b6113f4565b005b34801561066d57600080fd5b5061068860048036038101906106839190612933565b61140a565b005b34801561069657600080fd5b506106b160048036038101906106ac9190612b71565b61146c565b6040516106be9190613672565b60405180910390f35b3480156106d357600080fd5b506106dc61149c565b6040516106e99190613672565b60405180910390f35b3480156106fe57600080fd5b5061070761152e565b6040516107149190613672565b60405180910390f35b34801561072957600080fd5b50610744600480360381019061073f91906128a8565b61154e565b6040516107519190613590565b60405180910390f35b34801561076657600080fd5b50610781600480360381019061077c919061287f565b611650565b005b61078c8261180f565b6107cb576040517f08c379a00000000000000000000000000000000000000000000000000000000081526004016107c290613834565b60405180910390fd5b80600d600084815260200190815260200160002090805190602001906107f29291906125ce565b5080600c90805190602001906108099291906125ce565b505050565b60007f80ac58cd000000000000000000000000000000000000000000000000000000007bffffffffffffffffffffffffffffffffffffffffffffffffffffffff1916827bffffffffffffffffffffffffffffffffffffffffffffffffffffffff191614806108d957507f5b5e139f000000000000000000000000000000000000000000000000000000007bffffffffffffffffffffffffffffffffffffffffffffffffffffffff1916827bffffffffffffffffffffffffffffffffffffffffffffffffffffffff1916145b806108e957506108e88261187b565b5b9050919050565b6060600080546108ff90613b95565b80601f016020809104026020016040519081016040528092919081815260200182805461092b90613b95565b80156109785780601f1061094d57610100808354040283529160200191610978565b820191906000526020600020905b81548152906001019060200180831161095b57829003601f168201915b5050505050905090565b600061098d8261180f565b6109cc576040517f08c379a00000000000000000000000000000000000000000000000000000000081526004016109c390613814565b60405180910390fd5b6004600083815260200190815260200160002060009054906101000a900473ffffffffffffffffffffffffffffffffffffffff169050919050565b6000610a1282610f8c565b90508073ffffffffffffffffffffffffffffffffffffffff168373ffffffffffffffffffffffffffffffffffffffff161415610a83576040517f08c379a0000000000000000000000000000000000000000000000000000000008152600401610a7a906138b4565b60405180910390fd5b8073ffffffffffffffffffffffffffffffffffffffff16610aa26118e5565b73ffffffffffffffffffffffffffffffffffffffff161480610ad15750610ad081610acb6118e5565b61154e565b5b610b10576040517f08c379a0000000000000000000000000000000000000000000000000000000008152600401610b0790613794565b60405180910390fd5b610b1a83836118f4565b505050565b606060006040518060600160405280600860008a73ffffffffffffffffffffffffffffffffffffffff1673ffffffffffffffffffffffffffffffffffffffff1681526020019081526020016000205481526020018873ffffffffffffffffffffffffffffffffffffffff168152602001878152509050610ba287828787876119ad565b610be1576040517f08c379a0000000000000000000000000000000000000000000000000000000008152600401610bd890613894565b60405180910390fd5b610c346001600860008a73ffffffffffffffffffffffffffffffffffffffff1673ffffffffffffffffffffffffffffffffffffffff16815260200190815260200160002054611ab690919063ffffffff16565b600860008973ffffffffffffffffffffffffffffffffffffffff1673ffffffffffffffffffffffffffffffffffffffff168152602001908152602001600020819055507f5845892132946850460bff5a0083f71031bc5bf9aadcd40f1de79423eac9b10b873388604051610caa93929190613506565b60405180910390a16000803073ffffffffffffffffffffffffffffffffffffffff16888a604051602001610cdf929190613475565b604051602081830303815290604052604051610cfb919061345e565b6000604051808303816000865af19150503d8060008114610d38576040519150601f19603f3d011682016040523d82523d6000602084013e610d3d565b606091505b509150915081610d82576040517f08c379a0000000000000000000000000000000000000000000000000000000008152600401610d79906136d4565b60405180910390fd5b80935050505095945050505050565b6040518060400160405280600181526020017f310000000000000000000000000000000000000000000000000000000000000081525081565b60006001610dd8600a611acc565b610de29190613a70565b905090565b6000600754905090565b610e02610dfc6118e5565b82611ada565b610e41576040517f08c379a0000000000000000000000000000000000000000000000000000000008152600401610e38906138d4565b60405180910390fd5b610e4c838383611bb8565b505050565b6000600860008373ffffffffffffffffffffffffffffffffffffffff1673ffffffffffffffffffffffffffffffffffffffff168152602001908152602001600020549050919050565b6000804690508091505090565b6060600d60008381526020019081526020016000208054610ec790613b95565b80601f0160208091040260200160405190810160405280929190818152602001828054610ef390613b95565b8015610f405780601f10610f1557610100808354040283529160200191610f40565b820191906000526020600020905b815481529060010190602001808311610f2357829003601f168201915b50505050509050919050565b600e6020528060005260406000206000915054906101000a900460ff1681565b610f878383836040518060200160405280600081525061140a565b505050565b6000806002600084815260200190815260200160002060009054906101000a900473ffffffffffffffffffffffffffffffffffffffff169050600073ffffffffffffffffffffffffffffffffffffffff168173ffffffffffffffffffffffffffffffffffffffff161415611035576040517f08c379a000000000000000000000000000000000000000000000000000000000815260040161102c906137d4565b60405180910390fd5b80915050919050565b60008073ffffffffffffffffffffffffffffffffffffffff168273ffffffffffffffffffffffffffffffffffffffff1614156110af576040517f08c379a00000000000000000000000000000000000000000000000000000000081526004016110a6906137b4565b60405180910390fd5b600360008373ffffffffffffffffffffffffffffffffffffffff1673ffffffffffffffffffffffffffffffffffffffff168152602001908152602001600020549050919050565b6110fe6118e5565b73ffffffffffffffffffffffffffffffffffffffff1661111c611227565b73ffffffffffffffffffffffffffffffffffffffff1614611172576040517f08c379a000000000000000000000000000000000000000000000000000000000815260040161116990613854565b60405180910390fd5b61117c6000611e14565b565b60006111886118e5565b73ffffffffffffffffffffffffffffffffffffffff166111a6611227565b73ffffffffffffffffffffffffffffffffffffffff16146111fc576040517f08c379a00000000000000000000000000000000000000000000000000000000081526004016111f390613854565b60405180910390fd5b6000611208600a611acc565b9050611214600a611748565b61121e8382611eda565b80915050919050565b6000600960009054906101000a900473ffffffffffffffffffffffffffffffffffffffff16905090565b6000600e60008373ffffffffffffffffffffffffffffffffffffffff1673ffffffffffffffffffffffffffffffffffffffff16815260200190815260200160002060009054906101000a900460ff169050919050565b6060600180546112b690613b95565b80601f01602080910402602001604051908101604052809291908181526020018280546112e290613b95565b801561132f5780601f106113045761010080835404028352916020019161132f565b820191906000526020600020905b81548152906001019060200180831161131257829003601f168201915b5050505050905090565b60005b81518110156113f0576001600e6000848481518110611384577f4e487b7100000000000000000000000000000000000000000000000000000000600052603260045260246000fd5b602002602001015173ffffffffffffffffffffffffffffffffffffffff1673ffffffffffffffffffffffffffffffffffffffff16815260200190815260200160002060006101000a81548160ff02191690831515021790555080806113e890613bc7565b91505061133c565b5050565b6114066113ff6118e5565b8383611ef8565b5050565b61141b6114156118e5565b83611ada565b61145a576040517f08c379a0000000000000000000000000000000000000000000000000000000008152600401611451906138d4565b60405180910390fd5b61146684848484612065565b50505050565b606061147661149c565b604051602001611486919061349d565b6040516020818303038152906040529050919050565b6060600c80546114ab90613b95565b80601f01602080910402602001604051908101604052809291908181526020018280546114d790613b95565b80156115245780601f106114f957610100808354040283529160200191611524565b820191906000526020600020905b81548152906001019060200180831161150757829003601f168201915b5050505050905090565b6060604051806060016040528060398152602001613dce60399139905090565b600080600b60009054906101000a900473ffffffffffffffffffffffffffffffffffffffff1690508273ffffffffffffffffffffffffffffffffffffffff168173ffffffffffffffffffffffffffffffffffffffff1663c4552791866040518263ffffffff1660e01b81526004016115c691906134eb565b60206040518083038186803b1580156115de57600080fd5b505afa1580156115f2573d6000803e3d6000fd5b505050506040513d601f19601f820116820180604052508101906116169190612b48565b73ffffffffffffffffffffffffffffffffffffffff16141561163c57600191505061164a565b61164684846120c1565b9150505b92915050565b6116586118e5565b73ffffffffffffffffffffffffffffffffffffffff16611676611227565b73ffffffffffffffffffffffffffffffffffffffff16146116cc576040517f08c379a00000000000000000000000000000000000000000000000000000000081526004016116c390613854565b60405180910390fd5b600073ffffffffffffffffffffffffffffffffffffffff168173ffffffffffffffffffffffffffffffffffffffff16141561173c576040517f08c379a0000000000000000000000000000000000000000000000000000000008152600401611733906136b4565b60405180910390fd5b61174581611e14565b50565b6001816000016000828254019250508190555050565b60003073ffffffffffffffffffffffffffffffffffffffff163373ffffffffffffffffffffffffffffffffffffffff16141561180857600080368080601f016020809104026020016040519081016040528093929190818152602001838380828437600081840152601f19601f820116905080830192505050505050509050600080369050905073ffffffffffffffffffffffffffffffffffffffff81830151169250505061180c565b3390505b90565b60008073ffffffffffffffffffffffffffffffffffffffff166002600084815260200190815260200160002060009054906101000a900473ffffffffffffffffffffffffffffffffffffffff1673ffffffffffffffffffffffffffffffffffffffff1614159050919050565b60007f01ffc9a7000000000000000000000000000000000000000000000000000000007bffffffffffffffffffffffffffffffffffffffffffffffffffffffff1916827bffffffffffffffffffffffffffffffffffffffffffffffffffffffff1916149050919050565b60006118ef61175e565b905090565b816004600083815260200190815260200160002060006101000a81548173ffffffffffffffffffffffffffffffffffffffff021916908373ffffffffffffffffffffffffffffffffffffffff160217905550808273ffffffffffffffffffffffffffffffffffffffff1661196783610f8c565b73ffffffffffffffffffffffffffffffffffffffff167f8c5be1e5ebec7d5bd14f71427d1e84f3dd0314c0f7b2291e5b200ac8c7c3b92560405160405180910390a45050565b60008073ffffffffffffffffffffffffffffffffffffffff168673ffffffffffffffffffffffffffffffffffffffff161415611a1e576040517f08c379a0000000000000000000000000000000000000000000000000000000008152600401611a1590613774565b60405180910390fd5b6001611a31611a2c87612155565b6121bd565b83868660405160008152602001604052604051611a51949392919061360b565b6020604051602081039080840390855afa158015611a73573d6000803e3d6000fd5b5050506020604051035173ffffffffffffffffffffffffffffffffffffffff168673ffffffffffffffffffffffffffffffffffffffff1614905095945050505050565b60008183611ac49190613a1a565b905092915050565b600081600001549050919050565b6000611ae58261180f565b611b24576040517f08c379a0000000000000000000000000000000000000000000000000000000008152600401611b1b90613754565b60405180910390fd5b6000611b2f83610f8c565b90508073ffffffffffffffffffffffffffffffffffffffff168473ffffffffffffffffffffffffffffffffffffffff161480611b9e57508373ffffffffffffffffffffffffffffffffffffffff16611b8684610982565b73ffffffffffffffffffffffffffffffffffffffff16145b80611baf5750611bae818561154e565b5b91505092915050565b8273ffffffffffffffffffffffffffffffffffffffff16611bd882610f8c565b73ffffffffffffffffffffffffffffffffffffffff1614611c2e576040517f08c379a0000000000000000000000000000000000000000000000000000000008152600401611c2590613874565b60405180910390fd5b600073ffffffffffffffffffffffffffffffffffffffff168273ffffffffffffffffffffffffffffffffffffffff161415611c9e576040517f08c379a0000000000000000000000000000000000000000000000000000000008152600401611c9590613714565b60405180910390fd5b611ca98383836121f6565b611cb46000826118f4565b6001600360008573ffffffffffffffffffffffffffffffffffffffff1673ffffffffffffffffffffffffffffffffffffffff1681526020019081526020016000206000828254611d049190613a70565b925050819055506001600360008473ffffffffffffffffffffffffffffffffffffffff1673ffffffffffffffffffffffffffffffffffffffff1681526020019081526020016000206000828254611d5b9190613a1a565b92505081905550816002600083815260200190815260200160002060006101000a81548173ffffffffffffffffffffffffffffffffffffffff021916908373ffffffffffffffffffffffffffffffffffffffff160217905550808273ffffffffffffffffffffffffffffffffffffffff168473ffffffffffffffffffffffffffffffffffffffff167fddf252ad1be2c89b69c2b068fc378daa952ba7f163c4a11628f55a4df523b3ef60405160405180910390a4505050565b6000600960009054906101000a900473ffffffffffffffffffffffffffffffffffffffff16905081600960006101000a81548173ffffffffffffffffffffffffffffffffffffffff021916908373ffffffffffffffffffffffffffffffffffffffff1602179055508173ffffffffffffffffffffffffffffffffffffffff168173ffffffffffffffffffffffffffffffffffffffff167f8be0079c531659141344cd1fd0a4f28419497f9722a3daafe3b4186f6b6457e060405160405180910390a35050565b611ef48282604051806020016040528060008152506121fb565b5050565b8173ffffffffffffffffffffffffffffffffffffffff168373ffffffffffffffffffffffffffffffffffffffff161415611f67576040517f08c379a0000000000000000000000000000000000000000000000000000000008152600401611f5e90613734565b60405180910390fd5b80600560008573ffffffffffffffffffffffffffffffffffffffff1673ffffffffffffffffffffffffffffffffffffffff16815260200190815260200160002060008473ffffffffffffffffffffffffffffffffffffffff1673ffffffffffffffffffffffffffffffffffffffff16815260200190815260200160002060006101000a81548160ff0219169083151502179055508173ffffffffffffffffffffffffffffffffffffffff168373ffffffffffffffffffffffffffffffffffffffff167f17307eab39ab6107e8899845ad3d59bd9653f200f220920489ca2b5937696c31836040516120589190613590565b60405180910390a3505050565b612070848484611bb8565b61207c84848484612256565b6120bb576040517f08c379a00000000000000000000000000000000000000000000000000000000081526004016120b290613694565b60405180910390fd5b50505050565b6000600560008473ffffffffffffffffffffffffffffffffffffffff1673ffffffffffffffffffffffffffffffffffffffff16815260200190815260200160002060008373ffffffffffffffffffffffffffffffffffffffff1673ffffffffffffffffffffffffffffffffffffffff16815260200190815260200160002060009054906101000a900460ff16905092915050565b6000604051806080016040528060438152602001613d8b6043913980519060200120826000015183602001518460400151805190602001206040516020016121a094939291906135c6565b604051602081830303815290604052805190602001209050919050565b60006121c7610de7565b826040516020016121d99291906134b4565b604051602081830303815290604052805190602001209050919050565b505050565b61220583836123ed565b6122126000848484612256565b612251576040517f08c379a000000000000000000000000000000000000000000000000000000000815260040161224890613694565b60405180910390fd5b505050565b60006122778473ffffffffffffffffffffffffffffffffffffffff166125bb565b156123e0578373ffffffffffffffffffffffffffffffffffffffff1663150b7a026122a06118e5565b8786866040518563ffffffff1660e01b81526004016122c29493929190613544565b602060405180830381600087803b1580156122dc57600080fd5b505af192505050801561230d57506040513d601f19601f8201168201806040525081019061230a9190612b1f565b60015b612390573d806000811461233d576040519150601f19603f3d011682016040523d82523d6000602084013e612342565b606091505b50600081511415612388576040517f08c379a000000000000000000000000000000000000000000000000000000000815260040161237f90613694565b60405180910390fd5b805181602001fd5b63150b7a0260e01b7bffffffffffffffffffffffffffffffffffffffffffffffffffffffff1916817bffffffffffffffffffffffffffffffffffffffffffffffffffffffff1916149150506123e5565b600190505b949350505050565b600073ffffffffffffffffffffffffffffffffffffffff168273ffffffffffffffffffffffffffffffffffffffff16141561245d576040517f08c379a0000000000000000000000000000000000000000000000000000000008152600401612454906137f4565b60405180910390fd5b6124668161180f565b156124a6576040517f08c379a000000000000000000000000000000000000000000000000000000000815260040161249d906136f4565b60405180910390fd5b6124b2600083836121f6565b6001600360008473ffffffffffffffffffffffffffffffffffffffff1673ffffffffffffffffffffffffffffffffffffffff16815260200190815260200160002060008282546125029190613a1a565b92505081905550816002600083815260200190815260200160002060006101000a81548173ffffffffffffffffffffffffffffffffffffffff021916908373ffffffffffffffffffffffffffffffffffffffff160217905550808273ffffffffffffffffffffffffffffffffffffffff16600073ffffffffffffffffffffffffffffffffffffffff167fddf252ad1be2c89b69c2b068fc378daa952ba7f163c4a11628f55a4df523b3ef60405160405180910390a45050565b600080823b905060008111915050919050565b8280546125da90613b95565b90600052602060002090601f0160209004810192826125fc5760008555612643565b82601f1061261557805160ff1916838001178555612643565b82800160010185558215612643579182015b82811115612642578251825591602001919060010190612627565b5b5090506126509190612654565b5090565b5b8082111561266d576000816000905550600101612655565b5090565b600061268461267f84613940565b61390f565b905080838252602082019050828560208602820111156126a357600080fd5b60005b858110156126d357816126b98882612759565b8452602084019350602083019250506001810190506126a6565b5050509392505050565b60006126f06126eb8461396c565b61390f565b90508281526020810184848401111561270857600080fd5b612713848285613b53565b509392505050565b600061272e6127298461399c565b61390f565b90508281526020810184848401111561274657600080fd5b612751848285613b53565b509392505050565b60008135905061276881613ce9565b92915050565b600082601f83011261277f57600080fd5b813561278f848260208601612671565b91505092915050565b6000813590506127a781613d00565b92915050565b6000813590506127bc81613d17565b92915050565b6000813590506127d181613d2e565b92915050565b6000815190506127e681613d2e565b92915050565b600082601f8301126127fd57600080fd5b813561280d8482602086016126dd565b91505092915050565b60008151905061282581613d45565b92915050565b600082601f83011261283c57600080fd5b813561284c84826020860161271b565b91505092915050565b60008135905061286481613d5c565b92915050565b60008135905061287981613d73565b92915050565b60006020828403121561289157600080fd5b600061289f84828501612759565b91505092915050565b600080604083850312156128bb57600080fd5b60006128c985828601612759565b92505060206128da85828601612759565b9150509250929050565b6000806000606084860312156128f957600080fd5b600061290786828701612759565b935050602061291886828701612759565b925050604061292986828701612855565b9150509250925092565b6000806000806080858703121561294957600080fd5b600061295787828801612759565b945050602061296887828801612759565b935050604061297987828801612855565b925050606085013567ffffffffffffffff81111561299657600080fd5b6129a2878288016127ec565b91505092959194509250565b600080604083850312156129c157600080fd5b60006129cf85828601612759565b92505060206129e085828601612798565b9150509250929050565b600080600080600060a08688031215612a0257600080fd5b6000612a1088828901612759565b955050602086013567ffffffffffffffff811115612a2d57600080fd5b612a39888289016127ec565b9450506040612a4a888289016127ad565b9350506060612a5b888289016127ad565b9250506080612a6c8882890161286a565b9150509295509295909350565b60008060408385031215612a8c57600080fd5b6000612a9a85828601612759565b9250506020612aab85828601612855565b9150509250929050565b600060208284031215612ac757600080fd5b600082013567ffffffffffffffff811115612ae157600080fd5b612aed8482850161276e565b91505092915050565b600060208284031215612b0857600080fd5b6000612b16848285016127c2565b91505092915050565b600060208284031215612b3157600080fd5b6000612b3f848285016127d7565b91505092915050565b600060208284031215612b5a57600080fd5b6000612b6884828501612816565b91505092915050565b600060208284031215612b8357600080fd5b6000612b9184828501612855565b91505092915050565b60008060408385031215612bad57600080fd5b6000612bbb85828601612855565b925050602083013567ffffffffffffffff811115612bd857600080fd5b612be48582860161282b565b9150509250929050565b612bf781613ab6565b82525050565b612c0681613aa4565b82525050565b612c1d612c1882613aa4565b613c10565b82525050565b612c2c81613ac8565b82525050565b612c3b81613ad4565b82525050565b612c52612c4d82613ad4565b613c22565b82525050565b6000612c63826139cc565b612c6d81856139e2565b9350612c7d818560208601613b62565b612c8681613ccb565b840191505092915050565b6000612c9c826139cc565b612ca681856139f3565b9350612cb6818560208601613b62565b80840191505092915050565b6000612ccd826139d7565b612cd781856139fe565b9350612ce7818560208601613b62565b612cf081613ccb565b840191505092915050565b6000612d06826139d7565b612d108185613a0f565b9350612d20818560208601613b62565b80840191505092915050565b6000612d396032836139fe565b91507f4552433732313a207472616e7366657220746f206e6f6e20455243373231526560008301527f63656976657220696d706c656d656e74657200000000000000000000000000006020830152604082019050919050565b6000612d9f6026836139fe565b91507f4f776e61626c653a206e6577206f776e657220697320746865207a65726f206160008301527f64647265737300000000000000000000000000000000000000000000000000006020830152604082019050919050565b6000612e05601c836139fe565b91507f46756e6374696f6e2063616c6c206e6f74207375636365737366756c000000006000830152602082019050919050565b6000612e45601c836139fe565b91507f4552433732313a20746f6b656e20616c7265616479206d696e746564000000006000830152602082019050919050565b6000612e85600283613a0f565b91507f19010000000000000000000000000000000000000000000000000000000000006000830152600282019050919050565b6000612ec56024836139fe565b91507f4552433732313a207472616e7366657220746f20746865207a65726f2061646460008301527f72657373000000000000000000000000000000000000000000000000000000006020830152604082019050919050565b6000612f2b6019836139fe565b91507f4552433732313a20617070726f766520746f2063616c6c6572000000000000006000830152602082019050919050565b6000612f6b602c836139fe565b91507f4552433732313a206f70657261746f7220717565727920666f72206e6f6e657860008301527f697374656e7420746f6b656e00000000000000000000000000000000000000006020830152604082019050919050565b6000612fd16025836139fe565b91507f4e61746976654d6574615472616e73616374696f6e3a20494e56414c49445f5360008301527f49474e45520000000000000000000000000000000000000000000000000000006020830152604082019050919050565b60006130376038836139fe565b91507f4552433732313a20617070726f76652063616c6c6572206973206e6f74206f7760008301527f6e6572206e6f7220617070726f76656420666f7220616c6c00000000000000006020830152604082019050919050565b600061309d602a836139fe565b91507f4552433732313a2062616c616e636520717565727920666f7220746865207a6560008301527f726f2061646472657373000000000000000000000000000000000000000000006020830152604082019050919050565b60006131036029836139fe565b91507f4552433732313a206f776e657220717565727920666f72206e6f6e657869737460008301527f656e7420746f6b656e00000000000000000000000000000000000000000000006020830152604082019050919050565b60006131696020836139fe565b91507f4552433732313a206d696e7420746f20746865207a65726f20616464726573736000830152602082019050919050565b60006131a9602c836139fe565b91507f4552433732313a20617070726f76656420717565727920666f72206e6f6e657860008301527f697374656e7420746f6b656e00000000000000000000000000000000000000006020830152604082019050919050565b600061320f602c836139fe565b91507f4552433732314d657461646174613a2055524920736574206f66206e6f6e657860008301527f697374656e7420746f6b656e00000000000000000000000000000000000000006020830152604082019050919050565b60006132756020836139fe565b91507f4f776e61626c653a2063616c6c6572206973206e6f7420746865206f776e65726000830152602082019050919050565b60006132b56029836139fe565b91507f4552433732313a207472616e73666572206f6620746f6b656e2074686174206960008301527f73206e6f74206f776e00000000000000000000000000000000000000000000006020830152604082019050919050565b600061331b6021836139fe565b91507f5369676e657220616e64207369676e617475726520646f206e6f74206d61746360008301527f68000000000000000000000000000000000000000000000000000000000000006020830152604082019050919050565b60006133816021836139fe565b91507f4552433732313a20617070726f76616c20746f2063757272656e74206f776e6560008301527f72000000000000000000000000000000000000000000000000000000000000006020830152604082019050919050565b60006133e76031836139fe565b91507f4552433732313a207472616e736665722063616c6c6572206973206e6f74206f60008301527f776e6572206e6f7220617070726f7665640000000000000000000000000000006020830152604082019050919050565b61344981613b3c565b82525050565b61345881613b46565b82525050565b600061346a8284612c91565b915081905092915050565b60006134818285612c91565b915061348d8284612c0c565b6014820191508190509392505050565b60006134a98284612cfb565b915081905092915050565b60006134bf82612e78565b91506134cb8285612c41565b6020820191506134db8284612c41565b6020820191508190509392505050565b60006020820190506135006000830184612bfd565b92915050565b600060608201905061351b6000830186612bfd565b6135286020830185612bee565b818103604083015261353a8184612c58565b9050949350505050565b60006080820190506135596000830187612bfd565b6135666020830186612bfd565b6135736040830185613440565b81810360608301526135858184612c58565b905095945050505050565b60006020820190506135a56000830184612c23565b92915050565b60006020820190506135c06000830184612c32565b92915050565b60006080820190506135db6000830187612c32565b6135e86020830186613440565b6135f56040830185612bfd565b6136026060830184612c32565b95945050505050565b60006080820190506136206000830187612c32565b61362d602083018661344f565b61363a6040830185612c32565b6136476060830184612c32565b95945050505050565b6000602082019050818103600083015261366a8184612c58565b905092915050565b6000602082019050818103600083015261368c8184612cc2565b905092915050565b600060208201905081810360008301526136ad81612d2c565b9050919050565b600060208201905081810360008301526136cd81612d92565b9050919050565b600060208201905081810360008301526136ed81612df8565b9050919050565b6000602082019050818103600083015261370d81612e38565b9050919050565b6000602082019050818103600083015261372d81612eb8565b9050919050565b6000602082019050818103600083015261374d81612f1e565b9050919050565b6000602082019050818103600083015261376d81612f5e565b9050919050565b6000602082019050818103600083015261378d81612fc4565b9050919050565b600060208201905081810360008301526137ad8161302a565b9050919050565b600060208201905081810360008301526137cd81613090565b9050919050565b600060208201905081810360008301526137ed816130f6565b9050919050565b6000602082019050818103600083015261380d8161315c565b9050919050565b6000602082019050818103600083015261382d8161319c565b9050919050565b6000602082019050818103600083015261384d81613202565b9050919050565b6000602082019050818103600083015261386d81613268565b9050919050565b6000602082019050818103600083015261388d816132a8565b9050919050565b600060208201905081810360008301526138ad8161330e565b9050919050565b600060208201905081810360008301526138cd81613374565b9050919050565b600060208201905081810360008301526138ed816133da565b9050919050565b60006020820190506139096000830184613440565b92915050565b6000604051905081810181811067ffffffffffffffff8211171561393657613935613c9c565b5b8060405250919050565b600067ffffffffffffffff82111561395b5761395a613c9c565b5b602082029050602081019050919050565b600067ffffffffffffffff82111561398757613986613c9c565b5b601f19601f8301169050602081019050919050565b600067ffffffffffffffff8211156139b7576139b6613c9c565b5b601f19601f8301169050602081019050919050565b600081519050919050565b600081519050919050565b600082825260208201905092915050565b600081905092915050565b600082825260208201905092915050565b600081905092915050565b6000613a2582613b3c565b9150613a3083613b3c565b9250827fffffffffffffffffffffffffffffffffffffffffffffffffffffffffffffffff03821115613a6557613a64613c3e565b5b828201905092915050565b6000613a7b82613b3c565b9150613a8683613b3c565b925082821015613a9957613a98613c3e565b5b828203905092915050565b6000613aaf82613b1c565b9050919050565b6000613ac182613b1c565b9050919050565b60008115159050919050565b6000819050919050565b60007fffffffff0000000000000000000000000000000000000000000000000000000082169050919050565b6000613b1582613aa4565b9050919050565b600073ffffffffffffffffffffffffffffffffffffffff82169050919050565b6000819050919050565b600060ff82169050919050565b82818337600083830152505050565b60005b83811015613b80578082015181840152602081019050613b65565b83811115613b8f576000848401525b50505050565b60006002820490506001821680613bad57607f821691505b60208210811415613bc157613bc0613c6d565b5b50919050565b6000613bd282613b3c565b91507fffffffffffffffffffffffffffffffffffffffffffffffffffffffffffffffff821415613c0557613c04613c3e565b5b600182019050919050565b6000613c1b82613c2c565b9050919050565b6000819050919050565b6000613c3782613cdc565b9050919050565b7f4e487b7100000000000000000000000000000000000000000000000000000000600052601160045260246000fd5b7f4e487b7100000000000000000000000000000000000000000000000000000000600052602260045260246000fd5b7f4e487b7100000000000000000000000000000000000000000000000000000000600052604160045260246000fd5b6000601f19601f8301169050919050565b60008160601b9050919050565b613cf281613aa4565b8114613cfd57600080fd5b50565b613d0981613ac8565b8114613d1457600080fd5b50565b613d2081613ad4565b8114613d2b57600080fd5b50565b613d3781613ade565b8114613d4257600080fd5b50565b613d4e81613b0a565b8114613d5957600080fd5b50565b613d6581613b3c565b8114613d7057600080fd5b50565b613d7c81613b46565b8114613d8757600080fd5b5056fe4d6574615472616e73616374696f6e2875696e74323536206e6f6e63652c616464726573732066726f6d2c62797465732066756e6374696f6e5369676e61747572652968747470733a2f2f6d6f6e616c697a612d6170692e6f70656e7365612e696f2f636f6e74726163742f6f70656e7365612d6d6f6e616c697a61a264697066735822122081a8b0c857e56672c8686921375e2b08a0d194beaf416d5651c1c93d50fb139164736f6c63430008000033454950373132446f6d61696e28737472696e67206e616d652c737472696e672076657273696f6e2c6164647265737320766572696679696e67436f6e74726163742c627974657333322073616c7429a26469706673582212208d6b98e6cc315a3d8becee570d82ec3de44767a30359ff419b57fa27d957c8ec64736f6c63430008000033",
  "linkReferences": {},
  "deployedLinkReferences": {}
}