{
  "contractName": "MonalizaContractFactory",
  "abi": [
    {
      "anonymous": false,
      "inputs": [
        {
          "indexed": false,
          "internalType": "uint256",
          "name": "newItemId",
          "type": "uint256"
        }
      ],
      "name": "Mint",
      "type": "event"
    },
    {
      "inputs": [
        {
          "internalType": "uint256",
          "name": "",
          "type": "uint256"
        }
      ],
      "name": "contracts",
      "outputs": [
        {
          "internalType": "address",
          "name": "",
          "type": "address"
        }
      ],
      "stateMutability": "view",
      "type": "function"
    },
    {
      "inputs": [],
      "name": "lastContractAddress",
      "outputs": [
        {
          "internalType": "address",
          "name": "",
          "type": "address"
        }
      ],
      "stateMutability": "view",
      "type": "function"
    },
    {
      "inputs": [],
      "name": "getContractCount",
      "outputs": [
        {
          "internalType": "uint256",
          "name": "contractCount",
          "type": "uint256"
        }
      ],
      "stateMutability": "view",
      "type": "function"
    },
    {
      "inputs": [
        {
          "internalType": "string",
          "name": "name",
          "type": "string"
        },
        {
          "internalType": "string",
          "name": "symbol",
          "type": "string"
        }
      ],
      "name": "deployNFTContract",
      "outputs": [
        {
          "internalType": "address",
          "name": "newContract",
          "type": "address"
        }
      ],
      "stateMutability": "nonpayable",
      "type": "function"
    },
    {
      "inputs": [
        {
          "internalType": "contract Monaliza",
          "name": "tokenAddress",
          "type": "address"
        },
        {
          "internalType": "address",
          "name": "to",
          "type": "address"
        },
        {
          "internalType": "string",
          "name": "tokenURI",
          "type": "string"
        }
      ],
      "name": "mintNFT",
      "outputs": [
        {
          "internalType": "uint256",
          "name": "newItemId",
          "type": "uint256"
        }
      ],
      "stateMutability": "nonpayable",
      "type": "function"
    }
  ],
  "bytecode": "0x608060405234801561001057600080fd5b50613c5a806100206000396000f3fe608060405234801561001057600080fd5b50600436106100575760003560e01c8063327097381461005c578063474da79a1461009057806351e2d5f1146100e85780637c818f54146102645780639399869d14610373575b600080fd5b610064610391565b604051808273ffffffffffffffffffffffffffffffffffffffff16815260200191505060405180910390f35b6100bc600480360360208110156100a657600080fd5b81019080803590602001909291905050506103b7565b604051808273ffffffffffffffffffffffffffffffffffffffff16815260200191505060405180910390f35b610238600480360360408110156100fe57600080fd5b810190808035906020019064010000000081111561011b57600080fd5b82018360208201111561012d57600080fd5b8035906020019184600183028401116401000000008311171561014f57600080fd5b91908080601f016020809104026020016040519081016040528093929190818152602001838380828437600081840152601f19601f820116905080830192505050505050509192919290803590602001906401000000008111156101b257600080fd5b8201836020820111156101c457600080fd5b803590602001918460018302840111640100000000831117156101e657600080fd5b91908080601f016020809104026020016040519081016040528093929190818152602001838380828437600081840152601f19601f8201169050808301925050505050505091929192905050506103f6565b604051808273ffffffffffffffffffffffffffffffffffffffff16815260200191505060405180910390f35b61035d6004803603606081101561027a57600080fd5b81019080803573ffffffffffffffffffffffffffffffffffffffff169060200190929190803573ffffffffffffffffffffffffffffffffffffffff169060200190929190803590602001906401000000008111156102d757600080fd5b8201836020820111156102e957600080fd5b8035906020019184600183028401116401000000008311171561030b57600080fd5b91908080601f016020809104026020016040519081016040528093929190818152602001838380828437600081840152601f19601f8201169050808301925050505050505091929192905050506105b5565b6040518082815260200191505060405180910390f35b61037b610708565b6040518082815260200191505060405180910390f35b600160009054906101000a900473ffffffffffffffffffffffffffffffffffffffff1681565b600081815481106103c757600080fd5b906000526020600020016000915054906101000a900473ffffffffffffffffffffffffffffffffffffffff1681565b600080838360405161040790610714565b808060200180602001838103835285818151815260200191508051906020019080838360005b8381101561044857808201518184015260208101905061042d565b50505050905090810190601f1680156104755780820380516001836020036101000a031916815260200191505b50838103825284818151815260200191508051906020019080838360005b838110156104ae578082015181840152602081019050610493565b50505050905090810190601f1680156104db5780820380516001836020036101000a031916815260200191505b50945050505050604051809103906000f0801580156104fe573d6000803e3d6000fd5b50905060008190506000819080600181540180825580915050600190039060005260206000200160009091909190916101000a81548173ffffffffffffffffffffffffffffffffffffffff021916908373ffffffffffffffffffffffffffffffffffffffff16021790555080600160006101000a81548173ffffffffffffffffffffffffffffffffffffffff021916908373ffffffffffffffffffffffffffffffffffffffff160217905550809250505092915050565b60008373ffffffffffffffffffffffffffffffffffffffff1663d0def52184846040518363ffffffff1660e01b8152600401808373ffffffffffffffffffffffffffffffffffffffff16815260200180602001828103825283818151815260200191508051906020019080838360005b83811015610640578082015181840152602081019050610625565b50505050905090810190601f16801561066d5780820380516001836020036101000a031916815260200191505b509350505050602060405180830381600087803b15801561068d57600080fd5b505af11580156106a1573d6000803e3d6000fd5b505050506040513d60208110156106b757600080fd5b810190808051906020019092919050505090507f07883703ed0e86588a40d76551c92f8a4b329e3bf19765e0e6749473c1a84665816040518082815260200191505060405180910390a19392505050565b60008080549050905090565b61350280620007238339019056fe60806040523480156200001157600080fd5b506040516200350238038062003502833981810160405260408110156200003757600080fd5b81019080805160405193929190846401000000008211156200005857600080fd5b838201915060208201858111156200006f57600080fd5b82518660018202830111640100000000821117156200008d57600080fd5b8083526020830192505050908051906020019080838360005b83811015620000c3578082015181840152602081019050620000a6565b50505050905090810190601f168015620000f15780820380516001836020036101000a031916815260200191505b50604052602001805160405193929190846401000000008211156200011557600080fd5b838201915060208201858111156200012c57600080fd5b82518660018202830111640100000000821117156200014a57600080fd5b8083526020830192505050908051906020019080838360005b838110156200018057808201518184015260208101905062000163565b50505050905090810190601f168015620001ae5780820380516001836020036101000a031916815260200191505b506040525050508181620001cf6301ffc9a760e01b6200030460201b60201c565b8160069080519060200190620001e792919062000415565b5080600790805190602001906200020092919062000415565b50620002196380ac58cd60e01b6200030460201b60201c565b62000231635b5e139f60e01b6200030460201b60201c565b6200024963780e9d6360e01b6200030460201b60201c565b505060006200025d6200040d60201b60201c565b905080600a60006101000a81548173ffffffffffffffffffffffffffffffffffffffff021916908373ffffffffffffffffffffffffffffffffffffffff1602179055508073ffffffffffffffffffffffffffffffffffffffff16600073ffffffffffffffffffffffffffffffffffffffff167f8be0079c531659141344cd1fd0a4f28419497f9722a3daafe3b4186f6b6457e060405160405180910390a3505050620004cb565b63ffffffff60e01b817bffffffffffffffffffffffffffffffffffffffffffffffffffffffff19161415620003a1576040517f08c379a000000000000000000000000000000000000000000000000000000000815260040180806020018281038252601c8152602001807f4552433136353a20696e76616c696420696e746572666163652069640000000081525060200191505060405180910390fd5b6001600080837bffffffffffffffffffffffffffffffffffffffffffffffffffffffff19167bffffffffffffffffffffffffffffffffffffffffffffffffffffffff1916815260200190815260200160002060006101000a81548160ff02191690831515021790555050565b600033905090565b828054600181600116156101000203166002900490600052602060002090601f0160209004810192826200044d576000855562000499565b82601f106200046857805160ff191683800117855562000499565b8280016001018555821562000499579182015b82811115620004985782518255916020019190600101906200047b565b5b509050620004a89190620004ac565b5090565b5b80821115620004c7576000816000905550600101620004ad565b5090565b61302780620004db6000396000f3fe608060405234801561001057600080fd5b50600436106101375760003560e01c80636c0360eb116100b8578063a22cb4651161007c578063a22cb4651461065a578063b88d4fde146106aa578063c87b56dd146107af578063d0def52114610856578063e985e9c514610945578063f2fde38b146109bf57610137565b80636c0360eb146104be57806370a0823114610541578063715018a6146105995780638da5cb5b146105a357806395d89b41146105d757610137565b806323b872dd116100ff57806323b872dd146102e65780632f745c591461035457806342842e0e146103b65780634f6ccce7146104245780636352211e1461046657610137565b806301ffc9a71461013c57806306fdde031461019f578063081812fc14610222578063095ea7b31461027a57806318160ddd146102c8575b600080fd5b6101876004803603602081101561015257600080fd5b8101908080357bffffffffffffffffffffffffffffffffffffffffffffffffffffffff19169060200190929190505050610a03565b60405180821515815260200191505060405180910390f35b6101a7610a6a565b6040518080602001828103825283818151815260200191508051906020019080838360005b838110156101e75780820151818401526020810190506101cc565b50505050905090810190601f1680156102145780820380516001836020036101000a031916815260200191505b509250505060405180910390f35b61024e6004803603602081101561023857600080fd5b8101908080359060200190929190505050610b0c565b604051808273ffffffffffffffffffffffffffffffffffffffff16815260200191505060405180910390f35b6102c66004803603604081101561029057600080fd5b81019080803573ffffffffffffffffffffffffffffffffffffffff16906020019092919080359060200190929190505050610ba7565b005b6102d0610ceb565b6040518082815260200191505060405180910390f35b610352600480360360608110156102fc57600080fd5b81019080803573ffffffffffffffffffffffffffffffffffffffff169060200190929190803573ffffffffffffffffffffffffffffffffffffffff16906020019092919080359060200190929190505050610cfc565b005b6103a06004803603604081101561036a57600080fd5b81019080803573ffffffffffffffffffffffffffffffffffffffff16906020019092919080359060200190929190505050610d72565b6040518082815260200191505060405180910390f35b610422600480360360608110156103cc57600080fd5b81019080803573ffffffffffffffffffffffffffffffffffffffff169060200190929190803573ffffffffffffffffffffffffffffffffffffffff16906020019092919080359060200190929190505050610dcd565b005b6104506004803603602081101561043a57600080fd5b8101908080359060200190929190505050610ded565b6040518082815260200191505060405180910390f35b6104926004803603602081101561047c57600080fd5b8101908080359060200190929190505050610e10565b604051808273ffffffffffffffffffffffffffffffffffffffff16815260200191505060405180910390f35b6104c6610e47565b6040518080602001828103825283818151815260200191508051906020019080838360005b838110156105065780820151818401526020810190506104eb565b50505050905090810190601f1680156105335780820380516001836020036101000a031916815260200191505b509250505060405180910390f35b6105836004803603602081101561055757600080fd5b81019080803573ffffffffffffffffffffffffffffffffffffffff169060200190929190505050610ee9565b6040518082815260200191505060405180910390f35b6105a1610fbe565b005b6105ab61112e565b604051808273ffffffffffffffffffffffffffffffffffffffff16815260200191505060405180910390f35b6105df611158565b6040518080602001828103825283818151815260200191508051906020019080838360005b8381101561061f578082015181840152602081019050610604565b50505050905090810190601f16801561064c5780820380516001836020036101000a031916815260200191505b509250505060405180910390f35b6106a86004803603604081101561067057600080fd5b81019080803573ffffffffffffffffffffffffffffffffffffffff1690602001909291908035151590602001909291905050506111fa565b005b6107ad600480360360808110156106c057600080fd5b81019080803573ffffffffffffffffffffffffffffffffffffffff169060200190929190803573ffffffffffffffffffffffffffffffffffffffff169060200190929190803590602001909291908035906020019064010000000081111561072757600080fd5b82018360208201111561073957600080fd5b8035906020019184600183028401116401000000008311171561075b57600080fd5b91908080601f016020809104026020016040519081016040528093929190818152602001838380828437600081840152601f19601f8201169050808301925050505050505091929192905050506113b0565b005b6107db600480360360208110156107c557600080fd5b8101908080359060200190929190505050611428565b6040518080602001828103825283818151815260200191508051906020019080838360005b8381101561081b578082015181840152602081019050610800565b50505050905090810190601f1680156108485780820380516001836020036101000a031916815260200191505b509250505060405180910390f35b61092f6004803603604081101561086c57600080fd5b81019080803573ffffffffffffffffffffffffffffffffffffffff169060200190929190803590602001906401000000008111156108a957600080fd5b8201836020820111156108bb57600080fd5b803590602001918460018302840111640100000000831117156108dd57600080fd5b91908080601f016020809104026020016040519081016040528093929190818152602001838380828437600081840152601f19601f8201169050808301925050505050505091929192905050506116f9565b6040518082815260200191505060405180910390f35b6109a76004803603604081101561095b57600080fd5b81019080803573ffffffffffffffffffffffffffffffffffffffff169060200190929190803573ffffffffffffffffffffffffffffffffffffffff169060200190929190505050611731565b60405180821515815260200191505060405180910390f35b610a01600480360360208110156109d557600080fd5b81019080803573ffffffffffffffffffffffffffffffffffffffff1690602001909291905050506117c5565b005b6000806000837bffffffffffffffffffffffffffffffffffffffffffffffffffffffff19167bffffffffffffffffffffffffffffffffffffffffffffffffffffffff1916815260200190815260200160002060009054906101000a900460ff169050919050565b606060068054600181600116156101000203166002900480601f016020809104026020016040519081016040528092919081815260200182805460018160011615610100020316600290048015610b025780601f10610ad757610100808354040283529160200191610b02565b820191906000526020600020905b815481529060010190602001808311610ae557829003601f168201915b5050505050905090565b6000610b17826119ba565b610b6c576040517f08c379a000000000000000000000000000000000000000000000000000000000815260040180806020018281038252602c815260200180612ef0602c913960400191505060405180910390fd5b6004600083815260200190815260200160002060009054906101000a900473ffffffffffffffffffffffffffffffffffffffff169050919050565b6000610bb282610e10565b90508073ffffffffffffffffffffffffffffffffffffffff168373ffffffffffffffffffffffffffffffffffffffff161415610c39576040517f08c379a0000000000000000000000000000000000000000000000000000000008152600401808060200182810382526021815260200180612fa06021913960400191505060405180910390fd5b8073ffffffffffffffffffffffffffffffffffffffff16610c586119d7565b73ffffffffffffffffffffffffffffffffffffffff161480610c875750610c8681610c816119d7565b611731565b5b610cdc576040517f08c379a0000000000000000000000000000000000000000000000000000000008152600401808060200182810382526038815260200180612e436038913960400191505060405180910390fd5b610ce683836119df565b505050565b6000610cf76002611a98565b905090565b610d0d610d076119d7565b82611aad565b610d62576040517f08c379a0000000000000000000000000000000000000000000000000000000008152600401808060200182810382526031815260200180612fc16031913960400191505060405180910390fd5b610d6d838383611ba1565b505050565b6000610dc582600160008673ffffffffffffffffffffffffffffffffffffffff1673ffffffffffffffffffffffffffffffffffffffff168152602001908152602001600020611de490919063ffffffff16565b905092915050565b610de8838383604051806020016040528060008152506113b0565b505050565b600080610e04836002611dfe90919063ffffffff16565b50905080915050919050565b6000610e4082604051806060016040528060298152602001612ea5602991396002611e2a9092919063ffffffff16565b9050919050565b606060098054600181600116156101000203166002900480601f016020809104026020016040519081016040528092919081815260200182805460018160011615610100020316600290048015610edf5780601f10610eb457610100808354040283529160200191610edf565b820191906000526020600020905b815481529060010190602001808311610ec257829003601f168201915b5050505050905090565b60008073ffffffffffffffffffffffffffffffffffffffff168273ffffffffffffffffffffffffffffffffffffffff161415610f70576040517f08c379a000000000000000000000000000000000000000000000000000000000815260040180806020018281038252602a815260200180612e7b602a913960400191505060405180910390fd5b610fb7600160008473ffffffffffffffffffffffffffffffffffffffff1673ffffffffffffffffffffffffffffffffffffffff168152602001908152602001600020611e49565b9050919050565b610fc66119d7565b73ffffffffffffffffffffffffffffffffffffffff16610fe461112e565b73ffffffffffffffffffffffffffffffffffffffff161461106d576040517f08c379a00000000000000000000000000000000000000000000000000000000081526004018080602001828103825260208152602001807f4f776e61626c653a2063616c6c6572206973206e6f7420746865206f776e657281525060200191505060405180910390fd5b600073ffffffffffffffffffffffffffffffffffffffff16600a60009054906101000a900473ffffffffffffffffffffffffffffffffffffffff1673ffffffffffffffffffffffffffffffffffffffff167f8be0079c531659141344cd1fd0a4f28419497f9722a3daafe3b4186f6b6457e060405160405180910390a36000600a60006101000a81548173ffffffffffffffffffffffffffffffffffffffff021916908373ffffffffffffffffffffffffffffffffffffffff160217905550565b6000600a60009054906101000a900473ffffffffffffffffffffffffffffffffffffffff16905090565b606060078054600181600116156101000203166002900480601f0160208091040260200160405190810160405280929190818152602001828054600181600116156101000203166002900480156111f05780601f106111c5576101008083540402835291602001916111f0565b820191906000526020600020905b8154815290600101906020018083116111d357829003601f168201915b5050505050905090565b6112026119d7565b73ffffffffffffffffffffffffffffffffffffffff168273ffffffffffffffffffffffffffffffffffffffff1614156112a3576040517f08c379a00000000000000000000000000000000000000000000000000000000081526004018080602001828103825260198152602001807f4552433732313a20617070726f766520746f2063616c6c65720000000000000081525060200191505060405180910390fd5b80600560006112b06119d7565b73ffffffffffffffffffffffffffffffffffffffff1673ffffffffffffffffffffffffffffffffffffffff16815260200190815260200160002060008473ffffffffffffffffffffffffffffffffffffffff1673ffffffffffffffffffffffffffffffffffffffff16815260200190815260200160002060006101000a81548160ff0219169083151502179055508173ffffffffffffffffffffffffffffffffffffffff1661135d6119d7565b73ffffffffffffffffffffffffffffffffffffffff167f17307eab39ab6107e8899845ad3d59bd9653f200f220920489ca2b5937696c318360405180821515815260200191505060405180910390a35050565b6113c16113bb6119d7565b83611aad565b611416576040517f08c379a0000000000000000000000000000000000000000000000000000000008152600401808060200182810382526031815260200180612fc16031913960400191505060405180910390fd5b61142284848484611e5e565b50505050565b6060611433826119ba565b611488576040517f08c379a000000000000000000000000000000000000000000000000000000000815260040180806020018281038252602f815260200180612f71602f913960400191505060405180910390fd5b6000600860008481526020019081526020016000208054600181600116156101000203166002900480601f0160208091040260200160405190810160405280929190818152602001828054600181600116156101000203166002900480156115315780601f1061150657610100808354040283529160200191611531565b820191906000526020600020905b81548152906001019060200180831161151457829003601f168201915b505050505090506000611542610e47565b90506000815114156115585781925050506116f4565b6000825111156116295780826040516020018083805190602001908083835b6020831061159a5780518252602082019150602081019050602083039250611577565b6001836020036101000a03801982511681845116808217855250505050505090500182805190602001908083835b602083106115eb57805182526020820191506020810190506020830392506115c8565b6001836020036101000a03801982511681845116808217855250505050505090500192505050604051602081830303815290604052925050506116f4565b8061163385611ed0565b6040516020018083805190602001908083835b602083106116695780518252602082019150602081019050602083039250611646565b6001836020036101000a03801982511681845116808217855250505050505090500182805190602001908083835b602083106116ba5780518252602082019150602081019050602083039250611697565b6001836020036101000a03801982511681845116808217855250505050505090500192505050604051602081830303815290604052925050505b919050565b6000611705600b612017565b6000611711600b61202d565b905061171d848261203b565b611727818461222f565b8091505092915050565b6000600560008473ffffffffffffffffffffffffffffffffffffffff1673ffffffffffffffffffffffffffffffffffffffff16815260200190815260200160002060008373ffffffffffffffffffffffffffffffffffffffff1673ffffffffffffffffffffffffffffffffffffffff16815260200190815260200160002060009054906101000a900460ff16905092915050565b6117cd6119d7565b73ffffffffffffffffffffffffffffffffffffffff166117eb61112e565b73ffffffffffffffffffffffffffffffffffffffff1614611874576040517f08c379a00000000000000000000000000000000000000000000000000000000081526004018080602001828103825260208152602001807f4f776e61626c653a2063616c6c6572206973206e6f7420746865206f776e657281525060200191505060405180910390fd5b600073ffffffffffffffffffffffffffffffffffffffff168173ffffffffffffffffffffffffffffffffffffffff1614156118fa576040517f08c379a0000000000000000000000000000000000000000000000000000000008152600401808060200182810382526026815260200180612da76026913960400191505060405180910390fd5b8073ffffffffffffffffffffffffffffffffffffffff16600a60009054906101000a900473ffffffffffffffffffffffffffffffffffffffff1673ffffffffffffffffffffffffffffffffffffffff167f8be0079c531659141344cd1fd0a4f28419497f9722a3daafe3b4186f6b6457e060405160405180910390a380600a60006101000a81548173ffffffffffffffffffffffffffffffffffffffff021916908373ffffffffffffffffffffffffffffffffffffffff16021790555050565b60006119d08260026122b990919063ffffffff16565b9050919050565b600033905090565b816004600083815260200190815260200160002060006101000a81548173ffffffffffffffffffffffffffffffffffffffff021916908373ffffffffffffffffffffffffffffffffffffffff160217905550808273ffffffffffffffffffffffffffffffffffffffff16611a5283610e10565b73ffffffffffffffffffffffffffffffffffffffff167f8c5be1e5ebec7d5bd14f71427d1e84f3dd0314c0f7b2291e5b200ac8c7c3b92560405160405180910390a45050565b6000611aa6826000016122d3565b9050919050565b6000611ab8826119ba565b611b0d576040517f08c379a000000000000000000000000000000000000000000000000000000000815260040180806020018281038252602c815260200180612e17602c913960400191505060405180910390fd5b6000611b1883610e10565b90508073ffffffffffffffffffffffffffffffffffffffff168473ffffffffffffffffffffffffffffffffffffffff161480611b8757508373ffffffffffffffffffffffffffffffffffffffff16611b6f84610b0c565b73ffffffffffffffffffffffffffffffffffffffff16145b80611b985750611b978185611731565b5b91505092915050565b8273ffffffffffffffffffffffffffffffffffffffff16611bc182610e10565b73ffffffffffffffffffffffffffffffffffffffff1614611c2d576040517f08c379a0000000000000000000000000000000000000000000000000000000008152600401808060200182810382526029815260200180612f486029913960400191505060405180910390fd5b600073ffffffffffffffffffffffffffffffffffffffff168273ffffffffffffffffffffffffffffffffffffffff161415611cb3576040517f08c379a0000000000000000000000000000000000000000000000000000000008152600401808060200182810382526024815260200180612dcd6024913960400191505060405180910390fd5b611cbe8383836122e4565b611cc96000826119df565b611d1a81600160008673ffffffffffffffffffffffffffffffffffffffff1673ffffffffffffffffffffffffffffffffffffffff1681526020019081526020016000206122e990919063ffffffff16565b50611d6c81600160008573ffffffffffffffffffffffffffffffffffffffff1673ffffffffffffffffffffffffffffffffffffffff16815260200190815260200160002061230390919063ffffffff16565b50611d838183600261231d9092919063ffffffff16565b50808273ffffffffffffffffffffffffffffffffffffffff168473ffffffffffffffffffffffffffffffffffffffff167fddf252ad1be2c89b69c2b068fc378daa952ba7f163c4a11628f55a4df523b3ef60405160405180910390a4505050565b6000611df38360000183612352565b60001c905092915050565b600080600080611e1186600001866123d5565b915091508160001c8160001c9350935050509250929050565b6000611e3d846000018460001b8461246e565b60001c90509392505050565b6000611e5782600001612564565b9050919050565b611e69848484611ba1565b611e7584848484612575565b611eca576040517f08c379a0000000000000000000000000000000000000000000000000000000008152600401808060200182810382526032815260200180612d756032913960400191505060405180910390fd5b50505050565b60606000821415611f18576040518060400160405280600181526020017f30000000000000000000000000000000000000000000000000000000000000008152509050612012565b600082905060005b60008214611f42578080600101915050600a8281611f3a57fe5b049150611f20565b60008167ffffffffffffffff81118015611f5b57600080fd5b506040519080825280601f01601f191660200182016040528015611f8e5781602001600182028036833780820191505090505b50905060006001830390508593505b6000841461200a57600a8481611faf57fe5b0660300160f81b82828060019003935081518110611fc957fe5b60200101907effffffffffffffffffffffffffffffffffffffffffffffffffffffffffffff1916908160001a905350600a848161200257fe5b049350611f9d565b819450505050505b919050565b6001816000016000828254019250508190555050565b600081600001549050919050565b600073ffffffffffffffffffffffffffffffffffffffff168273ffffffffffffffffffffffffffffffffffffffff1614156120de576040517f08c379a00000000000000000000000000000000000000000000000000000000081526004018080602001828103825260208152602001807f4552433732313a206d696e7420746f20746865207a65726f206164647265737381525060200191505060405180910390fd5b6120e7816119ba565b1561215a576040517f08c379a000000000000000000000000000000000000000000000000000000000815260040180806020018281038252601c8152602001807f4552433732313a20746f6b656e20616c7265616479206d696e7465640000000081525060200191505060405180910390fd5b612166600083836122e4565b6121b781600160008573ffffffffffffffffffffffffffffffffffffffff1673ffffffffffffffffffffffffffffffffffffffff16815260200190815260200160002061230390919063ffffffff16565b506121ce8183600261231d9092919063ffffffff16565b50808273ffffffffffffffffffffffffffffffffffffffff16600073ffffffffffffffffffffffffffffffffffffffff167fddf252ad1be2c89b69c2b068fc378daa952ba7f163c4a11628f55a4df523b3ef60405160405180910390a45050565b612238826119ba565b61228d576040517f08c379a000000000000000000000000000000000000000000000000000000000815260040180806020018281038252602c815260200180612f1c602c913960400191505060405180910390fd5b806008600084815260200190815260200160002090805190602001906122b4929190612ca7565b505050565b60006122cb836000018360001b61278e565b905092915050565b600081600001805490509050919050565b505050565b60006122fb836000018360001b6127b1565b905092915050565b6000612315836000018360001b612899565b905092915050565b6000612349846000018460001b8473ffffffffffffffffffffffffffffffffffffffff1660001b612909565b90509392505050565b6000818360000180549050116123b3576040517f08c379a0000000000000000000000000000000000000000000000000000000008152600401808060200182810382526022815260200180612d536022913960400191505060405180910390fd5b8260000182815481106123c257fe5b9060005260206000200154905092915050565b60008082846000018054905011612437576040517f08c379a0000000000000000000000000000000000000000000000000000000008152600401808060200182810382526022815260200180612ece6022913960400191505060405180910390fd5b600084600001848154811061244857fe5b906000526020600020906002020190508060000154816001015492509250509250929050565b60008084600101600085815260200190815260200160002054905060008114158390612535576040517f08c379a00000000000000000000000000000000000000000000000000000000081526004018080602001828103825283818151815260200191508051906020019080838360005b838110156124fa5780820151818401526020810190506124df565b50505050905090810190601f1680156125275780820380516001836020036101000a031916815260200191505b509250505060405180910390fd5b5084600001600182038154811061254857fe5b9060005260206000209060020201600101549150509392505050565b600081600001805490509050919050565b60006125968473ffffffffffffffffffffffffffffffffffffffff166129e5565b6125a35760019050612786565b600061270d63150b7a0260e01b6125b86119d7565b888787604051602401808573ffffffffffffffffffffffffffffffffffffffff1681526020018473ffffffffffffffffffffffffffffffffffffffff16815260200183815260200180602001828103825283818151815260200191508051906020019080838360005b8381101561263c578082015181840152602081019050612621565b50505050905090810190601f1680156126695780820380516001836020036101000a031916815260200191505b5095505050505050604051602081830303815290604052907bffffffffffffffffffffffffffffffffffffffffffffffffffffffff19166020820180517bffffffffffffffffffffffffffffffffffffffffffffffffffffffff8381831617835250505050604051806060016040528060328152602001612d75603291398773ffffffffffffffffffffffffffffffffffffffff166129f89092919063ffffffff16565b9050600081806020019051602081101561272657600080fd5b8101908080519060200190929190505050905063150b7a0260e01b7bffffffffffffffffffffffffffffffffffffffffffffffffffffffff1916817bffffffffffffffffffffffffffffffffffffffffffffffffffffffff191614925050505b949350505050565b600080836001016000848152602001908152602001600020541415905092915050565b6000808360010160008481526020019081526020016000205490506000811461288d57600060018203905060006001866000018054905003905060008660000182815481106127fc57fe5b906000526020600020015490508087600001848154811061281957fe5b906000526020600020018190555060018301876001016000838152602001908152602001600020819055508660000180548061285157fe5b60019003818190600052602060002001600090559055866001016000878152602001908152602001600020600090556001945050505050612893565b60009150505b92915050565b60006128a58383612a10565b6128fe578260000182908060018154018082558091505060019003906000526020600020016000909190919091505582600001805490508360010160008481526020019081526020016000208190555060019050612903565b600090505b92915050565b60008084600101600085815260200190815260200160002054905060008114156129b0578460000160405180604001604052808681526020018581525090806001815401808255809150506001900390600052602060002090600202016000909190919091506000820151816000015560208201518160010155505084600001805490508560010160008681526020019081526020016000208190555060019150506129de565b828560000160018303815481106129c357fe5b90600052602060002090600202016001018190555060009150505b9392505050565b600080823b905060008111915050919050565b6060612a078484600085612a33565b90509392505050565b600080836001016000848152602001908152602001600020541415905092915050565b606082471015612a8e576040517f08c379a0000000000000000000000000000000000000000000000000000000008152600401808060200182810382526026815260200180612df16026913960400191505060405180910390fd5b612a97856129e5565b612b09576040517f08c379a000000000000000000000000000000000000000000000000000000000815260040180806020018281038252601d8152602001807f416464726573733a2063616c6c20746f206e6f6e2d636f6e747261637400000081525060200191505060405180910390fd5b6000808673ffffffffffffffffffffffffffffffffffffffff1685876040518082805190602001908083835b60208310612b585780518252602082019150602081019050602083039250612b35565b6001836020036101000a03801982511681845116808217855250505050505090500191505060006040518083038185875af1925050503d8060008114612bba576040519150601f19603f3d011682016040523d82523d6000602084013e612bbf565b606091505b5091509150612bcf828286612bdb565b92505050949350505050565b60608315612beb57829050612ca0565b600083511115612bfe5782518084602001fd5b816040517f08c379a00000000000000000000000000000000000000000000000000000000081526004018080602001828103825283818151815260200191508051906020019080838360005b83811015612c65578082015181840152602081019050612c4a565b50505050905090810190601f168015612c925780820380516001836020036101000a031916815260200191505b509250505060405180910390fd5b9392505050565b828054600181600116156101000203166002900490600052602060002090601f016020900481019282612cdd5760008555612d24565b82601f10612cf657805160ff1916838001178555612d24565b82800160010185558215612d24579182015b82811115612d23578251825591602001919060010190612d08565b5b509050612d319190612d35565b5090565b5b80821115612d4e576000816000905550600101612d36565b509056fe456e756d657261626c655365743a20696e646578206f7574206f6620626f756e64734552433732313a207472616e7366657220746f206e6f6e20455243373231526563656976657220696d706c656d656e7465724f776e61626c653a206e6577206f776e657220697320746865207a65726f20616464726573734552433732313a207472616e7366657220746f20746865207a65726f2061646472657373416464726573733a20696e73756666696369656e742062616c616e636520666f722063616c6c4552433732313a206f70657261746f7220717565727920666f72206e6f6e6578697374656e7420746f6b656e4552433732313a20617070726f76652063616c6c6572206973206e6f74206f776e6572206e6f7220617070726f76656420666f7220616c6c4552433732313a2062616c616e636520717565727920666f7220746865207a65726f20616464726573734552433732313a206f776e657220717565727920666f72206e6f6e6578697374656e7420746f6b656e456e756d657261626c654d61703a20696e646578206f7574206f6620626f756e64734552433732313a20617070726f76656420717565727920666f72206e6f6e6578697374656e7420746f6b656e4552433732314d657461646174613a2055524920736574206f66206e6f6e6578697374656e7420746f6b656e4552433732313a207472616e73666572206f6620746f6b656e2074686174206973206e6f74206f776e4552433732314d657461646174613a2055524920717565727920666f72206e6f6e6578697374656e7420746f6b656e4552433732313a20617070726f76616c20746f2063757272656e74206f776e65724552433732313a207472616e736665722063616c6c6572206973206e6f74206f776e6572206e6f7220617070726f766564a264697066735822122084fdc56bee1193e5bc2d07764503d5a2dbe0568d365a7d058b4962478f41620964736f6c63430007060033a2646970667358221220085bcc8c0d04ba4d119fb3e60dcafcdb0ec6c164bdaaad78575421f56c6ee04164736f6c63430007060033",
  "immutableReferences": {},
  "source": "pragma solidity >=0.6.0 <0.8.0;\r\n\r\nimport \"@openzeppelin/contracts/token/ERC721/ERC721.sol\";\r\nimport \"@openzeppelin/contracts/utils/Counters.sol\";\r\nimport \"@openzeppelin/contracts/access/Ownable.sol\";\r\n\r\ncontract Monaliza is ERC721, Ownable {\r\n    using Counters for Counters.Counter;\r\n    Counters.Counter private _tokenIds;\r\n\r\n\r\n    constructor(string memory tokenName, string memory symbol) public ERC721(tokenName, symbol) {\r\n        //_setBaseURI(\"ipfs://\");\r\n    }\r\n\r\n    function mint(address to, string memory tokenURI) public returns (uint256){\r\n        _tokenIds.increment();\r\n        uint256 newItemId = _tokenIds.current();\r\n        _mint(to, newItemId);\r\n        _setTokenURI(newItemId, tokenURI);\r\n        return newItemId;\r\n    }\r\n\r\n    /*function tokenURI(uint256 _tokenId) external view returns (string memory);*/\r\n\r\n}\r\n\r\ncontract MonalizaContractFactory {\r\n    address[] public contracts;\r\n    address public lastContractAddress; \r\n    event Mint(uint256 newItemId); \r\n\r\n    function getContractCount() public view returns(uint contractCount) {\r\n        return contracts.length;\r\n    }\r\n\r\n    function deployNFTContract(string memory name, string memory symbol) public returns(address newContract){\r\n         Monaliza c = new Monaliza(name,symbol);\r\n         address cAddr = address(c);\r\n         contracts.push(cAddr);\r\n         lastContractAddress = cAddr;\r\n         //c.mint(to, tokenURI);   \r\n         return cAddr;\r\n    }\r\n\r\n    function mintNFT(Monaliza tokenAddress, address to, string memory tokenURI) public returns(uint256 newItemId) {\r\n\r\n      newItemId = tokenAddress.mint(to, tokenURI);\r\n      emit Mint(newItemId);\r\n      return newItemId;\r\n    }    \r\n\r\n\r\n\r\n}\r\n",
  "sourcePath": "D:\\Users\\hp\\sanjeev\\monaliza\\contracts\\MonalizaContractFactory.sol",
  "compiler": {
    "name": "solc",
    "version": "0.7.6+commit.7338295f.Emscripten.clang"
  },
  "schemaVersion": "3.4.3",
  "updatedAt": "2021-12-07T18:35:37.668Z",
  "devdoc": {
    "kind": "dev",
    "methods": {},
    "version": 1
  },
  "userdoc": {
    "kind": "user",
    "methods": {},
    "version": 1
  }
}